:020000040800F2
:1000000030410020F1020008B1240008FD1800086A
:10001000AD240008690B0008753B000800000000D3
:1000200000000000000000000000000019020008AD
:10003000630C0008000000005D020008853600081F
:100040000B0300080B0300080B0300080B03000858
:100050000B0300080B0300080B0300080B03000848
:100060000B0300080B0300080B0300080B03000838
:100070000B0300080B0300080B0300080B03000828
:100080000B0300080B0300080B0300080B03000818
:100090000B0300080B0300080B0300080B03000808
:1000A0000B0300080B0300080B0300080B030008F8
:1000B0000B0300080B0300080B0300080B030008E8
:1000C0000B0300080B0300080B0300080B030008D8
:1000D0000B030008BD370008CD3700080B030008EC
:1000E000650C00080B0300080B0300080B03000855
:1000F0000B0300080B0300080B0300080B030008A8
:100100000B0300080B0300080B0300080B03000897
:100110000B0300080B0300080B0300080B03000887
:100120000B0300080B0300080B0300080B03000877
:1001300000F002F800F061F80AA090E8000C824498
:100140008344AAF10107DA4501D100F056F8AFF275
:10015000090EBAE80F0013F0010F18BFFB1A43F0A5
:100160000103184780730000A07300000A444FF099
:10017000000C10F8013B13F0070408BF10F8014B06
:100180001D1108BF10F8015B641E05D010F8016B4B
:10019000641E01F8016BF9D113F0080F1EBF10F8AF
:1001A000014BAD1C0C1B09D16D1E58BF01F801CBD2
:1001B000FAD505E014F8016B01F8016B6D1EF9D555
:1001C0009142D6D37047000000230024002500266A
:1001D000103A28BF78C1FBD8520728BF30C148BFAA
:1001E0000B607047782900F0D980002070471FB558
:1001F00000F0B1F91FBD10B510BD00F0B5FB114600
:10020000FFF7F5FF04F03AF900F0D3FB03B4FFF772
:10021000F2FF03BC03F03CFD204B19680868B0E80E
:10022000F00F80F30988BFF36F8F4FF0000080F369
:1002300011884EF00D0E704700000000064800685F
:10024000006880F3088862B661B6BFF34F8FBFF3D2
:100250006F8F00DF00BF00BF08ED00E0EFF3098003
:10026000BFF36F8F0D4B1A6820E9F00F106008B5CF
:100270004FF0BF0080F3118805F07EFA4FF00000C8
:1002800080F31188BDE8084019680868B0E8F00FED
:1002900080F30988BFF36F8F704700BF080100200B
:1002A000EFF311804FF0BF0181F31188704780F3A5
:1002B00011887047EFF30580704700000B49D1F8B3
:1002C00000C04A685CF8043B1068184442F8040B0C
:1002D0008C4528BFA1F1DC0C8A4228BFA1F1DC02C9
:1002E000C1F800C04A6020F000407047C43A0020C6
:1002F0000948804709480047FEE7FEE7FEE7FEE7BA
:10030000FEE7FEE7FEE7FEE7FEE7FEE704480549F5
:10031000054A064B70470000A53600083101000869
:10032000303B002030410020303D0020303D002097
:10033000704700000FB4044910B503AA029800F0FA
:10034000A7FA10BC5DF814FBF000002070B504465D
:1003500085690068C10601D5302600E02026C00767
:1003600007D070BDD4E9012130469047206A401C77
:1003700020626D1EF6D570BD70B5044685690078A3
:10038000C00707D170BDD4E9012120209047206A21
:10039000401C20626D1EF6D570BD000070B504468D
:1003A0000D4621461068AFF300802188090502D56B
:1003B0000F4A7A4402E00E4A7A440E32002104F1D8
:1003C000240305E000F00F060009965D5E54491C09
:1003D0000028F7D120780023000704D5702D02D023
:1003E00009B1022311322046BDE8704000F0F6B991
:1003F0009A7000002DE9F05F894604464FF0000A2C
:10040000DFF824B1FB44C0F820A02046E16888470B
:1004100000287DD0252806D0D4E901219047206A04
:10042000401C2062F1E700255F462046E1688847CE
:100430002028064607DB312E05D2B81910F8200C0B
:1004400008B10543F1E7A80701D525F00405C4F874
:100450001CA00027C4F818A02A2E09D0304603F0AB
:1004600010FC38B304EB8708303EC8F8186019E078
:1004700059F8041B204604EB87029161E168884724
:10048000012F064618D1E069002820DA25F0200562
:100490001DE0D8F8180000EB800006EB4000303873
:1004A000C8F818002046E1688847064603F0E9FBD3
:1004B0000028EED1012F0AD02E2E08D12046E16867
:1004C00088477F1C0646022F45F02005C4DBA06943
:1004D000002803DA404245F00105A061E80701D099
:1004E00025F01005A6B1A6F14100192802D8203642
:1004F00045F400654A463146204625604D46FFF7E3
:1005000071FE60B1012807D0ED1D25F0070000E065
:1005100007E000F1080978E705F1040975E73046BE
:100520007AE7206ABDE8F09F707000000B4910B5B3
:10053000A1F17C020A4CC2E93712372106E000EB38
:10054000104342F82130074B00FB03400B1EA1F182
:100550000101F4DC10BD0120E8E70000643A00204E
:10056000E119D666CD0D010040EA010310B59B07E5
:100570000FD1042A0DD310C808C9121F9C42F8D00D
:1005800020BA19BA884201D9012010BD4FF0FF30BE
:1005900010BD1AB1D30703D0521C07E0002010BDD4
:1005A00010F8013B11F8014B1B1B07D110F8013B60
:1005B00011F8014B1B1B01D1921EF1D1184610BD41
:1005C000032A40F2308010F0030C00F0158011F87F
:1005D000013BBCF1020F624498BF11F801CB00F857
:1005E000013B38BF11F8013BA2F1040298BF00F8AB
:1005F00001CB38BF00F8013B11F0030300F0678026
:10060000083AC0F0088051F8043B083A51F804CB8E
:10061000A0E80810F5E7121D5CBF51F8043B40F854
:10062000043BAFF30080D20724BF11F8013B11F85F
:1006300001CB48BF11F8012B24BF00F8013B00F8A3
:1006400001CB48BF00F8012B7047431A28BF9A42DC
:100650007FF6B6AF032A1044114440F2268010F012
:10066000030F1EBF11F8013D521E00F8013D10F0AE
:10067000030F7FF4F6AF11F0030300F02E81083A68
:10068000C0F00B8051F8043D083A51F804CD40F811
:10069000043D40F804CDFFF7F3BF121D5CBF51F8D5
:1006A000043D40F8043DAFF30080D20724BF11F8A9
:1006B000013D11F801CD48BF11F8012C24BF00F80D
:1006C000013D00F801CD48BF00F8012C704710B57E
:1006D000203AC0F00B80B1E81850203AA0E818503A
:1006E000B1E81850A0E81850BFF4F5AF5FEA027CFB
:1006F00024BFB1E81850A0E8185044BF18C918C06A
:10070000BDE810405FEA827C24BF51F8043B40F80A
:10071000043B08BF7047D20728BF31F8023B48BFEF
:1007200011F8012B28BF20F8023B48BF00F8012B2D
:10073000704702F0FF0343EA032242EA024200F05C
:1007400002B84FF000020429C0F0128010F0030C30
:1007500000F01B80CCF1040CBCF1020F18BF00F8B4
:10076000012BA8BF20F8022BA1EB0C0100F00DB863
:100770005FEAC17C24BF00F8012B00F8012B48BFC1
:1007800000F8012B70474FF0000200B51346944665
:100790009646203922BFA0E80C50A0E80C50B1F1D9
:1007A0002001BFF4F7AF090728BFA0E80C5048BFED
:1007B0000CC05DF804EB890028BF40F8042B08BF8B
:1007C000704748BF20F8022B11F0804F18BF00F887
:1007D000012B704770477047704770472DE9F0470D
:1007E0000D4699469246044600F1240801688806A1
:1007F00004D5E06921F01001216000E00120A84249
:1008000001DD471B00E00027A1697A1902EB09000E
:10081000081AA0612078C00602D42046FFF796FD92
:10082000002608E0D4E901211AF806009047206A62
:10083000401C761C20624E45F4DB2078C0060AD5A9
:100840002046FFF783FD06E0D4E9012130209047E0
:10085000206A401C2062381EA7F10107F4DC07E083
:10086000D4E9012118F805009047206A401C206255
:10087000281EA5F10105F3DC2046FFF77DFD207859
:10088000000602D50220BDE8F0870120FBE700004A
:10089000074B70B50D467B4400F04FF804462846E0
:1008A00000F05EF810B14FF0FF3070BD204670BD13
:1008B000F7380000431A28BF9A427FF608AF104469
:1008C00010F0030F11441EBF11F8013D521E00F835
:1008D000013D10F0030F7FF4F6AF103AC0F00A802C
:1008E00010B531E91850103A20E91850BFF4F9AFAB
:1008F000BDE81040530724BF31E9081020E9081073
:1009000044BF51F8043D40F8043D12F0030F08BF06
:100910007047D20728BF31F8023D48BF11F8012CBB
:1009200028BF20F8023D48BF00F8012C70470000A6
:1009300001694A1C02610878704700B58FB0CDE9A3
:1009400001310021059105497944CDE90310114693
:100950006846FFF74FFD0FB000BD0000E5FFFFFF49
:10096000007B00F080007047754600F02BF8AE4623
:1009700005006946534620F00700854618B020B5AB
:10098000FFF7C4FCBDE820404FF000064FF0000721
:100990004FF000084FF0000B21F00701AC46ACE827
:1009A000C009ACE8C009ACE8C009ACE8C0098D4694
:1009B000704710B50446AFF300802046BDE81040F4
:1009C000FFF724BC00487047CC3A002010B5102235
:1009D0000B490C48FFF7F4FD0A49203908480E3846
:1009E000C28B0A8690F8200081F83200084601F098
:1009F000F3FE05490348203803F0BCFC10BD00009D
:100A000076010020D1390020F138002010B50022F5
:100A10004FF48171052005F0D9FC094908600022D6
:100A200001210A2005F0D2FC0649086000224FF49B
:100A30008171032005F0CAFC0349086010BD000065
:100A400000000020040000200800002010B5012054
:100A500005F098FC0449086000231A46194602482C
:100A6000006805F09BFD10BD0C0000201FB50020A4
:100A7000224A0623CDE90120009303900346C022B9
:100A80001FA1224805F02EFE0020214A0223CDE9B5
:100A9000012000930390034640221EA1204805F048
:100AA00021FE044600201F4A0523CDE901200093C2
:100AB00003900346C0221CA11E4805F013FE044605
:100AC00000201D4A0423CDE9012000930390034632
:100AD000C0221AA11D4805F005FE044600201C4A4C
:100AE0000323CDE901200093039003464FF4807265
:100AF00018A11C4805F0F6FD04461FBD1400002097
:100B000076556172745461736B0000000D5F0008CC
:100B100018000020764C65645461736B000000007F
:100B2000055200081C000020764E65745461736BFA
:100B300000000000D553000820000020765769729D
:100B4000656C65737352785461736B007D62000845
:100B50002400002076576972656C6573735478546D
:100B600061736B00D962000800BFFEE770B50246F2
:100B70000B464FF6FF70002414E012F8011B81EAC7
:100B8000000505F00F05094E36F8155085EA2010CE
:100B900080EA211505F00F0536F8155085EA20107A
:100BA000651CACB29C42E8DB70BD0000007200081E
:100BB00010B50446002001F0D3FE4FF40041074871
:100BC00000F099FD342002F0C1F8204602F0BEF892
:100BD0004FF40041014800F090FD10BD00080140B5
:100BE000014609B90B487047012901D10A48FAE7C3
:100BF000022901D10020F6E7032901D10020F2E704
:100C0000042901D10020EEE7052901D10020EAE7FF
:100C10000020E8E7600A0020880B002008B54FF4A8
:100C2000A06001F07FFC25208DF8000002208DF8E7
:100C3000010003208DF8020001208DF803006846B2
:100C400001F038FC26208DF8000003208DF801000B
:100C50008DF8020001208DF80300684601F02AFC9F
:100C600008BD704710B54FF4805000F011F830B156
:100C70004FF4805000F006F8014802F003FA10BD6E
:100C80004E03002001490860704700001404014031
:100C9000014600200022074B1B6803EA0102054BB6
:100CA00014331B680B4013B10AB1012000E000208F
:100CB0007047000000040140002123498279002A86
:100CC0003AD00A46126803689A430B461A600A1D16
:100CD000126803689A430B1D1A60027911440A686E
:100CE00003681A430A60184A0832126803689A4374
:100CF000154B08331A601A1D126803689A43124B89
:100D00000C331A604279102A0ED11A1F1268036838
:100D10001A430D4B08331A601A1D126803681A43F0
:100D2000094B0C331A600DE00749427911440A68F7
:100D300003681A430A6005E0027911440A680368EF
:100D40009A430A6070470000000401402DE9FF4FFC
:100D500083B0044689469A46E7793846F91707EB87
:100D600011714FEA2118F91707EB11710911A7EB5F
:100D7000011101F0FF0B607900F0800048B1BAF179
:100D8000000F06D0A9F109000119062201A8FFF7FA
:100D90005CFC002517E0BAF1000F09D02A010832E7
:100DA00011192A0108321019394A02F0B2FF08E07D
:100DB0002A01083211192A0108321019344A03F0A5
:100DC0000DFA681CC5B24545E5DBBBF1000F32D01A
:100DD000BAF1000F1FD0002508E000214FEA0810EB
:100DE0000830584428442154681CC5B2CBF1100087
:100DF000A842F2DC4FEA0812083211194FEA081231
:100E000008321019224A02F084FF09F11000A0EB09
:100E10000B00C6B210E04FEA0812083211194FEA6F
:100E20000812083210191A4A03F0D8F9A9F1100073
:100E30005844C6B200E04E46607900F0800058B1D8
:100E4000BAF1000F08D0E17908310819062201A98A
:100E5000FFF7FBFBB01DC6B2032E03DA002007B07C
:100E6000BDE8F08FF01E81B22046FFF77FFE0090B4
:100E700000980112F01E21540098C1B2B01E2154F6
:100E80005321701E2154059806700020E7E70000EA
:100E9000F138002030B5044604254FF4302000F02E
:100EA0006FF80546042D17D10C48006940F0020088
:100EB0000A49086108464461006940F04000086141
:100EC0004FF4302000F05CF805460448006941F614
:100ED000FD71084001490861284630BD00200240EC
:100EE00004200B49C96801F0010109B101200EE09D
:100EF0000749C96801F0040109B1022007E004496B
:100F0000C96801F0100109B1032000E00420704716
:100F1000002002400348006940F080000149086158
:100F2000704700000020024070B504460D460426BC
:100F3000F00200F025F80646042E11D10948006998
:100F400040F00100074908612580F00200F018F820
:100F500006460448006941F6FE71084001490861EF
:100F6000304670BD002002400248034948600348F3
:100F7000486070472301674500200240AB89EFCDF0
:100F800000B502460423FFF7ABFF034603E0FFF77B
:100F9000A7FF0346521E012B01D1002AF7D102B947
:100FA0000523184600BD00002DE9F0418EB006462D
:100FB0000D4617461C46342101A8FFF7E4FB4FF00D
:100FC0000008322D02DD0EB0BDE8F0812A46314620
:100FD00001A8FFF7F5FA9DF80A0040F080008DF8AF
:100FE0000A00002C04DD201DC0B28DF80B0002E0C9
:100FF00000208DF80B002246394604A8FFF7E0FADE
:1010000001A800F041FA8046424601A9024802F0D8
:1010100056FD00BFD7E70000003801402DE9F04140
:101020008EB006460D4617461C46342101A8FFF730
:10103000AAFB4FF00008322D02DD0EB0BDE8F081B2
:101040002A46314601A8FFF7BBFAFF208DF80500BC
:101050008DF806008DF807008DF808009DF80A004D
:1010600040F080008DF80A00002C04DD201DC0B285
:101070008DF80B0002E000208DF80B002246394667
:1010800004A8FFF79DFA01A800F0FEF98046424649
:1010900001A9024802F013FD00BFCEE7003801406D
:1010A0002DE9F047C0B00546884691469A464FF470
:1010B00080716846FFF767FBBAF1000F16D1A8F1FF
:1010C0000B00C2B2694605F1080002F0B2FD044609
:1010D00053200DF80400621C694605F10800FFF773
:1010E0006FFA04F1090089F8000020E0A8F1090076
:1010F000C2B2694605F1080002F07CFD04462246B2
:10110000694605F10800FFF75BFA04F1080128467B
:10111000FFF72CFD064605F1080730123855601C14
:101120003E545321A01C3954093089F8000040B0C6
:10113000BDE8F08770B5C2B0054601AC692004F87F
:10114000010B04F8010B0D2004F8010BF22004F848
:10115000010B052004F8010B1F48C07F04F8010BA8
:101160001D4890F8200004F8010B04F8015B1A48B0
:10117000C07904F8010B1848007A04F8010B1648EE
:10118000407A04F8010B0F2004F8010B002004F84A
:10119000010B9DF8061001A8FFF7E8FC0646301287
:1011A00004F8010B04F8016B962004F8010B04F815
:1011B000010B9DF80600001DC0B28DF80401074820
:1011C00000788DF8050100230A2201A9044800686F
:1011D00005F0E4F942B070BD68010020A6000020CF
:1011E000000000202DE9F047C0B004460F469046AD
:1011F00099464FF480716846FFF7C5FA4FF0000A30
:10120000B9F1000F28D1A7F1090000F0FF0A5246FA
:101210006946601D02F00DFD2949087008460078F6
:10122000C01CA070A078C043E07096200A461278D7
:101230000DF80200962122480078401C0DF800109D
:101240001F480278921C6946601DFFF7B9F9A07823
:10125000001D88F8000030E0F81F00F0FF0A524639
:101260006946601D02F0C6FC154908700846027800
:101270006946601DFFF7A4F911480078401DA07071
:10128000A078C043E0700E480178491D2046FFF762
:101290006DFC064625463012A1782C466854A0788D
:1012A000401C2E549621A078801C2954A078C01C84
:1012B0002954A078001D88F8000040B0BDE8F087F0
:1012C000600100202DE9F04FC1B007468A4616465E
:1012D00098464B9D4FF4807101A8FFF754FA70199E
:1012E0000D3000F0FF0B0BF1040101A8FFF74BFAE2
:1012F00001AC69202070607070190D30A070A0786A
:10130000C043E070207920F002002071207920F0A5
:101310000100401C20712348C07F6071214890F873
:101320002010A171E771B0F807102181407AA072F6
:10133000E07A65F30710E072E07A20F00F000F30DA
:10134000E0722573227B0DF111004A99FFF738F9FD
:10135000217B0D3101AA881832465146FFF730F93A
:10136000A17801A8FFF702FC81464FEA2920A17865
:1013700001AA5054A078401C02F800909621A07851
:10138000801C1154A078C01C1154A078021D01A922
:101390004046FFF715F9A078001DC0B241B0BDE886
:1013A000F08F0000680100202DE9F04FC1B0064623
:1013B0008A4617469846DDF828B14B9D4FF4807158
:1013C00001A8FFF7E0F901AC69202070607078197E
:1013D0001430A070A078C043E070207920F00200A3
:1013E0002071207920F0010020712648C07F6071B3
:1013F000244890F82010A1713068C4F80700706884
:10140000C4F80B001F48B0F80710A4F80F10407A7A
:101410006074A07C65F30710A074A07C20F00F001E
:101420000F30A074E574E27C594606A8FFF7C8F8AF
:10143000E17C143101AA88183A465146FFF7C0F8FA
:10144000A17801A8FFF792FB81464FEA2920A178F5
:1014500001AA5054A078401C02F800909621A07870
:10146000801C1154A078C01C1154A078021D01A941
:101470004046FFF7A5F8A078001DC0B241B0BDE816
:10148000F08F00006801002070B50446AC20207089
:10149000A07920F02000A071E0790830C5B229467B
:1014A0002046FFF763FB064630126055681CC5B244
:1014B0006655681CC5B253206055681CC5B22846E5
:1014C00070BD000030B500228B071C0F0F2303FAFC
:1014D00004F20B4B8C1053F824309343084C8D10BE
:1014E00044F8253023468C1053F824308C07240F01
:1014F00000FA04F42343024C8D1044F8253030BD2B
:10150000080001402DE9F041024600250026002098
:1015100000230024002791F803C00CF00F0591F878
:1015200003C00CF0100CBCF1000F03D091F802C006
:101530004CEA050591F800C0BCF1000F31D01468E9
:1015400000202BE04FF0010C0CFA00F3B1F800C0C2
:101550000CEA03069E4220D183004FF00F0C0CFAD8
:1015600003F7BC4305FA03FC4CEA040491F803C0FA
:10157000BCF1280F06D14FF0010C0CFA00FCC2F8A8
:1015800014C00AE091F803C0BCF1480F05D14FF038
:10159000010C0CFA00FCC2F810C0401C0828D1D382
:1015A0001460B1F800C0BCF1FF0F34DD54680020B6
:1015B0002EE000F1080C4FF0010808FA0CF3B1F826
:1015C00000C00CEA03069E4221D183004FF00F0CAD
:1015D0000CFA03F7BC4305FA03FC4CEA040491F847
:1015E00003C0BCF1280F05D100F1080C08FA0CF873
:1015F000C2F8148091F803C0BCF1480F07D100F184
:10160000080C4FF0010808FA0CF8C2F81080401CD2
:101610000828CED35460BDE8F081000070B50546BF
:10162000002001F09DF94FF40041094800F063F8F3
:10163000002404E0285D01F089FB601CC4B2082C82
:10164000F8DB4FF40041024800F057F870BD00008D
:1016500000080140F0B50A460023002400210025BF
:1016600000F00046B6F1004F02D11D4EF16901E0D5
:101670001B4E7168C0F3034583B200F44016B6F503
:10168000401F08D121F07061154E766826F0706613
:10169000134F7E6012E000F48016B6F5801F06D16D
:1016A000032606FA05F4A14341F0706106E0460DF9
:1016B000360103FA06F6B14341F0706122B1460DDE
:1016C000360103FA06F6314300F00046B6F1004F4A
:1016D00002D1034EF16101E0014E7160F0BD0000E6
:1016E000000001400246002093680B400BB101202E
:1016F00000E00020704741617047016170470000C1
:101700002DE9F04105460E4617469846002001F0A7
:1017100027F94FF400411448FFF7EDFF202001F0B6
:1017200015FB304601F012FB384601F00FFB404636
:1017300001F00CFB4FF400410B48FFF7DEFF0120E6
:1017400001F00EF9002405E0AA2001F0FFFA285567
:10175000601CC4B2082CF7DB4FF400410248FFF7CD
:10176000CCFFBDE8F08100000008014010B500206A
:1017700001F0F6F84FF400412048FFF7BCFF2220AB
:1017800001F0E4FA4FF400411C48FFF7B6FF0120D6
:1017900001F0E6F8AA2001F0D9FA19490870AA2048
:1017A00001F0D4FA16494870AA2001F0CFFA144982
:1017B0008870AA2001F0CAFA1149C870AA2001F065
:1017C000C5FA0F490871AA2001F0C0FA0C49487106
:1017D000AA2001F0BBFA000200B20949C880AA2081
:1017E00001F0B4FA0649B1F9061008430449C8806B
:1017F0004FF400410148FFF780FF10BD0008014091
:101800005406002010B5002001F0AAF84FF4004162
:101810002148FFF770FF012001F098FA4FF40041D2
:101820001D48FFF76AFF012001F09AF8AA2001F095
:101830008DFA1A490870AA2001F088FA00021749A7
:101840004880AA2001F082FA1449498808431349C4
:101850004880AA2001F07AFA10490871AA2001F004
:1018600075FA00020D49C880AA2001F06FFA0B49F1
:10187000C98808430949C880AA2001F067FA0749C6
:101880000872AA2001F062FA044948724FF400413C
:101890000148FFF732FF10BD000801405406002048
:1018A000134A937FD27F1344114A92F8202099184B
:1018B00019B90A22027042700EE0CA06920E027036
:1018C0000278521C427002780A2A05D10278921CD2
:1018D00002700278521C42700278064B9A5C064BEA
:1018E000DA714278034B9A5C034B1A72704700001E
:1018F00068010020B06D0008B200002000BFFEE7C4
:1019000010B54FF480710C48FFF7F7FE4FF40071EB
:101910000948FFF7F2FE012002F0A0FB4FF48071AE
:101920000548FFF7E8FE012002F098FB4FF4007134
:101930000148FFF7E0FE10BD000C014010B54FF468
:1019400080710C48FFF7D7FE4FF400710948FFF78C
:10195000D4FE012002F082FB4FF480710548FFF7AE
:10196000CCFE012002F07AFB4FF400710148FFF732
:10197000C2FE10BD000C014070B50546002421E0F8
:101980004FF400712648FFF7B6FE05F0800028B13D
:101990004FF480712248FFF7B0FE04E04FF48071ED
:1019A0001F48FFF7A8FE012002F058FB4FF400711A
:1019B0001B48FFF7A2FE012002F050FB6806050E4F
:1019C000601CC4B2082CDBDB4FF400711448FFF735
:1019D00092FE012002F042FB4FF480711048FFF7A5
:1019E0008CFE012002F03AFB4FF400710C48FFF727
:1019F00084FE012002F032FB01E0601CC4B24FF40F
:101A000080710748FFF76EFE08B1FF2CF5DB4FF43D
:101A100000710348FFF76FFE012002F01FFB70BD4D
:101A2000000C01404CF6CC400149086070470000B2
:101A30000030004010B500F013F810BD70B5054639
:101A40000C4645F2555000F01FF8284600F010F8FB
:101A5000204600F013F800F003F8FFF7E3FF70BD35
:101A60004AF6AA2001490860704700000030004093
:101A7000014948607047000000300040014988601B
:101A800070470000003000400149086070470000C6
:101A90000030004000B585B0012144F2040000F0A0
:101AA0005BFD4FF40070ADF8100003208DF81200BC
:101AB00018208DF8130004A93A48FFF723FD4FF4CE
:101AC0008060ADF8100048208DF8130004A9354857
:101AD000FFF718FD4FF4164000900020ADF8040009
:101AE000ADF80600ADF80800ADF80C000C20ADF81C
:101AF0000A0069462C4801F0D5FE012240F225512A
:101B0000294801F0AAFE0121274801F070FE40217A
:101B1000254801F063FE0121042000F01DFD012194
:101B2000480400F009FD0420ADF8100003208DF8F2
:101B3000120018208DF8130004A91A48FFF7E2FCE0
:101B40000820ADF8100048208DF8130004A91548AE
:101B5000FFF7D8FC4FF4165000904FF48050ADF8CA
:101B600004000020ADF806004FF48060ADF80800D6
:101B70000020ADF80C000C20ADF80A0069460B48B7
:101B800001F090FE012240F22551084801F065FE67
:101B90000121064801F02BFE4021044801F01EFE01
:101BA00005B000BD0008014000380140004400407D
:101BB00070B58EB004460D46342101A8FEF7E3FD52
:101BC00000269DF80A0040F088008DF80A000520E4
:101BD0008DF80B00FF2204210DF10500FEF7A9FD91
:101BE0009DF809001149097801F00F0108438DF8AB
:101BF00009000E480078401C0C4908708DF80C4014
:101C00000B48B0F80910ADF80D10C07A8DF80F0030
:101C10008DF8105001A8FFF737FC0646324601A99F
:101C2000044801F04CFF0EB070BD00005C010020C4
:101C3000C46F00080038014010B50446214600205A
:101C400000F046FF00F0ECFF10BD000070B5054647
:101C50000C4611480078401C0F490870084600786F
:101C6000A04213DD002008700C480D4A1278815CF8
:101C7000284600F09FF80A480078401C0849087080
:101C800008460078402801DB002008700121284622
:101C900000F0C2F870BD0000A10000204A6D0008ED
:101CA000A000002070B504460D463E480078401C58
:101CB0003C49087008460078A84271DD0020087091
:101CC000BCB93949394A1278885C002100F000FF1C
:101CD000354A36490978491C505C012100F0F8FE6C
:101CE000314A32490978891C505C012100F0F0FE2C
:101CF00049E0012C17D12E492C4A1278885C00212A
:101D000000F0E6FE2A4A29490978491C505C012165
:101D100000F0DEFE264A25490978891C505C012125
:101D200000F0D6FE2FE0022C2DD11F491F4A127859
:101D3000885C002100F0CCFE1B4A1C490978491C34
:101D4000505C012100F0C4FE174A18490978891C2B
:101D5000505C012100F0BCFE1549144A1278885CE1
:101D6000002100F0B5FE124A10490978491C505C68
:101D7000012100F0ADFE0E4A0C490978891C505C27
:101D8000012100F0A5FE00F04BFF08480078401C40
:101D90000649087008460078082801DB0020087012
:101DA00070BD00009F000020946D00089E00002080
:101DB0008A6D000870B505460E46002425B1012D38
:101DC0000DD0022D21D115E0022405E03146204638
:101DD00000F06AFEA01CC4B2122CF7DD15E001244D
:101DE00005E03146204600F05FFEA01CC4B2122C74
:101DF000F7DD0AE0012405E03146204600F054FEFC
:101E0000601CC4B2122CF7DD00BF00BF00F03EF82A
:101E100000F006FF70BD00002DE9F04105460E46BA
:101E2000002419480078C0F3800725B1012D0DD09A
:101E3000022D21D115E0022405E03146204600F0B4
:101E400047FEA01CC4B2122CF7DD15E0012405E00A
:101E50003146204600F03CFEA01CC4B2122CF7DD37
:101E60000AE0012405E03146204600F031FE601C06
:101E7000C4B2122CF7DD00BF00BF00F0D1FE00F0AD
:101E800005F8BDE8F08100009700002010B50121A1
:101E9000092000F01DFE2821092000F005FE00F0B9
:101EA000BFFE10BD30B503460C4600210DE0585C66
:101EB000655CA84201DD012030BD585C655CA8422C
:101EC00001DA0220F8E7481CC1B29142EFDB0020A2
:101ED000F2E7F0B507460D461121284600F05EF9FD
:101EE000C0F11100C4B2C4F11100C2B229193846C0
:101EF00000F016F9002609E0C4F11203DAB2631EFD
:101F00005919B81900F00CF9701CC6B2A642F3DBDF
:101F1000F0BD002104E04A1C825C42544A1CD1B24C
:101F20001029F8DB002202747047F0B504460D4614
:101F30001E460023012E13D110200BE0471EE75D43
:101F400007FB053712F800C06744B9B211540B12F1
:101F5000471EF8B20028F1DC17781F4417700DE017
:101F6000102008E0471EE75D07FB0537B9B21154A2
:101F70000B12471EF8B20028F4DC1370F0BD2DE9F7
:101F8000F04782460D4616461F461021284600F0AF
:101F900005F98046C8F1100000EB0509002403E0B4
:101FA00000203055601CC4B2112CF9DB002413E072
:101FB00019F80410012332465046FFF7B6FF3946A0
:101FC0003046FFF786FF3046FFF7A3FF394630461D
:101FD000FFF77FFF601CC4B2A8F10100A042E7DC5C
:101FE00019F80410012332465046FFF79EFF394688
:101FF0003046FFF76EFFBDE8F08700002DE9FF4F88
:1020000081B0834690461D464FF0080A1021404695
:1020100000F0C4F88146B9F1000F02D105B0BDE867
:10202000F08F102258460299FEF70FFBC9F11000FD
:1020300000EB08073C7800260BE004F0800000B1BC
:1020400009E06006040EAAF1010000F0FF0A701C0E
:10205000C6B2082EF1DB00BF6006040EAAF1010033
:1020600000F0FF0A00261CE02A46594658460E9BFF
:10207000FFF785FF1022691C5846FEF7E6FA04F0C8
:10208000800050B12A4659460E9B0298FFF777FF11
:102090001022691C5846FEF7D8FA6006040E701C20
:1020A000C6B25645E0DB7F1C00201C4908702CE0BE
:1020B0001A4800783C5C002000901EE02A465946F1
:1020C00058460E9BFFF75BFF1022691C5846FEF72F
:1020D000BCFA04F0800050B12A4659460E9B029883
:1020E000FFF74DFF1022691C5846FEF7AEFA600656
:1020F000040E0098401CC0B2009000980828DDDB58
:1021000006480078401C05490870A9F10100034900
:1021100009788842CCDC00BF80E700006501002020
:10212000F0B505460C46164630E000230021304647
:1021300029E0471EE95DE75D8F420BD1012B07D1F6
:10214000471E14F807C04F1EA7EB0C07FAB216E0A3
:10215000002214E0471EE75D8F4208DAA1EB030C72
:10216000471EE75DACEB0707FAB2002307E0A1EBDF
:10217000030C471EE75DACEB0707FAB20123471ECD
:10218000EA55421ED0B20028D3DC00BF32462146B9
:102190002846FFF787FE0228C7D1F0BD03460A464E
:1021A000002107E0585C002802DD501AC0B27047D9
:1021B000481CC1B29142F5DB0020F8E770B5044637
:1021C0000D4602221221012000F017FC24B1012C3F
:1021D0000BD0022C23D111E02946022000F078FC1C
:1021E0002946042000F074FC19E02946012000F083
:1021F0006FFC2946032000F06BFC10E0294601200B
:1022000000F066FC2946032000F062FC294602200B
:1022100000F05EFC2946042000F05AFC00BF00BF1D
:1022200000F0FEFCFFF732FE70BD70B504460D46AF
:1022300002221221012000F0E0FB24B1012C0BD07E
:10224000022C23D111E029460C2000F041FC294644
:102250000E2000F03DFC19E029460B2000F038FC70
:1022600029460D2000F034FC10E029460B2000F038
:102270002FFC29460D2000F02BFC29460C2000F0F5
:1022800027FC29460E2000F023FC00BF00BF00F011
:10229000C7FCFFF7FBFD70BD70B5054606240021A5
:1022A000084600F015FC02221221012000F0A5FBD7
:1022B000002617E0042C00D10524012101EB440184
:1022C000C8B2012100F004FC022101EB4401C8B2B4
:1022D000012100F0FDFB601CC4B2082C00DD0024CD
:1022E000701CC6B205EBD571012202EB6101B1424F
:1022F000E0DC00F095FCFFF7C9FD70BD70B5044649
:102300000D46062C2ED2DFE804F0030C151D2629FD
:1023100000210220FFF780FD14480078144908705E
:1023200021E000210220FFF777FD104800781049D6
:10233000087018E0284602F0DDFE0C4800780C49D1
:10234000087010E000210220FFF766FD07480078C2
:102350000749087007E0FFF799FD04E02846FFF7FA
:102360009BFF00E000BF00BF70BD0000990000208F
:102370009C00002070B571221649174800F010FD2E
:1023800000241EE0002509E01248401C015D1348AE
:10239000405D814200D107E0681CC5B20F48233878
:1023A00090F82200A842EFDC00BF0C48233890F8D8
:1023B0002200A84203D100210648401C0155601CA0
:1023C000C4B2E12CDEDB71220249034800F0FCFCC0
:1023D00070BD00006C02002000E800088B010020A6
:1023E0002DE9F04106460D460024002706F030078F
:1023F0003F11012F18D1284600F01CF8012801D107
:10240000BDE8F08100240DE00848005D40B90748B0
:1024100005557122411E064800F0D6FC0120EFE769
:10242000601CC4B2E12CEFDB0020E9E76D02002064
:1024300000E800080246002100BF07E00548405CB4
:10244000904201D101207047481CC1B2E129F5DB5F
:102450000020F8E76D0200200246002100BF07E0DF
:102460000548405C904201D101207047481CC1B230
:10247000E129F5DB0020F8E76D02002070B5044685
:10248000002500BF0AE0012306A22146064801F00C
:1024900001F8192001F0D6FD681CC5B20F2DF2DB42
:1024A00070BD0000310000004E03002000BFFEE7B9
:1024B0007047000070B5002100230F22C47804B3D8
:1024C000154C246804F4E064C4F5E064210AC1F109
:1024D0000403CA40447804FA03F184781440214389
:1024E00009010E4C0678A155047804F01F0501245B
:1024F000AC4005786D11AD0005F1E025C5F800414F
:1025000009E0047804F01F050124AC40044D06786E
:10251000761145F8264070BD0CED00E000E400E0C7
:1025200080E100E002490143024A11607047000067
:102530000000FA050CED00E029B1064AD269024319
:10254000044BDA6104E0034AD2698243014BDA6149
:10255000704700000010024029B1064A9269024308
:10256000044B9A6104E0034A92698243014B9A61E9
:10257000704700000010024030B500210022002406
:1025800000232D4D6D6805F00C0121B1042905D003
:10259000082923D105E0294D056022E0274D05607B
:1025A0001FE0254D6D6805F47012234D6D6805F42C
:1025B0008034022505EB92421CB9214D554305603C
:1025C0000BE01D4D6D6805F400351DB11C4D5543E4
:1025D000056002E0194D5543056002E0174D0560A6
:1025E00000BF00BF144D6D6805F0F0010909154DDD
:1025F0006B5C0568DD4045600F4D6D6805F4E0617A
:10260000090A104D6B5C4568DD4085600A4D6D68B8
:1026100005F46051C90A0B4D6B5C4568DD40C5602F
:10262000054D6D6805F44041890B074D6B5CC5682D
:10263000B5FBF3F5056130BD0010024000127A00D1
:1026400000093D00F40000200401002070B504469C
:102650000D464FF0E0218869FDF768FFFDF72EFE7B
:10266000291B491CB0FBF1F201FB12000619B0B2A4
:1026700000F002FD70BD000010B50446012C02D12F
:102680000C49087013E0012C11DD02200949087083
:10269000601EC4B208E007490878022101F086FDF7
:1026A00004490870601EC4B2601E0028F3DC0148B3
:1026B00010BD00006101002070B505460E460020E7
:1026C00000F04EF94FF400410A48FFF714F8772064
:1026D00000F03CFB002405E0AA2000F037FB285561
:1026E000601CC4B2B442F7DB4FF400410148FFF76D
:1026F00004F870BD0008014038B505460020009080
:1027000000F02EF94FF400411248FEF7F4FF1520B7
:1027100000F01CFB284600F019FB4FF400410D4867
:10272000FEF7EBFF012000F01BF900240AE0AA20CD
:1027300000F00CFB0DF804009DF801008DF800007E
:10274000601CC4B2022CF2DB4FF400410148FEF7DA
:10275000D4FF38BD0008014070B51D4890F8220034
:1027600028B940F265411B48FDF7EBFF2EE000243D
:102770002AE000250BE004EB84001649095C1448AC
:102780002330405D814200D106E0681CC5B210488C
:1027900090F82200A842EEDC00BF0D4890F822001D
:1027A000A8420FD1002004EB84010A4A505404EBE4
:1027B00084011144487004EB840011460844002150
:1027C00041800171601CC4B2E12CD2DB70BD0000FD
:1027D000680100208C3400202DE9F84305461A4F8B
:1027E00007F1100606F1110404F113081021204628
:1027F000FDF7A7FF10213846FDF7A3FF1121304652
:10280000FDF79FFF11214046FDF79BFF10220F4966
:102810003846FDF71AFF10220D49701CFDF715FF11
:1028200013220C492046FDF710FF43463A46214645
:1028300028460096FFF7E2FB207CE870607CE87198
:10284000A07CE872BDE8F883F1380020207400080D
:1028500030740008D13900201CB54FF48050244951
:10286000088041102348FEF748FF022000F004FCD6
:102870004FF400611F48FEF73EFF0A2000F0FCFB0A
:102880004FF400411B48FEF736FF022000F05EFACD
:10289000012000F05BFA002000F058FA012000F05F
:1028A00055FAC92000F052FAC32000F04FFA8020F8
:1028B00000F04CFA4FF400410E48FEF71EFF0220D4
:1028C00000F0DAFB00231A4619466846FEF718FFA7
:1028D000FEF798FF2020064908800748408844F208
:1028E0003841884201D001201CBD0020FCE70000D7
:1028F000AC000020000801405406002008B501216A
:102900000D20FFF729FE01211148FEF7A3FE4FF429
:102910000840ADF8000010208DF8030003208DF86A
:10292000020069460B48FEF7EDFD4FF408410948E7
:10293000FEF7E3FE4FF44050ADF80000694606484C
:10294000FEF7E0FD01200549086000F073F908BDBD
:102950000002300000080140000C0140BC0121428F
:1029600070B50546194804884FF400411848FEF731
:10297000C2FE442000F0EAF90EE04FF40041144892
:10298000FEF7BBFE4FF400411148FEF7B4FE4420B1
:1029900000F0DCF9601E84B2C02000F0D7F9FF28F7
:1029A00001D0002CE9D144B94FF400410848FEF7AA
:1029B000A4FE02200749087070BD25B94FF40041FC
:1029C0000348FEF79AFE00BFF6E70000AC000020C7
:1029D00000080140A400002070B505460C46FEF733
:1029E0008FFFA820FEF7C8FF2846FEF7C5FF204648
:1029F000FEF7C2FFFEF7A2FF70BD2DE9F0410446CD
:102A00000D4616460027B846A54201DABDE8F0811A
:102A1000281B401C00F0FF08FEF772FFA820FEF7FD
:102A2000ABFF2046FEF7A8FF002704E03046FEF784
:102A3000A3FF781CC7B24745F8DBFEF77FFF00BF56
:102A4000E4E7000010B500F0D5F880211248FEF749
:102A500054FE0A2001F0F6FA01211720FFF7BCFF0F
:102A600001210020FFF7B8FF0C4801781320FFF781
:102A7000B3FF0B4801781420FFF7AEFF0948017837
:102A80001520FFF7A9FF022212210120FFF7B5FF51
:102A900000F0C6F810BD0000000C014096000020B8
:102AA000970000209800002070B504460D46122CB7
:102AB00000DD70BD2CB92A4612210120FFF79DFFD1
:102AC00003E029462046FFF787FF00BFF1E700003B
:102AD00070B504460D46132C72D2DFE804F00A25C7
:102AE000262728292A43444546474861626364658E
:102AF000660065B9002215211320FFF77EFF002034
:102B00003949087039490870394908700BE03F228B
:102B100015211320FFF771FF3F2033490870334917
:102B20000870334908705DE000BF00BF00BF00BF00
:102B300000BF45B9601E012181402B4800788843C1
:102B40002949087008E0601E012101FA00F02649B9
:102B50000978084324490870234801781320FFF7B7
:102B60003BFF3FE000BF00BF00BF00BF00BF45B953
:102B7000E01F012181401D48007888431B490870EF
:102B800008E0E01F012101FA00F018490978084324
:102B900016490870154801781420FFF71DFF21E041
:102BA00000BF00BF00BF00BF00BF55B9A4F10D00BA
:102BB000012181400E48007888430D4908700AE0E1
:102BC0000FE0A4F10D00012101FA00F00849097895
:102BD000084307490870064801781520FFF7FCFEF6
:102BE00000E000BF00BF70BD9600002097000020ED
:102BF0009800002008B501210820FFF7ADFC4FF434
:102C00006070ADF8000010208DF8030003208DF8EF
:102C1000020069460148FEF775FC08BD000C014042
:102C200010B501210020FFF7D7FE00211620FFF785
:102C3000D3FE10BD00B587B001210846FFF78CFC1C
:102C400001210803FFF788FC01210820FFF784FC1D
:102C500001211E48FEF7FEFC01210846FEF7FAFCA2
:102C60003820ADF8180018208DF81B0003208DF8CF
:102C70001A0006A91648FEF745FC0021154800F089
:102C80002DF80020ADF804004FF48270ADF8060076
:102C90000020ADF80800ADF80A00ADF80C004FF4C4
:102CA0000070ADF80E002020ADF810000020ADF847
:102CB00012000A20ADF8140001A9074800F028F816
:102CC0000121054800F00AF807B000BD00023000FD
:102CD000000C0140003800400030014021B1028862
:102CE00042F04002028004E002884FF6BF731A40AF
:102CF000028070470246002013890B400BB101206F
:102D000000E0002070470146888970478181704744
:102D100010B50022028802F441520B884C882343EC
:102D20008C882343CC8823430C8923434C89234339
:102D30008C892343CC8923431A430280838B4FF22F
:102D4000FF74234083830B8A038210BD70B5054650
:102D5000002405E0601CC4B2C82C01DD002070BD59
:102D600002210E48FFF7C6FF0028F3D029460B4882
:102D7000FFF7CCFF002405E0601CC4B2C82C01DDC5
:102D80000020ECE701210548FFF7B4FF0028F3D04D
:102D90000248FFF7B8FFC0B2E1E700000030014091
:102DA00030B503460C461546002207E0184600F0F1
:102DB00008F824F812009B1C501C82B2AA42F5DBD2
:102DC00030BD0146088870472DE9F05F80468A468D
:102DD0001746B8F1006F02D33348804501D3BDE8F0
:102DE000F09FFEF7C1F8A8F1006B4FEA9B25CBF3EB
:102DF0004809C9F50074A74200DC3C464DE04FF09D
:102E0000006101EB85208A142849FFF7C9FF0026DD
:102E10000BE009EB0600254931F810004FF6FF7171
:102E2000884200D003E0701C86B2A642F1DB00BFEE
:102E3000A6421BDA4FF0006101EB8520FEF72AF86D
:102E4000002608E03AF8160006EB0901174A22F8B6
:102E50001100701C86B2A642F4DB4FF0006101EB5A
:102E600085208A14114900F023F804E022465146D7
:102E7000404600F01DF8A74200D10FE06D1C4FF056
:102E800000090AEB440AA044381B87B2B7F5007F5B
:102E900002DD4FF4007400E03C46B0E700BFFEF7EF
:102EA00039F800BF9BE70000000001085E06002023
:102EB0002DE9F04105460E461746002407E036F896
:102EC00014102846FEF730F8AD1C601C84B2BC42DA
:102ED000F5DBBDE8F08100002DE9F04105460F4625
:102EE00016464FF00008032E01DDBDE8F0810024F6
:102EF00009E004EB84001649085CA84201D14FF0B8
:102F00000108601CC4B2E12CF3DBB8F1000F1DD145
:102F1000002419E004EB84000D49085C90B904EB2F
:102F200084000D5404EB84000844467004EB8401D3
:102F3000074B19444A7804EB84011944881C39462C
:102F4000FDF73EFB601CC4B2E12CE3DB00BFCCE725
:102F50008C34002010B500F001F810BD0CB5002035
:102F6000019000903348006840F480303149086097
:102F700000BF3048006800F4003000900198401C09
:102F80000190009818B90198B0F5A06FF1D12948C7
:102F9000006800F4003010B10120009001E0002032
:102FA00000900098012843D12348006840F01000A9
:102FB000214908600846006820F0030008600846C0
:102FC000006840F0020008601A48406819494860EB
:102FD0000846406848600846406840F480604860A1
:102FE0000846406820F47C1048600846406840F479
:102FF000E81048600846006840F08070086000BF34
:103000000C48006800F000700028F9D009484068BA
:1030100020F00300074948600846406840F002007D
:10302000486000BF0348406800F00C000828F9D150
:103030000CBD0000001002400020024070B50446A4
:1030400000250020FFF78CFC4FF400410948FEF7F3
:1030500052FB00BF04E0605DFFF778FE681CC5B25C
:10306000A078001DA842F6DC4FF400410148FEF7AD
:1030700044FB70BD0008014010B50446204600F036
:10308000E1FF10BD7CB504460020009001900023B4
:103090001A4619466846FEF733FB9DF802509DF824
:1030A000046006F0010010B101206649088006F0B6
:1030B0000800082802D103206349087005F00800C1
:1030C000082806D104206149087000205D49088065
:1030D000B7E005F01000102842D15D48007868B9CB
:1030E0000421E01CFFF7E8FAE078032816DDE07819
:1030F000C01EC1B2E01DFFF7DFFA0FE055480078AF
:1031000000280BDD5249097801EB41010901091F33
:10311000E21D88184F490978FFF7CEFAFEF726FB23
:103120004D48C07860704C484078212807DB4A48F9
:103130004078262808DD48484078482804DA464880
:1031400040784649085C2070E078C01EA070207965
:10315000207003203D49087000203A49088070E043
:1031600005F0010060B339480078032869D0384879
:10317000007878B90421E01CFFF79EFA2C21E01DAD
:10318000FFF79AFAE0782F38324908700120304969
:10319000087056E02E49097801EB41010901091F29
:1031A000E21D88183021FFF787FA2A480078303866
:1031B0002849087026480078401C2549087040E0DE
:1031C00005F02000202809D100202549087006209C
:1031D0001E490870002084F8040332E005F0020064
:1031E00002282ED11E480078302816DD1D490978A6
:1031F00001EB410109013C3104F58372881830214B
:1032000000F0D8FC17480078401C16490870144894
:10321000007830381249087013E01148007800280F
:103220000FDD1049097801EB410109013C3104F53A
:10323000837288180A49097800F0BCFC002008490C
:1032400008707CBDA2000020A4000020A500002082
:10325000AA000020AB00002054060020F26D0008F8
:10326000A8000020A900002010B53F48FFF7E6FEA7
:103270003E48FFF7E3FE3E48FFF7E0FE3D48FFF71C
:10328000DDFE3D48FFF7DAFE3C48FFF7D7FE3C483D
:10329000FFF7D4FE3B48FFF7D1FE3B48FFF7CEFED9
:1032A0003A48FFF7CBFE3A48FFF7C8FE3948FFF728
:1032B000C5FE3948FFF7C2FE3848FFF7BFFE384861
:1032C000FFF7BCFE3748FFF7B9FE3748FFF7B6FEF9
:1032D0003648FFF7B3FE3648FFF7B0FE3548FFF734
:1032E000ADFE3548FFF7AAFE3448FFF7A7FE344885
:1032F000FFF7A4FE3348FFF7A1FE3348FFF79EFE19
:103300003248FFF79BFE3248FFF798FE3148FFF73F
:1033100095FE3148FFF792FE3048FFF78FFE3048A8
:10332000FFF78CFE2F48FFF789FE2F48FFF786FE38
:103330002E48FFF783FE2E48FFF780FE2D48FFF74B
:103340007DFE2D48FFF77AFE2C48FFF777FE2C48CC
:10335000FFF774FE2B48FFF771FE2B48FFF76EFE58
:103360002A48FEF75BF910BD3A6E0008406E00086F
:10337000456E00084C6E0008546E00085D6E000833
:10338000646E0008696E0008796E00089B6E000884
:10339000AB6E0008BB6E0008C26E0008C76E000866
:1033A000CE6E0008D66E0008806E0008DF6E000842
:1033B000E56E0008EB6E0008F06E0008F96E00087C
:1033C000096F0008196F0008936E0008296F000844
:1033D000876E0008B2000020346F0008446F0008B8
:1033E000546F0008646F0008746F00087E6F000857
:1033F000C2000020CA000020D2000020DA00002015
:10340000856F00088B6F0008906F0008E2000020B5
:103410001FB504460020029003904FF40051174856
:10342000FEF769F94FF480511448FEF766F900235E
:103430001A46194602A8FEF763F9114800780128D8
:1034400001D104B010BD412C00DD41240220FFF762
:1034500053F908200321CDE900100A49085D002333
:103460001A46194600F0B8F80020074908700749C5
:1034700008700120064908700020E2E7000C0140B6
:10348000A4000020B06D0008AA000020AB000020BE
:10349000A50000202DE9FE4304460E4690461D4639
:1034A000002001900290009045480078012801D149
:1034B000BDE8FE83FB2D00DDFB25412E00DD41260E
:1034C0003046FFF7A5FF28211420FFF7BFF83C483E
:1034D0000078032814D1002084F8050338490870C7
:1034E0003046FFF795FF28211420FFF7AFF8344846
:1034F0000078032804D10020324908700420D7E75F
:10350000002706E018F8071004F58370C155781CF1
:10351000C7B2AF42F6DB012084F80503E81CE07077
:10352000267101216171E078217948406179484034
:10353000A071002084F805034FF400512248FEF7E3
:10354000DCF84FF480512048FEF7D5F80320FDF752
:103550002FFB00231A46194601A8FEF7D1F80120D7
:10356000FFF7CAF83C2D0DDDA5F13C0017490870A6
:103570000421E01C00F01EFB3C2104F5837000F0E8
:1035800019FB0BE00020114908700421E01C00F039
:1035900011FB294604F5837000F00CFB0520094956
:1035A0000870012084F804030949885D2A1D302130
:1035B00000F044F800200749087000BF78E70000D9
:1035C000A4000020A5000020000C0140A80000205D
:1035D000B06D0008A90000202DE9F04707460D4610
:1035E00014461E46DDE908890020FFF7B9F94FF4BB
:1035F00000411148FEF77FF83220FFF7A7FB38465D
:10360000FFF7A4FB2846FFF7A1FBE1B20812FFF782
:103610009DFBE0B2FFF79AFB3046FFF797FB404671
:10362000FFF794FB4846FFF791FB4FF40041024837
:10363000FEF763F8BDE8F0870008014070B5064664
:103640000D4614460020FFF78BF94FF400410C485B
:10365000FEF751F83120FFF779FB3046FFF776FB94
:103660002846FFF773FBE1B20812FFF76FFBE0B2E9
:10367000FFF76CFB4FF400410148FEF73EF870BDC8
:103680000008014010B5FCF70BFE03F003F918B178
:103690004FF08050024908600020FCF708FE10BD82
:1036A00004ED00E010B51348006840F00100114936
:1036B000086008464068104908400E4948600846BE
:1036C00000680E4908400B4908600846006820F46D
:1036D000802008600846406820F4FE0048604FF4EF
:1036E0001F008860FFF736FC4FF000600449086057
:1036F00010BD0000001002400000FFF8FFFFF6FEC2
:1037000008ED00E0002202881D4B98420ED01D4BB0
:1037100098420BD0B0F1804F08D01B4B984205D097
:103720001A4B984202D01A4B984204D14FF68F732D
:103730001A404B881A43174B984207D0164B9842B1
:1037400004D04FF6FF431A40CB881A4302808B887F
:1037500083850B8803850A4B98420BD0094B98420E
:1037600008D00E4B984205D00D4B984202D00D4B1D
:10377000984201D10B7A03860123838270470000AF
:10378000002C0140003401400004004000080040CB
:10379000000C0040001000400014004000400140B8
:1037A00000440140004801404FF6FF718180002134
:1037B0000180C180418001727047000010B502484D
:1037C00000F00AF910BD0000600A002010B50248A0
:1037D00000F002F910BD0000880B002001F4007217
:1037E000B2F5007F00D100BFCA430280704721B10B
:1037F000828942F40052828104E082894DF6FF738F
:103800001A408281704770B50246002400230025CB
:10381000002040F66A16B14200D100BFC1F3421544
:1038200001F01F03012606FA03F3012D02D1968948
:10383000334006E0022D02D1168A334001E0968A19
:1038400033400C12012606FA04F41688344013B1F2
:103850000CB1012000E0002070BDF0B5034600244B
:1038600000260025002040F66A17B94200D100BFAB
:103870001846C1F3421401F01F06012707FA06F5A6
:10388000012C01D10C3004E0022C01D1103000E0F9
:1038900014301AB107682F43076002E00768AF438E
:1038A0000760F0BD2DE9F04786B005460E460024BE
:1038B000A24600BFA1460027B08900B100BF2F4635
:1038C0002C8A4CF6FF700440F08804432C82AC89AB
:1038D0004EF6F3100440B0883189084371890843DB
:1038E0000443AC81AC8A4FF6FF400440B0890443E6
:1038F000AC8201A8FEF740FE1F48874202D1DDF8E6
:1039000010A001E0DDF80CA0A88900F4004040B14F
:103910000AEBCA0000EB0A1031684900B0FBF1F86D
:1039200007E00AEBCA0000EB0A1031688900B0FB1F
:10393000F1F86420B8FBF0F004012009642101FBD8
:103940001089A88900F4004040B1322000EBC90082
:10395000B0FBF1F000F00700044308E0322000EB78
:1039600009106421B0FBF1F000F00F0004432C813A
:1039700006B0BDE8F08700000038014001468888A5
:10398000C0F308007047C1F308028280704770B529
:1039900004460D46012000F071F9668B002000F00E
:1039A0006DF90EB9002070BD218BA068405C2870B5
:1039B000012000F063F9208B401C80B22083E18954
:1039C000884201DB00202083608B401E6083002042
:1039D00000F054F90120E6E710B5044640F2255105
:1039E0002068FFF710FFE0B12068FFF7C7FFE28A09
:1039F000A1688854E08A401C80B2E082E189884254
:103A000001DB0020E082608BE189884202DA608B72
:103A1000401C6083608B012803D1606A08B1606A32
:103A2000804740F227712068FFF7EDFE08B3A08AB7
:103A300060B9002240F227712068FFF70EFF0122D3
:103A400040F226612068FFF708FF37E0638A62686A
:103A5000D15C2068FFF797FF608A401C80B26082CB
:103A6000A189884201DB00206082A08A401EA082DA
:103A700024E040F226612068FFF7C5FEF0B1A08A7D
:103A800050B9002240F226612068FFF7E6FE206A66
:103A9000A0B1206A804711E0638A6268D15C206827
:103AA000FFF771FF608A401C80B26082A189884262
:103AB00001DB00206082A08A401EA08210BD2DE99B
:103AC000F04107460C461546002601F04DFE00BFAA
:103AD00006E014F8011B384600F008F8701CC6B266
:103AE000AE42F6DB03F052F8BDE8F08100BF028879
:103AF00002F04002002AFAD081807047154816492A
:103B000008601648486016488860012088810002D5
:103B1000C881002008824882C8820883488388823E
:103B2000C861086248620F480F4908600F48486042
:103B30000F488860012088810002C8810020088227
:103B40004882C882088348838882C86108624862C4
:103B50007047000000380140600A0020EC0000209F
:103B6000880A002000440040880B0020ED0000205F
:103B7000B00B002000BFFEE710B50324FEF7BEFE29
:103B800001E0601EC4B2FEF767FE08B1002CF8D158
:103B900044B9012005490870C1020548FDF7ADFD93
:103BA000012010BDFFF760FB0020FAE7A400002011
:103BB0000008014070B505460E460020FEF7D0FE15
:103BC0004FF400410A48FDF796FD6620FFF7BEF866
:103BD000002404E0285DFFF7B9F8601CC4B2B442C9
:103BE000F8DB4FF400410248FDF787FD70BD00008F
:103BF000000801402DE9F04780460E461746002494
:103C0000A14600BF0DE018F8040000F0D8F8054602
:103C1000281206F81400012101EB44017554601CC0
:103C2000C4B2BC42EFDB78064FEA10694846BDE8F3
:103C3000F0872DE9F04706460F4615460024A146B9
:103C400000BF11E016F814004FF47F4101EA00288C
:103C5000012000EB4400305C40EA0808404600F0D8
:103C60005CF93855601CC4B2AC42EBDB284605EB6E
:103C7000D071C1F347094846BDE8F08780F310884A
:103C8000704730380A2801D2012070470020704761
:103C9000014600BF704730B5034600202EE01401F6
:103CA000042505FB00440C5D1D5C6C401C54140194
:103CB000042505FB0044641C0C5D051D5D5D6C4026
:103CC000051D5C551401042505FB0044A41C0C5D76
:103CD00000F108055D5D6C4000F108055C551401BC
:103CE000042505FB0044E41C0C5D00F10C055D5D42
:103CF0006C4000F10C055C55441CE0B20428CEDB9E
:103D000030BD10B5FFF7FAFEFDF7C4FEFCF786FFE5
:103D100010BD2DE9FF43074688469146002410E078
:103D200000250AE0042000FB0540385C042101FB6B
:103D300004510DF80100681CC5B2042DF2DB601CB3
:103D4000C4B2042CECDB002249466846FFF7A3FF0F
:103D500001260FE0684600F0C7FE684600F0A0FEAE
:103D6000684600F0A9FB324649466846FFF793FFD4
:103D7000701CC6B20A2EEDDB684600F0B5FE684640
:103D800000F08EFE0A2249466846FFF784FF0024B1
:103D900011E000250BE0042000FB04501DF800009A
:103DA000042101FB054108F80100681CC5B2042D7F
:103DB000F1DB601CC4B2042CEBDBBDE8FF8370B503
:103DC000044600262546284600F009F8060220078A
:103DD000050E284600F003F80643304670BD014644
:103DE00001F0F00040F00100021102EB601202EB62
:103DF000A01202F001020AB140F00800021102EB29
:103E0000601202EBE01202F001020AB140F004007D
:103E1000021102EBA01202EBE01202F001020AB161
:103E200040F00200704710B503780C7863401370BF
:103E300043784C786340537083788C7863409370F8
:103E4000C378CC786340D37010BDF0B504460D46FE
:103E500016462978207800F0A9F907466978E078B5
:103E600000F0A4F94740A978A07800F09FF94740F6
:103E7000E978607800F09AF94740377029786078DF
:103E800000F094F907466978207800F08FF94740F0
:103E9000A978E07800F08AF94740E978A07800F046
:103EA00085F9474077702978A07800F07FF90746B8
:103EB0006978607800F07AF94740A978207800F0B6
:103EC00075F94740E978E07800F070F94740B7703D
:103ED0002978E07800F06AF907466978A07800F060
:103EE00065F94740A978607800F060F94740E978C3
:103EF000207800F05BF94740F770F0BD70B50546DB
:103F00000E462846FCF76CFE04460CB9002070BD36
:103F100031462046FFF73BFDF9E770B5044626120F
:103F2000304600F00AF800F0F005E6B2304600F046
:103F300004F845EA2015284670BD014608460211DE
:103F400002EB601202EBA01202EBE00202F00102AF
:103F50004AB3021102EB601202EBE01202EBA00284
:103F600002F001027AB1021102EBA01202EBE012A0
:103F700002EB600202F0010212B180F0100038E0A2
:103F800080F0200035E0021102EBA01202EBE012FB
:103F900002EB600202F0010212B180F0400028E062
:103FA00080F0080025E0021102EB601202EBE01243
:103FB00002EBA00202F001027AB1021102EBA012A0
:103FC00002EBE01202EB600202F0010212B180F09B
:103FD00080000EE080F004000BE0021102EBA01262
:103FE00002EBE01202EB600202F001020AB180F083
:103FF000020070470EB501210220FEF79DFA6846C7
:10400000FFF7D2FB0020ADF806001020ADF802004B
:104010006320ADF804004720ADF800006946084869
:10402000FFF770FB00BF06481030008800F0010069
:104030000028F8D04FF6FE700149103108800EBDFF
:104040000004004010B50346002404E04FF47A70E9
:1040500000F004F8641C9C42F8D310BD411E104AC5
:1040600011800F492439098841F001010C4A243A92
:10407000118000BF0A491439098801F001010029A3
:10408000F8D04FF6FE71064A143A118004492439DB
:10409000098821F00101024A243A1180704700008A
:1040A0002404004010B5044614B1012034490870BE
:1040B0003348007848B33348006850B13148083875
:1040C000006830B13048006818B12E48001F006801
:1040D000D8B90A20FFF7B6FF0020294908702948FF
:1040E000006808B9012010BD26480838006808B9E2
:1040F0000320F8E72448006808B90520F3E72148C1
:10410000001F006898BB0720EDE71E4800680128E3
:1041100011D11C480838006801280CD11A480068E1
:10412000012808D11748001F0068012803D114494D
:1041300008700920D7E715480088401C13490880FB
:1041400008460088B0F5FA7F18DD002008800D4889
:10415000006808B90220C6E70A480838006808B9AC
:104160000420C0E70848006810B90620BBE705E056
:104170000448001F006808B90820B4E70020B2E72F
:10418000920000203C01224218812142940000202C
:1041900000BF054A128802F04002002AF9D0C2B2DC
:1041A000014B1B1D1A8070470038014030B5024694
:1041B00000200023002400BF0DE001F0010505B13F
:1041C000504002F0800455062A0E0CB182F01B020A
:1041D00049105D1CEBB2082BEFDB30BD2DE9FF432E
:1041E000074688469146002410E000250AE0042096
:1041F00000FB0540385C042101FB04510DF801006F
:10420000681CC5B2042DF2DB601CC4B2042CECDBCC
:104210000A2249466846FFF73EFD09260FE0684638
:1042200000F05EF8684600F07FF83246494668467E
:10423000FFF731FD684600F027F8701EC6B2012E68
:10424000EDDA684600F04CF8684600F06DF80022A0
:1042500049466846FFF71FFD002411E000250BE0EA
:10426000042000FB04501DF80000042101FB05415F
:1042700008F80100681CC5B2042DF1DB601CC4B253
:10428000042CEBDBBDE8FF837EB5064613A0006877
:10429000029000251EE0002407E0042000FB0450EB
:1042A000305C01A90855601CC4B2042CF5DB6A46D9
:1042B00001A902A8FFF7C9FD002407E01DF80400CA
:1042C000042101FB04517054601CC4B2042CF5DBC2
:1042D000681CC5B2042DDEDB7EBD00000E090D0B8F
:1042E00070B5014601201BE0002315E08500ED1CA0
:1042F0004C5D03220AE0042505FB00256D1E4D5D83
:10430000042606FB00268D55551EEAB2002AF2DC73
:1043100001F820405D1CEBB28342E7DB451CE8B2AC
:104320000428E1DB70BD000070B5024600201BE0F0
:10433000002115E0042505FB0015555D2B0904251A
:1043400005FB0015555D05F00F04102505FB034521
:10435000074E755D042606FB001695554D1CE9B207
:104360000429E7DB451CE8B20428E1DB70BD00004E
:10437000207300082DE9F84306460D464FF02C083F
:10438000002417E016F8241005F82410A000401CA3
:10439000315CA000401C2954A000801C315CA000AE
:1043A000801C2954A000C01C315CA000C01C2954F2
:1043B000601CC4B2042CE5DB04245BE0601E15F82D
:1043C00020008DF80000601E8000401C285C8DF8E5
:1043D0000100601E8000801C285C8DF80200601EB9
:1043E0008000C01C285C8DF80300E11704EB91717C
:1043F0008910A4EB8101A1B9684600F045FB68462D
:1044000000F098FB2746E11704EB9171C1F3870098
:10441000FEF732F981466A4649466846FFF703FDD2
:1044200000E000BF201F15F820009DF80010484054
:1044300005F82400201F8000401C285C9DF8011016
:104440004840A100491C6854201F8000801C285C43
:104450009DF802104840A100891C6854201F80006C
:10446000C01C285C9DF803104840A100C91C68547A
:10447000601CC4B24445A1DBBDE8F88310B5FFF76A
:10448000B9FDFFF73EFC01F07DF800F013FEFEF7EA
:10449000D9FA00F0D7FB00F0C3FBFCF797FAFDF761
:1044A00069FFFCF7B3FAFCF7D1FAFCF7DFFA01F089
:1044B00031F9002010BD00007EB5064613A000684B
:1044C000029000251EE0002407E0042000FB0450B9
:1044D000305C01A90855601CC4B2042CF5DB6A46A7
:1044E00001A902A8FFF7B1FC002407E01DF80400B1
:1044F000042101FB04517054601CC4B2042CF5DB90
:10450000681CC5B2042DDEDB7EBD00000201010384
:1045100010B504460E48006844600E4800688442A6
:1045200007D20B480168091D0B48006800F098FE8F
:104530000CE007480168091D0848006800F090FE7B
:1045400007480068844201D20548046010BD00009D
:10455000080100201C010020100100200C01002097
:10456000380100202DE9F04106460F461FB9B00082
:1045700000F002FA00E03846054655B1542000F03C
:10458000FBF904460CB1256304E0284600F0C0FFA7
:1045900000E000242046BDE8F081000070B523E073
:1045A00001F0E2F81348006808B9012000E000209B
:1045B000054602F0EBFABDB900F08AFF0D48C0686D
:1045C000C468201D00F0FEFA0B480068401E0A492E
:1045D00008600A480068401E0849086000F088FF2B
:1045E000204600F062F800BF044800680028D7D1D8
:1045F00070BD0000780D002018010020140100207B
:1046000070B504460D46206C70B1216CE06808441A
:10461000E0606168E068884201D32068E060284675
:10462000226CE168FBF7CCFF70BD2DE9F041044638
:104630000E4615460027206C40B9206878BB60689C
:1046400002F022FA07460020606028E07DB931467A
:10465000226CA068FBF7B4FF216CA0680844A0603E
:10466000D4E9011088421AD32068A06017E03146CF
:10467000226CE068FBF7A4FF216CE068401AE06060
:104680002168E068884203D2216C6068401AE060CB
:10469000022D04D1A06B10B1A06B401EA063A06BD3
:1046A000401CA0633846BDE8F08110B50446206B7D
:1046B00000F02EFF204600F02BFF10BD30B542F277
:1046C0002833174800F007042CB1C01D20F0070064
:1046D000134C041B1B1B0246124C22600024114D7C
:1046E0006C60D018083820F007000F4C20600024C0
:1046F0000D4D2D686C600C4D2D682C601146441AD0
:104700004C60094C24680C60084D4C682C60084DC6
:104710004C682C604FF00044064D2C6030BD00000A
:10472000A00D002040010020480100205001002081
:104730004C0100205401002000BFFFF72FFF034869
:1047400000680128F9D900F011FFF6E7B00C00204D
:104750002DE9F04704460F4615469946DDF82080BE
:10476000002607E0B95D04F134008155B85D00B959
:1047700002E0761C102EF5D300BF00214320015526
:10478000072D00D30625E56265640020A064201D86
:1047900000F063FD04F1180000F05FFD2461C5F135
:1047A0000700A06164620020E06484F85000BDE866
:1047B000F087000010B5002407E004EB84010F4AE5
:1047C00002EB810000F03CFD641C072CF5D30C4883
:1047D00000F036FD0B4800F033FD0B4800F030FDD3
:1047E0000A4800F02DFD0A4800F02AFD0448094956
:1047F000086004480849086010BD0000B00C0020A3
:104800003C0D0020500D0020640D0020780D00208C
:104810008C0D00200C0100201001002010B5014675
:10482000164800E0006803688B42FBD302464368E9
:1048300013448B4204D143684C68234443600146CF
:104840000A464B6813440468A34211D10C4C036818
:104850002468A34208D04B680468646823444B6012
:1048600003681B680B6005E0054B1B680B6001E0EB
:1048700003680B60884200D0016010BD4001002039
:104880004801002070B5054600F022FEA86B08B96B
:10489000012400E0002400F02BFE204670BD70B51E
:1048A000054600F015FEA86BE96B884201D1012492
:1048B00000E0002400F01CFE204670BD0A49096893
:1048C000096809B9012100E0002121B14FF0FF3151
:1048D000064A116006E004490968C968C868034AC5
:1048E00041681160704700000C0100203801002071
:1048F000FBF7D6FC00BFFEE710B5044600F0E8FD6C
:1049000011E0606A08B9012000E0002038B904F124
:10491000240002F0FBF818B100F060FE00E005E0B2
:10492000A06C401EA064A06C0028EADC00BF4FF021
:10493000FF30A06400F0DCFD00F0CAFD11E020694A
:1049400008B9012000E0002050B904F1100002F085
:10495000DDF808B100F042FE606C401E606400E0CB
:1049600002E0606C0028EADC00BF4FF0FF306064BA
:1049700000F0BEFD10BD00002DE9F04105464FF0EE
:10498000000800F0F1FE2B48006808B9FFF796FE1A
:10499000294800682840002847D145B1083505F06E
:1049A000070020B105F00700C0F108000544002D04
:1049B0003BD022480068854237D8214E30460468F3
:1049C00001E0264624686068A84202D220680028D8
:1049D000F7D118480068844227D0306800F10808F1
:1049E000206830606068401B102807D9671960682C
:1049F000401B786065603846FFF710FF0F4960681C
:104A00000968081A0D490860084600680D490968D8
:104A1000884203D2094800680A490860064960686C
:104A20000968084360600020206002F0AFF840464B
:104A3000BDE8F08148010020540100204C01002015
:104A400040010020500100200648006830B10549AF
:104A5000096801F14800896C491C0160014800683F
:104A60007047000008010020001F4FF080730360B2
:104A7000001F0160001F034B0360143802602038E0
:104A800070470000F14800080278002104E04B1C48
:104A9000C35C43544B1CD9B20329F8DBC270704786
:104AA00070B5014601201BE0002315E011F82040FD
:104AB00001220AE0042505FB00254E5D042505FBC7
:104AC00000256D1E4E55551CEAB2042AF2DB850006
:104AD000ED1C4C555D1CEBB28342E7DB451CE8B294
:104AE0000428E1DB70BD000070B5024600201BE029
:104AF000002115E0042505FB0015555D2B09042553
:104B000005FB0015555D05F00F04102505FB034559
:104B1000074E755D042606FB001695554D1CE9B23F
:104B20000429E7DB451CE8B20428E1DB70BD000086
:104B30002072000810B5014600200CE00A5C02F06B
:104B40000F020B5C1B09102404FB0322034B9A5C2D
:104B50000A54421CD0B20428F0DB10BD20720008B9
:104B60000246002102F030010911012901D1012082
:104B700070470020FCE7000001460A780648C07F25
:104B8000824205D14A78044890F82000824201D040
:104B9000002070470120FCE7680100200146022048
:104BA00005290DD2DFE801F0030406080A0007E03A
:104BB000012005E0002003E0022001E0022000BF08
:104BC00000BF704701460A69D1E901309860D1E918
:104BD000010358605068884201D188685060002005
:104BE00008611068401E10601068704770B5044678
:104BF0000D460A2204F10C010748FEF7E5F80A22E7
:104C000006490548FEF7CCF8142204F10C010348CC
:104C1000FBF7AAFC70BD00004EF8000876010020EA
:104C200010B50648FCF73CFEFEF7A6FF00F098F82A
:104C300002490878FEF7ECFB10BD0000A60000203A
:104C40007047000010B5002482220D490D48FEF780
:104C5000A7F80FE00C4800F0B5FE601CC4B2642C4D
:104C600005DD0024562209490948FEF728FF0A20DD
:104C700000F08AFC024800786828EBD110BD0000E3
:104C80006801002040F80008C83000208C7400083B
:104C90000038014002460B46002107E0501C405CF2
:104CA000984201D101207047481CC1B21078884257
:104CB000F4DC0020F7E7000070B505460C46E12C57
:104CC00000DD70BD0A4880F82240E1212330FBF767
:104CD00038FD2246294606482330FBF771FCE222C4
:104CE000034922310348FEF76FF800BFE9E70000EF
:104CF0006801002062F8000870B504460D461646AB
:104D00000823324629462046FCF74EF970BD0000C4
:104D100070B5C4B004460D4604F10C0600200090A6
:104D200003AB2A46214601903046FCF73DFB8DF847
:104D30000C010A208DF80D01F079FFF711FF012811
:104D400002D10A20FDF79AFB00230A2203A9034897
:104D5000006801F023FC44B070BD0000000000209A
:104D60001FB501210420FDF7F7FB4FF48050ADF88B
:104D7000000048208DF8030069461548FCF7C2FB87
:104D800001210846FDF7E8FB0C210020FCF79AFB07
:104D90004FF48050029000208DF80C000C208DF80C
:104DA0000D0001208DF80E0002A8FBF785FF2820DA
:104DB0008DF8040003208DF8050000208DF8060012
:104DC00001208DF8070001A8FDF774FB1FBD00004E
:104DD000000801402DE9F0439DB004460025A84697
:104DE000642103A8FBF7CFFC94F8009194F800210C
:104DF000214603A8FBF7E4FB607900F00F0041496E
:104E0000087094F8008160783F490978884205D19C
:104E10003D484078401C3C49487004E001203A4934
:104E20004870607808706078FDF716FB012803D1A0
:104E300036490878FDF722FB26E00020009001901B
:104E400094F80021607823462146FCF73BFA84F869
:104E5000000100230A2221462D48006801F09EFB34
:104E60004FF4C8731CAA0121002001F0A3FD0646DF
:104E7000012E07D11C9800F0010018B10020224932
:104E8000487003E0681CC5B2012DD6DB00BF012DC0
:104E90002AD1002525E0207B0D30C7B284F800819F
:104EA00094F80021E1192046FBF78AFB00230A222F
:104EB00021461748006801F071FB4FF4C8731CAA23
:104EC0000121002001F076FD0646012E07D11C9835
:104ED00000F0010018B100200B49487003E0681C85
:104EE000C5B2012DD7DB00BF002D07DD002006492C
:104EF00048704A4603A90748FEF7E1FD1DB0BDE82A
:104F0000F08300005D01002090000020A60000203A
:104F10000000002000440040F0B59DB0044600258C
:104F2000642103A8FBF72FFC94F8007194F800218A
:104F3000214603A8FBF744FB60783F490978884283
:104F400005D13D484078401C3B49487004E00120B1
:104F50003949487060780870E07CFFF701FE01284D
:104F600006D10A20FDF78AFA6178E07CFDF738FA6D
:104F7000607900F00F003149087000251DE00A201B
:104F800084F8010100230A2221462D48006801F01F
:104F900005FB4FF4C8731CAA0221002001F00AFD92
:104FA0000646012E07D11C9800F0020018B100201F
:104FB0002149487003E0681CC5B2012DDFDB00BF4A
:104FC000012D2FD100252AE000200090019094F8B7
:104FD00000212346214604F10C00FCF7E5F984F892
:104FE00000010A2084F8010100230A222146144806
:104FF000006801F0D3FA4FF4C8731CAA0221002004
:1050000001F0D8FC0646012E07D11C9800F00200E2
:1050100018B100200849487003E0681CC5B2012D92
:10502000D2DB00BF0020044948703A4603A9054876
:10503000FEF745FD1DB0F0BD8E0000205D01002093
:10504000000000200044004030B5C1B004460D46C9
:1050500000231A4629462046FBF7E0FF8DF8005151
:105060002A4621466846FBF7ABFA607900F06000FB
:10507000002806DD9DF80011012340AA6846FBF7D1
:1050800065FE0322094904F10900FBF76DFA18B91E
:105090006846FFF741FF06E0054800788DF80101FA
:1050A0006846FFF797FE41B030BD0000AF6F0008C3
:1050B000A600002008B501211820FDF74DFA4FF495
:1050C0006040ADF8000048208DF8030003208DF803
:1050D000020069460548FCF715FA4020ADF80000CB
:1050E00069460348FCF70EFA08BD000000100140B5
:1050F000000C014010B50446052C15D2DFE804F081
:105100000304090E13000FE001210846FCF784FE9A
:105110000AE001210020FCF77FFE05E001210220CA
:10512000FCF77AFE00E000BF00BF10BD70B504467A
:105130000D46062C29D2DFE804F00304090A0F10FB
:1051400023E002212846FCF781FD1EE01DE002213C
:105150002846FCF7A7FD18E017E00D480078401C32
:105160000B4908700846007814280DDD00200870EF
:1051700000210220FCF750FE06480078064908701E
:10518000064800780649087000BF00BF70BD0000E7
:105190009B0000209C000020990000209D00002022
:1051A0009A000020F8B500230522694610480068DF
:1051B00001F02FF90746012F19D16D46287800F02C
:1051C0000F06287804093046FFF7E8FC0949087003
:1051D00009480470052C03D0084600780749087078
:1051E00000200749087031462046FDF787F8F8BDD2
:1051F000040000209A000020990000209D0000205B
:105200009B00002000240020FCF716FD13E0FFF7B0
:10521000C9FF0020FEF746FF0446204600F0ECFAE6
:10522000092C05D10448017804480078FFF77EFF77
:10523000192000F0A9F9EAE79A000020990000205F
:1052400000F1080141604FF0FF31816000F1080179
:10525000C160016100210160704700210161704758
:1052600010B502460B685C1C0CB9106907E002F12E
:10527000080000E04068446824689C42FAD9446809
:105280004C604C68A160886041600A611468641CCD
:10529000146010BD42684A6093688B6093685960DF
:1052A0009160086103685B1C0360704770B5C2B011
:1052B00004460D4616462A46214601A8FBF780F90A
:1052C0001A4800788DF805019DF80A0020F080004A
:1052D0008DF80A0000208DF80B009DF80A0020F0E0
:1052E00007008DF80A0001A8FCF7CEF88DF804013C
:1052F0009DF8090000F06000002806DD9DF804110B
:10530000012341AA01A8FBF721FD3EB900230A228F
:1053100001A90748006801F041F905E09DF8042162
:1053200001A90448FEF7CBFB42B070BDA6000020E7
:10533000000000200044004070B5C4B004460D4693
:1053400016462A46214603A8FBF73AF91E4800787C
:105350008DF80D019DF8120020F080008DF81200EC
:1053600000208DF8130003A8FCF78EF88DF80C01CF
:105370009DF8110000F06000002806DD9DF80C117A
:10538000012343AA03A8FBF7E1FC00200090019051
:105390009DF80C219DF80D0003AB03A9FBF792FFCC
:1053A0008DF80C013EB900230A2203A907480068C2
:1053B00001F0F4F805E09DF80C2103A90448FEF77C
:1053C0007EFB44B070BD0000A6000020000000205D
:1053D00000440040CEB04FF00009002438A000681F
:1053E0000C90282102A8FBF7CEF900260027A04642
:1053F00065E000231E220DA93248006801F009F87B
:105400000546012D07D1282212A902A8FBF75FF952
:10541000A946002450E0B9F1010F31D12A4890F893
:105420002200A04226DD28482330005D9DF80910A7
:10543000884222D024482330005D8DF830000120BE
:105440000CA9CDE900109DF80F000B30C2B20DABD6
:1054500002A905A8FBF7A8FF8DF8340100230A2252
:105460000DA91A48006801F099F84FF4FA7000F09D
:105470008BF802E04FF000090024601CC4B21BE06E
:1054800008F101001FFA80F8B8F5966F14DD781C5A
:10549000C7B21E2F10DD00270B4890F82200B04243
:1054A00008DD3246711CCEB207492331885CFBF718
:1054B00041FE01E00026B046012000F065F898E7C3
:1054C000BBCCDD00080000206801002000000020A7
:1054D00010B5FAF7E5FE05480068401C034908606E
:1054E000BFF34F8FBFF36F8F10BD00005801002036
:1054F00010B506480068401E044908600846006868
:1055000010B90020FAF7D3FE10BD000058010020AA
:1055100070B506463546D6B1083D2C460C49606844
:105520000968084098B1206888B909496068096825
:105530008843606000F018F906496068096808440B
:10554000044908602046FFF769F901F01FFB70BDB0
:10555000540100204C01002003484FF0E021486135
:1055600007200861704700003F1901004FF080508C
:1055700003490860BFF34F8FBFF36F8F7047000080
:1055800004ED00E07047000070B504460026DCB171
:1055900000F0EAF80E48006805190E480068001D82
:1055A000FFF710FB50B90B48006890F82C10012051
:1055B0008840094909688143074801602846FEF789
:1055C000A7FF01F0E3FA06460EB9FFF7CFFF70BD63
:1055D0001C010020080100202001002001200149B9
:1055E000086070472C01002070B506460C46134831
:1055F000016818313046FFF733FE10480068001D7F
:10560000FFF7E0FA50B90D48006890F82C1001201F
:1056100088400B490968814309480160601C30B922
:1056200006480168091D0748FFF734FE05E00648F3
:10563000006805192846FEF76BFF70BD08010020C1
:10564000200100208C0D00201C01002070B50546B3
:105650002C46002D4BD02649E06A0968C96A884269
:1056600045D2A06900F0004028B921480068C06A0E
:10567000C0F10700A061E16A01EB81011D4A02EB64
:1056800081016069884201D1012000E0002050B30F
:10569000201DFFF797FA78B9E06A00EB8000154902
:1056A00051F8200040B994F82C100120884012498C
:1056B00009688143104801600D480068C06AE062D3
:1056C00094F82C10012088400B49096808430A49C6
:1056D0000860E16A01EB8101064A02EB8100211DAD
:1056E000FFF7D8FD03E002480068C06AE06270BDC1
:1056F00008010020B00C00202001002003490968A7
:1057000001600349096841607047000030010020D2
:105710001C0100201FB5002000900190029003465C
:1057200040220BA103900C4800F0DCFF0446012C42
:105730000CD1FAF7B5FDA01E084908600120084900
:10574000086000200749086000F002FE1FBD00004D
:1057500049444C450000000039470008380100204A
:10576000240100201C01002002480068401C01495F
:10577000086070473C01002010B51A48006818B155
:105780000120194908602BE00020174908601748DC
:105790000068006815490968096B884205D81348F4
:1057A000016834310068FFF74BFA11480068B0FA1D
:1057B00080F0C0F11F0101EB81020E4B03EB820070
:1057C00042685268426000F108024368934202D185
:1057D0004268526842604268D268044B1A6000BF57
:1057E00010BD00003C0100202C0100200801002019
:1057F00020010020B00C002010B504460A2C56D21F
:10580000DFE804F005061A212B2E3D404A4D4EE0FC
:1058100000210120FCF7CCF900210846FDF758F9DA
:1058200001210020FCF7CAFC22480470092222A1B1
:105830002448FEF744F93AE001210846FCF7B8F99C
:105840001C48047033E000210220FCF7B1F919482C
:10585000047000201C49087029E01648047026E0F6
:1058600000210420FCF7A4F900210846FDF730F9D7
:1058700001210020FCF7D9FC0E48047017E00D4808
:10588000047014E000210820FCF792F90948047024
:1058900000200D4908700AE00648047007E005483A
:1058A000007800F013F809200249087000BF00BF1B
:1058B00010BD000010000020313233343536373847
:1058C00039000000004400409B00002010B5044651
:1058D000092C1BD2DFE804F005060B101112171873
:1058E000190014E000210220FCF768FC0FE0002101
:1058F0000220FCF763FC0AE009E008E0002108460A
:10590000FCF793FC03E002E001E000E000BF00BF11
:1059100010BD00002DE9F04104460F4600256678D1
:10592000202E04D0212E29D0222E29D127E0002597
:1059300006E0E81C215C14A0FAF7FCFC681CC5B268
:10594000082DF6DB072221461148FDF73DFA072214
:1059500010490F48FDF724FA072221460D48FAF7AF
:1059600003FE28B912220CA11048FEF7A8F804E0A3
:1059700012220FA10D48FEF7A2F802E001E000E0BC
:1059800000BF00BFBDE8F081253032582000000084
:1059900040F80008680100200D0A4D4143B5D8D6F3
:1059A000B7C9D5C2BCB3C9B9A600000000380140D0
:1059B0000D0A4D4143B5D8D6B7C9D5C2BCCAA7B0A8
:1059C000DC00000010B5044620780D280AD161786B
:1059D000A01C01F049F918B96178A01CFFF79AFFE3
:1059E0000020207010BD70B504460D46667A032E67
:1059F0001ED005DC6EB1012E10D0022E22D112E095
:105A0000042E1AD0FF2E1DD12946204600F088F81A
:105A100019E02946204600F015F914E029462046F1
:105A200000F014F80FE02946204600F043F80AE0A1
:105A30002946204600F0D2F805E02946204600F02D
:105A400062F800E000BF00BF70BD00002DE9F0412A
:105A500004460D460127E07AA17A00EB012086B2C8
:105A6000102E0ED005DC4EB1012E08D0022E13D11F
:105A700006E0112E06D0212E0ED104E00DE00CE040
:105A80000BE00AE009E000230A2204F10C010848B7
:105A9000006800F083FD00E000BF00BF012F05D1CA
:105AA00000231A4629462046FBF77EFABDE8F0811E
:105AB0000400002010B50A46C37A847A03EB04235D
:105AC00099B240F202240B1BA14215D008DC012937
:105AD0000FD0A1F201136BB1B3F5807F10D10AE0B2
