:020000040800F2
:10000000103B0020BD02000891150008A512000851
:100010008D1500089D0A0008F9270008000000005F
:10002000000000000000000000000000E5010008E2
:10003000150B0008000000002902000885250008B3
:10004000D7020008D7020008D7020008D70200082C
:10005000D7020008D7020008D7020008D70200081C
:10006000D7020008D7020008D7020008D70200080C
:10007000D7020008D7020008D7020008D7020008FC
:10008000D7020008D7020008D7020008D7020008EC
:10009000D7020008D7020008D7020008D7020008DC
:1000A000D7020008D7020008D7020008D7020008CC
:1000B000D7020008D7020008D7020008D7020008BC
:1000C000D7020008D7020008D7020008D7020008AC
:1000D000D702000805260008D7020008D70200084A
:1000E000190B0008D7020008D7020008D702000841
:1000F000D7020008D7020008D7020008D70200087C
:10010000D7020008D7020008D7020008D70200086B
:10011000D7020008D7020008D7020008D70200085B
:10012000D7020008D7020008D7020008D70200084B
:1001300000F002F800F047F80AA090E8000C8244B2
:100140008344AAF10107DA4501D100F03CF8AFF28F
:10015000090EBAE80F0013F0010F18BFFB1A43F0A5
:10016000010318476C4A00008C4A0000103A24BF73
:1001700078C878C1FAD8520724BF30C830C144BF0C
:1001800004680C607047000000230024002500264E
:10019000103A28BF78C1FBD8520728BF30C148BFEA
:1001A0000B607047642900F00781782900F04081D6
:1001B000732900F05483002070471FB500F015FA32
:1001C0001FBD10B510BD00F0AFFB1146FFF7F5FFE6
:1001D00002F016FC00F0CDFB03B4FFF7F2FF03BC06
:1001E00002F051FB204B19680868B0E8F00F80F36B
:1001F0000988BFF36F8F4FF0000080F311884EF035
:100200000D0E70470000000006480068006880F38B
:10021000088862B661B6BFF34F8FBFF36F8F00DF00
:1002200000BF00BF08ED00E0EFF30980BFF36F8F60
:100230000D4B1A6820E9F00F106008B54FF0BF00B1
:1002400080F3118803F0E2F94FF0000080F3118889
:10025000BDE8084019680868B0E8F00F80F3098825
:10026000BFF36F8F704700BF90000020EFF3118045
:100270004FF0BF0181F31188704780F311887047F8
:10028000EFF30580704700000B49D1F800C04A68C1
:100290005CF8043B1068184442F8040B8C4528BFF6
:1002A000A1F1DC0C8A4228BFA1F1DC02C1F800C038
:1002B0004A6020F000407047A83400200948804779
:1002C00009480047FEE7FEE7FEE7FEE7FEE7FEE738
:1002D000FEE7FEE7FEE7FEE704480549054A064B50
:1002E00070470000A52500083101000810350020E6
:1002F000103B00201037002010370020704700000E
:100300000FB4044910B503AA029800F0ADFA10BC6E
:100310005DF814FB7800002070B50446856900681C
:10032000C10601D5302600E02026C00707D070BDE9
:10033000D4E9012130469047206A401C20626D1E9E
:10034000F6D570BD70B5044685690078C00707D141
:1003500070BDD4E9012120209047206A401C206212
:100360006D1EF6D570BD70B50C460546012A05D048
:100370002878800600D5EA69002302E0012305E021
:100380005B1C934202D2E05C0028F9D1A869E61810
:10039000C01AA861286A184428622846FFF7BCFFE3
:1003A00004E0D5E9012114F8010B9047B442F8D3D9
:1003B0002846FFF7C7FF70BD2DE9F041064600242F
:1003C00010687529314616A510D0AFF300800028BB
:1003D00002DA404213A507E031688A0701D512A569
:1003E00002E0490704D511A5012401E0AFF3008024
:1003F00000210A2206F1240709E0B0FBF2FCB0FB61
:10040000F2F302FB1C00303078541846491C0028D7
:10041000F3D123462A463046BDE8F04100F0B4B996
:10042000000000002D0000002B0000002000000054
:1004300070B504460D4621461068AFF30080218850
:10044000090502D50F4A7A4402E00E4A7A440E3278
:10045000002104F1240305E000F00F060009965D79
:100460005E54491C0028F7D120780023000704D5EA
:10047000702D02D009B1022311322046BDE8704030
:1004800000F082B9F24600002DE9F05F894604468B
:100490004FF0000ADFF824B1FB44C0F820A020464A
:1004A000E168884700287DD0252806D0D4E90121BD
:1004B0009047206A401C2062F1E700255F462046F5
:1004C000E16888472028064607DB312E05D2B81997
:1004D00010F8200C08B10543F1E7A80701D525F075
:1004E0000405C4F81CA00027C4F818A02A2E09D0BF
:1004F000304602F0C1F938B304EB8708303EC8F843
:10050000186019E059F8041B204604EB870291613A
:10051000E1688847012F064618D1E069002820DAF3
:1005200025F020051DE0D8F8180000EB800006EB50
:1005300040003038C8F818002046E1688847064671
:1005400002F09AF90028EED1012F0AD02E2E08D100
:100550002046E16888477F1C0646022F45F02005AB
:10056000C4DBA069002803DA404245F00105A06120
:10057000E80701D025F01005A6B1A6F14100192821
:1005800002D8203645F400654A46314620462560AB
:100590004D46FFF707FE60B1012807D0ED1D25F09D
:1005A000070000E007E000F1080978E705F1040919
:1005B00075E730467AE7206ABDE8F09FC84600003C
:1005C0000B4910B5A1F17C020A4CC2E93712372160
:1005D00006E000EB104342F82130074B00FB0340DC
:1005E0000B1EA1F10101F4DC10BD0120E8E70000C1
:1005F00048340020E119D666CD0D010040EA010320
:1006000010B59B070FD1042A0DD310C808C9121FBB
:100610009C42F8D020BA19BA884201D9012010BDF5
:100620004FF0FF3010BD1AB1D30703D0521C07E0C2
:10063000002010BD10F8013B11F8014B1B1B07D126
:1006400010F8013B11F8014B1B1B01D1921EF1D197
:10065000184610BD032A40F2308010F0030C00F061
:10066000158011F8013BBCF1020F624498BF11F8EC
:1006700001CB00F8013B38BF11F8013BA2F10402A5
:1006800098BF00F801CB38BF00F8013B11F003031D
:1006900000F0FC80083AC0F0088051F8043B083AAA
:1006A00051F804CBA0E80810F5E7121D5CBF51F823
:1006B000043B40F8043BAFF30080D20724BF11F89D
:1006C000013B11F801CB48BF11F8012B24BF00F802
:1006D000013B00F801CB48BF00F8012B704702F046
:1006E000FF0343EA032242EA024200F002B84FF05D
:1006F00000020429C0F0128010F0030C00F01B80EF
:10070000CCF1040CBCF1020F18BF00F8012BA8BFFC
:1007100020F8022BA1EB0C0100F00DB85FEAC17CC0
:1007200024BF00F8012B00F8012B48BF00F8012B73
:1007300070474FF0000200B51346944696462039A4
:1007400022BFA0E80C50A0E80C50B1F12001BFF48A
:10075000F7AF090728BFA0E80C5048BF0CC05DF8F0
:1007600004EB890028BF40F8042B08BF704748BF3E
:1007700020F8022B11F0804F18BF00F8012B7047B2
:1007800070477047704770472DE9F0470D4699460E
:100790009246044600F124080168880604D5E06901
:1007A00021F01001216000E00120A84201DD471B7B
:1007B00000E00027A1697A1902EB0900081AA0617C
:1007C0002078C00602D42046FFF7A6FD002608E0E8
:1007D000D4E901211AF806009047206A401C761CD3
:1007E00020624E45F4DB2078C0060AD52046FFF78C
:1007F00093FD06E0D4E9012130209047206A401C97
:100800002062381EA7F10107F4DC07E0D4E90121DA
:1008100018F805009047206A401C2062281EA5F1A8
:100820000105F3DC2046FFF78DFD2078000602D598
:100830000220BDE8F0870120FBE710B5436913B142
:10084000AFF3008001E0FFF78EFD012010BD1278AC
:1008500000F124010A7000224A700122EDE71168BC
:100860004FF0FF32E9E70000074B70B50D467B44BF
:1008700000F043F80446284600F052F810B14FF05B
:10088000FF3070BD204670BD7321000010B5203AC6
:10089000C0F00B80B1E81850203AA0E81850B1E839
:1008A0001850A0E81850BFF4F5AF5FEA027C24BFEF
:1008B000B1E81850A0E8185044BF18C918C0BDE8E6
:1008C00010405FEA827C24BF51F8043B40F8043BAF
:1008D00008BF7047D20728BF31F8023B48BF11F864
:1008E000012B28BF20F8023B48BF00F8012B7047BE
:1008F00001694A1C02610878704700B58FB0CDE9E4
:1009000001310021059105497944CDE903101146D3
:100910006846FFF7B9FD0FB000BD0000E5FFFFFF1F
:10092000007B00F080007047754600F02BF8AE4663
:1009300005006946534620F00700854618B020B5EB
:10094000FFF7CAFCBDE820404FF000064FF000075B
:100950004FF000084FF0000B21F00701AC46ACE867
:10096000C009ACE8C009ACE8C009ACE8C0098D46D4
:10097000704710B50446AFF300802046BDE8104034
:10098000FFF72ABC00487047B034002010B50022A1
:100990004FF48171052003F0D1FA05490860002267
:1009A00004210A2003F0CAFA0249086010BD0000C1
:1009B000000000200400002010B5012003F09AFA86
:1009C0000449086000231A4619460248006803F0EB
:1009D0009DFB10BD080000201FB50020194A02230E
:1009E000CDE90120009303900346802216A1194807
:1009F00003F030FC0020184A0323CDE901200093C6
:100A000003900346802215A1174803F023FC002021
:100A1000164A0423CDE90120009303900346802267
:100A200013A1174803F016FC0020164A0523CDE950
:100A30000120009303900346802213A1164803F07F
:100A400009FC1FBD14000020764C65645461736B73
:100A500000000000ED31000818000020764B657999
:100A60005461736B00000000DD3100081C000020A1
:100A700076576972656C65737352785461736B0055
:100A8000D93D00082000002076576972656C6573B7
:100A90007354785461736B00713E000800BFFEE729
:100AA00070B502460B464FF6FF70002414E012F8B2
:100AB000011B81EA000505F00F05094E36F81550B7
:100AC00085EA201080EA211505F00F0536F815504B
:100AD00085EA2010651CACB29C42E8DB70BD0000CA
:100AE0001C4B000810B50446002000F0F9FE4FF43E
:100AF0000041074800F0DDFA342001F0CFF820462D
:100B000001F0CCF84FF40041014800F0D4FA10BDD8
:100B1000000801407047000010B54FF4805000F00D
:100B200011F830B14FF4805000F006F8014801F0A0
:100B300013FA10BDEE020020014908607047000062
:100B400014040140014600200022074B1B6803EA01
:100B50000102054B14331B680B4013B10AB101208D
:100B600000E00020704700000004014000212349FC
:100B70008279002A3AD00A46126803689A430B46E3
:100B80001A600A1D126803689A430B1D1A600279E5
:100B900011440A6803681A430A60184A0832126846
:100BA00003689A43154B08331A601A1D12680368CC
:100BB0009A43124B0C331A604279102A0ED11A1F35
:100BC000126803681A430D4B08331A601A1D126825
:100BD00003681A43094B0C331A600DE00749427948
:100BE00011440A6803681A430A6005E00279114457
:100BF0000A6803689A430A607047000000040140D5
:100C000030B5044604254FF4302000F06FF8054657
:100C1000042D17D10C48006940F002000A49086110
:100C200008464461006940F0400008614FF43020FC
:100C300000F05CF805460448006941F6FD71084083
:100C400001490861284630BD0020024004200B49BC
:100C5000C96801F0010109B101200EE00749C96826
:100C600001F0040109B1022007E00449C96801F05C
:100C7000100109B1032000E0042070470020024069
:100C80000348006940F08000014908617047000096
:100C90000020024070B504460D460426F00200F024
:100CA00025F80646042E11D10948006940F00100DC
:100CB000074908612580F00200F018F8064604484C
:100CC000006941F6FE71084001490861304670BD77
:100CD00000200240024803494860034848607047CA
:100CE0002301674500200240AB89EFCD00B50246E5
:100CF0000423FFF7ABFF034603E0FFF7A7FF03461C
:100D0000521E012B01D1002AF7D102B90523184642
:100D100000BD000070B58EB005460C46342101A818
:100D2000FFF707FD0026322C01DD0EB070BD224614
:100D3000294601A8FFF78EFC9DF80A0040F08000CC
:100D40008DF80A0000208DF80B0001A800F07AF859
:100D50000646324601A9024801F035FD00BFE4E72E
:100D6000003801402DE9F04FC1B006468A461746CB
:100D70009846DDF828B14B9D4FF4807101A8FFF72C
:100D8000D8FC01AC69202070607078191430A07014
:100D9000A078C043E070207920F002002071207913
:100DA00020F0010020712648C07F6071244890F82F
:100DB0002010A1713068C4F807007068C4F80B00F7
:100DC0001F48B0F80710A4F80F10407A6074A07C98
:100DD00065F30710A074A07C20F00F000F30A07402
:100DE000E574E27C594606A8FFF734FCE17C143137
:100DF00001AA88183A465146FFF72CFCA17801A8B1
:100E0000FFF74EFE81464FEA2920A17801AA5054EF
:100E1000A078401C02F800909621A078801C115404
:100E2000A078C01C1154A078021D01A94046FFF70C
:100E300011FCA078001DC0B241B0BDE8F08F0000E9
:100E4000EA01002070B50446AC202070A07920F0A3
:100E50002000A071E0790830C5B229462046FFF78E
:100E60001FFE064630126055681CC5B26655681CE8
:100E7000C5B253206055681CC5B2284670BD00003D
:100E800030B500228B071C0F0F2303FA04F20B4B23
:100E90008C1053F824309343084C8D1044F82530BF
:100EA00023468C1053F824308C07240F00FA04F4E6
:100EB0002343024C8D1044F8253030BD080001401A
:100EC0002DE9F041024600250026002000230024E1
:100ED000002791F803C00CF00F0591F803C00CF047
:100EE000100CBCF1000F03D091F802C04CEA0505CC
:100EF00091F800C0BCF1000F31D0146800202BE045
:100F00004FF0010C0CFA00F3B1F800C00CEA030634
:100F10009E4220D183004FF00F0C0CFA03F7BC4324
:100F200005FA03FC4CEA040491F803C0BCF1280F55
:100F300006D14FF0010C0CFA00FCC2F814C00AE014
:100F400091F803C0BCF1480F05D14FF0010C0CFA29
:100F500000FCC2F810C0401C0828D1D31460B1F8BE
:100F600000C0BCF1FF0F34DD546800202EE000F11A
:100F7000080C4FF0010808FA0CF3B1F800C00CEAB5
:100F800003069E4221D183004FF00F0C0CFA03F7A9
:100F9000BC4305FA03FC4CEA040491F803C0BCF11D
:100FA000280F05D100F1080C08FA0CF8C2F81480DB
:100FB00091F803C0BCF1480F07D100F1080C4FF0C5
:100FC000010808FA0CF8C2F81080401C0828CED39B
:100FD0005460BDE8F081000070B50546002000F0C7
:100FE0007FFC4FF40041094800F063F8002404E05E
:100FF000285D00F053FE601CC4B2082CF8DB4FF4EF
:101000000041024800F057F870BD000000080140A0
:10101000F0B50A46002300240021002500F0004618
:10102000B6F1004F02D11D4EF16901E01B4E71680F
:10103000C0F3034583B200F44016B6F5401F08D153
:1010400021F07061154E766826F07066134F7E6051
:1010500012E000F48016B6F5801F06D1032606FACA
:1010600005F4A14341F0706106E0460D360103FA34
:1010700006F6B14341F0706122B1460D360103FA24
:1010800006F6314300F00046B6F1004F02D1034EA0
:10109000F16101E0014E7160F0BD0000000001400F
:1010A0000246002093680B400BB1012000E00020B5
:1010B0007047416170470161704700002DE9F041C0
:1010C00005460E4617469846002000F009FC4FF4EE
:1010D00000411448FFF7EDFF202000F0DFFD30460F
:1010E00000F0DCFD384600F0D9FD404600F0D6FDAA
:1010F0004FF400410B48FFF7DEFF012000F0F0FB4A
:10110000002405E0AA2000F0C9FD2855601CC4B2E7
:10111000082CF7DB4FF400410248FFF7CCFFBDE895
:10112000F08100000008014010B5002000F0D8FB5D
:101130004FF400412048FFF7BCFF222000F0AEFD35
:101140004FF400411C48FFF7B6FF012000F0C8FB38
:10115000AA2000F0A3FD19490870AA2000F09EFD06
:1011600016494870AA2000F099FD14498870AA20F9
:1011700000F094FD1149C870AA2000F08FFD0F49BE
:101180000871AA2000F08AFD0C494871AA2000F0DD
:1011900085FD000200B20949C880AA2000F07EFD4A
:1011A0000649B1F9061008430449C8804FF40041CC
:1011B0000148FFF780FF10BD00080140F405002042
:1011C00010B5002000F08CFB4FF400412148FFF7E0
:1011D00070FF012000F062FD4FF400411D48FFF751
:1011E0006AFF012000F07CFBAA2000F057FD1A499D
:1011F0000870AA2000F052FD000217494880AA207A
:1012000000F04CFD14494988084313494880AA203E
:1012100000F044FD10490871AA2000F03FFD0002D3
:101220000D49C880AA2000F039FD0B49C988084340
:101230000949C880AA2000F031FD07490872AA2098
:1012400000F02CFD044948724FF400410148FFF7BB
:1012500032FF10BD00080140F4050020852119B9B6
:101260000A22027042700EE0CA06920E02700278E4
:10127000521C427002780A2A05D10278921C027030
:101280000278521C42700278044B9A5C044BDA716B
:101290004278024B9A5C024B1A727047CC460008A7
:1012A0003C00002000BFFEE710B54FF480710C48F1
:1012B000FFF701FF4FF400710948FFF7FCFE012022
:1012C00001F0F6FA4FF480710548FFF7F2FE0120B5
:1012D00001F0EEFA4FF400710148FFF7EAFE10BD8D
:1012E000000C014010B54FF480710C48FFF7E1FE8F
:1012F0004FF400710948FFF7DEFE012001F0D8FA33
:101300004FF480710548FFF7D6FE012001F0D0FAB6
:101310004FF400710148FFF7CCFE10BD000C0140F6
:1013200070B50546002421E04FF400712648FFF710
:10133000C0FE05F0800028B14FF480712248FFF70D
:10134000BAFE04E04FF480711F48FFF7B2FE01209F
:1013500001F0AEFA4FF400711B48FFF7ACFE01201C
:1013600001F0A6FA6806050E601CC4B2082CDBDB8F
:101370004FF400711448FFF79CFE012001F098FA29
:101380004FF480711048FFF796FE012001F090FAAB
:101390004FF400710C48FFF78EFE012001F088FA2F
:1013A00001E0601CC4B24FF480710748FFF778FE7B
:1013B00008B1FF2CF5DB4FF400710348FFF779FE0D
:1013C000012001F075FA70BD000C014070B58EB0BF
:1013D00004460D46342101A8FFF7ABF900269DF81D
:1013E0000A0040F088008DF80A0005208DF80B00F7
:1013F000FF2204210DF10500FFF771F99DF80900A6
:101400001149097801F00F0108438DF809000E48D1
:101410000078401C0C4908708DF80C400B48B0F85F
:101420000910ADF80D10C07A8DF80F008DF810502E
:1014300001A8FFF707FD0646324601A9044801F05E
:10144000C2F90EB070BD0000E4000020E0480008C2
:10145000003801402DE9F04105460E4600241A48A7
:101460000078C0F3800725B1012D0DD0022D21D1C8
:1014700015E0022405E03146204600F0D5FAA01C14
:10148000C4B2122CF7DD15E0012405E031462046F8
:1014900000F0CAFAA01CC4B2122CF7DD0AE0012445
:1014A00005E03146204600F0BFFA601CC4B2122CA1
:1014B000F7DD00BF00BF3946092000F0B5FA00F0A3
:1014C0005BFBBDE8F08100002900002070B50446F8
:1014D0000D4624B1012C0BD0022C23D111E029465A
:1014E000022000F0A1FA2946042000F09DFA19E03C
:1014F0002946012000F098FA2946032000F094FACA
:1015000010E02946012000F08FFA2946032000F060
:101510008BFA2946022000F087FA2946042000F0C1
:1015200083FA00BF00BF00F027FB70BD70B5044612
:101530000D4624B1012C0BD0022C23D111E02946F9
:101540000C2000F071FA29460E2000F06DFA19E027
:1015500029460B2000F068FA29460D2000F064FAB5
:1015600010E029460B2000F05FFA29460D2000F01C
:101570005BFA29460C2000F057FA29460E2000F0AD
:1015800053FA00BF00BF00F0F7FA70BD00BFFEE7DE
:101590007047000070B5002100230F22C47804B307
:1015A000154C246804F4E064C4F5E064210AC1F138
:1015B0000403CA40447804FA03F1847814402143B8
:1015C00009010E4C0678A155047804F01F0501248A
:1015D000AC4005786D11AD0005F1E025C5F800417E
:1015E00009E0047804F01F050124AC40044D06789E
:1015F000761145F8264070BD0CED00E000E400E0F7
:1016000080E100E002490143024A11607047000096
:101610000000FA050CED00E029B1064A9269024388
:10162000044B9A6104E0034A92698243014B9A6138
:10163000704700000010024030B500210022002455
:1016400000232D4D6D6805F00C0121B1042905D052
:10165000082923D105E0294D056022E0274D0560CA
:101660001FE0254D6D6805F47012234D6D6805F47B
:101670008034022505EB92421CB9214D554305608B
:101680000BE01D4D6D6805F400351DB11C4D554333
:10169000056002E0194D5543056002E0174D0560F5
:1016A00000BF00BF144D6D6805F0F0010909154D2C
:1016B0006B5C0568DD4045600F4D6D6805F4E061C9
:1016C000090A104D6B5C4568DD4085600A4D6D6808
:1016D00005F46051C90A0B4D6B5C4568DD40C5607F
:1016E000054D6D6805F44041890B074D6B5CC5687D
:1016F000B5FBF3F5056130BD0010024000127A0021
:1017000000093D007C0000208C00002070B50446DC
:101710000D464FF0E0218869FEF752FFFEF7B4FD59
:10172000291B491CB0FBF1F201FB12000619B0B2F3
:1017300000F00CFC70BD000070B505460E460020A0
:1017400000F0CEF84FF400410A48FFF7B2FC7720D2
:1017500000F0A4FA002405E0AA2000F09FFA285522
:10176000601CC4B2B442F7DB4FF400410148FFF7FC
:10177000A2FC70BD0008014038B50546002000906D
:1017800000F0AEF84FF400411248FFF792FC15202C
:1017900000F084FA284600F081FA4FF400410D4829
:1017A000FFF789FC012000F09BF800240AE0AA2042
:1017B00000F074FA0DF804009DF801008DF80000A7
:1017C000601CC4B2022CF2DB4FF400410148FFF769
:1017D00072FC38BD000801401CB54FF4805024490C
:1017E000088041102348FFF766FC022000F0AEFBA2
:1017F0004FF400611F48FFF75CFC0A2000F0A6FBD5
:101800004FF400411B48FFF754FC022000F046FA59
:10181000012000F043FA002000F040FA012000F01F
:101820003DFAC92000F03AFAC32000F037FA8020D0
:1018300000F034FA4FF400410E48FFF73CFC022060
:1018400000F084FB00231A4619466846FFF736FC71
:10185000FFF7B6FC2020064908800748408844F27C
:101860003841884201D001201CBD0020FCE7000067
:101870003600002000080140F405002008B50121D1
:101880000D20FFF7C9FE01211148FFF7C1FB4FF4FE
:101890000840ADF8000010208DF8030003208DF8FB
:1018A000020069460B48FFF70BFB4FF4084109485B
:1018B000FFF701FC4FF44050ADF8000069460648C0
:1018C000FFF7FEFA01200549086000F05BF908BD4A
:1018D0000002300000080140000C0140BC01214220
:1018E00070B50546194804884FF400411848FFF7C1
:1018F000E0FB442000F0D2F90EE04FF40041144820
:10190000FFF7D9FB4FF400411148FFF7D2FB442009
:1019100000F0C4F9601E84B2C02000F0BFF9FF28B7
:1019200001D0002CE9D144B94FF400410848FFF739
:10193000C2FB02200749087070BD25B94FF4004171
:101940000348FFF7B8FB00BFF6E7000036000020B1
:10195000000801402E00002070B505460C46FFF738
:10196000A3FCA820FFF7DCFC2846FFF7D9FC2046A3
:10197000FFF7D6FCFFF7B6FC70BD2DE9F041044639
:101980000D4616460027B846A54201DABDE8F081AB
:10199000281B401C00F0FF08FFF786FCA820FFF77B
:1019A000BFFC2046FFF7BCFC002704E03046FFF7F1
:1019B000B7FC781CC7B24745F8DBFFF793FC00BFC4
:1019C000E4E7000010B500F0C1F880211248FFF7ED
:1019D00072FB0A2000F060FF01211720FFF7BCFF17
:1019E00001210020FFF7B8FF0C4801781320FFF712
:1019F000B3FF0B4801781420FFF7AEFF09480178C8
:101A00001520FFF7A9FF022212210120FFF7B5FFE1
:101A100000F0B2F810BD0000000C014028000020CA
:101A2000290000202A00002070B504460D46132C22
:101A300072D2DFE804F00A25262728292A434445E4
:101A40004647486162636465660065B900221521F6
:101A50001320FFF792FF00203949087039490870B8
:101A6000394908700BE03F2215211320FFF785FF4D
:101A70003F203349087033490870334908705DE0EE
:101A800000BF00BF00BF00BF00BF45B9601E0121FD
:101A900081402B48007888432949087008E0601E7F
:101AA000012101FA00F02649097808432449087009
:101AB000234801781320FFF74FFF3FE000BF00BF2E
:101AC00000BF00BF00BF45B9E01F012181401D4894
:101AD000007888431B49087008E0E01F012101FAE3
:101AE00000F018490978084316490870154801782C
:101AF0001420FFF731FF21E000BF00BF00BF00BF8F
:101B000000BF55B9A4F10D00012181400E480078B5
:101B100088430D4908700AE00FE0A4F10D0001218F
:101B200001FA00F008490978084307490870064897
:101B300001781520FFF710FF00E000BF00BF70BD67
:101B400028000020290000202A00002008B50121DB
:101B50000820FFF761FD4FF46070ADF80000102021
:101B60008DF8030003208DF8020069460148FFF755
:101B7000A7F908BD000C014010B500211620FFF7A1
:101B8000EBFE10BD00B587B001210846FFF744FD0C
:101B900001210803FFF740FD01210820FFF73CFD6C
:101BA00001211E48FFF734FA01210846FFF730FAF9
:101BB0003820ADF8180018208DF81B0003208DF890
:101BC0001A0006A91648FFF77BF90021154800F016
:101BD0002DF80020ADF804004FF48270ADF8060037
:101BE0000020ADF80800ADF80A00ADF80C004FF485
:101BF0000070ADF80E002020ADF810000020ADF808
:101C000012000A20ADF8140001A9074800F028F8D6
:101C10000121054800F00AF807B000BD00023000BD
:101C2000000C0140003800400030014021B1028822
:101C300042F04002028004E002884FF6BF731A406F
:101C4000028070470246002013890B400BB101202F
:101C500000E0002070470146888970478181704705
:101C600010B50022028802F441520B884C882343AD
:101C70008C882343CC8823430C8923434C892343FA
:101C80008C892343CC8923431A430280838B4FF2F0
:101C9000FF74234083830B8A038210BD70B5054611
:101CA000002405E0601CC4B2C82C01DD002070BD1A
:101CB00002210E48FFF7C6FF0028F3D029460B4843
:101CC000FFF7CCFF002405E0601CC4B2C82C01DD86
:101CD0000020ECE701210548FFF7B4FF0028F3D00E
:101CE0000248FFF7B8FFC0B2E1E700000030014052
:101CF00030B503460C461546002207E0184600F0B2
:101D000008F824F812009B1C501C82B2AA42F5DB92
:101D100030BD0146088870472DE9F05F80468A464D
:101D20001746B8F1006F02D33348804501D3BDE8B0
:101D3000F09FFEF7CFFFA8F1006B4FEA9B25CBF396
:101D40004809C9F50074A74200DC3C464DE04FF05D
:101D5000006101EB85208A142849FFF7C9FF00269E
:101D60000BE009EB0600254931F810004FF6FF7132
:101D7000884200D003E0701C86B2A642F1DB00BFAF
:101D8000A6421BDA4FF0006101EB8520FEF738FF19
:101D9000002608E03AF8160006EB0901174A22F877
:101DA0001100701C86B2A642F4DB4FF0006101EB1B
:101DB00085208A14114900F023F804E02246514698
:101DC000404600F01DF8A74200D10FE06D1C4FF017
:101DD00000090AEB440AA044381B87B2B7F5007F1C
:101DE00002DD4FF4007400E03C46B0E700BFFEF7B0
:101DF00047FF00BF9BE7000000000108FE05002030
:101E00002DE9F04105460E461746002407E036F856
:101E100014102846FEF73EFFAD1C601C84B2BC4285
:101E2000F5DBBDE8F08110B500F002F810BD000050
:101E30000CB50020019000903348006840F48030D9
:101E40003149086000BF3048006800F4003000905D
:101E50000198401C0190009818B90198B0F5A06F46
:101E6000F1D12948006800F4003010B10120009041
:101E700001E0002000900098012843D12348006829
:101E800040F01000214908600846006820F0030077
:101E900008600846006840F0020008601A48406880
:101EA000194948600846406848600846406840F460
:101EB000806048600846406820F47C10486008460E
:101EC000406840F4E81048600846006840F08070C0
:101ED000086000BF0C48006800F000700028F9D0CE
:101EE0000948406820F003000749486008464068F8
:101EF00040F00200486000BF0348406800F00C005A
:101F00000828F9D10CBD000000100240002002405A
:101F100070B5044600250020FFF7E2FC4FF40041B5
:101F20000948FFF7C6F800BF04E0605DFFF7B6FEA2
:101F3000681CC5B2A078001DA842F6DC4FF4004131
:101F40000148FFF7B8F870BD0008014010B504461D
:101F5000204600F0A1FC10BD7CB504460020009096
:101F6000019000231A4619466846FFF7A7F89DF826
:101F700002509DF8046006F0010010B10120644990
:101F8000088006F00800082802D103206149087083
:101F900005F00800082806D104205F4908700020D9
:101FA0005B490880B3E005F01000102842D15B487F
:101FB000007868B90421E01CFFF7BEFBE078032835
:101FC00016DDE078C01EC1B2E01DFFF7B5FB0FE0E3
:101FD0005348007800280BDD5049097801EB410196
:101FE0000901091FE21D88184D490978FFF7A4FB74
:101FF000FFF79AF84B48C07860704A48407821282B
:1020000007DB48484078262808DD464840784828BD
:1020100004DA444840784449085C2070E078C01EE7
:10202000A0702079207003203B49087000203849B7
:1020300008806CE005F0010040B33848007878B9BA
:102040000421E01CFFF778FB2C21E01DFFF774FB57
:10205000E0782F383249087001203049087056E086
:102060002E49097801EB41010901091FE21D881879
:102070003021FFF761FB2A48007830382849087082
:1020800026480078401C2549087040E005F02000F3
:10209000202809D100202549087006201E49087013
:1020A000002084F8040332E005F0020002282ED15B
:1020B0001E480078302816DD1D49097801EB4101E2
:1020C00009013C3104F583728818302100F0B4FB1B
:1020D00017480078401C16490870144800783038BA
:1020E0001249087013E01148007800280FDD1049EC
:1020F000097801EB410109013C3104F5837288182C
:102100000A49097800F098FB0020084908707CBD56
:102110002C0000202E0000202F0000203400002082
:1021200035000020F40500200E4700083200002092
:102130003300002010B53F48FFF7EAFE3E48FFF7A6
:10214000E7FE3E48FFF7E4FE3D48FFF7E1FE3D486D
:10215000FFF7DEFE3C48FFF7DBFE3C48FFF7D8FE0A
:102160003B48FFF7D5FE3B48FFF7D2FE3A48FFF762
:10217000CFFE3A48FFF7CCFE3948FFF7C9FE394891
:10218000FFF7C6FE3848FFF7C3FE3848FFF7C0FE2A
:102190003748FFF7BDFE3748FFF7BAFE3648FFF76E
:1021A000B7FE3648FFF7B4FE3548FFF7B1FE3548B5
:1021B000FFF7AEFE3448FFF7ABFE3448FFF7A8FE4A
:1021C0003348FFF7A5FE3348FFF7A2FE3248FFF77A
:1021D0009FFE3248FFF79CFE3148FFF799FE3148D9
:1021E000FFF796FE3048FFF793FE3048FFF790FE6A
:1021F0002F48FFF78DFE2F48FFF78AFE2E48FFF786
:1022000087FE2E48FFF784FE2D48FFF781FE2D48FC
:10221000FFF77EFE2C48FFF77BFE2C48FFF778FE89
:102220002B48FFF775FE2B48FFF772FE2A48FEF792
:10223000D3FE10BD564700085C4700086147000800
:102240006847000870470008794700088047000881
:102250008547000895470008B7470008C7470008AA
:10226000D7470008DE470008E3470008EA470008B0
:10227000F24700089C470008FB4700080148000897
:10228000074800080C4800081548000825480008C1
:1022900035480008AF47000845480008A347000834
:1022A0003C000020504800086048000870480008C2
:1022B00080480008904800089A4800084C00002018
:1022C000540000205C00002064000020A1480008A9
:1022D000A7480008AC4800086C0000201FB5044661
:1022E0000020029003904FF400511748FEF7E1FEE2
:1022F0004FF480511448FEF7DEFE00231A461946BB
:1023000002A8FEF7DBFE11480078012801D104B0D5
:1023100010BD412C00DD41240220FFF72DFA0820DA
:102320000321CDE900100A49085D00231A46194629
:1023300000F0D2F800200749087007490870012012
:10234000064908700020E2E7000C01402E00002042
:10235000CC46000834000020350000202F0000206B
:102360002DE9FE4304460E4690461D46002001908E
:102370000290009045480078012801D1BDE8FE8315
:10238000FB2D00DDFB25412E00DD41263046FFF709
:10239000A5FF28211420FFF7B9F93C48007803284D
:1023A00014D1002084F80503384908703046FFF73F
:1023B00095FF28211420FFF7A9F934480078032855
:1023C00004D10020324908700420D7E7002706E036
:1023D00018F8071004F58370C155781CC7B2AF42D6
:1023E000F6DB012084F80503E81CE070267101216A
:1023F0006171E0782179484061794840A0710020FE
:1024000084F805034FF400512248FEF754FE4FF4C0
:1024100080512048FEF74DFE0320FEF763FB0023AA
:102420001A46194601A8FEF749FE0120FFF7A4F954
:102430003C2D0DDDA5F13C00174908700421E01C7E
:1024400000F0FAF93C2104F5837000F0F5F90BE097
:102450000020114908700421E01C00F0EDF9294624
:1024600004F5837000F0E8F905200949087001209F
:1024700084F804030949885D2A1D302100F05EF8C4
:1024800000200749087000BF78E700002E000020F8
:102490002F000020000C014032000020CC46000834
:1024A000330000201FB50020064A0123CDE901209A
:1024B0000093039003464FF4807203A1054801F096
:1024C000C9FE1FBD10000020765374617274546100
:1024D000736B00006D3300082DE9F04707460D4689
:1024E00014461E46DDE908890020FFF7F9F94FF48C
:1024F00000411148FEF7DDFD3220FFF7CFFB3846E3
:10250000FFF7CCFB2846FFF7C9FBE1B20812FFF743
:10251000C5FBE0B2FFF7C2FB3046FFF7BFFB40460A
:10252000FFF7BCFB4846FFF7B9FB4FF400410248F8
:10253000FEF7C1FDBDE8F0870008014070B5064612
:102540000D4614460020FFF7CBF94FF400410C482C
:10255000FEF7AFFD3120FFF7A1FB3046FFF79EFBF2
:102560002846FFF79BFBE1B20812FFF797FBE0B2AA
:10257000FFF794FB4FF400410148FEF79CFD70BD4E
:102580000008014010B5FDF771FE01F0E1FE18B141
:102590004FF08050024908600020FDF76EFE10BD2C
:1025A00004ED00E010B51348006840F00100114947
:1025B000086008464068104908400E4948600846CF
:1025C00000680E4908400B4908600846006820F47E
:1025D000802008600846406820F4FE0048604FF400
:1025E0001F008860FFF71FFC4FF00060044908607F
:1025F00010BD0000001002400000FFF8FFFFF6FED3
:1026000008ED00E010B540F22551064800F01AF838
:1026100038B1044800F0D2F8C4B20349204601F0B2
:10262000DFFA10BD00380140C832002021B1828994
:1026300042F40052828104E082894DF6FF731A4011
:102640008281704770B502460024002300250020D7
:1026500040F66A16B14200D100BFC1F3421501F045
:102660001F03012606FA03F3012D02D19689334098
:1026700006E0022D02D1168A334001E0968A3340EB
:102680000C12012606FA04F41688344013B10CB17A
:10269000012000E0002070BDF0B5034600240026B4
:1026A0000025002040F66A17B94200D100BF184645
:1026B000C1F3421401F01F06012707FA06F5012CA9
:1026C00001D10C3004E0022C01D1103000E01430B4
:1026D0001AB107682F43076002E00768AF4307603D
:1026E000F0BD00002DE9F04786B005460E460024F7
:1026F000A24600BFA1460027B08900B100BF2F4607
:102700002C8A4CF6FF700440F08804432C82AC897C
:102710004EF6F3100440B0883189084371890843AC
:102720000443AC81AC8A4FF6FF400440B0890443B7
:10273000AC8201A8FEF780FF1F48874202D1DDF876
:1027400010A001E0DDF80CA0A88900F4004040B121
:102750000AEBCA0000EB0A1031684900B0FBF1F83F
:1027600007E00AEBCA0000EB0A1031688900B0FBF1
:10277000F1F86420B8FBF0F004012009642101FBAA
:102780001089A88900F4004040B1322000EBC90054
:10279000B0FBF1F000F00700044308E0322000EB4A
:1027A00009106421B0FBF1F000F00F0004432C810C
:1027B00006B0BDE8F0870000003801400146888877
:1027C000C0F30800704770B506460B461446002556
:1027D00000BF06E013F8011B304600F005F8681C46
:1027E000C5B2A542F6DB70BD00BF028802F0400210
:1027F000002AFAD08180704700BFFEE710B503249D
:10280000FFF73CF801E0601EC4B2FEF7E5FF08B137
:10281000002CF8D144B9012005490870C1020548CF
:10282000FEF749FC012010BDFFF784FC0020FAE709
:102830002E0000200008014070B505460E4600201D
:10284000FFF74EF84FF400410A48FEF732FC6620CD
:10285000FFF724FA002404E0285DFFF71FFA601C4C
:10286000C4B2B442F8DB4FF400410248FEF723FC47
:1028700070BD00000008014030380A2801D2012054
:10288000704700207047014600BF7047014908604B
:10289000704700007400002030B50446002504E0B5
:1028A0004FF47A7000F004F86D1CA542F8D330BDE7
:1028B00070B5034600224FF0E02675690D4E36686C
:1028C00003FB06F44FF0E026B16910E04FF0E0267C
:1028D000B06988420BD0884202D20E1A324402E01C
:1028E0002E1A0E4432440146A24200D300E0EDE726
:1028F00000BF70BD7400002010B5044614B1012063
:10290000344908703348007848B33348006850B100
:1029100031480838006830B13048006818B12E4896
:10292000001F0068D8B90A20FFF7B6FF0020294928
:1029300008702948006808B9012010BD26480838E9
:10294000006808B90320F8E72448006808B90520A2
:10295000F3E72148001F006890BB0720EDE71E4801
:102960000068012811D11C480838006801280CD1E2
:102970001A480068012808D11748001F006801287C
:1029800003D1144908700920D7E715480088401C76
:102990001349088008460088C82818DD00200880F0
:1029A0000D48006808B90220C7E70B4808380068DE
:1029B00008B90420C1E70948006810B90620BCE73F
:1029C00005E00548001F006808B90820B5E70020A9
:1029D000B3E70000240000203C012242188121427C
:1029E0002600002000BF054A128802F04002002A9B
:1029F000F9D0C2B2014B1B1D1A807047003801404C
:102A000010B54820FFF742FF4FF44070FEF7FAFD83
:102A1000FFF748FD00F0C8FD002010BD10B50446CA
:102A20000E48006844600E480068844207D20B4894
:102A30000168091D0B48006800F018FC0CE007480D
:102A40000168091D0848006800F010FC074800688C
:102A5000844201D20548046010BD000090000020AF
:102A6000A40000209800002094000020C000002056
:102A70002DE9F04106460F461FB9B00000F002FAFA
:102A800000E03846054655B1542000F0FBF90446F5
:102A90000CB1256304E0284600F02EFC00E0002481
:102AA0002046BDE8F081000070B523E000F0A6FDEF
:102AB0001348006808B9012000E00020054601F035
:102AC00059FDBDB900F0F8FB0D48C068C468201D71
:102AD00000F06BFA0B480068401E0A4908600A487B
:102AE0000068401E0849086000F0F6FB204600F030
:102AF00062F800BF044800680028D7D170BD00000C
:102B0000A00A0020A00000209C00002070B5044610
:102B10000D46206C70B1216CE0680844E06061688B
:102B2000E068884201D32068E0602846226CE168B2
:102B3000FDF790FD70BD2DE9F04104460E461546A7
:102B40000027206C40B9206878BB606801F090FCD9
:102B500007460020606028E07DB93146226CA068FD
:102B6000FDF778FD216CA0680844A060D4E901104D
:102B700088421AD32068A06017E03146226CE068D2
:102B8000FDF768FD216CE068401AE0602168E068AC
:102B9000884203D2216C6068401AE060022D04D1A3
:102BA000A06B10B1A06B401EA063A06B401CA06383
:102BB0003846BDE8F08110B50446206B00F09CFB60
:102BC000204600F099FB10BD30B54FF42053174854
:102BD00000F007042CB1C01D20F00700134C041BAB
:102BE0001B1B0246124C22600024114D6C60D01851
:102BF000083820F007000F4C206000240D4D2D6890
:102C00006C600C4D2D682C601146441A4C60094CC8
:102C100024680C60084D4C682C60084D4C682C6092
:102C20004FF00044064D2C6030BD0000C80A002063
:102C3000C8000020D0000020D8000020D4000020D0
:102C4000DC00002000BFFFF72FFF034800680128C9
:102C5000F9D900F07FFBF6E7000A00202DE9F047E4
:102C600004460F4615469946DDF82080002607E009
:102C7000B95D04F134008155B85D00B902E0761CFD
:102C8000102EF5D300BF002143200155052D00D3A0
:102C90000425E56265640020A064201D00F0E3FACD
:102CA00004F1180000F0DFFA2461C5F10500A0610D
:102CB00064620020E06484F85000BDE8F087000002
:102CC00010B5002407E004EB84010F4A02EB8100F9
:102CD00000F0BCFA641C052CF5D30C4800F0B6FAE1
:102CE0000B4800F0B3FA0B4800F0B0FA0A4800F0C5
:102CF000ADFA0A4800F0AAFA0448094908600448F5
:102D00000849086010BD0000000A0020640A002085
:102D1000780A00208C0A0020A00A0020B40A0020B3
:102D2000940000209800002010B50146164800E0ED
:102D3000006803688B42FBD30246436813448B420E
:102D400004D143684C682344436001460A464B68FB
:102D500013440468A34211D10C4C03682468A342B5
:102D600008D04B680468646823444B6003681B68A0
:102D70000B6005E0054B1B680B6001E003680B600E
:102D8000884200D0016010BDC8000020D0000020A3
:102D900070B5054600F090FAA86B08B9012400E070
:102DA000002400F099FA204670BD70B5054600F089
:102DB00083FAA86BE96B884201D1012400E000246A
:102DC00000F08AFA204670BD0A490968096809B905
:102DD000012100E0002121B14FF0FF31064A1160CE
:102DE00006E004490968C968C868034A4168116077
:102DF0007047000094000020C0000020FDF736FA64
:102E000000BFFEE710B5044600F056FA11E0606A14
:102E100008B9012000E0002038B904F1240001F0D5
:102E200069FB18B100F024FB00E005E0A06C401E37
:102E3000A064A06C0028EADC00BF4FF0FF30A06463
:102E400000F04AFA00F038FA11E0206908B90120D0
:102E500000E0002050B904F1100001F04BFB08B174
:102E600000F006FB606C401E606400E002E0606CF5
:102E70000028EADC00BF4FF0FF30606400F02CFA5D
:102E800010BD00002DE9F04105464FF0000800F0AC
:102E9000B5FB2B48006808B9FFF796FE2948006883
:102EA0002840002847D145B1083505F0070020B17A
:102EB00005F00700C0F108000544002D3BD0224872
:102EC0000068854237D8214E3046046801E0264626
:102ED00024686068A84202D220680028F7D1184808
:102EE0000068844227D0306800F10808206830600C
:102EF0006068401B102807D967196068401B78601C
:102F000065603846FFF710FF0F4960680968081AC6
:102F10000D490860084600680D490968884203D2D7
:102F2000094800680A49086006496068096808435A
:102F300060600020206001F01DFB4046BDE8F0818C
:102F4000D0000020DC000020D4000020C8000020B9
:102F5000D80000200648006830B10549096801F131
:102F60004800896C491C01600148006870470000F6
:102F700090000020001F4FF080730360001F01606D
:102F8000001F034B036014380260203870470000B4
:102F9000FD2D00080246002102F03001091101292F
:102FA00001D1012070470020FCE701460A69D1E900
:102FB00001309860D1E9010358605068884201D11E
:102FC00088685060002008611068401E106010681A
:102FD0007047000070B504460D460A2204F10C014A
:102FE0000B48FEF799FE0A220A490948FEF780FEBF
:102FF000142204F10C010748FDF700FB18B906A0E4
:10300000FDF77EF902E008A0FDF77AF970BD000037
:103010004EF80008F80100200AC3DCCEC4B1A3B406
:10302000E6B3C9B9A60000000AC3DCCEC4B1A3B49C
:10303000E6CAA7B0DC00000010B5FFF7DFFB0548CB
:10304000FEF70CF900F070F802490878FFF746F92E
:1030500010BD00003000002010B5002482220C4971
:103060000C48FEF745FE0DE00B4800F0D7FB601C56
:10307000C4B2642C03DD00240848FDF741F90A209E
:1030800000F0CCF9024800786828EDD110BD0000AE
:10309000EA01002040F80008C8320020784B000800
:1030A00070B5C4B004460D4604F10C060020009033
:1030B00003AB2A46214601903046FDF753FE8DF8BA
:1030C0000C010A208DF80D01F079FFF763FF01284C
:1030D00003D10BA0FDF714F909E00DA0FDF710F9DD
:1030E00000230A2203A90E48006801F00FF89DF89A
:1030F0000C2103A90B48FFF766FB44B070BD00002C
:103100000AB5CDB9A6BAC4C9E8B1B8C5E4CDF800CE
:103110000AC6D5CDA8C9E8B1B8C5E4CDF80000000D
:1031200000000020003801401FB501210420FEF7F7
:1031300073FA4FF48050ADF8000048208DF803007A
:1031400069461548FDF7BCFE01210846FEF764FA02
:103150000C210020FDF794FE4FF4805002900020D7
:103160008DF80C000C208DF80D0001208DF80E005C
:1031700002A8FDF7FBFC28208DF8040003208DF841
:10318000050000208DF8060001208DF8070001A839
:10319000FEF700FA1FBD00000008014008B501213C
:1031A0001820FEF739FA4FF46040ADF800004820CF
:1031B0008DF8030003208DF8020069460548FDF7ED
:1031C0007FFE4020ADF8000069460348FDF778FE19
:1031D00008BD000000100140000C014004E000F0B8
:1031E00045FA1E2000F01AF9F9E7000008B50021A1
:1031F0000220FEF72FF915E00023052269460A4850
:10320000006800F0BEFE0446012C08D107A0FDF7BF
:1032100077F820220099891C0B48FFF7D4FA0A207E
:1032200000F0FCF8E8E70000040000200A4C4544E8
:10323000BFD8D6C6CAFDBEDDD3CACFE4BDD3CAD57A
:10324000B3C9B9A6000000000038014000F1080130
:1032500041604FF0FF31816000F10801C160016100
:1032600000210160704700210161704710B50246DE
:103270000B685C1C0CB9106907E002F1080000E063
:103280004068446824689C42FAD944684C604C68A1
:10329000A160886041600A611468641C146010BDFC
:1032A00042684A6093688B609368596091600861D6
:1032B00003685B1C0360704710B5FCF7D7FF054837
:1032C0000068401C03490860BFF34F8FBFF36F8F46
:1032D00010BD0000E000002010B506480068401E48
:1032E000044908600846006810B90020FCF7C5FFD3
:1032F00010BD0000E000002070B506463546D6B18E
:10330000083D2C460C4960680968084098B120685F
:1033100088B90949606809688843606000F06EF9FF
:103320000649606809680844044908602046FFF7B8
:10333000FBFC01F01FF970BDDC000020D400002070
:1033400003484FF0E0214861072008617047000002
:103350003F1901004FF0805003490860BFF34F8FC1
:10336000BFF36F8F7047000004ED00E04FF416408C
:1033700000F0E6FB00F018F8FFF710FFFEF722FB65
:10338000FFF75AFEFFF768FEFDF700FBFDF714FBA1
:10339000FDF722FB05E0034800F0C0FB642000F0CD
:1033A0003DF8F8E7C832002010B504A0FCF7A8FFEC
:1033B00010A213A115A0FCF7A3FF10BD0A2A2A2A08
:1033C0002A2A2A2A2A2A2A2A2A2A2A2A2A2A2A2A5D
:1033D0004665657252544F5320B9A4B3CC2A2A2AA9
:1033E0002A2A2A2A2A2A2A2A2A2A2A2A2A2A2A2A3D
:1033F0002A2A0A0031313A34393A323600000000C4
:103400004E6F76203239203230313800C8D5C6DAD6
:10341000A3BA2573202573200A00000070B5044666
:103420000026DCB100F0EAF80E48006805190E48E5
:103430000068001DFFF7B9FD50B90B48006890F80F
:103440002C10012088400949096881430748016020
:103450002846FFF7E3FA01F08DF806460EB9FFF7AC
:1034600079FF70BDA400002090000020A80000207B
:103470000120014908607047B400002070B506467D
:103480000C461348016818313046FFF7EFFE10482C
:103490000068001DFFF789FD50B90D48006890F8DD
:1034A0002C10012088400B490968814309480160BC
:1034B000601C30B906480168091D0748FFF7F0FE97
:1034C00005E00648006805192846FFF7A7FA70BD11
:1034D00090000020A8000020B40A0020A4000020D2
:1034E00070B505462C46002D4BD02649E06A096888
:1034F000C96A884245D2A06900F0004028B9214835
:103500000068C06AC0F10500A061E16A01EB8101B9
:103510001D4A02EB81016069884201D1012000E06F
:10352000002050B3201DFFF740FD78B9E06A00EBA2
:103530008000154951F8200040B994F82C10012062
:103540008840124909688143104801600D480068AD
:10355000C06AE06294F82C10012088400B49096889
:1035600008430A490860E16A01EB8101064A02EB5F
:103570008100211DFFF794FE03E002480068C06A45
:10358000E06270BD90000020000A0020A80000202A
:1035900003490968016003490968416070470000F8
:1035A000B8000020A40000201FB50020009001906A
:1035B0000290034680220BA103900C4800F04AFEC3
:1035C0000446012C0CD1FCF751FEA01E08490860EE
:1035D00001200849086000200749086000F070FCDD
:1035E0001FBD000049444C4500000000452C000868
:1035F000C0000020AC000020A400002002480068A9
:10360000401C014908607047C4000020124800684F
:1036100018B10120114908601DE000200F49086021
:103620000F480068B0FA80F0C0F11F0101EB810281
:103630000C4B03EB820042685268426000F10802C2
:103640004368934202D14268526842604268D2683D
:10365000054B1A6000BF7047C4000020B400002072
:10366000A8000020000A00209000002010B50024CF
:103670000020FFF741F904460A2C43D2DFE804F0AA
:10368000050611181F222D30373A3BE0002101209A
:10369000FDF79CFE01210020FDF718FF1A48047079
:1036A00030E001210846FDF791FE1748047029E03B
:1036B00000210220FDF78AFE1348047022E0124820
:1036C00004701FE000210420FDF780FE012100208E
:1036D000FDF72CFF0C48047014E00B48047011E057
:1036E00000210820FDF772FE074804700AE0064832
:1036F000047007E00448007800F008F80920024947
:10370000087000BF00BF10BD0C00002010B50446BB
:10371000092C1BD2DFE804F005060B101112171854
:10372000190014E000210220FDF7D0FE0FE0002177
:103730000220FDF7CBFE0AE009E008E00021084680
:10374000FDF7F4FE03E002E001E000E000BF00BF8F
:1037500010BD00002DE9F04104460F4600256678B3
:10376000202E04D0212E28D0222E28D126E016A0EB
:10377000FCF7C6FD002506E0E81C215C19A0FCF75B
:10378000BFFD681CC5B2082DF6DB0722214617488D
:10379000FEF7C2FA072216491448FEF7A9FA0722D3
:1037A00021461348FCF72AFF18B912A0FCF7A8FD20
:1037B00002E015A0FCF7A4FD02E001E000E000BF7C
:1037C00000BFBDE8F08100000D0AC9D5C2BCD7D446
:1037D000C9ED4D4143B5D8D6B7204D4143203D20DA
:1037E00000000000253032582000000040F800089A
:1037F000EA0100200D0A4D4143B5D8D6B7C9D5C25C
:10380000BCB3C9B9A60000000D0A4D4143B5D8D6D6
:10381000B7C9D5C2BCCAA7B0DC00000010B50446C9
:1038200020780D280AD16178A01C00F011FF18B98A
:103830006178A01CFFF78EFF0020207010BD70B5CE
:1038400004460D46667A032E1ED005DC6EB1012EAD
:1038500010D0022E22D112E0042E1AD0FF2E1DD13C
:103860002946204600F090F819E02946204600F04D
:103870000DF914E02946204600F014F80FE029461F
:10388000204600F04BF80AE02946204600F0CAF82E
:1038900005E02946204600F06AF800E000BF00BFBE
:1038A00070BD0000F8B504460D46E07AA17A00EB41
:1038B000012086B217480090102E0ED005DC4EB1C4
:1038C000012E08D0022E21D106E0112E06D0212E85
:1038D0001CD104E01BE01AE019E018E017E000201A
:1038E00000990870009845702A4621460098801C6F
:1038F000FCF7B0FE00230A2269460748006800F082
:1039000005FC29462046FDF705FA00E000BF00BF90
:10391000F8BD0000E80000200400002010B50A46B1
:10392000C37A847A03EB042399B240F202240B1B7E
:10393000A14215D008DC01290FD0A1F201136BB10F
:10394000B3F5807F10D10AE0012B0AD0A3F56D43B7
:10395000FF3B3BB1012B07D105E006E005E004E0A9
:1039600003E002E001E000E000BF00BF10BD10B5C1
:103970000A46C37A847A03EB042399B2012900D161
:1039800000E000BF00BF10BD70B504460D46E07AF0
:10399000A17A00EB012086B24FF6FC71701A8E42BC
:1039A0001ED00ADC3EB3012E24D0B6F57F4F19D0CD
:1039B000A6F57F40FB38F8B913E001280FD00228A4
:1039C00009D0032818D10EA0FCF79AFC29462046FE
:1039D000FFF766FB11E00DA0FCF792FC0DE00CE098
:1039E0000BE00AE00CA0FCF78BFC29462046FFF711
:1039F000F1FA02E001E000E000BF00BF70BD00008E
:103A00000AC9E8B1B8C5E4CDF80000000AC9E8B1B8
:103A1000B8C1D0B1ED0000000AC3DCCEC4CFC2B73C
:103A2000A200000010B50B46C27A847A02EB042291
:103A300091B2B1F5817F20D00DDC03291AD004DCCE
:103A4000012915D002291DD113E0042913D0A1F2B8
:103A50000112BAB910E0A1F203127AB1012A0ED014
:103A6000A2F57C42FE3A5AB1B2F5FF7F0AD108E0D6
:103A700009E008E007E006E005E004E003E002E01A
:103A800001E000E000BF00BF10BD000070B50446BB
:103A90000E46E07AA17A00EB012085B2202D18D0E5
:103AA00005DC6DB1012D0FD0022D19D110E0212DB3
:103AB00010D0B5F5807F0ED0A5F2011080B90EE0D0
:103AC00009A0FCF71DFC0CE00BA0FCF719FC08E0BA
:103AD00007E006E005E00DA0FCF712FC01E000E0C5
:103AE00000BF00BF70BD00000AB6C1C9E8B1B84D43
:103AF0004143B5D8D6B700000AC8B7C8CFC9E8B1A6
:103B0000B8CAC7B7F1D4DACFDF0000000AB5E7B30F
:103B1000D8B3E4B5E7D7B4CCAC00000010B5044688
:103B200020780D280AD16178A01C00F0B0FD18B9EA
:103B30006178A01CFFF783FE0020207010BD0000FC
:103B400010B586B00446012144F20400FDF764FD7F
:103B50004FF40070ADF8140003208DF81600182003
:103B60008DF8170005A91C48FDF7AAF94FF48060ED
:103B7000ADF8140004208DF8170005A91648FDF7CC
:103B80009FF925208DF8000003208DF801008DF8A5
:103B9000020001208DF803006846FDF7FBFC01944C
:103BA0000020ADF80800ADF80A00ADF80C00ADF843
:103BB00010000C20ADF80E0001A90848FEF792FD98
:103BC000012240F225510548FEF766FD0121034818
:103BD000FEF72CFD06B010BD000801400038014082
:103BE0000A780D2A7ED2DFE802F0071D2E374057F3
:103BF0006C7E919EB2BFC700AC280AD188700122AA
:103C00004A700022634B1A70012281F800210A7069
:103C100007E0682805D18870012281F80021082278
:103C20000A70B5E04B788A1CD0544A78521C4A700E
:103C3000584A1278521CD2B2564B1A70042A01DB31
:103C400002220A70A4E04B788A1CD0544A78521C95
:103C50004A7003220A709BE04B788A1CD0544A7841
:103C6000521C4A7004220A7092E0FE2804DD0022F1
:103C700081F800210A700EE04B788A1CD0544A78F3
:103C8000521C4A700022434B1A7010B906220A7067
:103C900001E005220A707BE04B788A1CD0544A78F8
:103CA000521C4A703B4A1278521CD3B2394A1370E4
:103CB0004A7A934204DB0022364B1A7006220A70BD
:103CC00066E04B788A1CD0544A78521C4A70314ABC
:103CD0001278521CD2B22F4B1A70022A01DB072233
:103CE0000A7055E053E053280BD14B788A1CD0540E
:103CF0004A78521C4A70002281F800210D220A7075
:103D000003E0002281F800210A7041E0B02801D0D0
:103D1000202803D1C87009220A7003E0002281F82C
:103D200000210A7034E028B9087103224A700B227E
:103D30000A700BE0202804DD002281F800210A70BF
:103D400004E0087103224A700A220A7020E04B78CE
:103D50005A1C4A708A1CD0544B780A79D21C934260
:103D600001DB0B220A7013E04B785A1C4A708A1C44
:103D7000D0540C220A700BE04B785A1C4A708A1CF3
:103D8000D054002281F800210D220A7000E000BF0B
:103D900000BF7047E500002010B50C4800780328EC
:103DA00012D100234FF47A7219460948006800F0D6
:103DB000E8F808490878FEF791FA00231A461946F0
:103DC0000348006800F0A2F910BD00002F00002099
:103DD000080000203000002004E0FFF7DDFF1E2077
:103DE000FFF71CFBF9E700002DE9F04105460E4600
:103DF0001746002400234FF47A72194614480068CD
:103E000000F0BFF83B46324629461248FEF7A8FAB2
:103E100007E0601CC4B2322C00DD06E00220FFF790
:103E2000FDFA0D4800780628F3D100BF00231A469A
:103E300019460748006800F069F9214607A0FCF719
:103E40005FFA0A490878FEF749FABDE8F0810000F8
:103E500008000020EE0200202F0000200A64656C9C
:103E600061795F636E74203D20256400300000207E
:103E7000C2B016E00023052201A90A48006800F03C
:103E800080F80446012C09D107A0FCF739FA9DF807
:103E900004219DF8050101A9FFF7A6FF1E20FFF7E9
:103EA000BDFAE7E7000000200ACEDECFDFCAFDBE84
:103EB000DDD3CACFE4BDD3CAD5B3C9B9A6000000CB
:103EC00010B50A48006840F47F00084908600846B9
:103ED000006840F07F400860FFF732FA0020044994
:103EE0000860FCF791F9002010BD000020ED00E013
:103EF000E000002070B505464C20FEF7C3FF0446E5
:103F0000D4B1002060602060A060E060A063012068
:103F1000E06300202064401E6064A06404F110008F
:103F2000FFF794F904F12400FFF790F900231A46F3
:103F30001946204600F0EAF8204670BD2DE9F0470A
:103F400006460D4691464FF000080DB9002702E0E5
:103F500006FB05F0471C07F14C00FEF793FF0446F3
:103F600064B10DB9246002E004F14C002060E66306
:103F700025640121204600F092F8A0464046BDE8A5
:103F8000F0872DE9FF4383B0054688461E464FF073
:103F900000092C4600BFFFF78FF9A06B80B3E768DC
:103FA00041462046FEF7B2FDB6B9A06B401EA063A5
:103FB000206810B9FEF7CEFF6060206908B90120C3
:103FC00000E00020B0B904F1100000F093FA0128DD
:103FD00010D1FFF7BFF90DE0E760606A08B9012072
:103FE00000E0002030B904F1240000F083FA08B1A9
:103FF000FFF7B0F9FFF770F9012007B0BDE8F083D3
:10400000FFE7059818B9FFF767F90020F5E7B9F160
:10401000000F04D101A8FFF7BBFA4FF00109FFF729
:104020005BF9FFF7EBFAFFF747F9606C401C08B942
:1040300000206064A06C401C08B90020A064FFF759
:104040004BF905A901A800F0D7F808BB2046FEF7F8
:104050009FFEB8B1206830B9FFF72EF96068FFF70E
:104060003FFAFFF739F904F124000599FFF706FA42
:104070002046FEF7C7FE00F07DFA00288BD1FFF73F
:1040800069F988E72046FEF7BDFE00F073FA82E783
:104090002046FEF7B7FE00F06DFA0020ADE770B5E0
:1040A00005460E462C46FFF707F9D4E90F122068A3
:1040B00001FB020060600020A0632068A060E06B4C
:1040C000401E226C216800FB0210E0604FF0FF30C0
:1040D0006064A06476B9206908B9012000E000207E
:1040E00080B904F1100000F005FA01280AD1FFF7A9
:1040F00031F907E004F11000FFF7A8F804F12400FB
:10410000FFF7A4F8FFF7E8F8012070BD2DE9FF43A1
:1041100083B0074688461D464FF000093C4600BF65
:10412000FFF7CAF8A06BE16B884201D3022D1DD1C5
:104130002A4641462046FEF7FEFC0646606A08B95C
:10414000012000E0002040B904F1240000F0D2F981
:10415000012805D1FFF7FEF802E00EB1FFF7FAF8EB
:10416000FFF7BAF8012007B0BDE8F083059818B949
:10417000FFF7B2F80020F6E7B9F1000F04D101A86B
:10418000FFF706FA4FF00109FFF7A6F8FFF736FA36
:10419000FFF792F8606C401C08B900206064A06CC6
:1041A000401C08B90020A064FFF796F805A901A8F3
:1041B00000F022F8C0B92046FEF7F7FD70B104F117
:1041C00010000599FFF75AF92046FEF71BFE00F094
:1041D000D1F90028A4D1FFF7BDF8A1E72046FEF7EA
:1041E00011FE00F0C7F99BE72046FEF70BFE00F03A
:1041F000C1F90020B7E7000070B504460D46FFF78F
:104200005BF8124802682868401C08B9002619E0CB
:104210000F4920680968884204D06068904201D83C
:1042200001260FE06068101A2968884209D22868C0
:104230006168511A401A28602046FFF7A9F9002644
:1042400000E00126FFF748F8304670BDA4000020CA
:10425000B80000202DE9FF4F81B0804615469946F1
:10426000DDE90E7A28461099FEF702FC0446002C80
:104270004FD0681E216B01EB800B2BF0070B0095D4
:104280003A462046119B0299FEF7E8FC4A46414611
:104290005846FEF76FFE2060BAF1000F01D0CAF851
:1042A0000040FFF709F824480068401C22490860D4
:1042B0002248006840B92148046008460068012887
:1042C0000CD1FEF7FDFC09E01D48006830B91B4821
:1042D0000068C06AB84201D81848046019480068EC
:1042E000401C1849086094F82C1001208840164999
:1042F0000968084314490860E16A01EB8101134A27
:1043000002EB8100211DFEF7CBFF0126FEF7E4FF43
:1043100001E04FF0FF36012E09D10948006830B1A5
:1043200006480068C06AB84201D2FFF713F8304669
:1043300005B0BDE8F08F0000A00000209000002034
:10434000AC000020BC000020A8000020000A0020D3
:104350002DE9F04100273B480068002865D13A4824
:104360000068401C38490860084606688EB937481E
:10437000D0F8008036480068344908603448C0F8F6
:10438000008034480068401C32490860FEF71CFD7C
:1043900000BF3148006886423BD300BF2B4800680D
:1043A000006808B9012000E0002020B14FF0FF3084
:1043B000294908602CE025480068C068C468656821
:1043C000AE4202D22448056022E0201DFEF7EDFD3A
:1043D000A06A18B104F11800FEF7E7FD94F82C105C
:1043E000012088401D49096808431C490860E16AAA
:1043F00001EB81011A4A02EB8100211DFEF750FFFB
:104400001849E06A0968C96A8842C7D30127C5E725
:1044100000BF14480068C06A00EB8000104951F8E2
:104420002000012806D9012704E00F480068401C3D
:104430000D4908600D48006800B101273846BDE805
:10444000F0810000C4000020A4000020940000209F
:1044500098000020B8000020C0000020A800002024
:10446000000A002090000020B0000020B4000020CE
:1044700070B505462C460026ADB3A06C401EA06466
:10448000616CE06A88422ED0A06C60BB201DFEF7F4
:104490008CFD78B9E06A00EB8000144951F82000E7
:1044A00040B994F82C1001208840114909688143D3
:1044B0000F480160606CE062E06AC0F10500A06135
:1044C00094F82C10012088400949096808430849DC
:1044D0000860E16A01EB8101044A02EB8100211DC1
:1044E000FEF7DEFE0126304670BD0000000A002007
:1044F000A800002070B50646F068C46804F11800F2
:10450000FEF753FD15480068A8B9201DFEF74DFDC4
:1045100094F82C100120884011490968084310497B
:104520000860E16A01EB81010E4A02EB8100211D66
:10453000FEF7B6FE04E004F118010B48FEF7B0FEEA
:104540000A49E06A0968C96A884204D9012501203C
:104550000749086000E00025284670BDC40000201F
:10456000A8000020000A00208C0A002090000020F3
:10457000B400002070B50025FEF79EFE2C480068B0
:10458000401E2B4908600846006800284BD1294886
:104590000068002847D024E02748C068C46804F1B8
:1045A0001800FEF702FD201DFEF7FFFC94F82C100A
:1045B0000120884021490968084320490860E16AD0
:1045C00001EB81011E4A02EB8100211DFEF768FE0E
:1045D0001C49E06A0968C96A884202D301201A4965
:1045E00008601548006808B9012000E00020002894
:1045F000D2D01648006878B10AE0FFF7A9FE10B1E2
:1046000001201149086011480068401E0F490860E8
:104610000E4800680028F0D10B480068012802D13C
:104620000125FEF797FEFEF757FE284670BD0000F5
:10463000C4000020A00000208C0A0020A800002058
:10464000000A002090000020B4000020B0000020EC
:104650002DE9F04104460D462078682802D001205B
:10466000BDE8F081A81E81B22046FCF719FA064683
:10467000371206F0FF08A81E205CB84205D1681E5C
:10468000205C404501D10020EAE70120E8E72DE960
:10469000F04104460D462078AC2802D00120BDE848
:1046A000F081E81E81B22046FCF7FAF9064637127F
:1046B00006F0FF08E81E205CB84205D1A81E205C69
:1046C000404501D10020EAE70120E8E71842002731
:1046D00001280229032A042B052C062D072E082F5A
:1046E00009300A310B320C330D340E350F361037CA
:1046F00011381239133A143B153C163D173E193F39
:104700001A401B411C431D441E451F4620470204FE
:1047100006080A0C0E10121416181A1C1E20222449
:1047200026282A2C2E3000323436383A3C3E405867
:104730005858585858030507090B0D0F1113151732
:10474000191B1D1F21232527292B2D2F31333537E9
:1047500001393B3D3F4111000200520011000103AD
:104760006011010300033B01110204000305000A6C
:1047700011100500640A000A12111103000198F3D8
:10478000111201068111200C000300070C350009ED
:10479000C9C38000051120030A0006761120034CCE
:1047A00031002011400800400AAAAA369D20FE11BF
:1047B000220400087F001D11200C1801000803804E
:1047C00000202000E8005E11200C2405761A0572F6
:1047D0000200000012815E1120033001CDA01120E3
:1047E0000135E011200338111515112004402A0C61
:1047F000A422112005450300DE010011200250848F
:104800000A11200254030711200157001120055BF3
:10481000400406782011210C00A28126AF3FEEC88B
:10482000C7DBF2020811210C0C070315FC0F00A2D4
:104830008126AF3FEE11210C18C8C7DBF202080732
:104840000315FC0F00112307002C0E0B040C73033F
:1048500011500C0CFFFFFFFFFFFFFFFFFFFFFFFFEB
:1048600011500C18FFFFFFFFFFFFFFFFFFFFFFFFCF
:1048700011500C24FFFFFFFFFFFFFFFFFFFFFFFFB3
:1048800011500C30FFFFFFFFFFFFFFFFFFFFFFFF97
:104890001150063CFFFFFFFFFFFF111203080A0142
:1048A000001112020B30301120014AFF11120100D9
:1048B0000411010300031909110102000122001172
:1048C0000103000300001150010004FFFFFFFFFF80
:1048D000FEFFFFFDFFFFFCFFFFFBFF0001FF0000ED
:1048E0000000000000010000020000200000210084
:1048F00001000001010100000100010100020100AE
:104900001001001101002102000102010102020157
:1049100002020202020302F00102F00200C1814021
:1049200001C0804101C0804100C1814001C080417F
:1049300000C1814000C1814001C0804101C080416F
:1049400000C1814000C1814001C0804100C181405F
:1049500001C0804101C0804100C1814001C080414F
:1049600000C1814000C1814001C0804100C181403F
:1049700001C0804101C0804100C1814000C181402F
:1049800001C0804101C0804100C1814001C080411F
:1049900000C1814000C1814001C0804101C080410F
:1049A00000C1814000C1814001C0804100C18140FF
:1049B00001C0804101C0804100C1814000C18140EF
:1049C00001C0804101C0804100C1814001C08041DF
:1049D00000C1814000C1814001C0804100C18140CF
:1049E00001C0804101C0804100C1814001C08041BF
:1049F00000C1814000C1814001C0804101C08041AF
:104A000000C1814000C1814001C0804100C181409E
:104A100001C0804101C0804100C1814000C0C1018E
:104A2000C30302C2C60607C705C5C404CC0C0DCD1E
:104A30000FCFCE0E0ACACB0BC90908C8D81819D98E
:104A40001BDBDA1A1EDEDF1FDD1D1CDC14D4D515BE
:104A5000D71716D6D21213D311D1D010F03031F1AE
:104A600033F3F23236F6F737F53534F43CFCFD3DDE
:104A7000FF3F3EFEFA3A3BFB39F9F83828E8E929CE
:104A8000EB2B2AEAEE2E2FEF2DEDEC2CE42425E57E
:104A900027E7E62622E2E323E12120E0A06061A1EE
:104AA00063A3A26266A6A767A56564A46CACAD6D9E
:104AB000AF6F6EAEAA6A6BAB69A9A86878B8B9790E
:104AC000BB7B7ABABE7E7FBF7DBDBC7CB47475B53E
:104AD00077B7B67672B2B373B17170B0509091512E
:104AE0009353529296565797559594549C5C5D9D5E
:104AF0005F9F9E5E5A9A9B5B99595898884849894E
:104B00004B8B8A4A4E8E8F4F8D4D4C8C44848545FD
:104B1000874746868242438341818040000001CC22
:104B200001D8001401F0003C002801E401A0006C51
:104B3000007801B40050019C0188004430313233C8
:104B400034353637383941424344454640305800C1
:104B500030313233343536373839616263646566F3
:104B6000403078000400000800000000000000024F
:104B700000010000100000000D0AC7EBC9D5D0B439
:104B8000C9E8B1B8B5C44D4143B5D8D6B7A3ACB8A0
:104B9000F1CABDCEAA484558D0ADD2E9D6A120224F
:104BA00036382032302030382078782078782078D5
:104BB000782078782078782078782078782078782D
:104BC000204352435F48204352435F4C2200000081
:104BD000F04B000800000020E80000006C01000815
:104BE000D84C0008E8000020283A0000880100089E
:104BF00000000000000000000000000000000000B5
:104C000000000000000000000000000000000000A4
:104C100000000000010000003F3F3F0000000000D6
:104C200000000000000000000000000011500C0017
:104C30001003040404FFFFFFFFFFFFFF1112040D28
:104C4000000106A211120411010002221112042116
:104C50000001068211120425010002021320000047
:104C60000000000000000000000000000000000044
:104C700001020304010203040607080902040608EE
:104C80000000000000000000000000000000000024
:104C90000000000000000000000000000000000014
:104CA0000000000000000000000000000000000004
:104CB00000000000000000000000000000000000F4
:104CC00000000000000000000000000000000000E4
:084CD000AAAAAAAA0000000034
:04000005080002BD30
:00000001FF
