:020000040800F2
:1000000050370020B9020008F921000871180008D3
:10001000F52100080D0C00089935000800000000CB
:10002000000000000000000000000000E1010008E6
:10003000850C00080000000025020008FD320008C1
:10004000D3020008D3020008D3020008D30200083C
:10005000D3020008D3020008D3020008D30200082C
:10006000D3020008D3020008D3020008D30200081C
:10007000D3020008D3020008D3020008D30200080C
:10008000D3020008D3020008D3020008D3020008FC
:10009000D3020008D3020008D3020008D3020008EC
:1000A000D3020008D3020008D3020008D3020008DC
:1000B000D3020008D3020008D3020008D3020008CC
:1000C000D3020008D3020008D3020008D3020008BC
:1000D000D30200087D330008A5330008D3020008CE
:1000E000890C0008D3020008D3020008D3020008DC
:1000F000D3020008D3020008D3020008D30200088C
:10010000D3020008D3020008D3020008D30200087B
:10011000D3020008D3020008D3020008D30200086B
:10012000D3020008D3020008D3020008D30200085B
:1001300000F002F800F044F80AA090E8000C8244B5
:100140008344AAF10107DA4501D100F039F8AFF292
:10015000090EBAE80F0013F0010F18BFFB1A43F0A5
:1001600001031847C06B0000E06B0000103A24BF89
:1001700078C878C1FAD8520724BF30C830C144BF0C
:1001800004680C607047000000230024002500264E
:10019000103A28BF78C1FBD8520728BF30C148BFEA
:1001A0000B607047782900F00581732900F05B83AC
:1001B000002070471FB500F0DAF91FBD10B510BD63
:1001C00000F0F4FB1146FFF7F5FF03F02DFE00F001
:1001D00012FC03B4FFF7F2FF03BC03F068FA00005F
:1001E000204B19680868B0E8F00F80F30988BFF366
:1001F0006F8F4FF0000080F311884EF00D0E7047A6
:100200000000000006480068006880F3088862B6B5
:1002100061B6BFF34F8FBFF36F8F00DF00BF00BF2A
:1002200008ED00E0EFF30980BFF36F8F0D4B1A6804
:1002300020E9F00F106008B54FF0BF0080F311887F
:1002400004F0B0FE4FF0000080F31188BDE80840D4
:1002500019680868B0E8F00F80F30988BFF36F8F62
:10026000704700BFA0000020EFF311804FF0BF01E6
:1002700081F31188704780F311887047EFF3058090
:10028000704700000B49D1F800C04A685CF8043B95
:100290001068184442F8040B8C4528BFA1F1DC0C0F
:1002A0008A4228BFA1F1DC02C1F800C04A6020F0F8
:1002B00000407047E4300020094880470948004763
:1002C000FEE7FEE7FEE7FEE7FEE7FEE7FEE7FEE706
:1002D000FEE7FEE704480549054A064B7047000063
:1002E0001D33000831010008503100205037002034
:1002F0005033002050330020704700000FB40449F1
:1003000010B503AA029800F0B3FA10BC5DF814FB14
:100310008800002070B5044685690068C10601D5D3
:10032000302600E02026C00707D070BDD4E90121A7
:1003300030469047206A401C20626D1EF6D570BD85
:1003400070B5044685690078C00707D170BDD4E94F
:10035000012120209047206A401C20626D1EF6D5A6
:1003600070BD70B50C460546012A05D02878800678
:1003700000D5EA69002302E0012305E05B1C9342FB
:1003800002D2E05C0028F9D1A869E618C01AA86179
:10039000286A184428622846FFF7BCFF04E0D5E924
:1003A000012114F8010B9047B442F8D32846FFF717
:1003B000C7FF70BD70B504460D4621461068AFF307
:1003C00000802188090502D50F4A7A4402E00E4ACE
:1003D0007A440E32002104F1240305E000F00F06F8
:1003E0000009965D5E54491C0028F7D1207800234F
:1003F000000704D5702D02D009B102231132204626
:10040000BDE8704000F0C4B9C26800002DE9F05F9B
:10041000894604464FF0000ADFF824B1FB44C0F8D7
:1004200020A02046E168884700287DD0252806D0F6
:10043000D4E901219047206A401C2062F1E70025A1
:100440005F462046E16888472028064607DB312EB4
:1004500005D2B81910F8200C08B10543F1E7A80738
:1004600001D525F00405C4F81CA00027C4F818A085
:100470002A2E09D0304603F013F938B304EB87086D
:10048000303EC8F8186019E059F8041B204604EB08
:1004900087029161E1688847012F064618D1E0691B
:1004A000002820DA25F020051DE0D8F8180000EB20
:1004B000800006EB40003038C8F818002046E1689C
:1004C0008847064603F0ECF80028EED1012F0AD049
:1004D0002E2E08D12046E16888477F1C0646022F51
:1004E00045F02005C4DBA069002803DA404245F04E
:1004F0000105A061E80701D025F01005A6B1A6F11D
:100500004100192802D8203645F400654A46314694
:10051000204625604D46FFF745FE60B1012807D013
:10052000ED1D25F0070000E007E000F1080978E77D
:1005300005F1040975E730467AE7206ABDE8F09FC7
:10054000986800000B4910B5A1F17C020A4CC2E981
:100550003712372106E000EB104342F82130074BF9
:1005600000FB03400B1EA1F10101F4DC10BD0120D2
:10057000E8E7000084300020E119D666CD0D0100C7
:1005800040EA010310B59B070FD1042A0DD310C810
:1005900008C9121F9C42F8D020BA19BA884201D962
:1005A000012010BD4FF0FF3010BD1AB1D30703D0AA
:1005B000521C07E0002010BD10F8013B11F8014B60
:1005C0001B1B07D110F8013B11F8014B1B1B01D17C
:1005D000921EF1D1184610BD032A40F2308010F06F
:1005E000030C00F0158011F8013BBCF1020F6244CE
:1005F00098BF11F801CB00F8013B38BF11F8013B5F
:10060000A2F1040298BF00F801CB38BF00F8013B0B
:1006100011F0030300F03E81083AC0F0088051F861
:10062000043B083A51F804CBA0E80810F5E7121D86
:100630005CBF51F8043B40F8043BAFF30080D207A5
:1006400024BF11F8013B11F801CB48BF11F8012B71
:1006500024BF00F8013B00F801CB48BF00F8012B94
:100660007047431A28BF9A427FF6B6AF032A104458
:10067000114440F2268010F0030F1EBF11F8013D17
:10068000521E00F8013D10F0030F7FF4F6AF11F099
:10069000030300F04481083AC0F00B8051F8043D98
:1006A000083A51F804CD40F8043D40F804CDFFF776
:1006B000F3BF121D5CBF51F8043D40F8043DAFF399
:1006C0000080D20724BF11F8013D11F801CD48BFC9
:1006D00011F8012C24BF00F8013D00F801CD48BFFE
:1006E00000F8012C704702F0FF0343EA032242EABC
:1006F000024200F002B84FF000020429C0F012805C
:1007000010F0030C00F01B80CCF1040CBCF1020FC4
:1007100018BF00F8012BA8BF20F8022BA1EB0C0199
:1007200000F00DB85FEAC17C24BF00F8012B00F88F
:10073000012B48BF00F8012B70474FF0000200B5B5
:10074000134694469646203922BFA0E80C50A0E8F4
:100750000C50B1F12001BFF4F7AF090728BFA0E8A2
:100760000C5048BF0CC05DF804EB890028BF40F86E
:10077000042B08BF704748BF20F8022B11F0804FB0
:1007800018BF00F8012B70477047704770477047DB
:100790002DE9F0470D4699469246044600F124089B
:1007A0000168880604D5E06921F01001216000E0AD
:1007B0000120A84201DD471B00E00027A1697A194A
:1007C00002EB0900081AA0612078C00602D4204676
:1007D000FFF7A0FD002608E0D4E901211AF8060081
:1007E0009047206A401C761C20624E45F4DB20783E
:1007F000C0060AD52046FFF78DFD06E0D4E90121A9
:1008000030209047206A401C2062381EA7F1010763
:10081000F4DC07E0D4E9012118F805009047206ACC
:10082000401C2062281EA5F10105F3DC2046FFF7DD
:1008300087FD2078000602D50220BDE8F087012060
:10084000FBE710B5436913B1AFF3008001E0FFF798
:1008500088FD012010BD127800F124010A700022E9
:100860004A700122EDE711684FF0FF32E9E700001E
:10087000074B70B50D467B4400F081F804462846CE
:1008800000F090F810B14FF0FF3070BD204670BD01
:10089000C332000010B5203AC0F00B80B1E8185008
:1008A000203AA0E81850B1E81850A0E81850BFF45A
:1008B000F5AF5FEA027C24BFB1E81850A0E81850F9
:1008C00044BF18C918C0BDE810405FEA827C24BF4D
:1008D00051F8043B40F8043B08BF7047D20728BFDB
:1008E00031F8023B48BF11F8012B28BF20F8023B2A
:1008F00048BF00F8012B7047431A28BF9A427FF681
:10090000C9AF104410F0030F11441EBF11F8013D90
:10091000521E00F8013D10F0030F7FF4F6AF103ABD
:10092000C0F00A8010B531E91850103A20E918508B
:10093000BFF4F9AFBDE81040530724BF31E90810F8
:1009400020E9081044BF51F8043D40F8043D12F07E
:10095000030F08BF7047D20728BF31F8023D48BFD8
:1009600011F8012C28BF20F8023D48BF00F8012CE7
:100970007047000001694A1C02610878704700B5A1
:100980008FB0CDE901310021059105497944CDE9C8
:10099000031011466846FFF739FD0FB000BD000097
:1009A000E5FFFFFF007B00F080007047754600F018
:1009B0002BF8AE4605006946534620F007008546F1
:1009C00018B020B5FFF786FCBDE820404FF00006C8
:1009D0004FF000074FF000084FF0000B21F0070127
:1009E000AC46ACE8C009ACE8C009ACE8C009ACE86A
:1009F000C0098D46704710B50446AFF3008020460D
:100A0000BDE81040FFF7E5BB00487047EC30002020
:100A100010B510220B490C48FFF7DEFD0A492039BA
:100A200008480E38C28B0A8690F8200081F8320000
:100A3000084601F035FD05490348203803F070F9F8
:100A400010BD00000E010020F12F0020112F00200A
:100A500010B500224FF48171052005F0E7F809492F
:100A60000860002201210A2005F0E0F8064908602C
:100A700000224FF48171032005F0D8F80349086083
:100A800010BD00000000002004000020080000202D
:100A900010B5012005F0A6F80449086000231A46A5
:100AA00019460248006805F0A9F910BD0C000020A5
:100AB0001FB50020274A0223CDE9012000930390AF
:100AC0000346802224A1274805F03CFA0446012C65
:100AD00002D025A0FFF712FC0020284A0323CDE90D
:100AE00001200093039003464FF4807224A127480D
:100AF00005F028FA0446012C02D025A0FFF7FEFBE2
:100B00000020284A0423CDE90120009303900346E6
:100B10004FF4807224A1284805F014FA0446012CF1
:100B200002D026A0FFF7EAFB00202B4A0523CDE9DF
:100B300001200093039003464FF4807227A12B48B5
:100B400005F000FA0446012C02D029A0FFF7D6FBDD
:100B50001FBD000018000020764C65645461736B63
:100B600000000000E14A00080A764C656454617395
:100B70006BB4B4BDA8CAA7B0DC0000001C00002004
:100B8000764E65745461736B00000000754C00086C
:100B90000A764E65745461736BB4B4BDA8CAA7B02D
:100BA000DC0000002000002076576972656C6573D8
:100BB0007352785461736B00DD5A00080A765769E6
:100BC00072656C65737352785461736BB4B4BDA86D
:100BD000CAA7B0DC0000000024000020765769722C
:100BE000656C65737354785461736B00395B0008EE
:100BF0000A76576972656C65737354785461736BC8
:100C0000B4B4BDA8CAA7B0DC0000000000BFFEE776
:100C100070B502460B464FF6FF70002414E012F840
:100C2000011B81EA000505F00F05094E36F8155045
:100C300085EA201080EA211505F00F0536F81550D9
:100C400085EA2010651CACB29C42E8DB70BD000058
:100C5000406A000810B50446002001F0E5FC4FF49E
:100C60000041074800F001FD342001F0CFFE20468E
:100C700001F0CCFE4FF40041014800F0F8FC10BD3B
:100C8000000801407047000010B54FF4805000F09C
:100C900011F830B14FF4805000F006F8014802F02E
:100CA00013F810BDE60200200149086070470000FB
:100CB00014040140014600200022074B1B6803EA90
:100CC0000102054B14331B680B4013B10AB101201C
:100CD00000E000207047000000040140002123498B
:100CE0008279002A3AD00A46126803689A430B4672
:100CF0001A600A1D126803689A430B1D1A60027974
:100D000011440A6803681A430A60184A08321268D4
:100D100003689A43154B08331A601A1D126803685A
:100D20009A43124B0C331A604279102A0ED11A1FC3
:100D3000126803681A430D4B08331A601A1D1268B3
:100D400003681A43094B0C331A600DE007494279D6
:100D500011440A6803681A430A6005E002791144E5
:100D60000A6803689A430A60704700000004014063
:100D70002DE9FF4F83B0044689469A46E779384605
:100D8000F91707EB11714FEA2118F91707EB1171E9
:100D90000911A7EB011101F0FF0B607900F0800051
:100DA00048B1BAF1000F06D0A9F1090001190622D5
:100DB00001A8FFF756FC002517E0BAF1000F09D093
:100DC0002A01083211192A0108321019394A02F091
:100DD000A7FC08E02A01083211192A01083210196B
:100DE000344A02F0D1FE681CC5B24545E5DBBBF1D3
:100DF000000F32D0BAF1000F1FD0002508E000210B
:100E00004FEA08100830584428442154681CC5B2E1
:100E1000CBF11000A842F2DC4FEA08120832111997
:100E20004FEA081208321019224A02F079FC09F13F
:100E30001000A0EB0B00C6B210E04FEA0812083217
:100E400011194FEA0812083210191A4A02F09CFED2
:100E5000A9F110005844C6B200E04E46607900F097
:100E6000800058B1BAF1000F08D0E17908310819B3
:100E7000062201A9FFF7F5FBB01DC6B2032E03DA67
:100E8000002007B0BDE8F08FF01E81B22046FFF7CA
:100E9000BFFE009000980112F01E21540098C1B2CC
:100EA000B01E21545321701E215405980670002055
:100EB000E7E70000112F002030B5044604254FF469
:100EC000302000F06FF80546042D17D10C4800695A
:100ED00040F002000A49086108464461006940F098
:100EE000400008614FF4302000F05CF805460448EB
:100EF000006941F6FD71084001490861284630BD8E
:100F00000020024004200B49C96801F0010109B129
:100F100001200EE00749C96801F0040109B102206F
:100F200007E00449C96801F0100109B1032000E09D
:100F300004207047002002400348006940F0800010
:100F400001490861704700000020024070B5044666
:100F50000D460426F00200F025F80646042E11D1B5
:100F60000948006940F00100074908612580F00246
:100F700000F018F806460448006941F6FE71084082
:100F800001490861304670BD002002400248034913
:100F900048600348486070472301674500200240CD
:100FA000AB89EFCD00B502460423FFF7ABFF034644
:100FB00003E0FFF7A7FF0346521E012B01D1002AD1
:100FC000F7D102B90523184600BD00002DE9F04114
:100FD0008EB006460D4617461C46342101A8FFF781
:100FE000ACFB4FF00008322D02DD0EB0BDE8F08101
:100FF0002A46314601A8FFF7EFFA9DF80A0040F0B3
:1010000080008DF80A00002C04DD201DC0B28DF890
:101010000B0002E000208DF80B002246394604A8A0
:10102000FFF7DAFA01A800F0E9F98046424601A983
:10103000024802F092FA00BFD7E7000000380140F2
:101040002DE9F0418EB006460D4617461C46342168
:1010500001A8FFF772FB4FF00008322D02DD0EB041
:10106000BDE8F0812A46314601A8FFF7B5FAFF2016
:101070008DF805008DF806008DF807008DF8080042
:101080009DF80A0040F080008DF80A00002C04DD75
:10109000201DC0B28DF80B0002E000208DF80B007F
:1010A0002246394604A8FFF797FA01A800F0A6F9EE
:1010B0008046424601A9024802F04FFA00BFCEE73F
:1010C000003801402DE9F047C0B0054688469146FA
:1010D0009A464FF480716846FFF72FFBBAF1000F74
:1010E00016D1A8F10B00C2B2694605F1080002F062
:1010F000B2FA044653200DF80400621C694605F15B
:101100000800FFF769FA04F1090089F8000020E0FF
:10111000A8F10900C2B2694605F1080002F07CFAA4
:1011200004462246694605F10800FFF755FA04F126
:1011300008012846FFF76CFD064605F10807301246
:101140003855601C3E545321A01C3954093089F88D
:10115000000040B0BDE8F0872DE9F047C0B004467C
:101160000F46904699464FF480716846FFF7E5FABE
:101170004FF0000AB9F1000F28D1A7F1090000F0E3
:10118000FF0A52466946601D02F065FA2949087057
:1011900008460078C01CA070A078C043E07096207C
:1011A0000A4612780DF80200962122480078401C69
:1011B0000DF800101F480278921C6946601DFFF769
:1011C0000BFAA078001D88F8000030E0F81F00F04E
:1011D000FF0A52466946601D02F01EFA1549087062
:1011E000084602786946601DFFF7F6F91148007855
:1011F000401DA070A078C043E0700E480178491DE2
:101200002046FFF705FD064625463012A1782C46FC
:101210006854A078401C2E549621A078801C295434
:10122000A078C01C2954A078001D88F8000040B0A8
:10123000BDE8F087F70000202DE9F04FC1B0074668
:101240008A46164698464B9D4FF4807101A8FFF7D9
:1012500074FA70190D3000F0FF0B0BF1040101A8B6
:10126000FFF76BFA01AC69202070607070190D30C7
:10127000A070A078C043E070207920F002002071B7
:10128000207920F00100401C20712348C07F60714C
:10129000214890F82010A171E771B0F80710218162
:1012A000407AA072E07A65F30710E072E07A20F0ED
:1012B0000F000F30E0722573227B0DF111004A9967
:1012C000FFF78AF9217B0D3101AA88183246514671
:1012D000FFF782F9A17801A8FFF79AFC81464FEA4F
:1012E0002920A17801AA5054A078401C02F800904F
:1012F0009621A078801C1154A078C01C1154A078AD
:10130000021D01A94046FFF767F9A078001DC0B291
:1013100041B0BDE8F08F0000000100202DE9F04F42
:10132000C1B006468A4617469846DDF828B14B9D5F
:101330004FF4807101A8FFF700FA01AC692020701A
:10134000607078191430A070A078C043E0702079E4
:1013500020F002002071207920F001002071264841
:10136000C07F6071244890F82010A1713068C4F8E3
:1013700007007068C4F80B001F48B0F80710A4F805
:101380000F10407A6074A07C65F30710A074A07CF5
:1013900020F00F000F30A074E574E27C594606A8D7
:1013A000FFF71AF9E17C143101AA88183A46514630
:1013B000FFF712F9A17801A8FFF72AFC81464FEA4E
:1013C0002920A17801AA5054A078401C02F800906E
:1013D0009621A078801C1154A078C01C1154A078CC
:1013E000021D01A94046FFF7F7F8A078001DC0B222
:1013F00041B0BDE8F08F00000001002070B5044648
:10140000AC202070A07920F02000A071E079083095
:10141000C5B229462046FFF7FBFB06463012605551
:10142000681CC5B26655681CC5B253206055681C5F
:10143000C5B2284670BD000030B500228B071C0FD6
:101440000F2303FA04F20B4B8C1053F82430934310
:10145000084C8D1044F8253023468C1053F8243066
:101460008C07240F00FA04F42343024C8D1044F837
:10147000253030BD080001402DE9F041024600252D
:101480000026002000230024002791F803C00CF060
:101490000F0591F803C00CF0100CBCF1000F03D045
:1014A00091F802C04CEA050591F800C0BCF1000FAC
:1014B00031D0146800202BE04FF0010C0CFA00F33F
:1014C000B1F800C00CEA03069E4220D183004FF021
:1014D0000F0C0CFA03F7BC4305FA03FC4CEA0404B6
:1014E00091F803C0BCF1280F06D14FF0010C0CFAA3
:1014F00000FCC2F814C00AE091F803C0BCF1480F28
:1015000005D14FF0010C0CFA00FCC2F810C0401CD1
:101510000828D1D31460B1F800C0BCF1FF0F34DD4E
:10152000546800202EE000F1080C4FF0010808FA82
:101530000CF3B1F800C00CEA03069E4221D18300EF
:101540004FF00F0C0CFA03F7BC4305FA03FC4CEA0E
:10155000040491F803C0BCF1280F05D100F1080C78
:1015600008FA0CF8C2F8148091F803C0BCF1480FD7
:1015700007D100F1080C4FF0010808FA0CF8C2F886
:101580001080401C0828CED35460BDE8F0810000D4
:1015900070B50546002001F047F84FF400410948B6
:1015A00000F063F8002404E0285D01F02FFA601CCD
:1015B000C4B2082CF8DB4FF40041024800F057F8A1
:1015C00070BD000000080140F0B50A460023002469
:1015D0000021002500F00046B6F1004F02D11D4E5B
:1015E000F16901E01B4E7168C0F3034583B200F45A
:1015F0004016B6F5401F08D121F07061154E76688F
:1016000026F07066134F7E6012E000F48016B6F587
:10161000801F06D1032606FA05F4A14341F070614C
:1016200006E0460D360103FA06F6B14341F070615B
:1016300022B1460D360103FA06F6314300F00046AA
:10164000B6F1004F02D1034EF16101E0014E71602D
:10165000F0BD0000000001400246002093680B40EE
:101660000BB1012000E0002070474161704701612B
:10167000704700002DE9F04105460E461746984692
:10168000002000F0D1FF4FF400411448FFF7EDFFB8
:10169000202001F0BBF9304601F0B8F9384601F0DE
:1016A000B5F9404601F0B2F94FF400410B48FFF79D
:1016B000DEFF012000F0B8FF002405E0AA2001F0C1
:1016C000A5F92855601CC4B2082CF7DB4FF4004183
:1016D0000248FFF7CCFFBDE8F081000000080140A0
:1016E00010B5002000F0A0FF4FF400412048FFF7A4
:1016F000BCFF222001F08AF94FF400411C48FFF79B
:10170000B6FF012000F090FFAA2001F07FF91949EF
:101710000870AA2001F07AF916494870AA2001F051
:1017200075F914498870AA2001F070F91149C87040
:10173000AA2001F06BF90F490871AA2001F066F99F
:101740000C494871AA2001F061F9000200B2094970
:10175000C880AA2001F05AF90649B1F906100843D9
:101760000449C8804FF400410148FFF780FF10BDD5
:1017700000080140EC05002010B5002000F054FFE7
:101780004FF400412148FFF770FF012001F03EF9BE
:101790004FF400411D48FFF76AFF012000F044FFAD
:1017A000AA2001F033F91A490870AA2001F02EF995
:1017B000000217494880AA2001F028F914494988F5
:1017C000084313494880AA2001F020F91049087104
:1017D000AA2001F01BF900020D49C880AA2001F0DF
:1017E00015F90B49C98808430949C880AA2001F0A6
:1017F0000DF907490872AA2001F008F90449487256
:101800004FF400410148FFF732FF10BD00080140CE
:10181000EC050020134A937FD27F1344114A92F8BB
:101820002020991819B90A22027042700EE0CA06E7
:10183000920E02700278521C427002780A2A05D178
:101840000278921C02700278521C42700278064B99
:101850009A5C064BDA714278034B9A5C034B1A721E
:101860007047000000010020F06500084A000020D9
:1018700000BFFEE710B54FF480710C48FFF7F7FE8C
:101880004FF400710948FFF7F2FE012002F0BCF8A6
:101890004FF480710548FFF7E8FE012002F0B4F82C
:1018A0004FF400710148FFF7E0FE10BD000C01404D
:1018B00010B54FF480710C48FFF7D7FE4FF400715C
:1018C0000948FFF7D4FE012002F09EF84FF4807122
:1018D0000548FFF7CCFE012002F096F84FF40071A6
:1018E0000148FFF7C2FE10BD000C014070B505466F
:1018F000002421E04FF400712648FFF7B6FE05F002
:10190000800028B14FF480712248FFF7B0FE04E058
:101910004FF480711F48FFF7A8FE012002F074F811
:101920004FF400711B48FFF7A2FE012002F06CF893
:101930006806050E601CC4B2082CDBDB4FF4007196
:101940001448FFF792FE012002F05EF84FF4807118
:101950001048FFF78CFE012002F056F84FF400719A
:101960000C48FFF784FE012002F04EF801E0601CF5
:10197000C4B24FF480710748FFF76EFE08B1FF2C28
:10198000F5DB4FF400710348FFF76FFE012002F012
:101990003BF870BD000C014070B58EB004460D469A
:1019A000342101A8FEF7C9FE00269DF80A0040F088
:1019B00088008DF80A0005208DF80B00FF22042115
:1019C0000DF10500FEF78FFE9DF809001149097819
:1019D00001F00F0108438DF809000E480078401C03
:1019E0000C4908708DF80C400B48B0F80910ADF8A0
:1019F0000D10C07A8DF80F008DF8105001A8FFF778
:101A0000FDFC0646324601A9044801F0A6FD0EB0D1
:101A100070BD0000F4000020046800080038014098
:101A200070B505460C4612480078401C10490870F5
:101A300008460078A04213DD002008700D480E4AC9
:101A40001278815C284600F0A1F80B480078401C11
:101A50000949087008460078202801DB002008703A
:101A60000121284600F0C6F800F03EFF70BD0000DE
:101A700039000020AA6500083800002070B504462F
:101A80000D463E480078401C3C49087008460078E6
:101A9000A84271DD00200870BCB93949394A127872
:101AA000885C002100F078FE354A36490978491CE7
:101AB000505C012100F070FE314A32490978891CDE
:101AC000505C012100F068FE49E0012C17D12E493D
:101AD0002C4A1278885C002100F05EFE2A4A2949CF
:101AE0000978491C505C012100F056FE264A254920
:101AF0000978891C505C012100F04EFE2FE0022C79
:101B00002DD11F491F4A1278885C002100F044FE45
:101B10001B4A1C490978491C505C012100F03CFE1D
:101B2000174A18490978891C505C012100F034FEDD
:101B30001549144A1278885C002100F02DFE124AE3
:101B400010490978491C505C012100F025FE0E4A1D
:101B50000C490978891C505C012100F01DFE00F041
:101B6000C3FE08480078401C064908700846007803
:101B7000082801DB0020087070BD0000370000203D
:101B8000D465000836000020CA65000870B5054617
:101B90000E46002425B1012D0DD0022D21D115E0D6
:101BA000022405E03146204600F0E2FDA01CC4B24C
:101BB000122CF7DD15E0012405E03146204600F047
:101BC000D7FDA01CC4B2122CF7DD0AE0012405E009
:101BD0003146204600F0CCFD601CC4B2122CF7DD6B
:101BE00000BF00BF0A21092000F0C2FD00F07CFE0A
:101BF00070BD00002DE9F04105460E4600241A484C
:101C00000078C0F3800725B1012D0DD0022D21D120
:101C100015E0022405E03146204600F0BDFDA01C81
:101C2000C4B2122CF7DD15E0012405E03146204650
:101C300000F0B2FDA01CC4B2122CF7DD0AE00124B2
:101C400005E03146204600F0A7FD601CC4B2122C0E
:101C5000F7DD00BF00BF3946092000F09DFD00F010
:101C600043FEBDE8F08100003100002010B50446BD
:101C70002146092000F090FD00F036FE10BD30B581
:101C800003460C4600210DE0585C655CA84201DD6E
:101C9000012030BD585C655CA84201DA0220F8E7FB
:101CA000481CC1B29142EFDB0020F2E7F0B50746D5
:101CB0000D461121284600F05DF9C0F11100C4B2B3
:101CC000C4F11100C2B22919384600F015F90026F6
:101CD00009E0C4F11203DAB2631E5919B81900F011
:101CE0000BF9701CC6B2A642F3DBF0BD002104E084
:101CF0004A1C825C42544A1CD1B21029F8DB0022F3
:101D000002747047F0B504460D461E460023012EAE
:101D100013D110200BE0471EE75D07FB053712F8D3
:101D200000C06744B9B211540B12471EF8B2002824
:101D3000F1DC17781F4417700DE0102008E0471EF3
:101D4000E75D07FB0537B9B211540B12471EF8B215
:101D50000028F4DC1370F0BD2DE9F04782460D46F3
:101D600016461F461021284600F004F98046C8F1A7
:101D7000100000EB0509002403E000203055601C32
:101D8000C4B2112CF9DB002413E019F8041001236C
:101D900032465046FFF7B6FF39463046FFF786FF1A
:101DA0003046FFF7A3FF39463046FFF77FFF601C40
:101DB000C4B2A8F10100A042E7DC19F80410012325
:101DC00032465046FFF79EFF39463046FFF76EFF1A
:101DD000BDE8F0872DE9FF4F81B0834690461D4650
:101DE0004FF0080A1021404600F0C4F88146B9F1CE
:101DF000000F02D105B0BDE8F08F102258460299BD
:101E0000FEF72FFCC9F1100000EB08073C78002614
:101E10000BE004F0800000B109E06006040EAAF1B6
:101E2000010000F0FF0A701CC6B2082EF1DB00BFF3
:101E30006006040EAAF1010000F0FF0A00261CE073
:101E40002A46594658460E9BFFF786FF1022691C0A
:101E50005846FEF706FC04F0800050B12A46594669
:101E60000E9B0298FFF778FF1022691C5846FEF778
:101E7000F8FB6006040E701CC6B25645E0DB7F1C02
:101E800000201C4908702CE01A4800783C5C0020B7
:101E900000901EE02A46594658460E9BFFF75CFF0D
:101EA0001022691C5846FEF7DCFB04F0800050B19C
:101EB0002A4659460E9B0298FFF74EFF1022691CD6
:101EC0005846FEF7CEFB6006040E0098401CC0B2D8
:101ED000009000980828DDDB06480078401C054982
:101EE0000870A9F10100034909788842CCDC00BFE1
:101EF00080E70000FC000020F0B505460C461646C1
:101F000030E000230021304629E0471EE95DE75D0F
:101F10008F420BD1012B07D1471E14F807C04F1E6B
:101F2000A7EB0C07FAB216E0002214E0471EE75DAB
:101F30008F4208DAA1EB030C471EE75DACEB070705
:101F4000FAB2002307E0A1EB030C471EE75DACEB00
:101F50000707FAB20123471EEA55421ED0B20028F5
:101F6000D3DC00BF324621462846FFF788FE022810
:101F7000C7D1F0BD03460A46002107E0585C00289F
:101F800002DD501AC0B27047481CC1B29142F5DB65
:101F90000020F8E770B504460D4624B1012C0BD0A3
:101FA000022C23D111E02946022000F0F5FB29463E
:101FB000042000F0F1FB19E02946012000F0ECFBC1
:101FC0002946032000F0E8FB10E02946012000F03C
:101FD000E3FB2946032000F0DFFB2946022000F046
:101FE000DBFB2946042000F0D7FB00BF00BF00F058
:101FF0007BFC70BD70B504460D4624B1012C0BD09E
:10200000022C23D111E029460C2000F0C5FB294603
:102010000E2000F0C1FB19E029460B2000F0BCFBAC
:1020200029460D2000F0B8FB10E029460B2000F0F7
:10203000B3FB29460D2000F0AFFB29460C2000F031
:10204000ABFB29460E2000F0A7FB00BF00BF00F04D
:102050004BFC70BD70B5054606240021084600F013
:102060009BFB02221221012000F02BFB002617E02F
:10207000042C00D10524012101EB4401C8B2012147
:1020800000F08AFB022101EB4401C8B2012100F0FB
:1020900083FB601CC4B2082C00DD0024701CC6B297
:1020A00005EBD571012202EB6101B142E0DC0120B8
:1020B000FFF7DCFD00F018FC70BD000070B5712268
:1020C0001649174800F0CCFC00241EE0002509E06A
:1020D0001248401C015D1348405D814200D107E079
:1020E000681CC5B20F48233890F82200A842EFDCE4
:1020F00000BF0C48233890F82200A84203D10021E9
:102100000648401C0155601CC4B2E12CDEDB712284
:102110000249034800F0B8FC70BD00000402002032
:1021200000E80008230100202DE9F04106460D4695
:102130000024002706F030073F11012F18D1284650
:1021400000F01CF8012801D1BDE8F08100240DE069
:102150000848005D40B9074805557122411E0648F0
:1021600000F092FC0120EFE7601CC4B2E12CEFDB31
:102170000020E9E70502002000E8000802460021EF
:1021800000BF07E00548405C904201D10120704744
:10219000481CC1B2E129F5DB0020F8E70502002068
:1021A0000246002100BF07E00548405C904201D193
:1021B00001207047481CC1B2E129F5DB0020F8E797
:1021C0000502002070B50446002500BF0AE0012387
:1021D00006A22146064800F07FFF192001F008FC06
:1021E000681CC5B20F2DF2DB70BD0000310000008D
:1021F000E602002000BFFEE77047000070B5002136
:1022000000230F22C47804B3154C246804F4E0645E
:10221000C4F5E064210AC1F10403CA40447804FA19
:1022200003F184781440214309010E4C0678A1552E
:10223000047804F01F050124AC4005786D11AD0051
:1022400005F1E025C5F8004109E0047804F01F0518
:102250000124AC40044D0678761145F8264070BD47
:102260000CED00E000E400E080E100E00249014301
:10227000024A1160704700000000FA050CED00E012
:1022800029B1064AD2690243044BDA6104E0034AE9
:10229000D2698243014BDA617047000000100240AE
:1022A00029B1064A92690243044B9A6104E0034A49
:1022B00092698243014B9A6170470000001002400E
:1022C00030B500210022002400232D4D6D6805F05B
:1022D0000C0121B1042905D0082923D105E0294D9D
:1022E000056022E0274D05601FE0254D6D6805F46F
:1022F0007012234D6D6805F48034022505EB92427F
:102300001CB9214D554305600BE01D4D6D6805F46A
:1023100000351DB11C4D5543056002E0194D554374
:10232000056002E0174D056000BF00BF144D6D68E9
:1023300005F0F0010909154D6B5C0568DD4045604D
:102340000F4D6D6805F4E061090A104D6B5C45683E
:10235000DD4085600A4D6D6805F46051C90A0B4D7A
:102360006B5C4568DD40C560054D6D6805F4404116
:10237000890B074D6B5CC568B5FBF3F5056130BD96
:102380000010024000127A0000093D008C0000207D
:102390009C00002070B504460D464FF0E02188698E
:1023A000FEF7D0F8FDF76EFF291B491CB0FBF1F2D8
:1023B00001FB12000619B0B200F080FC70BD0000F5
:1023C00010B50446012C02D10C49087013E0012C11
:1023D00011DD022009490870601EC4B208E00749F7
:1023E0000878022101F0B8FB04490870601EC4B2ED
:1023F000601E0028F3DC014810BD0000F80000203A
:1024000070B505460E46002000F00EF94FF400416D
:102410000A48FFF72AF9772000F0F8FA002405E0CF
:10242000AA2000F0F3FA2855601CC4B2B442F7DBCE
:102430004FF400410148FFF71AF970BD0008014050
:1024400038B505460020009000F0EEF84FF400414A
:102450001248FFF70AF9152000F0D8FA284600F0D4
:10246000D5FA4FF400410D48FFF701F9012000F0C3
:10247000DBF800240AE0AA2000F0C8FA0DF80400F6
:102480009DF801008DF80000601CC4B2022CF2DB44
:102490004FF400410148FFF7EAF838BD0008014059
:1024A0002DE9F84305461A4F07F1100606F111040D
:1024B00004F1130810212046FEF71DF910213846BB
:1024C000FEF719F911213046FEF715F911214046A2
:1024D000FEF711F910220F493846FEF7C2F8102214
:1024E0000D49701CFEF7BDF813220C492046FEF77B
:1024F000B8F843463A46214628460096FFF76AFC5C
:10250000207CE870607CE871A07CE872BDE8F8830C
:10251000112F0020606C0008706C0008F12F002063
:102520001CB54FF480502449088041102348FFF720
:102530009EF8022000F0C2FB4FF400611F48FFF735
:1025400094F80A2000F0BAFB4FF400411B48FFF753
:102550008CF8022000F05AFA012000F057FA00200F
:1025600000F054FA012000F051FAC92000F04EFAB0
:10257000C32000F04BFA802000F048FA4FF40041ED
:102580000E48FFF774F8022000F098FB00231A466B
:1025900019466846FFF76EF8FFF7EEF82020064967
:1025A00008800748408844F23841884201D0012021
:1025B0001CBD0020FCE70000440000200008014092
:1025C000EC05002008B501210D20FFF769FE01216F
:1025D0001148FEF7F9FF4FF40840ADF80000102055
:1025E0008DF8030003208DF8020069460B48FEF7C2
:1025F00043FF4FF408410948FFF739F84FF44050C2
:10260000ADF8000069460648FEF736FF012005498F
:10261000086000F06FF908BD0002300000080140BA
:10262000000C0140BC01214270B5054619480488E0
:102630004FF400411848FFF718F8442000F0E6F97D
:102640000EE04FF400411448FFF711F84FF4004139
:102650001148FFF70AF8442000F0D8F9601E84B250
:10266000C02000F0D3F9FF2801D0002CE9D144B9F3
:102670004FF400410848FEF7FAFF022007490870AE
:1026800070BD25B94FF400410348FEF7F0FF00BFCD
:10269000F6E7000044000020000801403C00002054
:1026A00070B505460C46FFF7E5F8A820FFF71EF9C0
:1026B0002846FFF71BF92046FFF718F9FFF7F8F84F
:1026C00070BD2DE9F04104460D4616460027B84678
:1026D000A54201DABDE8F081281B401C00F0FF088C
:1026E000FFF7C8F8A820FFF701F92046FFF7FEF82A
:1026F000002704E03046FFF7F9F8781CC7B24745D9
:10270000F8DBFFF7D5F800BFE4E7000010B500F0F4
:10271000D5F880211248FEF7AAFF0A2001F068F9D7
:1027200001211720FFF7BCFF01210020FFF7B8FFB0
:102730000C4801781320FFF7B3FF0B4801781420F1
:10274000FFF7AEFF094801781520FFF7A9FF022225
:1027500012210120FFF7B5FF00F0C6F810BD000000
:10276000000C014030000020310000203200002029
:1027700070B504460D46122C00DD70BD2CB92A46FA
:1027800012210120FFF79DFF03E029462046FFF7B5
:1027900087FF00BFF1E7000070B504460D46132C1B
:1027A00072D2DFE804F00A25262728292A43444567
:1027B0004647486162636465660065B90022152179
:1027C0001320FFF77EFF002039490870394908704F
:1027D000394908700BE03F2215211320FFF771FFE4
:1027E0003F203349087033490870334908705DE071
:1027F00000BF00BF00BF00BF00BF45B9601E012180
:1028000081402B48007888432949087008E0601E01
:10281000012101FA00F0264909780843244908708B
:10282000234801781320FFF73BFF3FE000BF00BFC4
:1028300000BF00BF00BF45B9E01F012181401D4816
:10284000007888431B49087008E0E01F012101FA65
:1028500000F01849097808431649087015480178AE
:102860001420FFF71DFF21E000BF00BF00BF00BF25
:1028700000BF55B9A4F10D00012181400E48007838
:1028800088430D4908700AE00FE0A4F10D00012112
:1028900001FA00F00849097808430749087006481A
:1028A00001781520FFF7FCFE00E000BF00BF70BDFF
:1028B00030000020310000203200002008B5012146
:1028C0000820FFF7EDFC4FF46070ADF80000102019
:1028D0008DF8030003208DF8020069460148FEF7D9
:1028E000CBFD08BD000C014010B500211620FFF7FC
:1028F000D7FE10BD00B587B001210846FFF7D0FC18
:1029000001210803FFF7CCFC01210820FFF7C8FCD8
:1029100001211E48FEF758FE01210846FEF754FE2D
:102920003820ADF8180018208DF81B0003208DF812
:102930001A0006A91648FEF79FFD0021154800F071
:102940002DF80020ADF804004FF48270ADF80600B9
:102950000020ADF80800ADF80A00ADF80C004FF407
:102960000070ADF80E002020ADF810000020ADF88A
:1029700012000A20ADF8140001A9074800F028F859
:102980000121054800F00AF807B000BD0002300040
:10299000000C0140003800400030014021B10288A5
:1029A00042F04002028004E002884FF6BF731A40F2
:1029B000028070470246002013890B400BB10120B2
:1029C00000E0002070470146888970478181704788
:1029D00010B50022028802F441520B884C88234330
:1029E0008C882343CC8823430C8923434C8923437D
:1029F0008C892343CC8923431A430280838B4FF273
:102A0000FF74234083830B8A038210BD70B5054693
:102A1000002405E0601CC4B2C82C01DD002070BD9C
:102A200002210E48FFF7C6FF0028F3D029460B48C5
:102A3000FFF7CCFF002405E0601CC4B2C82C01DD08
:102A40000020ECE701210548FFF7B4FF0028F3D090
:102A50000248FFF7B8FFC0B2E1E7000000300140D4
:102A600030B503460C461546002207E0184600F034
:102A700008F824F812009B1C501C82B2AA42F5DB15
:102A800030BD0146088870472DE9F05F80468A46D0
:102A90001746B8F1006F02D33348804501D3BDE833
:102AA000F09FFEF773FAA8F1006B4FEA9B25CBF37A
:102AB0004809C9F50074A74200DC3C464DE04FF0E0
:102AC000006101EB85208A142849FFF7C9FF002621
:102AD0000BE009EB0600254931F810004FF6FF71B5
:102AE000884200D003E0701C86B2A642F1DB00BF32
:102AF000A6421BDA4FF0006101EB8520FEF7DCF9FE
:102B0000002608E03AF8160006EB0901174A22F8F9
:102B10001100701C86B2A642F4DB4FF0006101EB9D
:102B200085208A14114900F023F804E0224651461A
:102B3000404600F01DF8A74200D10FE06D1C4FF099
:102B400000090AEB440AA044381B87B2B7F5007F9E
:102B500002DD4FF4007400E03C46B0E700BFFEF732
:102B6000EBF900BF9BE7000000000108F60500201C
:102B70002DE9F04105460E461746002407E036F8D9
:102B800014102846FEF7E2F9AD1C601C84B2BC426A
:102B9000F5DBBDE8F08110B500F002F810BD0000D3
:102BA0000CB50020019000903348006840F480305C
:102BB0003149086000BF3048006800F400300090E0
:102BC0000198401C0190009818B90198B0F5A06FC9
:102BD000F1D12948006800F4003010B101200090C4
:102BE00001E0002000900098012843D123480068AC
:102BF00040F01000214908600846006820F00300FA
:102C000008600846006840F0020008601A48406802
:102C1000194948600846406848600846406840F4E2
:102C2000806048600846406820F47C104860084690
:102C3000406840F4E81048600846006840F0807042
:102C4000086000BF0C48006800F000700028F9D050
:102C50000948406820F0030007494860084640687A
:102C600040F00200486000BF0348406800F00C00DC
:102C70000828F9D10CBD00000010024000200240DD
:102C800070B5044600250020FFF7CEFC4FF400414C
:102C90000948FEF7EAFC00BF04E0605DFFF7B6FEFE
:102CA000681CC5B2A078001DA842F6DC4FF40041B4
:102CB0000148FEF7DCFC70BD0008014010B5044679
:102CC000204600F095FE10BD7CB504460020009023
:102CD000019000231A4619466846FEF7CBFC9DF882
:102CE00002509DF8046006F0010010B10120664911
:102CF000088006F00800082802D103206349087004
:102D000005F00800082806D1042061490870002059
:102D10005D490880B7E005F01000102842D15D48F9
:102D2000007868B90421E01CFFF76AFBE07803280B
:102D300016DDE078C01EC1B2E01DFFF761FB0FE0B9
:102D40005548007800280BDD5249097801EB410114
:102D50000901091FE21D88184F490978FFF750FB48
:102D6000FEF7BEFC4D48C07860704C484078212882
:102D700007DB4A484078262808DD4848407848283C
:102D800004DA464840784649085C2070E078C01E66
:102D9000A0702079207003203D49087000203A4936
:102DA000088070E005F0010060B33948007803281E
:102DB00069D03848007878B90421E01CFFF720FB7F
:102DC0002C21E01DFFF71CFBE0782F3832490870FA
:102DD00001203049087056E02E49097801EB410185
:102DE0000901091FE21D88183021FFF709FB2A4855
:102DF000007830382849087026480078401C25495A
:102E0000087040E005F02000202809D10020254965
:102E1000087006201E490870002084F8040332E080
:102E200005F0020002282ED11E480078302816DD59
:102E30001D49097801EB410109013C3104F5837218
:102E40008818302100F0C8FB17480078401C16494C
:102E500008701448007830381249087013E011489F
:102E6000007800280FDD1049097801EB41010901C4
:102E70003C3104F5837288180A49097800F0ACFBEC
:102E80000020084908707CBD3A0000203C0000206A
:102E90003D0000204200002043000020EC050020FF
:102EA00032660008400000204100002010B53F4875
:102EB000FFF7E6FE3E48FFF7E3FE3E48FFF7E0FE81
:102EC0003D48FFF7DDFE3D48FFF7DAFE3C48FFF7DF
:102ED000D7FE3C48FFF7D4FE3B48FFF7D1FE3B4806
:102EE000FFF7CEFE3A48FFF7CBFE3A48FFF7C8FEA1
:102EF0003948FFF7C5FE3948FFF7C2FE3848FFF7EB
:102F0000BFFE3848FFF7BCFE3748FFF7B9FE374829
:102F1000FFF7B6FE3648FFF7B3FE3648FFF7B0FEC0
:102F20003548FFF7ADFE3548FFF7AAFE3448FFF7F6
:102F3000A7FE3448FFF7A4FE3348FFF7A1FE33484D
:102F4000FFF79EFE3248FFF79BFE3248FFF798FEE0
:102F50003148FFF795FE3148FFF792FE3048FFF702
:102F60008FFE3048FFF78CFE2F48FFF789FE2F4871
:102F7000FFF786FE2E48FFF783FE2E48FFF780FE00
:102F80002D48FFF77DFE2D48FFF77AFE2C48FFF70E
:102F900077FE2C48FFF774FE2B48FFF771FE2B4895
:102FA000FFF76EFE2A48FEF7F3FA10BD7A660008B6
:102FB00080660008856600088C6600089466000834
:102FC0009D660008A4660008A9660008B9660008A6
:102FD000DB660008EB660008FB6600080267000875
:102FE000076700080E67000816670008C06600083B
:102FF0001F670008256700082B6700083067000876
:10300000396700084967000859670008D366000857
:1030100069670008C76600084A0000207467000856
:103020008467000894670008A4670008B467000874
:10303000BE6700085A000020620000206A000020DD
:1030400072000020C5670008CB670008D067000841
:103050007A0000201FB504460020029003904FF430
:1030600000511748FEF701FB4FF480511448FEF75A
:10307000FEFA00231A46194602A8FEF7FBFA114889
:103080000078012801D104B010BD412C00DD41249D
:103090000220FFF7D5F908200321CDE900100A49E5
:1030A000085D00231A46194600F0D2F800200749AF
:1030B0000870074908700120064908700020E2E7FF
:1030C000000C01403C000020F06500084200002098
:1030D000430000203D0000202DE9FE4304460E463B
:1030E00090461D46002001900290009045480078CF
:1030F000012801D1BDE8FE83FB2D00DDFB25412E1B
:1031000000DD41263046FFF7A5FF28211420FFF7F8
:1031100041F93C480078032814D1002084F80503C5
:10312000384908703046FFF795FF28211420FFF733
:1031300031F934480078032804D10020324908705E
:103140000420D7E7002706E018F8071004F583707D
:10315000C155781CC7B2AF42F6DB012084F80503E5
:10316000E81CE070267101216171E0782179484006
:1031700061794840A071002084F805034FF40051A4
:103180002248FEF774FA4FF480512048FEF76DFA9A
:103190000320FDF75FFD00231A46194601A8FEF73C
:1031A00069FA0120FFF74CF93C2D0DDDA5F13C003B
:1031B000174908700421E01C00F00EFA3C2104F5C8
:1031C000837000F009FA0BE0002011490870042117
:1031D000E01C00F001FA294604F5837000F0FCF9C8
:1031E000052009490870012084F804030949885D15
:1031F0002A1D302100F05EF800200749087000BF4A
:1032000078E700003C0000203D000020000C014059
:1032100040000020F0650008410000201FB500209C
:10322000064A0623CDE901200093039003464FF49C
:10323000807203A1054802F085FE1FBD1400002026
:103240007653746172745461736B0000654D0008AD
:103250002DE9F04707460D4614461E46DDE908896C
:103260000020FFF7E1F94FF400411148FEF7FDF9A6
:103270003220FFF7CBFB3846FFF7C8FB2846FFF7A5
:10328000C5FBE1B20812FFF7C1FBE0B2FFF7BEFBDE
:103290003046FFF7BBFB4046FFF7B8FB4846FFF759
:1032A000B5FB4FF400410248FEF7E1F9BDE8F087B5
:1032B0000008014070B506460D4614460020FFF791
:1032C000B3F94FF400410C48FEF7CFF93120FFF776
:1032D0009DFB3046FFF79AFB2846FFF797FBE1B2CC
:1032E0000812FFF793FBE0B2FFF790FB4FF40041A9
:1032F0000148FEF7BCF970BD0008014010B5FCF7AD
:10330000B3FF02F0F7FE18B14FF080500249086099
:103310000020FCF7B0FF10BD04ED00E010B513482D
:10332000006840F0010011490860084640681049F3
:1033300008400E494860084600680E4908400B499D
:1033400008600846006820F480200860084640684D
:1033500020F4FE0048604FF41F008860FFF71BFC5C
:103360004FF000600449086010BD000000100240EA
:103370000000FFF8FFFFF6FE08ED00E010B540F298
:103380002551064800F028F838B1044800F0E0F86C
:10339000C4B20349204602F057F910BD003801407D
:1033A000102E002010B540F22551044800F014F80A
:1033B00018B1024800F0CCF8C4B210BD004400407F
:1033C00021B1828942F40052828104E082894DF663
:1033D000FF731A408281704770B5024600240023B3
:1033E0000025002040F66A16B14200D100BFC1F3AB
:1033F000421501F01F03012606FA03F3012D02D145
:103400009689334006E0022D02D1168A334001E04E
:10341000968A33400C12012606FA04F416883440CA
:1034200013B10CB1012000E0002070BDF0B50346DF
:10343000002400260025002040F66A17B94200D17A
:1034400000BF1846C1F3421401F01F06012707FA16
:1034500006F5012C01D10C3004E0022C01D1103012
:1034600000E014301AB107682F43076002E00768D4
:10347000AF430760F0BD00002DE9F04786B0054678
:103480000E460024A24600BFA1460027B08900B125
:1034900000BF2F462C8A4CF6FF700440F08804438E
:1034A0002C82AC894EF6F3100440B0883189084371
:1034B000718908430443AC81AC8A4FF6FF40044055
:1034C000B0890443AC8201A8FEF7FAFE1F48874288
:1034D00002D1DDF810A001E0DDF80CA0A88900F40D
:1034E000004040B10AEBCA0000EB0A103168490005
:1034F000B0FBF1F807E00AEBCA0000EB0A103168F4
:103500008900B0FBF1F86420B8FBF0F00401200959
:10351000642101FB1089A88900F4004040B13220E9
:1035200000EBC900B0FBF1F000F00700044308E035
:10353000322000EB09106421B0FBF1F000F00F0025
:1035400004432C8106B0BDE8F0870000003801403C
:1035500001468888C0F3080070472DE9F04107460E
:103560000C461546002601F015FD00BF06E014F8D4
:10357000011B384600F008F8701CC6B2AE42F6DBFC
:1035800002F034FFBDE8F08100BF028802F0400283
:10359000002AFAD08180704700BFFEE710B50324EF
:1035A000FFF710F801E0601EC4B2FEF7B9FF08B1E2
:1035B000002CF8D144B9012005490870C102054822
:1035C000FEF755F8012010BDFFF770FC0020FAE768
:1035D0003C0000200008014070B505460E46002062
:1035E000FFF722F84FF400410A48FEF73EF8662044
:1035F000FFF70CFA002404E0285DFFF707FA601CCF
:10360000C4B2B442F8DB4FF400410248FEF72FF891
:1036100070BD0000000801402DE9F04780460E46CD
:1036200017460024A14600BF0DE018F8040000F082
:10363000CDF80546281206F81400012101EB4401DB
:103640007554601CC4B2BC42EFDB78064FEA1069C7
:103650004846BDE8F0872DE9F04706460F46154677
:103660000024A14600BF11E016F814004FF47F417A
:1036700001EA0028012000EB4400305C40EA080821
:10368000404600F042F93855601CC4B2AC42EBDB56
:10369000284605EBD071C1F347094846BDE8F087DD
:1036A00030380A2801D201207047002070470146B7
:1036B00000BF704730B5034600202EE014010425FA
:1036C00005FB00440C5D1D5C6C401C54140104257A
:1036D00005FB0044641C0C5D051D5D5D6C40051D13
:1036E0005C551401042505FB0044A41C0C5D00F18D
:1036F00008055D5D6C4000F108055C55140104256A
:1037000005FB0044E41C0C5D00F10C055D5D6C40A4
:1037100000F10C055C55441CE0B20428CEDB30BD42
:103720002DE9FF43074688469146002410E0002516
:103730000AE0042000FB0540385C042101FB045131
:103740000DF80100681CC5B2042DF2DB601CC4B288
:10375000042CECDB002249466846FFF7ABFF01264C
:103760000FE0684600F086FE684600F05FFE68469F
:1037700000F068FB324649466846FFF79BFF701C25
:10378000C6B20A2EEDDB684600F074FE684600F013
:103790004DFE0A2249466846FFF78CFF002411E0DF
:1037A00000250BE0042000FB04501DF8000004215C
:1037B00001FB054108F80100681CC5B2042DF1DBCE
:1037C000601CC4B2042CEBDBBDE8FF8370B504467B
:1037D00000262546284600F009F806022007050EB7
:1037E000284600F003F80643304670BD014601F05C
:1037F000F00040F00100021102EB601202EBA01297
:1038000002F001020AB140F00800021102EB60125E
:1038100002EBE01202F001020AB140F004000211D2
:1038200002EBA01202EBE01202F001020AB140F03A
:103830000200704710B503780C786340137043782A
:103840004C786340537083788C7863409370C3786E
:10385000CC786340D37010BDF0B504460D461646D3
:103860002978207800F078F907466978E07800F048
:1038700073F94740A978A07800F06EF94740E978DD
:10388000607800F069F9474037702978607800F077
:1038900063F907466978207800F05EF94740A97817
:1038A000E07800F059F94740E978A07800F054F941
:1038B000474077702978A07800F04EF9074669787C
:1038C000607800F049F94740A978207800F044F981
:1038D0004740E978E07800F03FF94740B770297831
:1038E000E07800F039F907466978A07800F034F9FB
:1038F0004740A978607800F02FF94740E9782078B0
:1039000000F02AF94740F770F0BD70B50446261262
:10391000304600F00AF800F0F005E6B2304600F05C
:1039200004F845EA2015284670BD014608460211F4
:1039300002EB601202EBA01202EBE00202F00102C5
:103940004AB3021102EB601202EBE01202EBA0029A
:1039500002F001027AB1021102EBA01202EBE012B6
:1039600002EB600202F0010212B180F0100038E0B8
:1039700080F0200035E0021102EBA01202EBE01211
:1039800002EB600202F0010212B180F0400028E078
:1039900080F0080025E0021102EB601202EBE01259
:1039A00002EBA00202F001027AB1021102EBA012B6
:1039B00002EBE01202EB600202F0010212B180F0B1
:1039C00080000EE080F004000BE0021102EBA01278
:1039D00002EBE01202EB600202F001020AB180F099
:1039E0000200704701490860704700008400002011
:1039F00030B50446002504E04FF47A7000F004F876
:103A00006D1CA542F8D330BD70B5034600224FF0BF
:103A1000E02675690D4E366803FB06F44FF0E0268C
:103A2000B16910E04FF0E026B06988420BD08842BF
:103A300002D20E1A324402E02E1A0E4432440146DB
:103A4000A24200D300E0EDE700BF70BD840000207B
:103A500010B5044614B10120344908703348007889
:103A600048B33348006850B131480838006830B175
:103A70003048006818B12E48001F0068D8B90A20E5
:103A8000FFF7B6FF0020294908702948006808B9E7
:103A9000012010BD26480838006808B90320F8E75F
:103AA0002448006808B90520F3E72148001F006892
:103AB00090BB0720EDE71E480068012811D11C4883
:103AC0000838006801280CD11A480068012808D17C
:103AD0001748001F0068012803D114490870092005
:103AE000D7E715480088401C13490880084600881D
:103AF000C82818DD002008800D48006808B9022099
:103B0000C7E70B480838006808B90420C1E709482E
:103B1000006810B90620BCE705E00548001F0068F2
:103B200008B90820B5E70020B3E700002C0000200A
:103B30003C012242188121422E00002000BF054A8C
:103B4000128802F04002002AF9D0C2B2014B1B1DBC
:103B50001A8070470038014030B50246002000232B
:103B6000002400BF0DE001F0010505B1504002F056
:103B7000800455062A0E0CB182F01B0249105D1C10
:103B8000EBB2082BEFDB30BD2DE9FF43074688463B
:103B90009146002410E000250AE0042000FB0540C7
:103BA000385C042101FB04510DF80100681CC5B20A
:103BB000042DF2DB601CC4B2042CECDB0A22494663
:103BC0006846FFF777FD09260FE0684600F05EF8CB
:103BD000684600F07FF8324649466846FFF76AFDBE
:103BE000684600F027F8701EC6B2012EEDDA68466E
:103BF00000F04CF8684600F06DF80022494668462F
:103C0000FFF758FD002411E000250BE0042000FB25
:103C100004501DF80000042101FB054108F80100D3
:103C2000681CC5B2042DF1DB601CC4B2042CEBDBB4
:103C3000BDE8FF837EB5064613A00068029000250C
:103C40001EE0002407E0042000FB0450305C01A9C2
:103C50000855601CC4B2042CF5DB6A4601A902A811
:103C6000FFF7FAFD002407E01DF80400042101FB22
:103C700004517054601CC4B2042CF5DB681CC5B23E
:103C8000042DDEDB7EBD00000E090D0B70B5014674
:103C900001201BE0002315E08500ED1C4C5D032294
:103CA0000AE0042505FB00256D1E4D5D042606FB7C
:103CB00000268D55551EEAB2002AF2DC01F820409C
:103CC0005D1CEBB28342E7DB451CE8B20428E1DB74
:103CD00070BD000070B5024600201BE0002115E019
:103CE000042505FB0015555D2B09042505FB001572
:103CF000555D05F00F04102505FB0345074E755D66
:103D0000042606FB001695554D1CE9B20429E7DB95
:103D1000451CE8B20428E1DB70BD0000606B0008C0
:103D20002DE9F84306460D464FF02C08002417E015
:103D300016F8241005F82410A000401C315CA000E7
:103D4000401C2954A000801C315CA000801C295418
:103D5000A000C01C315CA000C01C2954601CC4B26F
:103D6000042CE5DB04245BE0601E15F820008DF8D0
:103D70000000601E8000401C285C8DF80100601E61
:103D80008000801C285C8DF80200601E8000C01C32
:103D9000285C8DF80300E11704EB91718910A4EB06
:103DA0008101A1B9684600F035FB684600F088FB48
:103DB0002746E11704EB9171C1F38700FEF700FB82
:103DC00081466A4649466846FFF734FD00E000BF79
:103DD000201F15F820009DF80010484005F8240029
:103DE000201F8000401C285C9DF801104840A10065
:103DF000491C6854201F8000801C285C9DF802101C
:103E00004840A100891C6854201F8000C01C285C09
:103E10009DF803104840A100C91C6854601CC4B23E
:103E20004445A1DBBDE8F88310B54820FFF7DAFD73
:103E30004FF4A060FEF71AFAFFF7F0F901F080F8EE
:103E4000002010BD7EB5064613A000680290002534
:103E50001EE0002407E0042000FB0450305C01A9B0
:103E60000855601CC4B2042CF5DB6A4601A902A8FF
:103E7000FFF7F2FC002407E01DF80400042101FB19
:103E800004517054601CC4B2042CF5DB681CC5B22C
:103E9000042DDEDB7EBD00000201010310B50446E7
:103EA0000E48006844600E480068844207D20B4800
:103EB0000168091D0B48006800F03EFE0CE0074851
:103EC0000168091D0848006800F036FE07480068D0
:103ED000844201D20548046010BD0000A00000200B
:103EE000B4000020A8000020A4000020D000002082
:103EF0002DE9F04106460F461FB9B00000F002FA66
:103F000000E03846054655B1542000F0FBF9044660
:103F10000CB1256304E0284600F0EAFE00E000242E
:103F20002046BDE8F081000070B523E001F032F8D2
:103F30001348006808B9012000E00020054602F09F
:103F400055FABDB900F0B4FE0D48C068C468201D24
:103F500000F0EBFA0B480068401E0A4908600A4866
:103F60000068401E0849086000F0B2FE204600F0DC
:103F700062F800BF044800680028D7D170BD000077
:103F8000C00A0020B0000020AC00002070B504463C
:103F90000D46206C70B1216CE0680844E0606168F7
:103FA000E068884201D32068E0602846226CE1681E
:103FB000FCF712FB70BD2DE9F04104460E46154694
:103FC0000027206C40B9206878BB606802F08CF94B
:103FD00007460020606028E07DB93146226CA06869
:103FE000FCF7FAFA216CA0680844A060D4E901103B
:103FF00088421AD32068A06017E03146226CE0683E
:10400000FCF7EAFA216CE068401AE0602168E06899
:10401000884203D2216C6068401AE060022D04D10E
:10402000A06B10B1A06B401EA063A06B401CA063EE
:104030003846BDE8F08110B50446206B00F058FE0C
:10404000204600F055FE10BD30B542F22833174827
:1040500000F007042CB1C01D20F00700134C041B16
:104060001B1B0246124C22600024114D6C60D018BC
:10407000083820F007000F4C206000240D4D2D68FB
:104080006C600C4D2D682C601146441A4C60094C34
:1040900024680C60084D4C682C60084D4C682C60FE
:1040A0004FF00044064D2C6030BD0000E80A0020AF
:1040B000D8000020E0000020E8000020E4000020FC
:1040C000EC00002000BFFFF72FFF03480068012825
:1040D000F9D900F03BFEF6E7F80900202DE9F0479A
:1040E00004460F4615469946DDF82080002607E075
:1040F000B95D04F134008155B85D00B902E0761C69
:10410000102EF5D300BF002143200155072D00D309
:104110000625E56265640020A064201D00F009FD0D
:1041200004F1180000F005FD2461C5F10700A0614D
:1041300064620020E06484F85000BDE8F08700006D
:1041400010B5002407E004EB84010F4A02EB810064
:1041500000F0E2FC641C072CF5D30C4800F0DCFCFA
:104160000B4800F0D9FC0B4800F0D6FC0A4800F0E0
:10417000D3FC0A4800F0D0FC044809490860044810
:104180000849086010BD0000F8090020840A0020DA
:10419000980A0020AC0A0020C00A0020D40A00209F
:1041A000A4000020A800002010B50146164800E039
:1041B000006803688B42FBD30246436813448B427A
:1041C00004D143684C682344436001460A464B6867
:1041D00013440468A34211D10C4C03682468A34221
:1041E00008D04B680468646823444B6003681B680C
:1041F0000B6005E0054B1B680B6001E003680B607A
:10420000884200D0016010BDD8000020E0000020EE
:1042100070B5054600F04CFDA86B08B9012400E01C
:10422000002400F055FD204670BD70B5054600F035
:104230003FFDA86BE96B884201D1012400E0002416
:1042400000F046FD204670BD0A490968096809B9B1
:10425000012100E0002121B14FF0FF31064A116039
:1042600006E004490968C968C868034A41681160E2
:1042700070470000A4000020D0000020FBF7F4FFEE
:1042800000BFFEE710B5044600F012FD11E0606AC1
:1042900008B9012000E0002038B904F1240002F040
:1042A00065F818B100F0B0FD00E005E0A06C401E1C
:1042B000A064A06C0028EADC00BF4FF0FF30A064CF
:1042C00000F006FD00F0F4FC11E0206908B90120BF
:1042D00000E0002050B904F1100002F047F808B1E6
:1042E00000F092FD606C401E606400E002E0606CD3
:1042F0000028EADC00BF4FF0FF30606400F0E8FC0B
:1043000010BD00002DE9F04105464FF0000800F017
:1043100041FE2B48006808B9FFF796FE294800685F
:104320002840002847D145B1083505F0070020B1E5
:1043300005F00700C0F108000544002D3BD02248DD
:104340000068854237D8214E3046046801E0264691
:1043500024686068A84202D220680028F7D1184873
:104360000068844227D0306800F108082068306077
:104370006068401B102807D967196068401B786087
:1043800065603846FFF710FF0F4960680968081A32
:104390000D490860084600680D490968884203D243
:1043A000094800680A4908600649606809680843C6
:1043B00060600020206002F019F84046BDE8F081FE
:1043C000E0000020EC000020E4000020D8000020E5
:1043D000E80000200648006830B10549096801F18D
:1043E0004800896C491C0160014800687047000062
:1043F000A0000020001F4FF080730360001F0160C9
:10440000001F034B0360143802602038704700001F
:104410007D4200080278002104E04B1CC35C435439
:104420004B1CD9B20329F8DBC270704770B5014646
:1044300001201BE0002315E011F8204001220AE0D2
:10444000042505FB00254E5D042505FB00256D1E9A
:104450004E55551CEAB2042AF2DB8500ED1C4C5582
:104460005D1CEBB28342E7DB451CE8B20428E1DBCC
:1044700070BD000070B5024600201BE0002115E071
:10448000042505FB0015555D2B09042505FB0015CA
:10449000555D05F00F04102505FB0345074E755DBE
:1044A000042606FB001695554D1CE9B20429E7DBEE
:1044B000451CE8B20428E1DB70BD0000606A00081A
:1044C00010B5014600200CE00A5C02F00F020B5C04
:1044D0001B09102404FB0322034B9A5C0A54421C60
:1044E000D0B20428F0DB10BD606A0008024600214B
:1044F00002F030010911012901D10120704700208B
:10450000FCE70146022005290DD2DFE801F0030493
:1045100006080A0007E0012005E0002003E0022071
:1045200001E0022000BF00BF704701460A69D1E9DF
:1045300001309860D1E9010358605068884201D188
:1045400088685060002008611068401E1060106884
:104550007047000070B504460D460A2204F10C01B4
:104560000748FEF791FA0A2206490548FEF778FA4D
:10457000142204F10C010348FCF702F870BD00009E
:104580004EF800080E01002010B50648FDF742F96C
:10459000FFF704F800F0AAF802490878FEF75AFD80
:1045A00010BD00003E00002070B505460C462146B7
:1045B00001A0FBF7A3FE70BD0AC8CECEF13A2025BC
:1045C0007320B7A2CFD6D5BBD2E7B3F60000000068
:1045D00010B5002482220D490D48FEF741FA0FE084
:1045E0000C4800F09FFE601CC4B2642C05DD002462
:1045F000562209490948FEF7B0FF0A2000F0DAFB0D
:10460000024800786828EBD110BD000000010020AE
:1046100040F80008102E0020CC6C00080038014043
:1046200002460B46002107E0501C405C984201D135
:1046300001207047481CC1B210788842F4DC002089
:10464000F7E7000070B505460C46E12C00DD70BDB3
:104650000A4880F82240E1212330FCF74CF822463A
:10466000294606482330FBF7B7FFE22203492231EF
:104670000348FEF709FA00BFE9E700000001002047
:1046800062F8000870B504460D4616460823324607
:1046900029462046FCF79AFC70BD000070B5C4B0F6
:1046A00004460D4604F10C060020009003AB2A4698
:1046B000214601903046FCF731FE8DF80C010A20AE
:1046C0008DF80D01F079FFF711FF012802D10A20C2
:1046D000FDF778FD00230A2203A90348006801F0D2
:1046E0008DFB44B070BD0000000000201FB501210B
:1046F0000420FDF7D5FD4FF48050ADF800004820B0
:104700008DF8030069461548FCF7B6FE01210846FE
:10471000FDF7C6FD0C210020FCF78EFE4FF4805003
:10472000029000208DF80C000C208DF80D00012067
:104730008DF80E0002A8FCF7D1FA28208DF80400AD
:1047400003208DF8050000208DF8060001208DF86B
:10475000070001A8FDF752FD1FBD00000008014041
:104760002DE9FE4304460025A846607900F00F00BD
:104770003049087094F800816078FDF711FD012838
:1047800003D12D490878FDF71DFD23E0002000909E
:10479000019094F80021607823462146FCF74CFDF7
:1047A00084F8000100230A2221462448006801F011
:1047B00025FB4FF4C87302AA0121002001F02AFD55
:1047C0000646012E04D1029800F0010000B103E07A
:1047D000681CC5B2012DD9DB00BF012D27D10025F2
:1047E00022E0207B0D30C7B284F8008194F80021CC
:1047F000E1192046FBF7F0FE00230A2221460F486C
:10480000006801F0FBFA4FF4C87302AA01210020EE
:1048100001F000FD0646012E04D1029800F00100CF
:1048200000B103E0681CC5B2012DDADB00BFBDE8B2
:10483000FE830000F50000203E0000200000002064
:10484000FEB504460025E07CFFF750FE012806D1A6
:104850000A20FDF7B7FC6178E07CFDF765FC607924
:1048600000F00F002849087000251AE00A2084F89B
:10487000010100230A2221462448006801F0BEFA03
:104880004FF4C87302AA0221002001F0C3FC0646BF
:10489000012E04D1029800F0020000B103E0681C70
:1048A000C5B2012DE2DB00BF012D2CD1002527E090
:1048B00000200090019094F800212346214604F145
:1048C0000C00FCF72BFD84F800010A2084F801019C
:1048D00000230A2221460D48006801F08FFA4FF4A8
:1048E000C87302AA0221002001F094FC0646012EA2
:1048F00004D1029800F0020000B103E0681CC5B2C8
:10490000012DD5DB00BFFEBDF50000200800002012
:1049100030B5C1B004460D4600231A46294620464C
:10492000FCF78EFB8DF800512A4621466846FBF7BE
:1049300053FE607900F06000002806DD9DF800114C
:10494000012340AA6846FCF713FA0322094904F13F
:104950000900FBF715FE18B96846FFF771FF06E07E
:10496000054800788DF801016846FFF7F9FE41B06F
:1049700030BD0000EF6700083E00002008B50121AF
:104980001820FDF78DFC4FF46040ADF80000482082
:104990008DF8030003208DF8020069460548FCF7F6
:1049A0006BFD4020ADF8000069460348FCF764FD4C
:1049B00008BD000000100140000C014010B5044685
:1049C000052C15D2DFE804F00304090E13000FE0F4
:1049D00001210846FDF70EF90AE001210020FDF74C
:1049E00009F905E001210220FDF704F900E000BF0C
:1049F00000BF10BD10B50446012C05D102210F489F
:104A00000078FDF70DF818E0032C05D102210B48C2
:104A10000078FDF733F810E0022C0ED0084800783B
:104A2000401C0749087008460078322805DD002040
:104A3000087000210220FDF7DDF810BD34000020D1
:104A4000350000202DE9F84300230522694620485F
:104A5000006801F00EF98046B8F1010F36D16C46BE
:104A6000207800F00F06207800F00F072078050965
:104A7000184805703046FFF744FD174908700020BC
:104A800016490870062D1FD2DFE805F003080D1146
:104A9000161A00210220FDF7ADF816E000210220D1
:104AA000FDF7A8F811E03046FFF788FF0DE0002180
:104AB0000220FDF79FF808E00120FDF7D7F804E099
:104AC0003846FDF7C7FA00E000BF00BFBDE8F88335
:104AD00004000020330000203400002035000020B6
:104AE000002401210220FDF785F811E0FFF7AAFF5D
:104AF0000020FEF7ADFF0446204600F093FA092C93
:104B000003D104480078FFF775FF192000F052F92F
:104B1000ECE700003300002000F1080141604FF095
:104B2000FF31816000F10801C16001610021016075
:104B3000704700210161704710B502460B685C1C8C
:104B40000CB9106907E002F1080000E04068446811
:104B500024689C42FAD944684C604C68A160886023
:104B600041600A611468641C146010BD42684A60A8
:104B700093688B60936859609160086103685B1C5F
:104B80000360704730B5C1B004460D462A46214641
:104B90006846FBF721FD144800788DF801019DF867
:104BA000060020F080008DF8060000208DF8070038
:104BB0006846FCF723FC8DF800019DF8050000F025
:104BC0006000002806DD9DF80011012340AA684618
:104BD000FCF7CEF800230A2269460448006801F079
:104BE0000DF941B030BD00003E0000200000002063
:104BF00030B5C3B004460D462A46214602A8FBF74D
:104C0000EBFC1A4800788DF809019DF80E0020F0A1
:104C100080008DF80E0000208DF80F0002A8FCF730
:104C2000EDFB8DF808019DF80D0000F060000028F4
:104C300006DD9DF80811012342AA02A8FCF798F8A6
:104C40000020009001909DF808219DF8090002AB1A
:104C500002A9FCF7F1FA8DF8080100230A2202A943
:104C60000348006801F0CAF843B030BD3E000020A0
:104C700000000020C2B000BF15E000231E2201A9E1
:104C80000948006800F0F5FF0446012C07D1002315
:104C90000A2201A90548006801F0B0F800E000BF51
:104CA000012000F087F8E8E708000020000000205D
:104CB00010B5FBF7D9FA05480068401C03490860A5
:104CC000BFF34F8FBFF36F8F10BD0000F0000020C7
:104CD00010B506480068401E044908600846006890
:104CE00010B90020FBF7C7FA10BD0000F00000204B
:104CF00070B506463546D6B1083D2C460C4960686D
:104D00000968084098B1206888B90949606809684D
:104D10008843606000F03EF906496068096808440D
:104D2000044908602046FFF73FFA01F05FFB70BDC1
:104D3000EC000020E400002003484FF0E02148612F
:104D400007200861704700003F1901004FF08050B4
:104D500003490860BFF34F8FBFF36F8F70470000A8
:104D600004ED00E04FF4164000F0E2F94FF4164075
:104D700000F02EFA00F01CF8FFF700FEFDF7C6FC6D
:104D8000FFF726FCFFF700FCFBF742FEFDF796F964
:104D9000FBF75EFEFBF77CFEFBF78AFE05E00348AF
:104DA00000F02CFC0A2000F005F8F8E7102E002097
:104DB0007047000070B504460026DCB100F0EAF848
:104DC0000E48006805190E480068001DFFF7ADFB8E
:104DD00050B90B48006890F82C1001208840094910
:104DE00009688143074801602846FFF757F801F03A
:104DF000FDFA06460EB9FFF7A9FF70BDB40000200A
:104E0000A0000020B8000020012001490860704780
:104E1000C400002070B506460C46134801681831DE
:104E20003046FFF789FE10480068001DFFF77DFB44
:104E300050B90D48006890F82C10012088400B49AB
:104E40000968814309480160601C30B9064801685F
:104E5000091D0748FFF78AFE05E0064800680519A6
:104E60002846FFF71BF870BDA0000020B800002006
:104E7000D40A0020B400002070B505462C46002D51
:104E80004BD02649E06A0968C96A884245D2A069C0
:104E900000F0004028B921480068C06AC0F107004E
:104EA000A061E16A01EB81011D4A02EB81016069A9
:104EB000884201D1012000E0002050B3201DFFF7FF
:104EC00034FB78B9E06A00EB8000154951F8200006
:104ED00040B994F82C100120884012490968814398
:104EE000104801600D480068C06AE06294F82C1018
:104EF000012088400B49096808430A490860E16AB3
:104F000001EB8101064A02EB8100211DFFF72EFE15
:104F100003E002480068C06AE06270BDA0000020A3
:104F2000F8090020B800002003490968016003491E
:104F30000968416070470000C8000020B4000020EC
:104F40001FB50020009001900290034640220BA163
:104F500003900C4800F0F6FF0446012C0CD1FBF73F
:104F600083F9A01E08490860012008490860002054
:104F70000749086000F01CFE1FBD000049444C4575
:104F800000000000C5400008D0000020BC00002048
:104F9000B400002002480068401C014908607047C6
:104FA000D400002010B51A48006818B10120194932
:104FB00008602BE000201749086017480068006867
:104FC00015490968096B884205D8134801683431CE
:104FD0000068FFF7E9FA11480068B0FA80F0C0F104
:104FE0001F0101EB81020E4B03EB82004268526805
:104FF000426000F108024368934202D1426852685D
:1050000042604268D268044B1A6000BF10BD0000C5
:10501000D4000020C4000020A0000020B800002020
:10502000F809002010B504460A2C57D2DFE804F036
:105030000506181F292C3E414B4E4FE00021012050
:10504000FCF7AAFC00210846FDF7A6FB0120FCF7AF
:105050000DFE01210020FCF79DFF214804703DE07A
:1050600001210846FCF798FC1D48047036E0002139
:105070000220FCF791FC1A480470002019490870BE
:105080002CE01748047029E000210420FCF784FC80
:1050900000210846FDF780FB0120FCF7E7FD012118
:1050A0000020FCF7A7FF0E48047017E00C480470BE
:1050B00014E000210820FCF76FFC09480470002070
:1050C000084908700AE00648047007E004480078C0
:1050D00000F00AF809200249087000BF00BF10BDA7
:1050E000100000203500002010B50446092C1BD20A
:1050F000DFE804F005060B1011121718190014E070
:1051000000210220FCF746FF0FE000210220FCF7FF
:1051100041FF0AE009E008E000210846FCF76AFFC9
:1051200003E002E001E000E000BF00BF10BD0000AE
:1051300010B586B00446012144F20400FDF7B0F832
:105140004FF40070ADF8140003208DF816001820FD
:105150008DF8170005A91C48FCF78EF94FF4806004
:10516000ADF8140004208DF8170005A91648FCF7C7
:1051700083F925208DF8000003208DF801008DF8BB
:10518000020001208DF803006846FDF737F801940E
:105190000020ADF80800ADF80A00ADF80C00ADF83D
:1051A00010000C20ADF80E0001A90848FEF764F9C4
:1051B000012240F225510548FEF738F90121034844
:1051C000FEF7FEF806B010BD0008014000380140AF
:1051D00010B586B0044601210420FDF761F80121D5
:1051E0004804FDF74DF80420ADF8140003208DF8B5
:1051F000160018208DF8170005A91C48FCF73CF98B
:105200000820ADF8140004208DF8170005A91748F0
:10521000FCF732F926208DF8000003208DF80100FC
:105220008DF8020001208DF803006846FCF7E6FFC8
:1052300001940020ADF80800ADF80A00ADF80C00AC
:10524000ADF810000C20ADF80E0001A90848FEF7DB
:1052500013F9012240F225510548FEF7E7F8012134
:105260000348FEF7ADF806B010BD0000000801408D
:10527000004400402DE9F04104460F4600256678C1
:10528000202E04D0212E29D0222E29D127E000253E
:1052900006E0E81C215C14A0FBF730F8681CC5B2DE
:1052A000082DF6DB072221461148FDF7EDFB07220A
:1052B00010490F48FDF7D4FB072221460D48FBF7A4
:1052C0005FF928B912220CA11048FEF746F904E054
:1052D00012220FA10D48FEF740F902E001E000E0C4
:1052E00000BF00BFBDE8F08125303258200000002B
:1052F00040F80008000100200D0A4D4143B5D8D602
:10530000B7C9D5C2BCB3C9B9A60000000038014076
:105310000D0A4D4143B5D8D6B7C9D5C2BCCAA7B04E
:10532000DC00000010B5044620780D280AD1617811
:10533000A01C01F0C9F818B96178A01CFFF79AFF0A
:105340000020207010BD70B504460D46667A032E0D
:105350001ED005DC6EB1012E10D0022E22D112E03B
:10536000042E1AD0FF2E1DD12946204600F088F8C1
:1053700019E02946204600F009F914E029462046A4
:1053800000F014F80FE02946204600F043F80AE048
:105390002946204600F0C6F805E02946204600F0E0
:1053A00062F800E000BF00BF70BD00002DE9F041D1
:1053B00004460D460127E07AA17A00EB012086B26F
:1053C000102E0ED005DC4EB1012E08D0022E13D1C6
:1053D00006E0112E06D0212E0ED104E00DE00CE0E7
:1053E0000BE00AE009E000230A2204F10C0108485E
:1053F000006800F003FD00E000BF00BF012F05D1F1
:1054000000231A4629462046FBF7E0FDBDE8F0815F
:105410000400002010B50A46C37A847A03EB042303
:1054200099B240F202240B1BA14215D008DC0129DD
:105430000FD0A1F201136BB1B3F5807F10D10AE058
:10544000012B0AD0A3F56D43FF3B3BB1012B07D1E4
:1054500005E006E005E004E003E002E001E000E032
:1054600000BF00BF10BD10B50A46C37A847A03EBB3
:10547000042399B2012900D100E000BF00BF10BD94
:105480002DE9F04104460D46E07AA17A00EB0120B7
:1054900086B201274FF6FC71701A8E421FD00ADCCB
:1054A0007EB3012E26D0B6F57F4F1AD0A6F57F40E9
:1054B000FB3838BB14E0012810D0022806D003289E
:1054C00022D129462046FFF7E9F81EE0E079001FC7
:1054D000C1B204F10C00FFF7B5F816E015E014E0D6
:1054E00013E029462046FFF735F8FFF74DF8FBF7A4
:1054F0008FFA0AE00A4A2946204600F081F900277F
:1055000003E000E000E000E000BF00BF012F05D194
:1055100000231A4629462046FBF758FDBDE8F081D6
:105520000403010010B50B46C27A847A02EB042210
:1055300091B2B1F5817F20D00DDC03291AD004DCB3
:10554000012915D002291DD113E0042913D0A1F29D
:105550000112BAB910E0A1F203127AB1012A0ED0F9
:10556000A2F57C42FE3A5AB1B2F5FF7F0AD108E0BB
:1055700009E008E007E006E005E004E003E002E0FF
:1055800001E000E000BF00BF10BD00002DE9F041C8
:1055900004460D46E07AA17A00EB012087B201268D
:1055A000202F18D005DC6FB1012F12D0022F16D199
:1055B00010E0212F10D0B7F5807F0ED0A7F2011098
:1055C00068B90BE00C4A29462046FFF75BF8002635
:1055D00006E005E004E003E002E001E000E000BFD7
:1055E00000BF012E05D100231A4629462046FBF7AD
:1055F000EDFCBDE8F08100000301002070B5044619
:10560000002520780D281ED16178A01C00F07BFFBA
:10561000B8B9207A00F0180535B1082D09D0102D41
:1056200008D0182D0CD10AE06178A01CFFF78BFE82
:1056300006E005E06178A01CFFF76AF900E000BF12
:1056400000BF0020207070BD0A780D2A7ED2DFE8EE
:1056500002F0071D2E3740576C7E919EB2BFC700E7
:10566000AC280AD1887001224A700022634B1A705C
:10567000012281F800210A7007E0682805D18870AE
:10568000012281F8002108220A70B5E04B788A1CBB
:10569000D0544A78521C4A70584A1278521CD2B2DE
:1056A000564B1A70042A01DB02220A70A4E04B78E0
:1056B0008A1CD0544A78521C4A7003220A709BE01C
:1056C0004B788A1CD0544A78521C4A7004220A70C3
:1056D00092E0FE2804DD002281F800210A700EE02D
:1056E0004B788A1CD0544A78521C4A700022434B93
:1056F0001A7010B906220A7001E005220A707BE0D8
:105700004B788A1CD0544A78521C4A703B4A127813
:10571000521CD3B2394A13704A7A934204DB0022F6
:10572000364B1A7006220A7066E04B788A1CD054F9
:105730004A78521C4A70314A1278521CD2B22F4B0E
:105740001A70022A01DB07220A7055E053E0532841
:105750000BD14B788A1CD0544A78521C4A700022D4
:1057600081F800210D220A7003E0002281F8002157
:105770000A7041E0B02801D0202803D1C870092266
:105780000A7003E0002281F800210A7034E028B991
:10579000087103224A700B220A700BE0202804DDF6
:1057A000002281F800210A7004E0087103224A7087
:1057B0000A220A7020E04B785A1C4A708A1CD05486
:1057C0004B780A79D21C934201DB0B220A7013E05A
:1057D0004B785A1C4A708A1CD0540C220A700BE079
:1057E0004B785A1C4A708A1CD054002281F8002140
:1057F0000D220A7000E000BF00BF7047F6000020D5
:10580000F8B504460D4616460020009001208DF89C
:10581000000003208DF8010004208DF8020003230E
:105820006A4629462046FBF7D1FBF8BD2DE9F8432F
:105830000546EC1DA878009000274FF001080026CF
:105840009DF80010E81D00F07DFE002879D1687AEF
:1058500000909DF800008C2805DAA97800236A469C
:10586000E81DFBF779FCE87C0D30C6B2E81D805DD1
:10587000AC2818D1E81D711D405C00F060000028C4
:1058800011DD9DF80010301D814201DABDE8F8837A
:105890009DF80020921B121FD1B2EA1D901900231F
:1058A0006A46FBF765FAE87A00F0810737B1012F05
:1058B00017D0802F28D0812F7CD14AE04FF00008EC
:1058C000207900F0060737B1022F05D0042F04D04D
:1058D000062F04D102E002E001E000E000BF00BFBB
:1058E00068E0207900F0060737B1022F05D0042FB9
:1058F00004D0062F06D104E004E003E04FF00008D6
:1059000000E000BF00BF55E0207900F0060737B186
:10591000022F17D0042F16D0062F18D116E000231F
:10592000012202215F48006800F08AFBA019C079BB
:1059300000F10B02A1195C48FDF70FFE4FF00008C3
:1059400005E044E003E04FF0000800E000BF00BFC6
:1059500030E0207900F0060737B1022F23D0042F62
:1059600022D0062F24D122E0B01D205C00F00800D8
:1059700088B1701C215C4D48FEF752FE012807D10A
:10598000A219D2790B32D1B2A019FFF731F909E08F
:105990004FF0000806E0002301221146414800684C
:1059A00000F04EFB04E003E04FF0000800E000BF11
:1059B00000BF00BF00BFB8F1010F71D1A019C079BD
:1059C00000F10B02A1193848FDF7C7FD68E0E8793E
:1059D000AC2865D1A87B00909DF80000462805DC26
:1059E000A97800236A46E81DFBF76CFB287B00F0D2
:1059F0006000002806DD00236A469DF80010E81DBF
:105A0000FBF7B6F99DF80010204600F07CFDC8BBFE
:105A1000A07900F09807102F06D0182F05D0902FEE
:105A200004D0982F32D121E030E02FE0607900F0EF
:105A30000F001F490978884217D1607AFF280DD1DD
:105A4000A07AFF280AD1E07AFF2807D1002301229B
:105A500002211448006800F0F3FA06E00023012256
:105A600011461048006800F0EBFA0FE061780F482B
:105A7000FEF7D6FD012806D19DF800102046FFF75D
:105A800081F802E003E04FF0000800BF00BFB8F16A
:105A9000010F05D19DF8002021460348FDF75DFD6B
:105AA00000BFF3E61400002000380140220100206E
:105AB000F500002010B506480078032806D10548F7
:105AC000FFF7B4FE04490878FDF7C4FA10BD0000E2
:105AD0003D000020E60200203E00002004E0FFF729
