:020000040800F2
:100000005848002099010008633900080B2E0008A9
:1000100061390008FD0B0008254F000800000000B2
:1000200000000000000000000000000001010008C6
:100030007D0C00080000000045010008F94500089B
:10004000B3010008B3010008B3010008B3010008C0
:10005000B3010008B3010008B3010008B3010008B0
:10006000B3010008B3010008B3010008B3010008A0
:10007000B3010008B3010008B3010008B301000890
:10008000B3010008B3010008B3010008B301000880
:10009000B3010008B3010008B3010008B301000870
:1000A000B3010008BD460008B3010008B301000811
:1000B000B3010008B3010008B3010008B301000850
:1000C000B3010008B3010008B3010008B301000840
:1000D000B30100083D4B00086D4B0008B301000858
:1000E000B50D0008B3010008B3010008DFF80CD01B
:1000F00000F0C6F800480047B555000858480020F1
:10010000224B19680868B0E8F00F80F30988BFF344
:100110006F8F4FF0000080F311884EF00D0E704786
:100120000000000006480068006880F3088862B696
:1001300061B6BFF34F8FBFF36F8F00DF00BF00BF0B
:1001400008ED00E0EFF30980BFF36F8F0F4B1A68E3
:1001500020E9F00F106008B54FF0500080F31188CF
:10016000BFF34F8FBFF36F8F05F0F0FF4FF000002C
:1001700080F31188BDE8084019680868B0E8F00FFE
:1001800080F30988BFF36F8F704700BFF000002035
:10019000EFF3058070470000064880470648004797
:1001A000FEE7FEE7FEE7FEE7FEE7FEE7FEE7FEE727
:1001B000FEE7FEE775460008ED000008202A04DB94
:1001C000203A21FA02F00021704721FA02F3D040D0
:1001D000C2F1200291400843194670470649074A78
:1001E0000868504343F239021044086040087047E1
:1001F00001490860704700002C0100206D4EC64187
:1002000010B5431A934209D28318881803E010F8F6
:10021000011D03F8011D521EF9D210BD40EA010371
:100220009B0703D009E008C9121F08C0042AFAD2AC
:1002300003E011F8013B00F8013B521EF9D210BD5A
:10024000D2B201E000F8012B491EFBD27047002218
:10025000F6E710B513460A4604461946FFF7F0FFC5
:10026000204610BD30B504460020034600E05B1C6C
:10027000934203D2E05CCD5C401BF8D030BD00005F
:10028000064C074D06E0E06840F0010394E80700E3
:1002900098471034AC42F6D3FFF72CFF7C7400086B
:1002A0009C74000870B58C1810F8015B15F00703FA
:1002B00001D110F8013B2A1106D110F8012B03E0FF
:1002C00010F8016B01F8016B5B1EF9D12B0705D407
:1002D0000023521E0DD401F8013BFAE710F8013B50
:1002E000CB1A921C03E013F8015B01F8015B521E6C
:1002F000F9D5A142D8D3002070BD000010B51B2253
:100300000649074800F05AFD0649012008700348D5
:100310001321BDE810402030FFF799BF7A19002063
:1003200000F80008AE0000201CB500242646254633
:1003300002F0D2FE384F4FF0FF3905236A46494696
:10034000002006F073FB012816D1009810280ED06B
:1003500006DC012809D002280DD004280CD108E0C1
:10036000202808D0402807D103E0062404E0072411
:1003700002E0052400E009240023052201A9B86851
:1003800006F070F8012805D19DF80400040900F07A
:100390000F0800260A2C37D2DFE804F0050B1218EC
:1003A0001F252F332C2C02F011FE00254FF40044A2
:1003B0002AE00A221421194802F062FE012523E0F6
:1003C000404602F011FE0225C2461DE003250A2226
:1003D0000221404602F094FE16E01E214FF44070C8
:1003E00002F009FF10E0404602F02EFE761CF6B245
:1003F000642E09D92C46D04606E0022002F0C8FE41
:1004000002E0022002F0DDFE0221F86B05F0D9FEC9
:10041000012005F097F990E70400002055540100F1
:10042000ADF5087D6F484FF00A0B4FF4487A859080
:100430006D4D00235F1E3A4602A9286906F012F8A6
:10044000012819D10DF11601869185999DF80B208F
:100450000DF10A04497891420FD185982A784179A3
:1004600062F303014171859801F0D8F9A870014643
:1004700000225C4804F0A4FCAFE00026B8465A4FC6
:10048000607902AD397861F303006071A81C01F056
:10049000C5F900218DF8090000910246019143AB96
:1004A000A91C869800F080FF8DF80C02022384AA14
:1004B0004146002006F0BAFA8DF80DB2D946002365
:1004C0000A2243A9786806F0C7F8534684AA414631
:1004D000002006F0ABFA012802D1849802286FD0E0
:1004E000414F6079CB46397861F3030060719DF824
:1004F00009208DF80C228DF80D92A946A91C43A85D
:10050000FFF77EFE022384AA45464146002006F0FE
:100510008DFA00230A2243A9786806F09DF8534615
:1005200084AA2946002006F081FA012802D1849885
:10053000022845D0761CF6B2032EA0D38498022858
:100540003ED0002637E03044617890F8220088429F
:100550002FD08DF81C02012187A8CDE900019DF85C
:10056000092043AB09F10201869800F01DFFDFF876
:1005700078808DF80C0200278DF80DB200230A2236
:1005800043A9D8F8040006F067F8534684AA294620
:10059000002006F04BFA012802D1849902290FD0DD
:1005A0007F1CFFB2022FE7D3012802D184980228D2
:1005B00006D0761CF6B20D4890F82110B142C2D890
:1005C000094C0023012202A9206905F04BFF0023FA
:1005D000012202A9206905F045FF012005F0B2F8CB
:1005E00026E700003401002004000020FE02002065
:1005F000134DC2B04FF0FF364FF4FA770023324666
:100600006946686905F02EFF012814D102240023F1
:100610000A226946686806F01FF83B4641AA31463F
:10062000002006F003FA012802D14198022802D0E6
:10063000641EE4B2EBD2012005F084F8DEE700008E
:1006400004000020CCB04FF00009DFF870B15C4D21
:10065000CDF82491C8460DF5907ACDF8209100BFD1
:1006600047F2305005F06EF80024A1E055492E19EC
:1006700011F8012B96F8220000F08EFB01285ED0C5
:1006800096F8220003F010F8012858D08DF8249134
:1006900096F8220000EB800101EBC00202EB0B0395
:1006A000A3F5805191F86E2E72B10021574609E0F2
:1006B00003EB010CACF5805C9CF86FCE07F801C031
:1006C000491CC9B29142F3D3CDE900A202AB012289
:1006D00049A901F04FF88DF808013B480023642236
:1006E00000788DF80901394802A9406805F0B4FF87
:1006F0004FF47A7347AA4FF0FF31002006F096F9C5
:10070000012811D00CB1641EE4B208F1010000F020
:10071000FF08B8F1020F49D94FF000088DF8249175
:100720000120464644903BE096F8220047998842D3
:100730003CD14FF000084FF4FA7005F003F835E0B3
:100740002F19A91997F8230091F82210884225D073
:100750008DF82011449902ABCDE900A1012249A9ED
:1007600001F008F88DF8080117480023642200788A
:100770008DF80901154802A9406805F06DFF4FF496
:100780007A7347AA4FF0FF31002006F04FF9012895
:1007900004D197F823004799884205D0761CF6B219
:1007A00095F82100B042CBD8641CE4B2641CE4B2DA
:1007B00095F82100A0427FF653AF57E724050020AB
:1007C000FE020020340200207200002004000020FD
:1007D00030B54FF48175A9B000222946052005F0F7
:1007E0001DFE524C002201216060022005F016FE21
:1007F000A06000220421022005F010FEE06000222B
:100800002946012005F00AFE206100222946012028
:1008100005F004FE6061012005F0EEFD00231A469C
:100820001946A06105F018FF142241496846FFF7F8
:10083000E7FC3F491422143105A8FFF7E1FC3C49CD
:10084000142228310AA8FFF7DBFC394914223C3175
:100850000FA8FFF7D5FC36491422503114A8FFF732
:10086000CFFC33491422643119A8FFF7C9FC304981
:10087000142278311EA8FFF7C3FC2D4914228C31B5
:1008800023A8FFF7BDFC05F08FFCE06310B929A099
:1008900004F0E8FB0021684604F06AFF606310B9C9
:1008A0002CA004F0DFFB002105A804F061FFE0614B
:1008B00010B92FA004F0D6FB00210AA804F058FFBD
:1008C000206210B930A004F0CDFB00210FA804F085
:1008D0004FFF606210B932A004F0C4FB002114A8DD
:1008E00004F046FFA06210B933A004F0BBFB002166
:1008F00019A804F03DFFE06210B936A004F0B2FB85
:1009000000211EA804F034FF206310B938A004F0C1
:10091000A9FB002123A804F02BFFA063002802D12B
:1009200039A004F09FFB29B030BD00000400002076
:10093000006D000878495744475F4576656E7447F7
:10094000726F757020437265617465204572726FB5
:10095000720000004E657443726561746554617382
:100960006B20437265617465204572726F7200007E
:10097000556172745461736B2043726561746520B4
:100980004572726F720000004C65645461736B2095
:10099000437265617465204572726F7200000000D9
:1009A000546F7563685461736B204372656174653D
:1009B000204572726F720000576972656C657373BF
:1009C0005461736B20437265617465204572726F68
:1009D00072000000537570657276697365546173B7
:1009E0006B20437265617465204572726F720000FE
:1009F00052657472795461736B20437265617465DA
:100A0000204572726F720000495744475F5461730A
:100A10006B20437265617465204572726F720000CD
:100A20002B4E0025002003F0BBFE040047D0062C0F
:100A300023D006DC012C09D0022C0FD0042C3DD190
:100A400008E0082C0AD0112C38D10BE00023032237
:100A5000012130E00023032210212CE0210904F0C1
:100A60000F0022E0002303224FF48071306A05F06A
:100A700005FF210905F00F0017E0012D04D0042D1A
:100A80000BD0112D14D019E0002303220221306A6B
:100A900005F0F4FE0021012007E0002303222021BD
:100AA000306A05F0EBFE0021042002F055FA05E063
:100AB000002303220221306A05F0E0FE25460421CE
:100AC000F06B05F07EFB0A2004F03CFEAAE7000074
:100AD00004000020064C0749074804F05FF8012194
:100AE000E06B05F06EFB082004F02CFEF3E700003D
:100AF00004000020B0190020B8170020C2B02D4C0F
:100B00002D4E2E4D40AF002305226946686805F042
:100B1000A9FC012828D1322004F014FE9DF802001F
:100B2000462819D29DF80000692802D0AC280CD0C4
:100B300012E09DF8010069280ED19DF800110123F3
:100B40003A46684600F086FB06E09DF80011012356
:100B50003A46684600F022FB9DF800319DF80111ED
:100B60006A46174803F0F0FB2078032809D115499D
:100B7000134804F0D9F92078032802D1307803F023
:100B8000A9FB2078062803D02078042803D008E0A9
:100B90000020207002E0C82003F0C6FC307803F08B
:100BA00099FB0821E86B05F00CFB012004F0CAFD5D
:100BB000A9E700006F000020720000200400002060
:100BC000A8100020B019002008B50A4D4FF47A741F
:100BD000012300941A460F21E86B05F039FBC0434E
:100BE000000702D1044801F01AF9012004F0AAFD1F
:100BF000EEE700000400002000040020FEE70000F3
:100C000070B503464FF6FF7000220D4D14E000BF93
:100C100013F8014B521C84EA000606F00F0692B24C
:100C200035F8166086EA101080EA141404F00F04F8
:100C300035F8144084EA10108A42E9D370BD0000F0
:100C4000A873000870B50646002003F001F80A4DAD
:100C50004FF4004400222146284601F0ACF834202D
:100C600003F092F8304603F08FF821462846BDE89D
:100C70007040012201F09FB8000801407047000059
:100C800070B50E4D4FF4B66422460B49284603F06A
:100C9000D9F809490878FF280DD1487BFF280AD1E7
:100CA00061000548FFF7D3FA22462846BDE87040A8
:100CB000014903F0D5B870BD2405002000D8000814
:100CC00070B5002481221249124803F0BBF8104D80
:100CD000287868281AD04FF481712846FFF7B7FAB0
:100CE0000D4E10E00D4802F0D5FD641C322C07D9E2
:100CF00000240C21304604F05DF8094801F08FF81B
:100D0000142003F011FC28786828EBD170BD000096
:100D1000FE02002040F8000800380140B81700200B
:100D200000040020094A10B5002192F8213008E0A3
:100D3000541894F82240844201D1012010BD491C6E
:100D4000C9B28B42F4D8002010BD0000FE02002082
:100D500030B400231F2819D3FF2817D01F38C0B282
:100D600000EB800404EBC00409482044427004E016
:100D7000CC5CC5185B1CAC70DBB29342F8D330BCC2
:100D80004FF4B6620249034803F06AB830BC7047BA
:100D90002405002000D8000810B5002306E0CC5C34
:100DA000844201D1012010BD5B1CDBB29342F6D31B
:100DB000002010BD4FF4805000F00EBF012303EB64
:100DC000520203F03FB800002DE9F0470446C07915
:100DD00092460709884600F00F0600251AE000BF7A
:100DE00004EB05110831894610223348FFF708FA51
:100DF000324A33493048BAF1000F02D004F0DAFA2F
:100E000001E004F075F9484610222D49FFF7F8F982
:100E10006D1CEDB2BD42E3D3E6B3BAF1000F04EBB3
:100E2000071114D0102224480831FFF7E9F9234AAA
:100E30002349214804F0BEFA04EB0510324620494C
:100E40000830FFF7DDF908EB0600103820E0083124
:100E50000D4632461848FFF7D3F90020034606EB4B
:100E60000712C6F1100104E017182744401C3B721A
:100E7000C0B28142F8DC114A11490F4804F038F938
:100E8000284610220E49FFF7BBF9A8EB06001030E8
:100E9000C5B201E0FFE74546E81E81B22046FFF7F4
:100EA000AFFE020A611901F8032D487053208870C3
:100EB0002846BDE8F08700006A190020BA18002013
:100EC0007A190020064A0021D16106490A6942F0D8
:100ED00002020A614861086940F0400008617047F9
:100EE0008810002000200240044B0022DA61044AEE
:100EF000136943F0010313610180704788100020DB
:100F00000020024014480022C168CB06134904D5D2
:100F1000CA6942F00202CA611022C3685B0705D5A4
:100F2000CB6943F00103CB6142F00402C369DB07E4
:100F300007D0CB6943F00403CB61C16921F0010103
:100F4000C161A2F58071013901D0C2607047C169E9
:100F500021F00101C161704700200240881000208B
:100F600070B5054600F02CFF0646114C09E0681CE0
:100F700007D025B100F024FF801BA84201D903202F
:100F800070BDE068C007F2D1E068800601D520207E
:100F9000E060E068C00605D4E069C00702D1E068FF
:100FA000400703D5FFF7AEFF012070BD002070BDE4
:100FB0000020024010B504468079C2B0400706D137
:100FC000002341AA204600F0E9F89DF80411607959
:100FD00010F0600F05D001222046FFF7F5FE4649CC
:100FE000887003224549A01CFFF73CF9002858D11E
:100FF000204600F013FC8DF804016078FFF792FEA4
:10100000012806D003223E4904F10900FFF72AF91E
:1010100028B900229DF80411204603F0D1FEA179E1
:101020004FF000000A073ED436496379CA7803F0CE
:101030000F039A4208D108714871334800230322F4
:101040000221006805F01AFCE07AA27A617A00EBCE
:10105000022080B2FF2924D1A0F57F41FF3920D1A1
:10106000A07900061DD52949627800200B185B780D
:1010700093420FD0401CC0B26428F7D323480B78AA
:10108000401C1A5408783322401C08701F4920481D
:1010900002F0E6FE1F48002303220221006805F04B
:1010A000EDFB42B010BD21F08001E071C8B220F02C
:1010B0000700A071204600F0B1FB8DF80001014649
:1010C000607910F0600F05D000222046FFF77CFE0B
:1010D0008DF800019DF8002121466846FFF790F841
:1010E0000D4800230A2200788DF801010B4869465B
:1010F000006805F0B1FAD4E7A8100020B80000207D
:10110000EC7300084400002034000020340200206A
:1011100000E80008380000207200002008000020CD
:101120000278AC2A04D1084410F8010C532801D0ED
:10113000002070470120704730B50D46BFB01446FF
:10114000014610226846FFF75BF8FF208DF801008A
:101150008DF802008DF803008DF804009DF806005C
:1011600040F080008DF8060044B1201D8DF8070086
:101170002246294603A8FFF743F802E000208DF835
:101180000700684600F04AFB02466946024803F041
:10119000EBFD3FB030BD0000003801402DE9F043C9
:1011A000C1B00D468146984616464FF48071684698
:1011B000FFF74DF8532709F10804B8F1000F1BD0D1
:1011C000093DEAB26946204603F01AFF0546024689
:1011D00069462046FFF714F805F108014846FFF775
:1011E0000FFD0146000A605560190B35417087708C
:1011F000357041B0BDE8F0830B3DEAB26946204648
:1012000003F016FF05466A1C0DF805706946204676
:10121000FEF7F6FF0935EBE770B505460078AC2818
:1012200002D0682811D101E0C91E00E0891ECCB2AD
:1012300021462846FFF7E4FC295DB1EB102F04D1CD
:101240002919C0B24978884201D0012070BD002020
:1012500070BD00002DE9F043C1B00D46044698462C
:1012600017464FF480716846FEF7F1FF234E4FF0AA
:101270009609B8F1000F29D0ED1FEAB26946601D4A
:1012800003F0BEFE307002466946601DFEF7B8FFEF
:1012900030780146401DA070C043E0702046491DD3
:1012A000FFF7AEFCA278010AA154A278611C505449
:1012B000A278A11C02F80190A278E11C02F801902A
:1012C000A078001D387041B0BDE8F083093DEAB256
:1012D0006946601D03F0ACFE3070C11CA170C943AB
:1012E000E1700DEB00020DF8009082F80190821C75
:1012F0006946601DFEF784FFE2E70000B4000020AD
:101300002DE9F0478A46DDE9089556190D368046E5
:10131000F1B21C4617461846091DFEF798FF6920D2
:1013200020706070A670F043E07020792A4620F0AB
:10133000020040F0010020711A48C17F617190F8ED
:101340002010A17184F8078030F8071F2181807870
:10135000A072E07A494665F3071040F00F00E07292
:10136000257304F10D000546FEF74AFF207B3A463F
:1013700028445146FEF744FFA1782046FFF740FC81
:10138000A278010AA154A278611C5054A278A11C31
:1013900096205054A278E11C5054A078001DC0B291
:1013A000BDE8F087FE0200202DE9F043C1B0884679
:1013B000DDE948640746994615464FF48071684652
:1013C000FEF745FF69208DF800008DF8010028190F
:1013D00014308DF80200C0438DF803009DF804001E
:1013E000224620F003008DF804002848C17F8DF8C4
:1013F000051090F820108DF806103968CDF8071008
:101400007968CDF80B1030F8071FADF80F10807811
:101410008DF811009DF81200314664F3071040F07A
:101420000F008DF812008DF8134005A80446FEF752
:10143000E7FE9DF813002A4620444146FEF7E0FEF1
:101440009DF802106846FFF7DBFB9DF80220010AB9
:101450000DF802109DF802200DF1010150549DF885
:101460000220491C962050549DF80220491C5054DB
:101470009DF8022069464846121DFEF7C1FE9DF800
:10148000020041B0001DC0B2BDE8F083FE020020A2
:101490002DE9F34F04468078C5B08C2806D200238E
:1014A00046AA9DF818112046FFF7D4FE20790006C1
:1014B0007ED503229349E01DFEF7D4FE002877D1A4
:1014C0002079DFF844B2914D40074FF4B66A4FF0EF
:1014D000000719D5217BE07AB1EB101F14D1A07A57
:1014E00069781F38C0B200EB800202EBC002884866
:1014F0003229815408D31044417829B147705246AB
:101500008349584602F0ACFCE07A00097FD120798B
:1015100041077DD4217B04F10D0801EB0806B07969
:10152000000674D503227B49B01CFEF79BFE002801
:101530006DD14146227B0DF586780DF20D10FEF738
:101540005FFE207B8DF80C017348727994F80A9045
:10155000C17802F00F02914208D1077147716F48BC
:10156000002303220221006805F088F9207B9DF802
:101570001811081A1138C2B2AA7031462046FEF777
:101580003FFE607910F0600F05D0A9780122E81DB8
:10159000FFF71AFCA87003225E49A01CFEF762FE4A
:1015A000A0B903225E4904F10900FEF75BFE00E0EA
:1015B0002DE020B16078FFF7B5FB012806D1E07976
:1015C00000220B30C1B2204603F0FAFBA0790107DC
:1015D00022D4E07AA27A617A00EB022080B200295C
:1015E00015D0FF2913D1801CB0F580300FD0012811
:1015F0000DD19DF80C2108F101014846FFF7A8FB29
:101600004848002303220221006805F037F900E072
:1016100039E047B0BDE8F08F20F08000A071E7719D
:10162000607910F0600F0BD0204600F0F7F88DF8CD
:101630000801014600222046FFF7C6FB8DF808018D
:101640009DF80C010DF20D11CDE90010E07902AB0F
:101650000B30C2B260782146FFF752FE8DF80801C8
:10166000314800230A2200788DF809012F4802A989
:10167000006804F0F1FF2E4800230A2243A9006805
:1016800004F0EAFFC3E7002600060DD52149022237
:10169000491C601DFEF7E6FD30B92648A17A0023FB
:1016A0000322006805F0EAF8207B9DF81811081A5B
:1016B000113810F0FF008DF80801A8D0002594F82B
:1016C0000A900D274FF00E080EE0217B07EB450036
:1016D000214408EB4502085C8A5C494602F008FA9E
:1016E00030446D1CC6B2EDB29DF80801B5EB500F49
:1016F000EBD3002E8BD052460549584602F0B0FB82
:1017000085E700000503002000D80008A81000208D
:1017100024050020B80000204400002034000020F0
:10172000EC73000838000020720000200800002040
:10173000100000203000002010B504460078692811
:1017400014D16078692811D1A178E0780844FF2885
:101750000CD12046FFF754FAA278010AC0B2A35C6C
:101760008B4203D1641C115D814201D0002010BD69
:10177000012010BD2DE9F0478046DDE9089550199C
:101780000D30C6B28A461C461746311D1846FEF774
:101790005EFD692020706070A670F043E0702079D3
:1017A0002A4620F0020040F0050020711A48C17F4F
:1017B000617190F82010A17184F8078030F8071F3C
:1017C00021818078A072E07A494665F3071040F0E5
:1017D0000F00E072257304F10D000546FEF710FDC1
:1017E000207B3A4628445146FEF70AFDA178204660
:1017F000FFF706FAA278010AA154A278611C50549E
:10180000A278A11C96205054A278E11C5054A078D4
:10181000001DC0B2BDE8F087FE02002070B504468E
:10182000AC202070A07920F02000A071E079083071
:10183000C5B229462046FFF7E3F9010A61556D1C40
:10184000E9B26054491CC8B253212154401CC0B2B3
:1018500070BD00002DE9F0410546002002F0F8F9C6
:101860000B4F4FF4004600223146384600F0A3FAF1
:101870000024285D02F088FA641CE4B2082CF8D336
:1018800031463846BDE8F041012200F094BA00002C
:10189000000801402DE9F04704461F46904689465E
:1018A000002002F0D5F9164E4FF4004500222946DB
:1018B000304600F080FA202002F066FA484602F036
:1018C00063FA404602F060FA384602F05DFA0122FF
:1018D0002946304600F06FFA012002F0B9F90027DE
:1018E000AA2002F051FAE0557F1CFFB2082FF7D36F
:1018F00029463046BDE8F047012200F05CBA0000FE
:101900000008014070B5002002F0A2F91E4E4FF40D
:10191000004500222946304600F04DFA222002F010
:1019200033FA01222946304600F045FA012002F040
:101930008FF9AA2002F028FA144C2070AA2002F095
:1019400023FA6070AA2002F01FFAA070AA2002F009
:101950001BFAE070AA2002F017FA2071AA2002F008
:1019600013FA6071AA2002F00FFA0002E080AA20A8
:1019700002F00AFAE1880843E08029463046BDE8D3
:101980007040012200F017BA00080140AE13002099
:1019900070B5002002F05CF9204E4FF400450022A3
:1019A0002946304600F007FA012002F0EDF9012245
:1019B0002946304600F0FFF9012002F049F9AA203B
:1019C00002F0E2F9164C2070AA2002F0DDF90002C4
:1019D0006080AA2002F0D8F9618808436080AA20BC
:1019E00002F0D2F92071AA2002F0CEF90002E080C4
:1019F000AA2002F0C9F9E1880843E080AA2002F099
:101A0000C3F92072AA2002F0BFF96072294630465D
:101A1000BDE87040012200F0CEB90000000801408E
:101A2000AE1300200F490A784B7889781A44511870
:101A300007D0C906890E4A1C017042700A2903D0DA
:101A400006E00A21017002E00C2101700D214170B5
:101A5000027805498B5C054AD3714078085C1072A6
:101A600070470000B8000020C26D00089E000020F2
:101A700010B590F821100024022903D004218163BD
:101A800001243DE001680A6822F00E020A60016844
:101A90000A6822F001020A601A4A0168914201D1E3
:101AA000012121E0174A1432914201D110211BE09B
:101AB000144A2832914201D1891515E0114A3C326D
:101AC000914201D189140FE00E4A5032914202D165
:101AD0004FF4803108E00B4A6432914202D14FF456
:101AE000801101E04FF08071064A083A51600121EF
:101AF00080F82110002180F82010416B01B1884747
:101B0000204610BD080002400348016941F08001F1
:101B10000161002070470000002002402DE9F05FC5
:101B200007461C4888460024017E15461E460129AA
:101B300009D00121814601764CF2503A5046FFF718
:101B40000FFA18B122E00220BDE8F09F012F02D069
:101B5000022F00D00427D346DFF83CA022012846FC
:101B60003146FEF72BFB81B208EB4400FFF7BCF9CE
:101B70005846FFF7F5F9DAF8102022F00102CAF80A
:101B8000102018B9641CE4B2BC42E7D3002289F8E3
:101B90001820D9E7881000200020024006490020C4
:101BA0000A69120607D5054A4A60054A4A6009696A
:101BB000090600D501207047002002402301674537
:101BC000AB89EFCDB0F5805F02D1024802F028BAB0
:101BD00070470000A8100020044910B50A680242AE
:101BE00002D00860FFF7EEFF10BD000014040140B2
:101BF0002DE9F84FDFF890A100220AF1040B1446FA
:101C000001274FF00F090BF1040E00BF0B6807FA14
:101C100004F52B40AB4274D1DFF870C14E68A6EBDF
:101C20000C0866452BD00DDC032E34D005DC36B312
:101C3000012E19D0022E2FD11BE0112E16D0122EFC
:101C40002AD119E0B8F5881F19D006DCB8F5803F15
:101C500015D0B8F5801F1FD111E0B8F5001F0ED0C8
:101C6000B8F5041F18D10AE0CA6815E0CA68121D49
:101C700012E0CA6808320FE0CA680C320CE08A68C9
:101C80002AB1012A4FF0080203D0456104E0042282
:101C900002E0056100E00022FF2B01D8064601E0CA
:101CA00000F104064FEA840501D9A5F12005D6F814
:101CB00000C009FA05F82CEA080C02FA05F54CEA0E
:101CC000050CC6F800C04D68ED0057D5304DAE6923
:101CD00046F00106AE61AD6924F0030605F001058A
:101CE00000952C4D06EB050CDCF80850A6074FEAD2
:101CF000167809FA08F6B543274EB04202D10026FD
:101D000010E03BE0254EB04201D101260AE0244E0E
:101D1000B04201D1022605E0224EB04201D1032695
:101D200000E0042606FA08F62E43CCF808604D6859
:101D3000DAF80060ED03554601D51E4300E09E43EE
:101D40002E604D68DBF80060AD035D4601D51E4393
:101D500000E09E432E604D68DEF80060ED0275469F
:101D600001D51E4300E09E432E604D68AD020E4D2E
:101D70002E6801D51E4300E09E432E60641C102C8B
:101D8000FFF444AFBDE8F88F0004014000001110DB
:101D9000001002400000014000080140000C01401A
:101DA00000100140001401400C040140806808400C
:101DB00000D0012070470AB1016170470904FBE7B8
:101DC00001488068704700005800002070B504008A
:101DD00011D021684CF6CC400860216845F255507E
:101DE0000860D4E9000141602168A0688860FFF7BD
:101DF000E7FF054609E0012070BD00BFFFF7E0FFE7
:101E0000401B302801D9032070BD2068C06800281D
:101E1000F4D121684AF6AA200860002070BD00684D
:101E20004AF6AA210160002070470000024881683C
:101E3000027811448160704758000020074810B5AF
:101E4000016841F010010160032000F09DF80F20AF
:101E500000F006F800F024F8002010BD0020024039
:101E600070B50D4D04464FF47A712878B1FBF0F04F
:101E70000A490968B1FBF0F000F08EFC48B9102C5B
:101E800007D200222146501E00F05EF800206C6050
:101E900070BD012070BD00005800002064000020CB
:101EA000214808B5816941F001018161816901F032
:101EB00001010091C16941F08051C161C06900F028
:101EC00080500090032000F05FF8002211466FF070
:101ED0000B0000F039F8002211466FF00A0000F004
:101EE00033F8002211466FF0090000F02DF80022AF
:101EF0001146501F00F028F800221146101F00F074
:101F000023F800220F21901E00F01EF800220F215E
:101F1000501E00F019F80548416821F0E06141F0D9
:101F20000071416008BD0000001002400000014047
:101F300000F01F02012191404009800000F1E020E3
:101F4000C0F8001170470000F0B40E4B1B680C463F
:101F5000C3F30223C3F10705042D00D90425191D7D
:101F6000072901D2002300E0DB1E012606FA05F155
:101F7000491E214099409E40761E16403143F0BCD8
:101F800001F0F0BC0CED00E0064900F00702086823
:101F90004FF6FF03184040EA0220034A104308604E
:101FA000704700000CED00E00000FA052DE9F04755
:101FB000DFF83C8105460E46D8F8000000F0070027
:101FC000B0420CD2D8F8001021F007013143C8F814
:101FD0000010D8F8000000F00700B04263D1287864
:101FE000444C800705D56068A96820F0F0000843DC
:101FF00060602878C00745D06868012816D021683D
:10200000022816D0890700294DDA616821F0030102
:1020100001436160FFF7D4FE6968074641F28830EA
:1020200001290FD00229814619D027E021688903B0
:10203000E9E78901E7E700BFFFF7C2FEC11B494599
:1020400001D918E081466068C0F381000128F3D10E
:1020500018E000BFFFF7B4FEC11B49450BD860680C
:10206000C0F381000228F5D10CE000BFFFF7A8FE05
:10207000C11B494502D90320BDE8F087606810F014
:102080000C0FF3D1D8F80010404601F00701B1421F
:102090000BD9016821F0070131430160006800F0AD
:1020A0000700B04201D00120E6E72878400705D5B7
:1020B0006068E96820F4E060084360602878000701
:1020C00006D56068296920F4605040EAC10060606C
:1020D00000F03CF86168084AC1F30311515CC84044
:1020E000064908600F20FFF7BBFE0020C4E7000090
:1020F0000020024000100240AA6D00086400002089
:102100000148006870470000640000200448054949
:1021100000684968044AC1F30221515CC840704715
:102120006400002000100240BA6D00080448054910
:1021300000684968044AC1F3C221515CC840704735
:102140006400002000100240BA6D000812A185B0A2
:102150000FC98DE80F0014A0144A0068049051685C
:10216000134801F00C03042B10D0082B0ED1C1F33F
:102170008343C9031DF803000AD5516804AAC1F3BB
:102180004041515C0A4A5043B0FBF1F005B0704742
:1021900008494843FAE70000020304050607080956
:1021A0000A0B0C0D0E0F101001020000001002406F
:1021B00000127A0000093D002DE9F84F044600782E
:1021C000B94DC00748D06868C0F38100012807D026
:1021D0006868C0F38100022809D16868C00306D589
:1021E0002868800338D5606800286FD034E06068C4
:1021F000B0F5803F0BD010B1B0F5A02F11D02868FA
:1022000020F480302860286820F4802002E02868CC
:1022100040F480302860606888B1FFF7D1FD064641
:1022200009E0286840F480202860F0E7FFF7C8FD47
:10223000801B642875D828688003F7D50CE0FFF769
:10224000BFFD064605E000BFFFF7BAFD801B64280E
:10225000F0D828688003F7D42078944E80074FF098
:1022600001094FF000083BD5686810F00C0F07D04B
:102270006868C0F38100022809D16868C00306D4E9
:102280002868800714D5206901281FD110E0206933
:10229000B0B1C6F80090FFF793FD074605E000BF18
:1022A000FFF78EFDC01B0228C4D828688007F7D529
:1022B0002868616920F0F80040EAC10028600FE05A
:1022C000C6F80080FFF77CFD074606E0E9E000BFA6
:1022D000FFF776FDC01B022823D828688007F7D4B3
:1022E000207800072CD57248A169D9B1C0F80090B8
:1022F000FFF766FD074604E0FFF762FDC01B0228FA
:102300000FD8686A8007F7D56A484FF4FA51006819
:10231000B0FBF1F0009000BF0098411E0091FAD28E
:102320000EE080E0C0F80080FFF74AFD074604E0B9
:10233000FFF746FDC01B022875D8686A8007F7D4EE
:102340002078400760D5E8690027C00008D4E86914
:1023500040F08050E861E869012700F0805000906B
:1023600055480168C90513D40168834641F480715A
:102370000160FFF725FD824606E000BFFFF720FD64
:10238000A0EB0A0064284ED8DBF80000C005F5D5A4
:10239000E06801280AD008B1052813D0286A20F087
:1023A00001002862286A20F0040002E0286A40F058
:1023B00001002862E06841F2883B98B1FFF700FD18
:1023C00082460BE0286A40F004002862EEE700BF76
:1023D000FFF7F6FCA0EB0A0159455AD8286A800796
:1023E000F6D50CE0FFF7ECFC824605E0FFF7E8FCD1
:1023F000A0EB0A0159454CD8286A8007F6D41FB1D2
:10240000E86920F08050E861E06988B36968C1F349
:102410008101022945D00228C6F8608004D0FFF768
:10242000CFFC044638E034E0FFF7CAFC074604E07E
:10243000FFF7C6FCC01B02282BD828688001F7D400
:10244000206AB0F5803F05D16868A16820F40030AB
:1024500008436860D4E908010843696821F47411ED
:1024600008436860C6F86090FFF7AAFC044606E0DF
:1024700015E000BFFFF7A4FC001B022809D828685C
:102480008001F7D50BE000BFFFF79AFC001B022884
:1024900002D90320BDE8F88F28688001F4D4002019
:1024A000F8E70120F6E70000001002400000424279
:1024B00080044242640000200070004070B50400B7
:1024C00005D00025A56294F8510010B104E0012068
:1024D00070BD204600F034F8022084F851002068D6
:1024E000016821F040010160D4E901010843D4E909
:1024F00003121143084361690843218B01F4007101
:102500000843E1690843216A0843A16A0843216836
:102510000860A069042101EA1040616A084321684B
:1025200048602168E06A08612068C16921F400619F
:10253000C1616565012084F85100002070BD000074
:1025400010B50068144986B0884223D113488169C8
:1025500041F4805181618069114C00F480500490F5
:102560002820009002200190032003906946204615
:10257000FFF73EFB00211020CDE9000102916946E2
:102580002046FFF735FB0748416841F0E06141F024
:102590000101416006B010BD003001400010024052
:1025A000000C0140000001402DE9F84F044690F86E
:1025B000500000260A9F9A4693460D464FF00108A8
:1025C00001280ED0012084F85000FFF7F9FB814666
:1025D00094F85100616801280CD0B1F5827F07D1D1
:1025E00002E00220BDE8F88FA16809B9042801D0F3
:1025F0000226BDE055B1BBF1000F07D0BAF1000FC4
:1026000004D094F85100012802D004E00126AFE084
:10261000052084F8510000206065C4F838B0A4F8A3
:102620003EA0A4F83CA02563A4F836A0A4F834A0EA
:102630002064606420680168490603D4016841F0A1
:1026400040010160E068B0F5006F606804D0E8B355
:10265000E08E01283BD06AE010B1E08E01282ED137
:10266000216835F8020BC860E08E401EE08626E047
:10267000B8F1000F0DD0E08E58B12068816889074D
:1026800007D535F8021BC160E08E401EE0864FF092
:102690000008E08F58B120688168C90707D0C0687A
:1026A0002BF8020BE08F401EE0874FF00108781CEA
:1026B00005D0FFF785FBA0EB0900B84246D2E08EBB
:1026C0000028D5D1E08F0028D2D136E0FFE721687D
:1026D00015F8010B0873E08E401EE08627E000BF6E
:1026E000B8F1000F0DD0E08E58B1206881688907DD
:1026F00007D515F8011B0173E08E401EE0864FF0F0
:102700000008E08F58B120688168C90707D0C06809
:102710000BF8010BE08F401EE0874FF00108781C9A
:1027200005D0FFF74DFBA0EB0900B8420ED2E08EBA
:102730000028D5D1E08F0028D2D13B4601220221CA
:102740002046CDF8009001F031FB08B103260FE0E0
:102750004A463946204601F007FB18B101262020E1
:10276000606505E0A06818B92068C16880680090BD
:10277000012084F85100002084F85000304631E7F1
:102780004FF0E0210428086903D020F0040008611C
:10279000704740F00400FAE710B5401EB0F1807FAA
:1027A00001D3012010BD4FF0E02460610F216017BC
:1027B00001F0D8F80020A06107202061002010BDA2
:1027C0007047704730B590F83C20012A20D0012294
:1027D00080F83C20022380F83D3003685C6824F0D8
:1027E00070045C6003685C680D682C435C6003687F
:1027F0009C6824F080049C6003689C6849680C43D2
:102800009C6080F83D20002180F83C10084630BDD7
:10281000022030BD10B5040003D094F83D0010B183
:1028200007E0012010BD002084F83C00204600F0A5
:102830000DF8022084F83D00211D206801F044FFBE
:10284000012084F83D00002010BD000008B500689C
:102850000B49884212D10B48816941F400618161C2
:102860008069002200F40060009009211920FFF720
:102870006BFBBDE808401920FFF75ABB08BD0000FC
:10288000002C0140001002400168CA6842F00102B9
:10289000CA600068016841F00101016000207047D2
:1028A00070B5044690F83C00012817D0012584F843
:1028B0003C50022084F83D002068826822F07702B4
:1028C00022F47F4282600868502837D00DDC20282F
:1028D00059D005DC88B3102841D151E0022070BDE9
:1028E000302853D040283AD13FE060282ED07028BD
:1028F0000BD0B0F5805F03D0B0F5005F2FD110E0B2
:102900002068816821F0070115E0CB68D1E9012139
:10291000206801F00FFF2168886840F07700886028
:102920001DE0CB68D1E90121206801F003FF206898
:10293000816841F48041816011E01EE0CA68496805
:10294000206801F009FF5021206806E0CA68496844
:10295000206801F012FF6021206801F0F5FE84F884
:102960003D50002084F83C0070BDCA68496820686A
:1029700001F0F2FE40212068EFE700212068ECE73B
:1029800010212068E9E720212068E6E7302120684F
:10299000E3E7704770B50446006801694FF0000531
:1029A000C943890715D4C168C943890711D4E91EF1
:1029B000016101202077206880698007204602D0CD
:1029C000FFF7E7FF04E000F098F8204600F096F8E3
:1029D000257720680169C943490717D4C168C943ED
:1029E000490713D46FF004010161022020772068A9
:1029F000806910F4407F204602D0FFF7CAFF04E050
:102A000000F07BF8204600F079F82577206801690E
:102A1000C943090716D4C168C943090712D46FF026
:102A200008010161042020772068C06980072046E2
:102A300002D0FFF7AEFF04E000F05FF8204600F0A0
:102A40005DF8257720680169C943C90617D4C168B4
:102A5000C943C90613D46FF0100101610820207723
:102A60002068C06910F4407F204602D0FFF791FF34
:102A700004E000F042F8204600F040F82577206896
:102A80000169C943C90708D1C168C943C90704D14D
:102A9000891E0161204600F033F820680169C943AE
:102AA000090609D4C168C943090605D46FF080013D
:102AB00001612046FFF784FE20680169C943490689
:102AC00009D4C168C943490605D46FF040010161CA
:102AD000204600F045F820680169C94389060BD4F7
:102AE000C168C943890607D46FF0200101612046FF
:102AF000BDE87040FFF765BE70BD704770470000CD
:102B000010B5144900680968884221D1124C206828
:102B1000401C206001F016FD20684FF47A71B0FB74
:102B2000F1F201FB120010B96068401C60600B48B4
:102B300090F8011100290BD090F80111491CC9B27D
:102B400080F80111322903D9002180F801110170A8
:102B500010BD0000640400204C000020B8170020C5
:102B60007047704710F8391F4078084370470000DD
:102B700070B5026804461068D168536910F00F0FF1
:102B800050D003F0010501F4907635435DD0C207C3
:102B900005D0CA0503D5E26B42F00102E2634207A9
:102BA00005D5DA0703D0E26B42F00202E263820746
:102BB00005D5DA0703D0E26B42F00402E2630207B4
:102BC00005D5DA0703D0E26B42F00802E263E26B5C
:102BD000002A33D0800604D5880602D5204601F0AD
:102BE00077FE20684069E16BC0F38010090700D4CC
:102BF00028B3204601F05EFE2068416949061AD5D7
:102C0000416921F040014161606BA0B11B49416302
:102C1000606BFEF72DFF002810D0606B416BBDE8A4
:102C200070400847830610D58B060ED52046BDE8B8
:102C3000704001F04DBE2046FFF793FF70BD204667
:102C4000FFF78FFF0020E06370BD030606D50B067B
:102C500004D52046BDE8704001F03EBF4006F3D5E4
:102C60004806F1D5D168204621F04001D1602021ED
:102C700084F8391000F0C8F870BD0000A5480008BD
:102C800070B5040004D094F83900002510B106E0B6
:102C9000012070BD84F83850204600F023F824202D
:102CA00084F839002068C16821F40051C1602046D1
:102CB00001F05AFE2068016921F490410161206809
:102CC000416921F02A0141612068C16841F4005145
:102CD000C160E563202084F8390084F83A000020C0
:102CE00070BD000070B5274E0368002426490220FD
:102CF0000322264D86B0B3421ED18B6943F4804334
:102D00008B618969039201F4804104910102CDE94C
:102D1000001069462846FEF76BFF2815CDE9000430
:102D2000694628460294FEF763FF00220821252009
:102D3000FFF70AF9252020E0154EB3421FD1CB69D9
:102D400043F40033CB61C969039201F4003104916B
:102D50000421CDE9001069462846FEF749FF082006
:102D6000CDE90004694628460294FEF741FF00229F
:102D700007212620FFF7E8F82620FFF7D9F806B04C
:102D800070BD000000380140001002400008014002
:102D90000044004090F83A30202B22D1F9B1F2B132
:102DA00090F83830012B1CD081628285C2850021C9
:102DB000C163222280F83A2080F838100168CA687E
:102DC00042F48072CA6001684A6942F001024A61B5
:102DD0000068C16841F02001C160002070470120F7
:102DE000704702207047000000680449884204D1FF
:102DF00004480349007801F0EDBF704700380140F6
:102E0000B8170020550000207047FEE770B501227A
:102E10000E4D140221462846FEF7CDFF0122560230
:102E200031462846FEF7C7FF012002F089FA00224A
:102E300021462846FEF7BFFF012002F081FA314605
:102E40002846BDE870400022FEF7B5BF000C0140E7
:102E500070B5104D4FF48074002221462846FEF7CD
:102E6000AAFF0122560231462846FEF7A4FF0120A0
:102E700002F066FA012221462846FEF79CFF012057
:102E800002F05EFA31462846BDE870400022FEF7A7
:102E900092BF0000000C01402DE9F041294D06468B
:102EA00000244FF400774FF48078002239462846FA
:102EB000FEF781FF300601D5012200E000224146E5
:102EC0002846FEF778FF012002F03AFA012239463F
:102ED0002846FEF770FF012002F032FA7006641CEB
:102EE000060EE4B2082CE0D3002239462846FEF74D
:102EF00062FF012002F024FA01224646414628469C
:102F0000FEF759FF012002F01BFA0122394628463C
:102F1000FEF751FF012002F013FA01E0641CE4B255
:102F200031462846FEF742FF08B1FF2CF6D30022B7
:102F300039462846FEF73FFFBDE8F041012002F088
:102F4000FFB90000000C0140032101EA1010012824
:102F500000D000207047000030B5BFB00C460546D9
:102F6000042216490DF10100FDF74AF914499DF8B4
:102F70000520487860F303028DF80520401C487056
:102F80009DF806008DF8085040F088008DF8060086
:102F900005208DF8070003220A490DF10900FDF70D
:102FA0002FF98DF80C406846FEF738FC024669465A
:102FB000054801F0D9FE3FB030BD0000E8730008BD
:102FC00004000020EF7300080038014010B5002114
:102FD000044800F010F9BDE810404FF4407000F0D4
:102FE00022B90000FFFC030010B504461E214FF477
:102FF000407000F000F9012C0CD0022C10D0032CF2
:1030000014D102210A4800F0F6F80A48BDE8104041
:1030100000F009B90221084800F0EDF80748F5E78B
:103020000221074800F0E7F80648EFE710BD00006E
:10303000FFFC0300FFFF030055540100555701003A
:10304000AAA80200AAAB020070B504460F2813D844
:103050001E214FF4407000F0CEF8084D64080221A4
:1030600055F8240000F0C7F855F82400BDE870407A
:1030700040F4407000F0D7B870BD0000F473000851
:103080002DE9F041134C07460E46A078401CC0B213
:10309000A07090421AD90025A57047F4407000F046
:1030A000C2F82178072900D90721384600F0A3F893
:1030B0002078B04202D10121617009E018B1617835
:1030C000012905D000E06570401C2070BDE8F0814A
:1030D000401EFAE7C200002070B500244FF440758E
:1030E000E1B2284600F087F8FF2C01D2641CA4B29C
:1030F000052001F019FA641CA4B21E2CF0D370BD97
:103100002DE9F0410124250490460E46012803D004
:10311000022801D1022405044FF4407000F083F826
:1031200031461A4800F067F844EA050040F4407060
:1031300000F079F8404602F005FB44F4407000F0DE
:1031400072F808EB48004000064602F0FBFA002542
:1031500001E0042D00D02746A400032D0FD044EA3F
:10316000070040F4407000F05EF8404602F0EAFAD2
:1031700044F4407000F057F8304602F0E3FA6D1C5A
:10318000EDB2082DE5D3BDE8F0810000FFFC03009F
:1031900010B5044602210F2000F02DF81E214FF437
:1031A000407000F028F8022C07D0012C08D140F222
:1031B0000530BDE8104000F036B840F20A30F8E7BC
:1031C00010BD10B5044602214FF4705000F013F802
:1031D0001E214FF4407000F00EF8022C07D0012C95
:1031E00008D14FF4B850BDE8104000F01CB84FF4BF
:1031F0002C50F8E710BD2DE9F04101250F46064699
:103200002C4635EA060003D13946204600F062FD1F
:10321000641C6D00E4B2122CF3D9BDE8F0415521D5
:10322000162000F057BD10B5044600F03F011320F2
:1032300000F050FDC4F38511142000F04BFDC4F3E1
:103240000531152000F046FD5521BDE8104016203F
:1032500000F040BD30B500230DE0C45CCD5CAC4255
:1032600002D94FF0010030BD02D24FF0020030BD54
:1032700003F10103DBB29342EFD3002030BD2DE90F
:10328000F0410C4680461121204600F035F9C0F18E
:103290001100C6B2C6F11100C2B2A1190D464046D6
:1032A00000F0F6F80024C6F1120707E0FAB2691E32
:1032B00008EB040000F0ECF8641CE4B2B442F5D36F
:1032C000BDE8F0810021421852784254491CC9B22D
:1032D0001029F8D300210174704770B50024012B28
:1032E0004FF010030DD0C51815F8015C05FB014423
:1032F000A4B2D454240A5B1E13F0FF03F3D114705C
:1033000070BDC618D55C16F8016C06FB01552C443F
:10331000A4B2D454240A5B1E13F0FF03F1D1107839
:103320002044107070BD00002DE9F0430C4681462A
:10333000984616461021204600F0DEF8C0F1100134
:103340000D1900210A467254491CC9B21129FAD339
:103350000024471E0FE000BFFFF7BFFF4146304685
:10336000FFF78DFF3046FFF7ADFF41463046FFF7D0
:1033700086FF641CE4B2BC42295D4FF00103324673
:103380004846E9DBFFF7A9FF41463046BDE8F04378
:10339000FFF775BF2DE9F05F8A4683461D46174645
:1033A00008261021104600F0A7F804006BD0102268
:1033B00051465846FCF724FFC4F1100000EB070803
:1033C000002198F80000020607D44006761E491C2A
:1033D000000EC9B2F6B20829F5D34006070E761ED4
:1033E00006F0FF0900261BE059462A4608460A9BBC
:1033F000FFF79AFF1022691C5846FCF701FF3806B8
:103400000AD52A46594650460A9BFFF78DFF1022DF
:10341000691C5846FCF7F4FE7806070E761CF6B2D7
:103420004E45E1D31948002108F101080170814699
:10343000671E25E018F80160002459462A46084610
:103440000A9BFFF771FF1022691C5846FCF7D8FE53
:1034500030060AD52A46594650460A9BFFF764FFB4
:103460001022691C5846FCF7CBFE7006641C060E41
:10347000E4B2082CE1D399F80010491C89F8001037
:10348000C9B2B942D6DBBDE8F09F0000C5000020FC
:10349000F0B515460E46074626E000202C4621E0F2
:1034A0003B19321913F8011C12F8012C8A4209D178
:1034B00028B1A1EB0201A1F10101C9B20DE04FF069
:1034C00000010AE0A1EB0000A0EB0200C1B202D2B1
:1034D0004FF0000001E04FF00100A4F1010403F8F7
:1034E000011CE4B2002CDBD12A4631463846FFF7F6
:1034F000B1FE0228D1D1F0BD002206E0835C13B1F9
:10350000881AC0B27047521CD2B28A42F6D3002049
:10351000704700002DE9FE430446427AC07AA17A42
:10352000002300EB012004F10C0180B20D46009352
:1035300001930293032A06D007DC002A03D0012A54
:103540004FD0022A55D1BDE8FE83042AFBD0FF2AC2
:103550004FD1012809D0284E284FB0F57F4F10D009
:10356000801CB0F5803F44D11EE003208DF80000A0
:1035700002208DF80100024669462046FDF7DCFD79
:10358000E1E7088AF083887C86F820001A48102238
:103590000D30FCF735FE81221749384600F060FCFB
:1035A000154800F0E3FC24E002F0C8FD124816F8CC
:1035B000211F22308046FCF74AFEE0792946001F91
:1035C000C2B232704046FCF71BFE81220A493846DF
:1035D00000F046FC03F032FB4146094800F0D2F906
:1035E00007E0212805D1074800230A22006803F0DC
:1035F00033F800221146C0E7FE02002040F8000820
:10360000340200200C00002010B50D4C32220B4972
:10361000204600F017FC09490878FF280DD14878AA
:10362000FF280AD164210548FCF711FE2046BDE8B9
:1036300010403222014900F013BC10BD9A02002054
:1036400000D4000870B50D460321002401EA1010D3
:1036500001280BD1284600F017F8012807D00848A8
:10366000015D29B1641CE4B2642CF9D3002070BD63
:10367000055532220249034800F0F2FB012070BDDB
:103680009A02002000D40008064A0021535C8342BD
:1036900001D101207047491CC9B26429F6D300202A
:1036A000704700009A020020064A0021535C8342C2
:1036B00001D101207047491CC9B26429F6D300200A
:1036C000704700009A02002070B5054600240123CF
:1036D00006A22946064800F037FE192000F024FF14
:1036E000641CE4B2112CF2D370BD00003100000064
:1036F000A81000202DE9F0413B4886B0816941F0D7
:1037000010018161816901F010010491816941F02A
:1037100020018161816901F020010491816941F0FA
:1037200004018161816901F004010491816941F022
:103730000801816180692D4F00F0080048F62205DC
:103740000490002229463846FEF735FBDFF8A080BA
:1037500000224FF44E514046FEF72DFB00244FF45B
:103760006040CDE90004694622480294FEF740FA21
:103770000095022601250396CDE901546946384695
:10378000FEF736FA4FF44050CDE90005CDE9024688
:1037900069464046FEF72CFA280300901648CDE90A
:1037A000010469463846FEF723FA4020CDE90004BB
:1037B000694640460294FEF71BFA4FF46070CDE96B
:1037C00000050320CDE9024069464046FEF710FAA5
:1037D000002206212820FEF7B7FB2820FEF7A8FBD1
:1037E00006B0BDE8F0810000001002400008014072
:1037F000000C014000100140000021100E4810B5DF
:103800000C4901604FF48271416000218160C16008
:103810004FF400720161C0E905122022C0E90721BE
:10382000416281620A21C162FEF748FE002800D091
:10383000FEE710BD003001400C04002010B5144814
:1038400086B01249016047210024C0E9011440F20A
:10385000E731C0E9031444618461FEF7DBFF00B186
:10386000FEE74FF48050009069460948FFF718F8CA
:1038700000B1FEE7049404A905480594FEF7A2FFF1
:10388000002800D0FEE706B010BD0000002C01406B
:10389000640400202DE9F04F0546007899B0002619
:1038A0000D284FD1E878002720284AD1294C4FF025
:1038B00021094FF0FF0820784FF0680A682844D0AB
:1038C000D5F80500C4F80300D5F80900C4F80700CE
:1038D000DFF884B084F800A081222146584600F029
:1038E000BFFA81222146584600F0ACFA0822691D31
:1038F000E01CFCF7B7FC40B32770812221465846F4
:1039000000F0AEFA22208DF801008DF8037000BFA0
:103910008DF800A001208DF8020004216846FDF713
:103920006FF9010A8DF80410DFF830808DF805007A
:103930006C464046A15D01F03DFA761CF6B2062EBB
:10394000F7D32F7019B0BDE8F08F8DF801908DF886
:103950000380DDE7FE02002040F800080038014047
:10396000FEE770470907090E002806DA00F00F008D
:1039700000F1E02080F8141D704700F1E02080F88D
:10398000001470472DE9F0410E4605460024114F02
:103990001AE0002197F82120281907E090F801C0CB
:1039A00016F801E0F44503D0491CC9B28A42F5D8A3
:1039B0008A4207D1811C1A1B401CFCF721FC287885
:1039C000401E2870641CE4B22B78A342E1D8BDE805
:1039D000F0810000FE02002070B5054608480C4644
:1039E0000068FCF705FCFCF7F9FB611B491CB0FB08
:1039F000F1F2BDE8704001FB12000A3000F094BD06
:103A00004C00002030B50D4C012807D014D94FF0E0
:103A10000201A0F101002170C5B20AE04FF00100DF
:103A2000207009E020784FF0020101F0ADFC207019
:103A3000EDB26D1E002DF5DC004830BDB000002059
:103A40002DE9F04106460D46002000F001F9DFF8AF
:103A500038804FF40047002239464046FEF7ABF964
:103A6000772000F091F9002405E0AA2000F08CF9FD
:103A70003055641CE4B2AC42F7D339464046BDE849
:103A8000F0410122FEF797B900080140F8B504465D
:103A90000020009000F0DCF8144D4FF400460022A6
:103AA00031462846FEF787F9152000F06DF92046CB
:103AB00000F06AF9012231462846FEF77CF9012020
:103AC00000F0C6F800246F46AA2000F05DF93855D2
:103AD000641C9DF80100E4B28DF80000022CF3D3C1
:103AE000012231462846FEF766F9F8BD000801407C
:103AF00030B51F38C0B200EB800404EBC0050C48A1
:103B0000A1F11F03DBB2445D322C0ED2322A0CD35A
:103B100003EB830202EBC302825C944205D2284489
:103B2000012242708170104630BD002030BD00007F
:103B3000240500202DE9F843184F804607F11004B2
:103B400004F1110604F1240510213046FCF77FFB37
:103B500010213846FCF77BFB11212046FCF777FB50
:103B600011212846FCF773FB10220D493846FCF75B
:103B700047FB0B4910221031601CFCF741FB13225C
:103B800008493046FCF73CFB2B463A463146404656
:103B90000094FFF7FFFBBDE8F8830000BA1800208F
:103BA000C87300089A1900207CB5264C4FF4805049
:103BB00020804610244D012231462846FEF7FBF8AE
:103BC000022000F0B1FC002231462846FEF7F3F84F
:103BD0000A2000F0A9FC3601002231462846FEF7F3
:103BE000EAF8022000F0D0F8012000F0CDF8002023
:103BF00000F0CAF8012000F0C7F8C92000F0C4F8AE
:103C0000C32000F0C1F8802000F0BEF80122314648
:103C10002846FEF7D0F8022000F086FC00231A4662
:103C200019466846FDF736FEFDF7B2FE20202080DB
:103C300006484088A0F58841383901D001207CBD74
:103C400000207CBD7400002000080140AE1300205D
:103C50002DE9F04107461C4804881C4E4FF40045EE
:103C6000002229463046FEF7A6F8442000F08CF8E2
:103C70000EE0012229463046FEF79DF80022294633
:103C80003046FEF798F8442000F07EF8641EA4B297
:103C9000C02000F079F8FF2802D0002CE9D109E01B
:103CA00044B1002F0ED129463046BDE8F041012233
:103CB000FEF781B8012229463046FEF77CF8044918
:103CC00002200870BDE8F081740000200008014067
:103CD0006E00002070B50D460446FFF797F8A82047
:103CE000FFF7DAF82046FFF7D7F82846FFF7D4F8B1
:103CF000BDE87040FFF7ACB810B500240122802168
:103D00001848FEF758F80A2000F00EFC0121172091
:103D1000FFF7E0FF01210020FFF7DCFF3F21132028
:103D2000FFF7D8FF3F211420FFF7D4FF3F211520D4
:103D3000FFF7D0FFFFF76AF8A820FFF7ADF80120E2
:103D4000FFF7AAF80220FFF7A7F8641CE4B2122CD0
:103D5000F8D3FFF77DF85521BDE810401620FFF796
:103D6000B9BF0000000C014038B50B460092044674
:103D70000022802100F01AF8002804D0606D40F085
:103D800020006065032038BD01B582B04FF47A7021
:103D900000900123034A02A90348FEF705FC0148ED
:103DA00000780EBD680000200C0400202DE9F041D1
:103DB0001D4617460E460446DDF8188035E0681C9F
:103DC00033D02DB1FDF7FCFFA0EB0800A8422CD3A7
:103DD0002068416821F0E00141606068B0F5827FB1
:103DE0000BD1A068B0F5004F02D0B0F5806F04D1C0
:103DF0002068016821F040010160A06AB0F5005F11
:103E00000AD1206801684DF6FF72114001602068F8
:103E1000016841F400510160012084F85100002044
:103E200084F850000320BDE8F0812068806836EAFD
:103E3000000004D00020B842C1D10020F3E70120E7
:103E4000F9E7000010B5002306E000BF30F8024B90
:103E500021F813405B1C9BB29342F7D310BD0000C6
:103E60002DE9F05FA0F1006415468A468346B4F55B
:103E7000803F5FD2FDF792FEA70AC4F34806C6F55D
:103E80000074A54200D82C46DFF8AC904FF00060DB
:103E900000EB872080464FF400722749FFF7D2FFDE
:103EA00000204FF6FF7106E0331839F813208A42DC
:103EB00003D1401C80B2A042F6D3A0422ED240468D
:103EC000FDF700F84CF25030FDF74AF81B48016945
:103ED00021F0020101610020494606E03AF8102075
:103EE0008319401C21F8132080B2A042F6D3124956
:103EF00040464FF4007200BF00F022F8A54215D0F2
:103F0000281B0AEB440A0BEB440B002685B24FF446
:103F100000747F1CA542B9D82C46B7E74CF250304C
:103F2000FDF71EF8224651465846E5E7BDE8F05F2A
:103F3000FDF7EABDBDE8F09FB81300200020024065
:103F40002DE9F04116460F46054600240AE000BF61
:103F500037F81420002329460120FDF7DFFD641CFB
:103F6000A4B2AD1CB442F3D3BDE8F08110B5044651
:103F700000F10D0110221348FCF742F91148E18BC2
:103F80002038018694F8201080F83210FFF7D2FD17
:103F90000E490D48CA8B828091F820108171094822
:103FA0000B49203801F0B0FA0A49012008700A488C
:103FB000FDF738FD00F0E0FF0748007800F08AF9CF
:103FC000002010BD9A190020B4000020FE0200203D
:103FD000BA180020AF000020720000202DE9F04147
:103FE000054600242046FFF733FE0C4F4FF40046F1
:103FF000002231463846FDF7DEFE04E0285DFFF77B
:10400000C3FE641CE4B2A878001DA042F6D8314675
:104010003846BDE8F0410122FDF7CDBE0008014061
:104020002DE9FC410025044600952B462A462946E9
:1040300068460195FDF72EFC9DF804109DF80220BE
:104040004A48CB074FF0010600D0C68009074FF061
:10405000030700D50771110704D504214171C580FC
:10406000BDE8FC81D10630D50646807810B3F178E2
:1040700031B100EB400004EB0010C01CFFF7E0FC86
:10408000FDF740FC3A48C17861704178212905D399
:104090004178262906D94178482903D24078354904
:1040A000085C2070E078C01EA070207920707771C5
:1040B000F580D5E70421E01CFFF7C2FCE078032877
:1040C000DED9C01EC1B2E01DD8E7D10721D04179A9
:1040D0000329C5D00546807870B100EB400004EBA1
:1040E00000103021C01CFFF7ABFCE8783038E870D6
:1040F000A878401CA870B3E70421E01CFFF7A0FCDF
:104100002C21E01DFFF79CFCE0782F38E870AE70A2
:10411000A6E7910605D505700621417184F8045380
:104120009EE791079CD501780646302910D9707812
:10413000302100EB400004EB001000F5A17000F00E
:1041400039FF7078401C707030783038307087E7F5
:10415000002985D0707800EB400004EB001000F5DA
:10416000A17000F027FF35707AE700006A00002098
:10417000AE130020046E000810B55348FFF72EFF61
:1041800051481E38FFF72AFF4F481830FFF726FF27
:104190004D484930FFF722FF4B486130FFF71EFFC3
:1041A00049481F30FFF71AFF47481938FFF716FF35
:1041B00045486A30FFF712FF43482630FFF70EFFED
:1041C00041488630FFF70AFF3F489630FFF706FF69
:1041D0003D483430FFF702FF3B481438FFF7FEFE3E
:1041E00039483B30FFF7FAFE37485930FFF7F6FE03
:1041F0003548A630FFF7F2FE33482D30FFF7EEFECC
:104200003148801DFFF7EAFE2F480C30FFF7E6FE2D
:104210002D480F38FFF7E2FE2B48AF30FFF7DEFEE8
:104220002948B830FFF7DAFE2748C830FFF7D6FE36
:104230002548D830FFF7D2FE23485130FFF7CEFE95
:104240002148E830FFF7CAFE1F487A30FFF7C6FE64
:104250001E48FFF7C3FE1C48F330FFF7BFFE1C48A3
:10426000FFF7BCFE1A481030FFF7B8FE18482030A0
:10427000FFF7B4FE16483030FFF7B0FE1248423068
:10428000FFF7ACFE11482838FFF7A8FE0F4820388A
:10429000FFF7A4FE0D481838FFF7A0FE0B481038B2
:1042A000FFF79CFE08481230FFF798FE06480A38D0
:1042B000FFF794FE0448401FFFF790FE0348BDE857
:1042C00010400838FDF7C6BA6A6E00089E0000204C
:1042D0006D6F00087FB50025184E044602952A46EA
:1042E0004FF4005130460395FDF765FD012211039F
:1042F0003046FDF760FD00231A46194602A8FDF777
:10430000C9FA0F4E3079012815D0412C00D941242B
:104310000220FFF7BBFB08210320CDE9000109487B
:1043200000231A46005D194600F0A2F8B570F5703A
:1043300001207071002004B070BD0000000C01402D
:104340006A000020C26D00082DE9FF474FF0000809
:104350001C4691460F460546CDF80880CDF80C80E6
:10436000ADF800803F4E3079012822D0FB2C00D9D7
:10437000FB24412F00D941273846FFF7ABFF282106
:104380001420FFF729FB307903280DD185F8058328
:1043900086F804803846FFF79DFF28211420FFF798
:1043A0001BFB3079032801D000200CE086F8058043
:1043B000042004B0BDE8F08719F800102A18401C4A
:1043C00082F80611C0B2A042F6D3E01CE8704FF0AC
:1043D000010A2F71784085F805A080F00100A871CE
:1043E000DFF8849085F8058352464FF40051484623
:1043F000FDF7E1FC00224FF480514846FDF7DBFC5D
:104400000320FCF71FFC00231A46194602A8FDF7FB
:1044100041FA0120FFF73AFB05F583793C2C08D9D6
:10442000A4F13C0030700421E81C00F0C3FD3C21E5
:1044300006E086F800800421E81C00F0BBFD214660
:10444000484600F0B7FD05207071084885F804A3C0
:10445000221DC05D302100F03FF886F80180002069
:10446000A7E700006A000020000C0140C26D0008B0
:104470002DE9F05F8046DDE90A799B4614468A46BD
:104480000020FFF7E5FB134E4FF4004500222946BC
:104490003046FDF790FC3220FFF776FC4046FFF7F0
:1044A00073FC5046FFF770FC0020FFF76DFCE0B294
:1044B000FFF76AFC5846FFF767FC3846FFF764FCD5
:1044C0004846FFF761FC29463046BDE8F05F01220F
:1044D000FDF771BC000801402DE9F0410746144684
:1044E00088460020FFF7B4FB0E4E4FF40045002233
:1044F00029463046FDF75FFC3120FFF745FC384682
:10450000FFF742FC4046FFF73FFC0020FFF73CFC72
:10451000E0B2FFF739FC29463046BDE8F041012200
:10452000FDF749BC0008014070B5054600244FF472
:104530007A7603E0304600F003FF641CAC42F9D306
:1045400070BD000070B5294800684FF001034007B6
:1045500001D12748037027484188491C89B241800E
:10456000B1F57A7F3FD300214180C01D8279521C72
:10457000D2B282713C2A36D381714279521CD2B2B6
:1045800042713C2A2FD34171C278521CD2B2C27000
:10459000182A28D3C170054644782D780D2C0FD2E7
:1045A000DFE804F00E070B070907090707090709E9
:1045B00007001F2204E01E2202E0AA0714D01C22DA
:1045C0008678761CF6B2867096420CD9641CE2B2EC
:1045D000837042700C2A06D96D1CEAB243700270D7
:1045E000642A00D3017070BD1D22E9E74C00002051
:1045F00054000020B400002010B5FDF717FCBDE802
:10460000104001F0ABB830B58FB009200121009007
:104610004FF48030002404910691CDE90104022575
:10462000CDE907504FF4E01009906846FDF7C4FD4E
:1046300000B1FEE70F20CDE90A054FF48060CDE917
:104640000C4002210AA80E94FDF7B0FC00B1FEE771
:10465000FDF756FD4FF47A71B0FBF1F0FEF79CF8D0
:104660000420FEF78DF800220F21501EFDF76CFC90
:104670000FB030BD0D48016841F001010160416893
:104680000B4A1140416001680A4A1140016001680B
:1046900021F480210160416821F4FE0141604FF462
:1046A0001F0181600449C003086070470010024088
:1046B0000000FFF8FFFFF6FE08ED00E00148FEF7FE
:1046C00069B9000064040020F0B50268164B174C6D
:1046D000174D4FF08047984205D0B84203D0A04212
:1046E00001D0A84203D122F070064A6832439842B2
:1046F00005D0B84203D0A04201D0A84203D122F491
:104700004074CA68224322F080044A69224302604E
:104710008A68C2620A688262984201D109690163AB
:1047200001214161F0BD0000002C01400004004067
:104730000008004010B5846842EA032224F47F4454
:104740000A432243826010BD826822F070020A434D
:1047500042F007018160704710B5036A046A24F0D3
:1047600001040462846924F0F00444EA021423F092
:104770000A020A438461026210BD10B5036A23F085
:10478000100303628369046A23F4704343EA02322C
:1047900024F0A00343EA01118261016210BD000010
:1047A0002DE9F05F0126DFF8F0A03C4D3C4C4FF4C2
:1047B00000594FF4804B00274FF4004808B1267091
:1047C00001E0207898B141462846FDF7EFFAA8B1FC
:1047D00049462846FDF7EAFA80B140215046FDF7E8
:1047E000E5FA58B159462846FDF7E0FA30B141469E
:1047F0002846FDF7DBFA012822D033E00A20FFF734
:1048000093FE277041462846FDF7D0FA78B1494615
:104810002846FDF7CBFA68B140215046FDF7C6FAAD
:1048200050B159462846FDF7C1FA38B11AE00120C7
:10483000BDE8F09F0220FBE70420F9E70820F7E736
:1048400049462846FDF7B2FA01280BD140215046CF
:10485000FDF7ACFA012805D159462846FDF7A6FA1E
:1048600001280FD041462846FDF7A0FA01280FD0B5
:104870006088401C80B26080B0F5487F09D96780AD
:104880001120D5E7207826700028EBD10620CFE74D
:1048900067800020CCE70000000C014000100140C0
:1048A000C600002010B5406A0021C185C184FEF712
:1048B00058F910BD0168CA6822F49072CA60016894
:1048C0004A6922F001024A61202180F83A107047BB
:1048D00010B590F83A10222901D0022010BD81684D
:1048E000B1F5805F11D00169002901681FD04968C6
:1048F00001F07F03816A4A1C82620B70C18D491EE0
:104900000904090CC18518D02BE00269816A002ACC
:104910000268526805D0D2B20A80816A491C81625D
:10492000ECE7C2F308020A80816A891CF7E74A684B
:10493000816A4B1C83620A70E0E70168CA6822F052
:104940002002CA600168CA6822F48072CA600168E5
:104950004A6922F001024A61202180F83A10FEF7EC
:1049600043FA002010BD00002DE9F0410446006824
:104970000169E26821F44051114301612169A06895
:104980000843616908432168CA6841F20C639A438D
:104990000243CA6020684169A26921F44071114351
:1049A00041614C4920686425322688423CD1FDF79C
:1049B000BDFB00EBC00101EB001061688900B0FB9A
:1049C000F1F7FDF7B3FB00EBC00101EB00106168EC
:1049D000B0468900B0FBF1F0B0FBF5F06FF01801C4
:1049E000484307EB800106EB0110B0FBF5F000F047
:1049F000F006FDF79BFB00EBC00101EB00106168C6
:104A00008900B0FBF1F0B0FBF5F006EB0016FDF706
:104A10008DFB00EBC00101EB001061688900B0FB69
:104A2000F1F7FDF783FB3BE0FDF770FB00EBC00106
:104A300001EB001061688900B0FBF1F7FDF766FB40
:104A400000EBC00101EB00106168B0468900B0FBCB
:104A5000F1F0B0FBF5F06FF01801484307EB80016F
:104A600006EB0110B0FBF5F000F0F006FDF74EFB91
:104A700000EBC00101EB001061688900B0FBF1F0B0
:104A8000B0FBF5F006EB0016FDF740FB00EBC001B4
:104A900001EB001061688900B0FBF1F7FDF736FB10
:104AA00000EBC00101EB001061688900B0FBF1F080
:104AB000B0FBF5F06FF01801484307EB800108EBFD
:104AC0000110B0FBF5F0216800F00F003044886061
:104AD000BDE8F0810038014090F83910212901D05B
:104AE000022070478168B1F5805F016A0BD04A1CD3
:104AF0000262026809785160C18C491E0904090CE0
:104B0000C1840ED017E009880268C1F30801516022
:104B100001690029016A02D0491C0162ECE7891C85
:104B2000FBE70168CA6822F08002CA600068C168B9
:104B300041F04001C16000207047000010B50948F5
:104B4000FEF716F80748FEF713F80648FEF70AF8CE
:104B50002028FAD1012204490248FEF71BF9002857
:104B6000F8D110BDA40400205500002010B509485C
:104B7000FDF7FEFF0748FDF7FBFF0648FDF7F2FFD4
:104B80002028FAD1012204490248FEF703F900283F
:104B9000F8D110BDE4040020560000202DE9F047B4
:104BA000674A0546841CADF50A7D07CA86AB83E8D3
:104BB000070028780D2878D16978A81CFCF72CFB11
:104BC0004FF0000A00287FD12078AC287CD1A07952
:104BD000010679D461795B4A01F00F011170C206B8
:104BE0004FEA007005D400286EDB2046FEF792FCE9
:104BF0006AE0002868DB54480022C170B4F809104C
:104C00000180E17A81700321017101214171114616
:104C10002046FCF791FA607910F0600FE07900F11E
:104C20000B0006D0C1B200222046FCF7CDF80646A4
:104C300000E0C6B204F10C076E7003224349F81E6F
:104C4000FBF710FB68B160780DF506781F38C0B22D
:104C500000EB800101EBC0013D48014400204F788A
:104C60003EE0CDF800A0CDF804A06A7802ABA91C04
:104C70003846FCF799FB8DF808010A208DF80901E8
:104C8000F879FEF761F9334E01280FD000230A228C
:104C900002A9306801F0E0FC4FF4967000F052FD7C
:104CA00000230A2229462C4842E00FE06178F87977
:104CB000FEF7C8FC0A20FEF707FD00230A2202A91E
:104CC000D6F8000001F0C8FC85F800A00DF50A7DBB
:104CD000BDE8F0870A18937808F80030401CC0B28D
:104CE000B842F7D36078FEF7DFFCDFF87090012858
:104CF00003D199F80000FEF7E7FC1949607811F834
:104D0000012BFCF749F8012814D0CDE900876A7817
:104D1000607843ABA91CFCF7F3FA064699F800004B
:104D20008DF80D0200230F488DF80C620A2243A96A
:104D30000068C7E73246214643A8FBF761FAEDE772
:104D4000A06D00080400002044000020EC7300085F
:104D5000240500200800002014000020720000201C
:104D600034020020180000202DE9F0410024DFF873
:104D7000408017460D4606462346621E2146D8F857
:104D8000000001F06FFB07E015F8010B31684906E0
:104D9000FCD57060641CE4B2BC42F5D3D8F80000C6
:104DA000BDE8F04100231A46194601F055BC000049
:104DB0001C00002002685206FCD5416070470000CC
:104DC0000A4610B501460248FFF7CEFF002010BD8D
:104DD000003801402DE9F04791F800C04F4C002207
:104DE0008B1C257803266D1C0B274FF0060A4FF00D
:104DF0000D09EDB2BCF10D0F1CD2DFE80CF0071D60
:104E0000272E3546515B676E78838A000123AC28D4
:104E100006D068280ED1887081F80131082076E02C
:104E20003F4D2D78002D05D088704B70227081F891
:104E300001310B70BDE8F0874A78D0544878401CA7
:104E400048702570042DF5D3022060E04A78D054D4
:104E50004878401C48700E70ECE74A78D054487887
:104E6000401C4870042052E0E42803D981F8012155
:104E70000A70DFE74D78E8544B785B1C4B7022706A
:104E800008B1052043E0504641E04E78F0544878A0
:104E9000401C48702570487A8542CBD32270F2E7D7
:104EA0004A78D0544878401C48702570022DC1D3F0
:104EB00007202CE05328D9D14C78E0544878401C86
:104EC00081F8010081F80121484620E0B02801D096
:104ED0002028CBD1C870092019E028B12028C5D8D6
:104EE00008714E700A2012E008714E7008E04A788E
:104EF000541C4C70D05408794A78C01C824299D313
:104F00000F7097E74A78541C4C70D0540C200870EE
:104F100090E74C78651C4D70E054D3E769000020A1
:104F2000AE000020FEE7000070B50446C01DFCF78F
:104F300003FC0F4D0128A17804F1070007D0FCF70E
:104F4000EFF838B1A178E01DFCF734F805E0FCF784
:104F50009FFA02E02878FFF7BDF90648007800289C
:104F600004D12878BDE87040FFF7B4B970BD0000E7
:104F7000720000206F00002010B5032401E0641EC1
:104F8000E4B2FEF711FE10B1002CF8D104E01CB120
:104F9000FFF7F2F8002010BD044901200871024615
:104FA000C1020348FCF707FF012010BD6A00002082
:104FB000000801402DE9F04106460D460020FEF7AD
:104FC00047FEDFF838804FF400470022394640465C
:104FD000FCF7F1FE6620FEF7D7FE002404E0305D0A
:104FE000FEF7D2FE641CE4B2AC42F8D33946404628
:104FF000BDE8F0410122FCF7DEBE000000080140E0
:105000002DE9F04115460E46074600240AE0385DBA
:1050100000F0B7F8010A06F8141006EB4401641C0E
:105020004870E4B2AC42F2D36806000EBDE8F081ED
:105030002DE9F04115460F46064600240CE000BF5E
:1050400016F81400010206EB44004078084300F013
:105050002EF93855641CE4B2AC42F1D36808BDE8BF
:10506000F0810000014A024900F013B875530008AE
:105070003001002002E008C8121F08C1002AFAD13E
:1050800070477047002001E001C1121F002AFBD1C8
:1050900070472DE9F04116460F460446002503E00F
:1050A0003946B047641C6D1C20780028F8D128468A
:1050B000BDE8F081F0B500235FEA021505EB83023D
:1050C000C65C8C5C7440C4545418C2186678177956
:1050D0005B1C7E401671A678177ADBB27E40167292
:1050E000E478167B74401473042BE7D3F0BD000002
:1050F000FFB516460D4600226C46002102EB8103E7
:1051000001EB8207491CC35CC9B2E3550429F5D3FE
:10511000521CD2B2042AF0D3002231462046FFF7B7
:10512000C9FF0127684600F029FE684600F008FE26
:10513000684600F0DFFA3A4631466846FFF7BAFFA4
:105140007F1CFFB20A2FEDD3684600F017FE6846B9
:1051500000F0F6FD0A2231466846FFF7ABFF00205B
:105160005FF0000101EB800200EB8103491CA25CAF
:10517000C9B2EA540429F5D3401CC0B20428EFD3C5
:10518000FFBD70B5044600F007F805022007000EC9
:1051900000F002F8284370BD00F0F00040F001007C
:1051A000010901EB501101EB9011C90701D040F04A
:1051B0000800010901EB501101EBD011C90701D022
:1051C00040F00400010901EB901101EBD011C90777
:1051D00001D040F00200704710B503780C786340AE
:1051E000137043784C786340537083788C786340B5
:1051F0009370C078C9784840D07010BDF0B50C46A7
:10520000054616460978007800F0BEF80746617832
:10521000E87800F0B9F84740A178A87800F0B4F831
:105220004740E178687800F0AFF847403770217860
:10523000687800F0A9F807466178287800F0A4F8AB
:105240004740A178E87800F09FF84740E178A878D7
:1052500000F09AF8474077702178A87800F094F829
:1052600007466178687800F08FF84740A178287881
:1052700000F08AF84740E178E87800F085F8474088
:10528000B7702178E87800F07FF807466178A87851
:1052900000F07AF84740A178687800F075F8474048
:1052A000E178287800F070F84740F770F0BD70B5ED
:1052B0000446000A00F008F800F0F005E0B200F043
:1052C00003F845EA101070BD010901EB501202EB22
:1052D000901302EBD01201EB901103EBD00302EB21
:1052E000900201EBD011DB0701EB50014FEAC272D3
:1052F00010D04FEAC17132B111B180F01000704787
:1053000080F02000704711B180F04000704780F0BD
:10531000080070474FEAC17132B111B180F08000CE
:10532000704780F0040070470029FCD080F0020034
:10533000704700000149086070470000000000202D
:1053400070B54FF0E024002265690949A369096836
:105350004843A1699942FCD002D2A3EB010302E0C9
:10536000A5EB010633441A440B468242F1D370BDCB
:10537000000000200349C2B20B685B06FCD54A60FE
:10538000704700000038014010B500231A46CC07D2
:1053900000D0434010F0800F4FEA40604FEA1060A9
:1053A00001D080F01B00521C4908D2B2082AEED36B
:1053B000184610BDFFB516460D4600226C4600216A
:1053C00002EB810301EB8207491CC35CC9B2E355C0
:1053D0000429F5D3521CD2B2042AF0D30A22314652
:1053E0002046FFF767FE0927684600F055F8684633
:1053F00000F070F83A4631466846FFF75BFE6846B3
:1054000000F022F87F1E17F0FF07EDD1684600F08C
:1054100043F8684600F05EF8002231466846FFF720
:1054200049FE00205FF0000101EB800200EB8103E8
:10543000491CA25CC9B2EA540429F5D3401CC0B28D
:105440000428EFD3FFBD0000FEB5054611A00024DF
:10545000006801AE02AF00905FF0000004EB800135
:10546000695C3154401CC0B20428F7D302AA01A9D8
:105470006846FFF7C3FE002004EB8002395C401C45
:10548000C0B2A9540428F7D3641CE4B2042CE3D3BB
:10549000FEBD00000E090D0BF0B50121002300EB4D
:1054A00081040FE0E578032202EB81063718521ED3
:1054B00017F8017C875512F0FF02F5D15B1C00F84C
:1054C0002150DBB28B42EDD3491CC9B20429E5D38C
:1054D000F0BD000070B50B4E0022002101EB8204EC
:1054E000491C055DC9B22B0905F00F0505EB031337
:1054F0000429F35C0355F1D3521CD2B2042AECD335
:1055000070BD0000A7700008F8B50E462C270021DA
:1055100006EB810310F8212006F8212000EB810220
:10552000491C54785C7094789C70D278C9B2DA7057
:105530000429EDD35FF0040506EB850414F8040C90
:105540008DF8000014F8030C8DF8010014F8020C1B
:105550008DF8020014F8010C8DF80300A8070DD196
:10556000684600F0E1FB684600F022FCA808FEF760
:1055700049FA01466A461046FFF72EFE14F8100D50
:105580009DF80010484006F8250060789DF801104D
:105590006D1C48406074A0789DF80210EDB2484040
:1055A000A074E0789DF803104840E074BD42C3D376
:1055B000F8BD0000FCF742FCFFF725F84820FFF794
:1055C000B9FEFEF797F83F483D49002401604FF4CB
:1055D0001641C0E901140C25C460C0E9044584618A
:1055E000C461FDF74DFB00B1FEE736483649403057
:1055F00001604FF4E131C0E90114C460C0E9044521
:105600008461C461FDF73CFB00B1FEE7FEF7F6F8EC
:10561000FEF714F92B482D49A4380160032141609D
:105620004FF47A618160FCF7D1FB00B1FEE72548B9
:10563000A438FCF7F4FB2648416841F480714160CE
:1056400020484038FDF720F9012222491D48FDF786
:10565000A1FB20491B480122491C4030FDF79AFB61
:10566000FEF74AFBFBF72CFBFAF748FE1B4D3322F3
:1056700019492846FEF7E6FB17480178FF2909D1AA
:1056800000F8014B6421FAF7E2FD33221249284663
:10569000FEF7E6FBFDF7B8FF1148FEF767FCFBF7E6
:1056A000EFFA1048FCF7BEF9FFF766FC0D480078EA
:1056B000FEF710FEFBF78CF800F04BF8FEE7000059
:1056C00000380140A40400200044004000300040A5
:1056D000002004E0550000203402002000E800080B
:1056E000FE0200207200002001460020842900D024
:1056F000C81C7047FEB5054611A00024006801AE25
:1057000002AF00905FF0000004EB8001695C31544F
:10571000401CC0B20428F7D302AA01A96846FFF7CB
:105720006DFD002004EB8002395C401CC0B2A9541E
:105730000428F7D3641CE4B2042CE3D3FEBD0000BC
:105740000201010310B500B9012000F003FC0020A4
:1057500010BD10B500F0BEFC002010BD10B501F06A
:10576000F3F8012803D0BDE8104000F02FBE10BDB3
:105770003EB504460D46B0F90800FFF7B5FF02A993
:10578000CDE90001208A2B4682B2D4E9001001F055
:1057900049F8012801D000203EBD02983EBD00001E
:1057A0002DE9F041184C0F460546E6682068001DBB
:1057B00000F00EFB38B9206890F82C1001208840CA
:1057C000216981432161681C07D137B12168BDE897
:1057D000F0410E48091D00F03FBB20683544B5423A
:1057E0004560216805D2A06BBDE8F041091D00F0BD
:1057F0001BBB606B091D00F017FBA06A854200D23D
:10580000A562BDE8F0810000F000002040440020C7
:105810002DE9F041054600F02BFB2E4CA068401C02
:10582000A06020682C4F10B1606940B32DE0256066
:10583000A068012829D1002606EB860007EB80002E
:1058400000F0E4FA761C082EF6D32348A03000F0CE
:10585000DDFA2148B43000F0D9FA1F48C83000F012
:10586000D5FA1D48DC3000F0D1FA1B48F03000F0CA
:10587000CDFA1948A03060631430A06305E02068B9
:10588000E96AC06A884200D82560606A401C60628C
:10589000E96A0120226988401043206101EB810000
:1058A00007EB8000291D00F0D7FA00F001FB6069CA
:1058B00000280CD02068E96AC06A884207D20749EC
:1058C0004FF080500860BFF34F8FBFF36F8FBDE87C
:1058D000F0810000F00000205043002004ED00E0C3
:1058E00070B5114E114C17E000F028FC3068B8B1CB
:1058F00001F0A4F900F0BCFAF068C568281D00F0BA
:1059000067FAA068401EA0606068401E606000F0FA
:10591000CFFA284600F055F860680028E4D170BD41
:1059200001F08CF9F8E700002C440020F000002082
:1059300030B4026C0B46002A0BD0C1681144C16020
:105940004468A14201D30168C16030BC1846FAF72F
:1059500057BC30BC70472DE9F041856B17460446B3
:105960000026026C82B1C7B1E068FAF749FCE16831
:10597000206C091AE1602268914202D26168081A1B
:10598000E060022F16D017E02068A8B9606801F027
:1059900093F80646002060600EE0A068FAF730FC3D
:1059A000216CA0680844A0606168884204D3206824
:1059B000A06001E005B16D1E6D1CA5633046BDE819
:1059C000F08110B50446006B00F086FA2046BDE871
:1059D000104000F081BA00000F4842F690114207D3
:1059E00005D0C01D0C4A20F00700821A891A0B4A04
:1059F00000230144C2E900030839103A21F00701ED
:105A000011604B600B600B1AC0E9001393604FF0FC
:105A100000405360D0607047C0190020DC000020B7
:105A2000074C4FF08056074DFFF75AFF20680128BA
:105A3000FAD92E60BFF34F8FBFF36F8FF4E70000EA
:105A40005043002004ED00E02DE9F0470E46DDE96B
:105A500009841746824691009946089DA522206B2D
:105A6000FAF7EEFB6FF00301206B01EB87010844AE
:105A700020F00707780707D0502080F31188BFF384
:105A80004F8FBFF36F8FFEE72218315C82F834101E
:105A9000315C11B1401C1028F6D3002684F8436015
:105AA000082D00D30725E562C4E91156201D00F03A
:105AB000B8F904F1180000F0B4F92461C5F1080048
:105AC0006462A061E66484F850604A4651463846F4
:105AD00000F018F92060B8F1000F01D0C8F80040BC
