:020000040800F2
:10000000B83B002099010008172A000813200008B7
:10001000152A0008AD050008454000080000000052
:1000200000000000000000000000000001010008C6
:100030002D06000800000000450100087D3700087B
:10004000B3010008B3010008B3010008B3010008C0
:10005000B3010008B3010008B3010008B3010008B0
:10006000B3010008B3010008B3010008B3010008A0
:10007000B3010008B3010008B3010008B301000890
:10008000B3010008B3010008B3010008B301000880
:10009000B3010008B3010008B3010008B301000870
:1000A000B301000821390008B3010008B3010008BA
:1000B000B3010008B3010008B3010008B301000850
:1000C000B3010008B3010008B3010008992E00082D
:1000D000B3010008A13D0008D13D0008B3010008AC
:1000E0002F060008B3010008B3010008DFF80CD0A8
:1000F00000F0C6F80048004745470008B83B00201C
:10010000224B19680868B0E8F00F80F30988BFF344
:100110006F8F4FF0000080F311884EF00D0E704786
:100120000000000006480068006880F3088862B696
:1001300061B6BFF34F8FBFF36F8F00DF00BF00BF0B
:1001400008ED00E0EFF30980BFF36F8F0F4B1A68E3
:1001500020E9F00F106008B54FF0500080F31188CF
:10016000BFF34F8FBFF36F8F04F04AFF4FF00000D3
:1001700080F31188BDE8084019680868B0E8F00FFE
:1001800080F30988BFF36F8F704700BFBC01002068
:10019000EFF3058070470000064880470648004797
:1001A000FEE7FEE7FEE7FEE7FEE7FEE7FEE7FEE727
:1001B000FEE7FEE7F5370008ED000008202A04DB23
:1001C000203A21FA02F00021704721FA02F3D040D0
:1001D000C2F1200291400843194670470649074A78
:1001E0000868504343F239021044086040087047E1
:1001F0000149086070470000F80100206D4EC641BB
:1002000010B5431A934209D28318881803E010F8F6
:10021000011D03F8011D521EF9D210BD40EA010371
:100220009B0703D009E008C9121F08C0042AFAD2AC
:1002300003E011F8013B00F8013B521EF9D210BD5A
:10024000D2B201E000F8012B491EFBD27047002218
:10025000F6E710B513460A4604461946FFF7F0FFC5
:10026000204610BD30B504460020034600E05B1C6C
:10027000934203D2E05CCD5C401BF8D030BD00005F
:10028000064C074D06E0E06840F0010394E80700E3
:1002900098471034AC42F6D3FFF72CFF745B00088C
:1002A000945B000870B58C1810F8015B15F007031B
:1002B00001D110F8013B2A1106D110F8012B03E0FF
:1002C00010F8016B01F8016B5B1EF9D12B0705D407
:1002D0000023521E0DD401F8013BFAE710F8013B50
:1002E000CB1A921C03E013F8015B01F8015B521E6C
:1002F000F9D5A142D8D3002070BD000010B51B2253
:100300000649074800F097F906490120087003489C
:100310001321BDE810402030FFF799BF2D0D0020BC
:1003200000F800087E010020002408B52646254676
:1003300001F0D0FF4FF0FF3A4FF480784FF4A069FE
:1003400005236A465146002004F0DCFF01280FD146
:10035000009800F47F419DF8000041EA101400F07D
:100360000F07052C03D0444501D04C4500D1002691
:10037000052C32D006DC052C40D2DFE804F00E1448
:100380001B212800444532D0B4F5007F2CD04C45C9
:1003900031D0B4F5C06F31D126E001F017FF002550
:1003A0004FF400442AE023221421164801F068FF8C
:1003B000012523E0384601F017FF0225BB461DE06A
:1003C00003250A220F21384601F098FF16E0FF218D
:1003D0004FF4407002F00DF810E0384601F034FFA1
:1003E000761CF6B2642E09D92C465F4606E0022040
:1003F00001F0CCFF02E0022001F0E1FF012004F057
:1004000049FA9DE75554010003F018FA082004F05A
:1004100041FAF9E710B59AB014221C496846FFF773
:10042000EFFE1A491422143105A8FFF7E9FE174917
:10043000142228310AA8FFF7E3FE144914223C31A4
:100440000FA8FFF7DDFE11491422503114A8FFF761
:10045000D7FE0021684604F033FA0D4C002160609D
:1004600005A804F02DFAA06000210AA804F028FADB
:10047000E06000210FA804F023FA2061002114A8F5
:1004800004F01EFA60611AB010BD00005454000858
:1004900004000020224D002003F0B4FA04003AD0FA
:1004A000062C1BD006DC012C09D0022C11D0042C08
:1004B00030D109E0082C0CD0112C2BD109E00023FD
:1004C00003224FF4807122E0002303224FF4A06145
:1004D0001DE0002301460322686819E0012E02D0C6
:1004E000042E0BD016E0002303223146686804F086
:1004F00031FE002303224FF4007108E000230322A1
:100500003146686804F026FE002303225102A868E1
:1005100004F020FE26460A2004F0BCF9BBE70000E8
:100520000400002008B5174C4FF0FF350A236A4637
:100530002946002004F0E6FE01281BD1009810F0A7
:10054000FF0204D002F00F00110901F001FE009833
:10055000FF2101EA1020102802D0202805D009E050
:10056000A178E01D02F0C2FA04E0A178064AE01D7D
:1005700002F0E6FA0549064803F042FC012004F0C7
:1005800089F9D3E758030020740D0020640D002082
:10059000680A00200349044803F056FD082004F0CF
:1005A00079F9F7E7640D002058030020FEE700000A
:1005B00070B503464FF6FF7000220D4D14E000BFEA
:1005C00013F8014B521C84EA000606F00F0692B2A3
:1005D00035F8166086EA101080EA141404F00F044F
:1005E00035F8144084EA10108A42E9D370BD000047
:1005F000B65A000870B50646002002F0C1FB0A4D4D
:100600004FF4004400222146284600F0AEFC34207E
:1006100002F060FC304602F05DFC21462846BDE851
:100620007040012200F0A1BC0008014070474FF467
:10063000805000F0ABBB012303EB520202F0A8BCD8
:100640002DE9F0470446C07992460709884600F034
:100650000F0600251AE000BF04EB0511083189469A
:1006600010223348FFF7CCFD324A33493048BAF103
:10067000000F02D003F066FF01E003F00BFE4846D6
:1006800010222D49FFF7BCFD6D1CEDB2BD42E3D336
:10069000E6B3BAF1000F04EB071114D0102224487E
:1006A0000831FFF7ADFD234A2349214803F04AFFF3
:1006B00004EB0510324620490830FFF7A1FD08EB96
:1006C0000600103820E008310D4632461848FFF782
:1006D00097FD0020034606EB0712C6F1100104E067
:1006E00017182744401C3B72C0B28142F8DC114A03
:1006F00011490F4803F0CEFD284610220E49FFF79E
:100700007FFDA8EB06001030C5B201E0FFE74546CB
:10071000E81E81B22046FFF74BFF020A611901F87B
:10072000032D4870532088702846BDE8F0870000EC
:100730001D0D00206D0C00202D0D0020064A00210B
:10074000D16106490A6942F002020A6148610869FA
:1007500040F040000861704738030020002002404C
:10076000044B0022DA61044A136943F00103136168
:100770000180704738030020002002401448002206
:10078000C168CB06134904D5CA6942F00202CA61A6
:100790001022C3685B0705D5CB6943F00103CB6129
:1007A00042F00402C369DB0707D0CB6943F00403BE
:1007B000CB61C16921F00101C161A2F580710139EC
:1007C00001D0C2607047C16921F00101C161704769
:1007D000002002403803002070B5054600F0CAFB37
:1007E0000646114C09E0681C07D025B100F0C2FB99
:1007F000801BA84201D9032070BDE068C007F2D178
:10080000E068800601D52020E060E068C00605D4DD
:10081000E069C00702D1E068400703D5FFF7AEFFEB
:10082000012070BD002070BD0020024030B50D4693
:10083000BFB01446014610226846FFF7E1FCFF20D6
:100840008DF801008DF802008DF803008DF804008A
:100850009DF8060040F080008DF8060044B1201D90
:100860008DF807002246294603A8FFF7C9FC02E0DD
:1008700000208DF80700684600F0AAF8044604F04E
:10088000B7FB22466946034803F016FB04F080FDDF
:100890003FB030BD003801402DE9F043C1B00D46F6
:1008A0008146984616464FF480716846FFF7CFFCA4
:1008B000532709F10804B8F1000F1BD0093DEAB233
:1008C0006946204603F088FC0546024669462046F4
:1008D000FFF796FC05F108014846FFF769FE01465F
:1008E000000A605560190B3541708770357041B052
:1008F000BDE8F0830B3DEAB26946204603F084FC74
:1009000005466A1C0DF8057069462046FFF778FC1D
:100910000935EBE770B505460078AC2802D06828A9
:1009200011D101E0C91E00E0891ECCB22146284643
:10093000FFF73EFE295DB1EB102F04D12919C0B29B
:100940004978884201D0012070BD002070BD0000B0
:1009500070B50178692923D14178692920D182783D
:10096000C1781144FF291BD101790E4CC90703D06E
:1009700000F10B01827A02E0427C00F1120155186D
:10098000D2B2204603F098FA4FF47A7002F08EFE4D
:10099000EA7929462046BDE870400B3203F08CBA54
:1009A00070BD00000038014070B50546AC202870CD
:1009B0000C462846FFF7FCFD010A2955641CE1B2EC
:1009C0006854491CC8B253212954401CC0B270BDA0
:1009D00070B50446AC202070A07920F02000A071F2
:1009E000E0790830C5B229462046FFF7E1FD010A4B
:1009F00061556D1CE9B26054491CC8B253212154A1
:100A0000401CC0B270BD00002DE9F0410546002039
:100A100002F0B6F90B4F4FF400460022314638463B
:100A200000F0A3FA0024285D02F054FA641CE4B23A
:100A3000082CF8D331463846BDE8F041012200F0D9
:100A400094BA0000000801402DE9F04704461F4613
:100A500090468946002002F093F9164E4FF4004567
:100A600000222946304600F080FA202002F032FAB7
:100A7000484602F02FFA404602F02CFA384602F0BF
:100A800029FA01222946304600F06FFA012002F0CF
:100A900077F90027AA2002F01DFAE0557F1CFFB26B
:100AA000082FF7D329463046BDE8F047012200F071
:100AB0005CBA00000008014070B5002002F060F947
:100AC0001E4E4FF4004500222946304600F04DFAF4
:100AD000222002F0FFF901222946304600F045FAB3
:100AE000012002F04DF9AA2002F0F4F9144C207014
:100AF000AA2002F0EFF96070AA2002F0EBF9A070D2
:100B0000AA2002F0E7F9E070AA2002F0E3F92071D0
:100B1000AA2002F0DFF96071AA2002F0DBF90002DE
:100B2000E080AA2002F0D6F9E1880843E080294657
:100B30003046BDE87040012200F017BA00080140BD
:100B40005E06002070B5002002F01AF9204E4FF426
:100B5000004500222946304600F007FA012002F045
:100B6000B9F901222946304600F0FFF9012002F0D0
:100B700007F9AA2002F0AEF9164C2070AA2002F064
:100B8000A9F900026080AA2002F0A4F96188084354
:100B90006080AA2002F09EF92071AA2002F09AF942
:100BA0000002E080AA2002F095F9E1880843E08085
:100BB000AA2002F08FF92072AA2002F08BF960724D
:100BC00029463046BDE87040012200F0CEB9000051
:100BD000000801405E0600200F490A784B788978AA
:100BE0001A44511807D0C906890E4A1C0170427078
:100BF0000A2903D006E00A21017002E00C210170ED
:100C00000D214170027805498B5C054AD37140780B
:100C1000085C10727047000086010020D054000864
:100C20006E01002010B590F821100024022903D095
:100C30000421816301243DE001680A6822F00E026C
:100C40000A6001680A6822F001020A601A4A016813
:100C5000914201D1012121E0174A1432914201D180
:100C600010211BE0144A2832914201D1891515E068
:100C7000114A3C32914201D189140FE00E4A5032A0
:100C8000914202D14FF4803108E00B4A6432914224
:100C900002D14FF4801101E04FF08071064A083A0A
:100CA0005160012180F82110002180F82010416B53
:100CB00001B18847204610BD080002400348016981
:100CC00041F08001016100207047000000200240D7
:100CD0002DE9F05F07461C4888460024017E154632
:100CE0001E46012909D00121814601764CF2503A75
:100CF0005046FFF771FD18B122E00220BDE8F09FD9
:100D0000012F02D0022F00D00427D346DFF83CA0E9
:100D1000220128463146FFF751FA81B208EB440020
:100D2000FFF71EFD5846FFF757FDDAF8102022F0B6
:100D30000102CAF8102018B9641CE4B2BC42E7D31F
:100D4000002289F81820D9E738030020002002404B
:100D5000064900200A69120607D5054A4A60054A75
:100D60004A600969090600D5012070470020024049
:100D700023016745AB89EFCDB0F5805F02D1024812
:100D800002F0F2B97047000058030020044910B582
:100D90000A68024202D00860FFF7EEFF10BD0000B3
:100DA000140401402DE9F84FDFF890A100220AF168
:100DB000040B144601274FF00F090BF1040E00BF7E
:100DC0000B6807FA04F52B40AB4274D1DFF870C111
:100DD0004E68A6EB0C0866452BD00DDC032E34D0F4
:100DE00005DC36B3012E19D0022E2FD11BE0112EB7
:100DF00016D0122E2AD119E0B8F5881F19D006DCBA
:100E0000B8F5803F15D0B8F5801F1FD111E0B8F5B7
:100E1000001F0ED0B8F5041F18D10AE0CA6815E00B
:100E2000CA68121D12E0CA6808320FE0CA680C32A4
:100E30000CE08A682AB1012A4FF0080203D045610C
:100E400004E0042202E0056100E00022FF2B01D84B
:100E5000064601E000F104064FEA840501D9A5F138
:100E60002005D6F800C009FA05F82CEA080C02FAA9
:100E700005F54CEA050CC6F800C04D68ED0057D5E5
:100E8000304DAE6946F00106AE61AD6924F003064F
:100E900005F0010500952C4D06EB050CDCF808501B
:100EA000A6074FEA167809FA08F6B543274EB0426E
:100EB00002D1002610E03BE0254EB04201D10126D0
:100EC0000AE0244EB04201D1022605E0224EB04293
:100ED00001D1032600E0042606FA08F62E43CCF8DA
:100EE00008604D68DAF80060ED03554601D51E43F1
:100EF00000E09E432E604D68DBF80060AD035D4668
:100F000001D51E4300E09E432E604D68DEF8006070
:100F1000ED02754601D51E4300E09E432E604D68EC
:100F2000AD020E4D2E6801D51E4300E09E432E609B
:100F3000641C102CFFF444AFBDE8F88F000401409E
:100F400000001110001002400000014000080140A4
:100F5000000C014000100140001401400C0401404D
:100F60008068084000D0012070470AB101617047D5
:100F70000904FBE701488068704700002801002051
:100F8000024881680278114481607047280100207E
:100F9000074810B5016841F010010160032000F01E
:100FA0009DF80F2000F006F800F024F8002010BD96
:100FB0000020024070B50D4D04464FF47A71287838
:100FC000B1FBF0F00A490968B1FBF0F000F0FAFC5F
:100FD00048B9102C07D200222146501E00F05EF8BE
:100FE00000206C6070BD012070BD00002801002051
:100FF00034010020214808B5816941F00101816177
:10100000816901F001010091C16941F08051C16124
:10101000C06900F080500090032000F05FF80022CB
:1010200011466FF00B0000F039F8002211466FF006
:101030000A0000F033F8002211466FF0090000F0BA
:101040002DF800221146501F00F028F8002211460A
:10105000101F00F023F800220F21901E00F01EF850
:1010600000220F21501E00F019F80548416821F0B8
:10107000E06141F00071416008BD000000100240D5
:101080000000014000F01F02012191404009800052
:1010900000F1E020C0F8001170470000F0B40E4BE2
:1010A0001B680C46C3F30223C3F10705042D00D9C6
:1010B0000425191D072901D2002300E0DB1E0126AB
:1010C00006FA05F1491E214099409E40761E1640C1
:1010D0003143F0BC01F0A0BC0CED00E0064900F08B
:1010E000070208684FF6FF03184040EA0220034A4F
:1010F00010430860704700000CED00E00000FA05A6
:101100002DE9F047DFF83C8105460E46D8F800008F
:1011100000F00700B0420CD2D8F8001021F007010F
:101120003143C8F80010D8F8000000F00700B042C2
:1011300063D12878444C800705D56068A96820F001
:10114000F000084360602878C00745D0686801282F
:1011500016D02168022816D0890700294DDA616867
:1011600021F0030101436160FFF704FF696807464E
:1011700041F2883001290FD00229814619D027E099
:1011800021688903E9E78901E7E700BFFFF7F2FE7D
:10119000C11B494501D918E081466068C0F3810050
:1011A0000128F3D118E000BFFFF7E4FEC11B494559
:1011B0000BD86068C0F381000228F5D10CE000BFB5
:1011C000FFF7D8FEC11B494502D90320BDE8F087CF
:1011D000606810F00C0FF3D1D8F80010404601F011
:1011E0000701B1420BD9016821F0070131430160C9
:1011F000006800F00700B04201D00120E6E728783F
:10120000400705D56068E96820F4E0600843606045
:101210002878000706D56068296920F4605040EA04
:10122000C100606000F03CF86168084AC1F3031136
:10123000515CC840064908600F20FFF7BBFE002044
:10124000C4E700000020024000100240B85400082B
:10125000340100200148006870470000340100207C
:101260000448054900684968044AC1F30221515CF9
:10127000C84070473401002000100240C8540008E4
:101280000448054900684968044AC1F3C221515C19
:10129000C84070473401002000100240C8540008C4
:1012A00012A185B00FC98DE80F0014A0144A006880
:1012B00004905168134801F00C03042B10D0082B44
:1012C0000ED1C1F38343C9031DF803000AD5516849
:1012D00004AAC1F34041515C0A4A5043B0FBF1F00B
:1012E00005B0704708494843FAE7000002030405C7
:1012F000060708090A0B0C0D0E0F10100102000062
:101300000010024000127A0000093D002DE9F84F5C
:1013100004460078B94DC00748D06868C0F3810022
:10132000012807D06868C0F38100022809D16868E5
:10133000C00306D52868800338D5606800286FD0C0
:1013400034E06068B0F5803F0BD010B1B0F5A02F4D
:1013500011D0286820F480302860286820F480208C
:1013600002E0286840F480302860606888B1FFF7A8
:1013700001FE064609E0286840F480202860F0E776
:10138000FFF7F8FD801B642875D828688003F7D51F
:101390000CE0FFF7EFFD064605E000BFFFF7EAFDB2
:1013A000801B6428F0D828688003F7D42078944EF6
:1013B00080074FF001094FF000083BD5686810F036
:1013C0000C0F07D06868C0F38100022809D1686853
:1013D000C00306D42868800714D5206901281FD1CE
:1013E00010E02069B0B1C6F80090FFF7C3FD0746D2
:1013F00005E000BFFFF7BEFDC01B0228C4D8286867
:101400008007F7D52868616920F0F80040EAC1003C
:1014100028600FE0C6F80080FFF7ACFD074606E045
:10142000E9E000BFFFF7A6FDC01B022823D828680B
:101430008007F7D4207800072CD57248A169D9B16C
:10144000C0F80090FFF796FD074604E0FFF792FD15
:10145000C01B02280FD8686A8007F7D56A484FF486
:10146000FA510068B0FBF1F0009000BF0098411EF7
:101470000091FAD20EE080E0C0F80080FFF77AFD1C
:10148000074604E0FFF776FDC01B022875D8686A9E
:101490008007F7D42078400760D5E8690027C000AE
:1014A00008D4E86940F08050E861E869012700F05D
:1014B0008050009055480168C90513D401688346DF
:1014C00041F480710160FFF755FD824606E000BFE0
:1014D000FFF750FDA0EB0A0064284ED8DBF80000AF
:1014E000C005F5D5E06801280AD008B1052813D059
:1014F000286A20F001002862286A20F0040002E037
:10150000286A40F001002862E06841F2883B98B107
:10151000FFF730FD82460BE0286A40F004002862A5
:10152000EEE700BFFFF726FDA0EB0A0159455AD8A8
:10153000286A8007F6D50CE0FFF71CFD824605E01F
:10154000FFF718FDA0EB0A0159454CD8286A80071F
:10155000F6D41FB1E86920F08050E861E06988B3F3
:101560006968C1F38101022945D00228C6F860806C
:1015700004D0FFF7FFFC044638E034E0FFF7FAFC44
:10158000074604E0FFF7F6FCC01B02282BD82868AA
:101590008001F7D4206AB0F5803F05D16868A16862
:1015A00020F4003008436860D4E908010843696802
:1015B00021F4741108436860C6F86090FFF7DAFC04
:1015C000044606E015E000BFFFF7D4FC001B02282C
:1015D00009D828688001F7D50BE000BFFFF7CAFCE7
:1015E000001B022802D90320BDE8F88F286880017B
:1015F000F4D40020F8E70120F6E7000000100240D4
:101600000000424280044242340100200070004049
:101610007047000038B504460068426881684B0690
:1016200005D4CB0703D0530601D5216C04E08B070A
:1016300007D5130605D5616C01B02046BDE83040E2
:10164000084711F0600F3FD093063DD54B060AD5F1
:1016500094F85130032B34D0636D43F00403636579
:10166000C36883680093890609D5616D41F0010163
:10167000616581680091016821F040010160606D41
:10168000002821D02068416821F0E001416001205C
:1016900084F85100900718D02068416821F00301B8
:1016A00041600C4DE06C18B14563E06CFFF7BAFA8D
:1016B000A06C002808D04563A06CBDE83840FFF757
:1016C000B1BAC1688068009038BD2046FFF7A0FF1E
:1016D00038BD0000C52E000870B5040005D00025F7
:1016E000A56294F8510010B104E0012070BD2046BD
:1016F00000F034F8022084F851002068016821F0DD
:1017000040010160D4E901010843D4E90312114307
:10171000084361690843218B01F400710843E169C2
:101720000843216A0843A16A084321680860A06948
:10173000042101EA1040616A084321684860216879
:10174000E06A08612068C16921F40061C1616565D2
:10175000012084F85100002070BD000010B5006821
:10176000184986B088422BD11748816941F48051CD
:1017700081618069154C00F480500490282000900D
:10178000022001900320039069462046FFF70AFBE0
:1017900000211020CDE90001029169462046FFF7A3
:1017A00001FB0B48416841F0E06141F001014160FB
:1017B000002211462320FFF771FC2320FFF762FC73
:1017C00006B010BD0030014000100240000C014086
:1017D000000001402DE9F84F044690F85000002623
:1017E0000A9F9A4693460D464FF0010801280ED0F5
:1017F000012084F85000FFF7BDFB814694F85100AA
:10180000616801280CD0B1F5827F07D102E0022087
:10181000BDE8F88FA16809B9042801D00226BDE00F
:1018200055B1BBF1000F07D0BAF1000F04D094F806
:101830005100012802D004E00126AFE0052084F821
:10184000510000206065C4F838B0A4F83EA0A4F8A8
:101850003CA02563A4F836A0A4F834A020646064FA
:1018600020680168490603D4016841F04001016025
:10187000E068B0F5006F606804D0E8B3E08E01283E
:101880003BD06AE010B1E08E01282ED1216835F8F6
:10189000020BC860E08E401EE08626E0B8F1000F23
:1018A0000DD0E08E58B120688168890707D535F8DA
:1018B000021BC160E08E401EE0864FF00008E08F02
:1018C00058B120688168C90707D0C0682BF8020B9F
:1018D000E08F401EE0874FF00108781C05D0FFF72D
:1018E00049FBA0EB0900B84246D2E08E0028D5D1D2
:1018F000E08F0028D2D136E0FFE7216815F8010B10
:101900000873E08E401EE08627E000BFB8F1000FAC
:101910000DD0E08E58B120688168890707D515F889
:10192000011B0173E08E401EE0864FF00008E08F3F
:1019300058B120688168C90707D0C0680BF8010B4F
:10194000E08F401EE0874FF00108781C05D0FFF7BC
:1019500011FBA0EB0900B8420ED2E08E0028D5D1D1
:10196000E08F0028D2D13B46012202212046CDF84B
:10197000009001F0C1FA08B103260FE04A4639464B
:10198000204601F08FFA18B101262020606505E09D
:10199000A06818B92068C16880680090012084F8A8
:1019A0005100002084F85000304631E74FF0E0212C
:1019B0000428086903D020F004000861704740F053
:1019C0000400FAE710B5401EB0F1807F01D301207A
:1019D00010BD4FF0E02460610F21601701F01CF88A
:1019E0000020A06107202061002010BD70477047D3
:1019F00030B590F83C20012A20D0012280F83C200C
:101A0000022380F83D3003685C6824F070045C6059
:101A100003685C680D682C435C6003689C6824F074
:101A200080049C6003689C6849680C439C6080F853
:101A30003D20002180F83C10084630BD022030BD1A
:101A400010B5040003D094F83D0010B107E0012068
:101A500010BD002084F83C00204600F00DF8022064
:101A600084F83D00211D206801F060FF012084F80A
:101A70003D00002010BD000008B500680B498842F9
:101A800012D10B48816941F40061816180690022B3
:101A900000F40060009001211920FFF7FFFABDE873
:101AA00008401920FFF7EEBA08BD0000002C0140E5
:101AB000001002400168CA6842F00102CA60006872
:101AC000016841F0010101600020704770B50446D3
:101AD00090F83C00012817D0012584F83C500220E2
:101AE00084F83D002068826822F0770222F47F4269
:101AF00082600868502837D00DDC202859D005DCDA
:101B000088B3102841D151E0022070BD302853D055
:101B100040283AD13FE060282ED070280BD0B0F595
:101B2000805F03D0B0F5005F2FD110E0206881689E
:101B300021F0070115E0CB68D1E90121206801F00F
:101B40002BFF2168886840F0770088601DE0CB6833
:101B5000D1E90121206801F01FFF2068816841F46C
:101B60008041816011E01EE0CA684968206801F088
:101B700025FF5021206806E0CA684968206801F006
:101B80002EFF6021206801F011FF84F83D500020F5
:101B900084F83C0070BDCA684968206801F00EFFF7
:101BA00040212068EFE700212068ECE71021206841
:101BB000E9E720212068E6E730212068E3E7704765
:101BC00070B50446006801694FF00005C9438907F4
:101BD00015D4C168C943890711D4E91E01610120E8
:101BE0002077206880698007204602D0FFF7E7FF52
:101BF00004E000F098F8204600F096F82577206879
:101C00000169C943490717D4C168C943490713D4B7
:101C10006FF004010161022020772068806910F4D0
:101C2000407F204602D0FFF7CAFF04E000F07BF8B7
:101C3000204600F079F8257720680169C943090733
:101C400016D4C168C943090712D46FF008010161B5
:101C5000042020772068C0698007204602D0FFF763
:101C6000AEFF04E000F05FF8204600F05DF8257755
:101C700020680169C943C90617D4C168C943C906A8
:101C800013D46FF010010161082020772068C0692B
:101C900010F4407F204602D0FFF791FF04E000F0EF
:101CA00042F8204600F040F8257720680169C943D2
:101CB000C90708D1C168C943C90704D1891E016198
:101CC000204600F033F820680169C943090609D4A9
:101CD000C168C943090605D46FF08001016120463F
:101CE000FFF784FE20680169C943490609D4C16829
:101CF000C943490605D46FF040010161204600F058
:101D000033F820680169C94389060BD4C168C94307
:101D1000890607D46FF0200101612046BDE87040BC
:101D2000FFF765BE70BD70477047000010B50C49E5
:101D300000680968884211D10A4C2068401C206064
:101D400001F0C2FC20684FF47A71B0FBF1F201FBA4
:101D50001200002802D16068401C606010BD0000C5
:101D6000540200201C0000207047704710F8391FF3
:101D7000407808437047000070B502680446106858
:101D8000D168536910F00F0F50D003F0010501F432
:101D9000907635435DD0C20705D0CA0503D5E26B06
:101DA00042F00102E263420705D5DA0703D0E26B95
:101DB00042F00202E263820705D5DA0703D0E26B44
:101DC00042F00402E263020705D5DA0703D0E26BB2
:101DD00042F00802E263E26B002A33D0800604D5A9
:101DE000880602D5204601F0A5FE20684069E16B17
:101DF000C0F38010090700D428B3204601F08CFE00
:101E00002068416949061AD5416921F040014161C4
:101E1000606BA0B11B494163606BFEF703FF0028B4
:101E200010D0606B416BBDE870400847830610D549
:101E30008B060ED52046BDE8704001F07BBE2046E3
:101E4000FFF793FF70BD2046FFF78FFF0020E06390
:101E500070BD030606D50B0604D52046BDE87040CC
:101E600001F06CBF4006F3D54806F1D5D168204695
:101E700021F04001D160202184F8391000F0C8F829
:101E800070BD0000093B000870B5040004D094F850
:101E90003900002510B106E0012070BD84F83850EB
:101EA000204600F023F8242084F839002068C16817
:101EB00021F40051C160204601F088FE20680169CC
:101EC00021F4904101612068416921F02A014161BA
:101ED0002068C16841F40051C160E563202084F8A6
:101EE000390084F83A00002070BD000070B5274E1C
:101EF00003680024264902200322264D86B0B342FF
:101F00001ED18B6943F480438B618969039201F48C
:101F1000804104910102CDE9001069462846FEF790
:101F200041FF2815CDE90004694628460294FEF7D2
:101F300039FF002205212520FFF7B0F8252020E0F9
:101F4000154EB3421FD1CB6943F40033CB61C9694D
:101F5000039201F4003104910421CDE90010694697
:101F60002846FEF71FFF0820CDE9000469462846F1
:101F70000294FEF717FF002205212620FFF78EF8B6
:101F80002620FFF77FF806B070BD00000038014042
:101F900000100240000801400044004090F83A3030
:101FA000202B22D1F9B1F2B190F83830012B1CD09E
:101FB00081628285C2850021C163222280F83A2095
:101FC00080F838100168CA6842F48072CA600168FB
:101FD0004A6942F001024A610068C16841F020018B
:101FE000C160002070470120704702207047000048
:101FF00000680449884204D104480349007801F08C
:1020000079BF704700380140680A00202600002090
:102010007047FEE770B501220E4D14022146284696
:10202000FEF7A3FF0122560231462846FEF79DFF28
:10203000012002F057FA002221462846FEF795FFBC
:10204000012002F04FFA31462846BDE870400022D8
:10205000FEF78BBF000C014070B5104D4FF480743B
:10206000002221462846FEF780FF01225602314613
:102070002846FEF77AFF012002F034FA01222146B9
:102080002846FEF772FF012002F02CFA314628465E
:10209000BDE870400022FEF768BF0000000C014060
:1020A0002DE9F041294D064600244FF400774FF406
:1020B0008078002239462846FEF757FF300601D5C2
:1020C000012200E0002241462846FEF74EFF012093
:1020D00002F008FA012239462846FEF746FF0120A1
:1020E00002F000FA7006641C060EE4B2082CE0D37D
:1020F000002239462846FEF738FF012002F0F2F9A7
:102100000122464641462846FEF72FFF012002F0F5
:10211000E9F9012239462846FEF727FF012002F09F
:10212000E1F901E0641CE4B231462846FEF718FFED
:1021300008B1FF2CF6D3002239462846FEF715FFDA
:10214000BDE8F041012002F0CDB90000000C0140D3
:1021500030B5BFB00C460546042218490DF1010008
:10216000FEF74EF816489DF80510027862F3030159
:102170008DF80510521C02709DF806008DF808506D
:1021800040F088008DF8060005208DF80700032236
:102190000C490DF10900FEF733F88DF80C40684644
:1021A000FEF716FC044602F023FF22466946064865
:1021B00001F082FE03F0ECF83FB030BDEB5A0008AE
:1021C000040000200F5B00080038014010B500211A
:1021D000044800F00EF9BDE810404FF4407000F0E4
:1021E00020B90000FFFC030010B50446FF214FF4A6
:1021F000407000F0FEF8012C0CD0022C10D0032C03
:1022000014D105210A4800F0F4F80A48BDE810404E
:1022100000F007B90521084800F0EBF80748F5E79A
:102220000521074800F0E5F80648EFE710BD00007B
:10223000FFFC0300FFFF0300555401005557010048
:10224000AAA80200AAAB020070B504460F2813D852
:10225000FF214FF4407000F0CCF8084D64080521D0
:1022600055F8240000F0C5F855F82400BDE870408A
:1022700040F4407000F0D5B870BD0000145B000859
:102280002DE9F041124C07460E46A078401CC0B222
:10229000A070904217D90025A57047F4407000F057
:1022A000C0F82178384600F0A4F82078B04202D176
:1022B0000121617009E018B16178012905D000E0C1
:1022C0006570401C2070BDE8F081401EFAE70000F8
:1022D0009001002070B500244FF44075E1B228460B
:1022E00000F087F8FF2C01D2641CA4B2052001F095
:1022F000DDF9641CA4B2FF2CF0D370BD2DE9F041D0
:102300000124250490460E46012803D0022801D15D
:10231000022405044FF4407000F083F831461A4857
:1023200000F067F844EA050040F4407000F079F8E6
:10233000404602F0AFFA44F4407000F072F808EB47
:1023400048004000064602F0A5FA002501E0042DF1
:1023500000D02746A400032D0FD044EA070040F424
:10236000407000F05EF8404602F094FA44F4407089
:1023700000F057F8304602F08DFA6D1CEDB2082DD2
:10238000E5D3BDE8F0810000FFFC030010B5044672
:1023900005210F2000F02DF8FF214FF4407000F0D0
:1023A00028F8022C07D0012C08D140F20530BDE8F6
:1023B000104000F036B840F20A30F8E710BD10B512
:1023C000044605214FF4705000F013F8FF214FF43C
:1023D000407000F00EF8022C07D0012C08D14FF409
:1023E000B850BDE8104000F01CB84FF42C50F8E78E
:1023F00010BD2DE9F04101250F4606462C4635EA71
:10240000060003D13946204600F0FCFC641C6D0038
:10241000E4B2122CF3D9BDE8F0415521162000F0AA
:10242000F1BC10B5044600F03F01132000F0EAFCB7
:10243000C4F38511142000F0E5FCC4F30531152028
:1024400000F0E0FC5521BDE81040162000F0DABC99
:1024500030B500230DE0C45CCD5CAC4202D94FF036
:10246000010030BD02D24FF0020030BD03F1010384
:10247000DBB29342EFD3002030BD2DE9F0410C4692
:1024800080461121204600F035F9C0F11100C6B296
:10249000C6F11100C2B2A1190D46404600F0F6F88F
:1024A0000024C6F1120707E0FAB2691E08EB040027
:1024B00000F0ECF8641CE4B2B442F5D3BDE8F0815E
:1024C0000021421852784254491CC9B21029F8D34D
:1024D00000210174704770B50024012B4FF01003E8
:1024E0000DD0C51815F8015C05FB0144A4B2D45405
:1024F000240A5B1E13F0FF03F3D1147070BDC618DD
:10250000D55C16F8016C06FB01552C44A4B2D454DA
:10251000240A5B1E13F0FF03F1D1107820441070E1
:1025200070BD00002DE9F0430C46814698461646E2
:102530001021204600F0DEF8C0F110010D19002135
:102540000A467254491CC9B21129FAD30024471E05
:102550000FE000BFFFF7BFFF41463046FFF78DFF9A
:102560003046FFF7ADFF41463046FFF786FF641C5B
:10257000E4B2BC42295D4FF0010332464846E9DB34
:10258000FFF7A9FF41463046BDE8F043FFF775BFAE
:102590002DE9F05F8A4683461D461746082610211E
:1025A000104600F0A7F804006BD0102251465846A0
:1025B000FDF726FEC4F1100000EB0708002198F893
:1025C0000000020607D44006761E491C000EC9B260
:1025D000F6B20829F5D34006070E761E06F0FF096D
:1025E00000261BE059462A4608460A9BFFF79AFF39
:1025F0001022691C5846FDF703FE38060AD52A4604
:10260000594650460A9BFFF78DFF1022691C584619
:10261000FDF7F6FD7806070E761CF6B24E45E1D3BF
:102620001948002108F1010801708146671E25E064
:1026300018F80160002459462A4608460A9BFFF70D
:1026400071FF1022691C5846FDF7DAFD30060AD5E5
:102650002A46594650460A9BFFF764FF1022691C20
:102660005846FDF7CDFD7006641C060EE4B2082C3A
:10267000E1D399F80010491C89F80010C9B2B94299
:10268000D6DBBDE8F09F000093010020F0B51546B1
:102690000E46074626E000202C4621E03B19321961
:1026A00013F8011C12F8012C8A4209D128B1A1EBC0
:1026B0000201A1F10101C9B20DE04FF000010AE0F1
:1026C000A1EB0000A0EB0200C1B202D24FF000006B
:1026D00001E04FF00100A4F1010403F8011CE4B291
:1026E000002CDBD12A4631463846FFF7B1FE0228DE
:1026F000D1D1F0BD002206E0835C13B1881AC0B2CC
:102700007047521CD2B28A42F6D3002070470000B4
:102710003EB50446427AC07AA17A002300EB01203C
:1027200080B204F10C01009301930293032A06D0B6
:1027300006DC002A03D0012A2AD0022A31D13EBD6C
:10274000042AFCD0FF2A2CD1012803D0B0F57F4FFA
:1027500027D10BE003208DF8000002208DF8010046
:10276000024669462046FEF761F83EBD0E480A8AD9
:1027700042838A7C027710220930FDF741FD0F2247
:1027800009490A4800F012FC074800F095FC08E0EF
:10279000212806D10648217B00230322006802F08D
:1027A000D9FC00221146DDE71403002000F80008E0
:1027B0000C0000202DE9F041354886B0816941F0D8
:1027C00010018161816901F010010491816941F07A
:1027D00020018161816901F020010491816941F04A
:1027E00004018161816901F004010491816941F072
:1027F000080181618069274F00F0080048F6220532
:102800000490002229463846FEF7AFFBDFF88880A7
:102810004FF46076002231464046FEF7A6FB0024C6
:10282000B001CDE9000469461C480294FEF7BAFAEB
:102830000220CDE902400095012569460195384600
:10284000FEF7B0FA280300901548CDE90104694667
:102850003846FEF7A7FA4020CDE900046946404615
:102860000294FEF79FFA0320CDE90240CDE900650E
:1028700069464046FEF796FA002205212820FEF719
:102880000DFC2820FEF7FEFB06B0BDE8F08100003D
:102890000010024000080140000C014000100140FF
:1028A000000021100E4810B50C4901604FF48271F0
:1028B000416000218160C1604FF400720161C0E994
:1028C00005122022C0E90721416281620A21C1620A
:1028D000FEF702FF002800D0FEE710BD00300140E7
:1028E000FC01002010B5144886B012490160472150
:1028F0000024C0E9011440F2E731C0E90314446147
:102900008461FFF79DF800B1FEE74FF4805000901E
:1029100069460948FFF7DAF800B1FEE7049404A914
:1029200005480594FFF764F8002800D0FEE706B0DC
:1029300010BD0000002C01405402002070B50F4D66
:102940000F4E0024142000F0B1FE0E490E4801F095
:1029500057FA0D220D492846FDF76DFE641C322CF6
:1029600004D900240C21304601F0B5FA0D210748A6
:10297000FDF7D0FF0028E5D170BD000040F8000849
:1029800000380140640D0020680A0020B8160020BD
:102990002DE9F041804640780C46202831D10D22A7
:1029A00041461948FDF75EFC2125FF2630B3174F3D
:1029B00007224146384600F0F9FA07221249384604
:1029C00000F0E6FA0D2241460F48FDF74BFCA8B196
:1029D000222060700020E070682020700120A0702C
:1029E00004212046FDF7E4FD010A217160712046B3
:1029F000BDE8F041064A062101F072BA6570E67042
:102A0000EAE7BDE8F0810000B816002040F80008B1
:102A10006A0B0020FEE770470907090E002806DA56
:102A200000F00F0000F1E02080F8141D704700F165
:102A3000E02080F80014704770B5054608480C4641
:102A40000068FDF7D5FBFDF7C9FB611B491CB0FB16
:102A5000F1F2BDE8704001FB12000A3000F026BE22
:102A60001C00002030B50D4C012807D014D94FF0C0
:102A70000201A0F101002170C5B20AE04FF001008F
:102A8000207009E020784FF0020101F045FD207030
:102A9000EDB26D1E002DF5DC004830BD8001002038
:102AA0002DE9F04106460D46002000F069F9DFF8F7
:102AB00038804FF40047002239464046FEF755FA69
:102AC000772000F007FA002405E0AA2000F002FABF
:102AD0003055641CE4B2AC42F7D339464046BDE8F9
:102AE000F0410122FEF741BA0008014070B50D46E1
:102AF000044603220F49801CFDF7B4FB002817D1C0
:102B0000607910F0600F0FD00B48007800280FD0CC
:102B1000012229462046FDF793FD01462046BDE8E7
:102B20007040064A01F0DCB92046FDF751FFF4E79A
:102B300070BD0000860100207F0100206A0B00208C
:102B40002DE9F04116460F46054602F642040322DF
:102B50002549801CFDF786FB00283DD196F84008EA
:102B6000FF2839D06879214E10F0600F07D03078F7
:102B7000002831D0012239462846FDF761FD28465C
:102B8000FDF726FF01461A4A284601F0A9F904225A
:102B9000691C601CFDF734FB68796071A87900F04E
:102BA0007F00A0710020E0712046FDF711FF014673
:102BB0006079104D104F10F0600F0FD03078002862
:102BC0000AD000222046FDF73BFD29780346224625
:102BD0000A4800F04BFC3870BDE8F08128780B46BD
:102BE00022460146F4E70000860100207F01002014
:102BF0006A0B0020420100203E0100205803002003
:102C0000F8B504460020009000F0BAF8144D4FF4D7
:102C10000046002231462846FEF7A7F9152000F0AD
:102C200059F9204600F056F9012231462846FEF7B0
:102C30009CF9012000F0A4F800246F46AA2000F0BF
:102C400049F93855641C9DF80100E4B28DF8000084
:102C5000022CF3D3012231462846FEF786F9F8BD4F
:102C6000000801402DE9F843184F804607F1100491
:102C700004F1110604F1240510213046FDF7E7FAAE
:102C800010213846FDF7E3FA11212046FDF7DFFA5F
:102C900011212846FDF7DBFA10220D493846FDF7D1
:102CA000AFFA0B4910221031601CFDF7A9FA13226C
:102CB00008493046FDF7A4FA2B463A4631464046CD
:102CC0000094FFF765FCBDE8F88300006D0C002060
:102CD000EF5A00084D0D00207CB5264C4FF4805073
:102CE00020804610244D012231462846FEF73DF94A
:102CF000022000F0DBFC002231462846FEF735F9C1
:102D00000A2000F0D3FC3601002231462846FEF7A7
:102D10002CF9022000F0DEF8012000F0DBF80020A2
:102D200000F0D8F8012000F0D5F8C92000F0D2F862
:102D3000C32000F0CFF8802000F0CCF8012231460B
:102D40002846FEF712F9022000F0B0FC00231A46D4
:102D500019466846FDF778FEFDF7F4FE2020208036
:102D600006484088A0F58841383901D001207CBD53
:102D700000207CBD44010020000801405E060020C8
:102D80002DE9F04107461C4804881C4E4FF40045CD
:102D9000002229463046FEF7E8F8442000F09AF871
:102DA0000EE0012229463046FEF7DFF800222946D0
:102DB0003046FEF7DAF8442000F08CF8641EA4B226
:102DC000C02000F087F8FF2802D0002CE9D109E0EC
:102DD00044B1002F0ED129463046BDE8F041012212
:102DE000FEF7C3B8012229463046FEF7BEF8044973
:102DF00002200870BDE8F081440100200008014075
:102E00003E01002070B50D460446FFF703F9A820E7
:102E1000FFF746F92046FFF743F92846FFF740F948
:102E2000BDE87040FFF718B910B5002401228021D9
:102E30001848FEF79AF80A2000F038FC0121172004
:102E4000FFF7E0FF01210020FFF7DCFF3F21132007
:102E5000FFF7D8FF3F211420FFF7D4FF3F211520B3
:102E6000FFF7D0FFFFF7D6F8A820FFF719F90120E8
:102E7000FFF716F90F20FFF713F9641CE4B2122CC8
:102E8000F8D3FFF7E9F85521BDE810401620FFF709
:102E9000B9BF0000000C01400148FEF7BBBB0000B9
:102EA000FC01002038B50B46009204460022802128
:102EB00000F022F8002804D0606D40F0200060652A
:102EC000032038BD10B5406A0021C187C186FEF7D6
:102ED0009FFB10BD01B582B04FF47A7000900123C2
:102EE000034A02A90348FEF775FC014800780EBDAD
:102EF00038010020FC0100202DE9F0411D46174655
:102F00000E460446DDF8188035E0681C33D02DB13C
:102F1000FEF730F8A0EB0800A8422CD320684168E7
:102F200021F0E00141606068B0F5827F0BD1A068BC
:102F3000B0F5004F02D0B0F5806F04D12068016871
:102F400021F040010160A06AB0F5005F0AD120685D
:102F500001684DF6FF72114001602068016841F47C
:102F600000510160012084F85100002084F85000D5
:102F70000320BDE8F0812068806836EA000004D0B4
:102F80000020B842C1D10020F3E70120F9E700009A
:102F900010B5002306E000BF30F8024B21F81340C3
:102FA0005B1C9BB29342F7D310BD00002DE9F05F8C
:102FB000A0F1006415468A468346B4F5803F5FD28F
:102FC000FDF7C6FEA70AC4F34806C6F50074A5427D
:102FD00000D82C46DFF8AC904FF0006000EB872063
:102FE00080464FF400722749FFF7D2FF00204FF6CA
:102FF000FF7106E0331839F813208A4203D1401CD0
:1030000080B2A042F6D3A0422ED24046FDF796FBF6
:103010004CF25030FDF7E0FB1B48016921F0020142
:1030200001610020494606E03AF810208319401C4F
:1030300021F8132080B2A042F6D3124940464FF443
:10304000007200BF00F022F8A54215D0281B0AEB41
:10305000440A0BEB440B002685B24FF400747F1C2E
:10306000A542B9D82C46B7E74CF25030FDF7B4FB77
:10307000224651465846E5E7BDE8F05FFDF71EBE23
:10308000BDE8F09F68060020002002402DE9F041D5
:1030900016460F46054600240AE000BF37F8142004
:1030A000002329460120FDF713FE641CA4B2AD1CC9
:1030B000B442F3D3BDE8F08110B5044600F1090134
:1030C00010221248FDF79CF81048618B20380186C9
:1030D000217F80F83210FFF7C5FD0E490C484A8B5E
:1030E0004280097F017109480B49203801F0D4FA68
:1030F0000A49012008700A48FDF76EFD01F028F822
:103100000748007800F086F9002010BD4D0D002022
:1031100084010020140300206D0C00207F0100209A
:10312000420100202DE9F041054600242046FFF72A
:1031300027FE0C4F4FF40046002231463846FDF77B
:1031400014FF04E0285DFFF7C5FE641CE4B2A87814
:10315000001DA042F6D831463846BDE8F0410122B4
:10316000FDF703BF000801402DE9FC41002504469E
:1031700000952B462A46294668460195FDF764FCD2
:103180009DF804209DF802104848D3074FF001062F
:1031900000D0C68012074FF0030700D507710A0759
:1031A00004D504214171C580BDE8FC81CA0630D533
:1031B0000646807810B3F17831B100EB400004EBA3
:1031C0000010C01CFFF76CFCFDF776FC3848C17896
:1031D00061704178212905D34178262906D94178A3
:1031E000482903D240783349085C2070E078C01E3B
:1031F000A070207920707771F580D5E70421E01C5C
:10320000FFF74EFCE0780328DED9C01EC1B2E01DF6
:10321000D8E7CA071ED00546807870B100EB4000A1
:1032200004EB00103021C01CFFF73AFCE87830387E
:10323000E870A878401CA870B6E70421E01CFFF7EE
:103240002FFC2C21E01DFFF72BFCE0782F38E870D5
:10325000AE70A9E78A0605D505700621417184F88C
:103260000453A1E789079FD501780646302910D974
:103270007078302100EB400004EB001000F5A170E5
:1032800000F084FF7078401C7070307830383070F7
:103290008AE7002988D0707800EB400004EB00102A
:1032A00000F5A17000F072FF35707DE73A01002053
:1032B0005E0600201255000810B55348FFF732FF94
:1032C00051481E38FFF72EFF4F481830FFF72AFFEE
:1032D0004D484930FFF726FF4B486130FFF722FF8A
:1032E00049481F30FFF71EFF47481938FFF71AFFFC
:1032F00045486A30FFF716FF43482630FFF712FFB4
:1033000041488630FFF70EFF3F489630FFF70AFF2F
:103310003D483430FFF706FF3B481438FFF702FF03
:1033200039483B30FFF7FEFE37485930FFF7FAFEC9
:103330003548A630FFF7F6FE33482D30FFF7F2FE92
:103340003148801DFFF7EEFE2F480C30FFF7EAFEF4
:103350002D480F38FFF7E6FE2B48AF30FFF7E2FEAF
:103360002948B830FFF7DEFE2748C830FFF7DAFEFD
:103370002548D830FFF7D6FE23485130FFF7D2FE5C
:103380002148E830FFF7CEFE1F487A30FFF7CAFE2B
:103390001E48FFF7C7FE1C48F330FFF7C3FE1C486A
:1033A000FFF7C0FE1A481030FFF7BCFE1848203067
:1033B000FFF7B8FE16483030FFF7B4FE124842302F
:1033C000FFF7B0FE11482838FFF7ACFE0F48203851
:1033D000FFF7A8FE0D481838FFF7A4FE0B48103879
:1033E000FFF7A0FE08481230FFF79CFE06480A3897
:1033F000FFF798FE0448401FFFF794FE0348BDE81E
:1034000010400838FDF700BB785500086E01002019
:103410007B5600087FB50025044602952B462A46B8
:10342000294602A80395FDF70FFB0E4E30790128BF
:1034300015D0412C00D941240220FFF7E1FB0821DF
:103440000320CDE90001084800231A46005D194613
:1034500000F0D0F8B570F57001207071002004B054
:1034600070BD00003A010020D05400082DE9FF5F34
:1034700000261D46924604468846B34601960296AB
:10348000ADF80060594F3879012819D0FB2D00D9CB
:10349000FB250846B8F1410F01D941208046FFF7CE
:1034A000B9FF28211420FFF7C7FA3879B946032855
:1034B00001D000200FE084F805B389F805B004209E
:1034C00004B0BDE8F09F00BF1AF800102218401C9D
:1034D00082F80611C0B2A842F6D3012084F8050391
:1034E00094F80C01C1434A0704F5837103913DD060
:1034F00000F00700022839D094F80D01642835D275
:1035000094F80B01000631D40827A5F1010A14E054
:10351000E01990F8060100F006FFADF80000BDF8D4
:103520000000020ABDF80000A119B61C81F80522AE
:103530007F1C81F80602F6B2FFB25745E8DB04F5BE
:10354000877029460746FCF782FE04F205213246C1
:103550000D463846FCF754FE31462846FCF777FE08
:103560000836F1B20398FDF71FFA0546E81CE07033
:1035700084F80480012780EA0800677180F0010068
:10358000A0715E4684F805B30320FDF733F80023ED
:103590001A46194601A8FDF757FA0120FFF730FB3C
:1035A0003C2D09D9A5F13C0089F800000421E01C5C
:1035B00000F0ECFD3C2106E089F800600421E01CED
:1035C00000F0E4FD2946039800F0E0FD052189F8AC
:1035D0000510074984F804732A1D11F808003021EA
:1035E00000F03CF889F80160002069E73A0100200A
:1035F000D05400082DE9F05F8046DDE90A799B464A
:1036000014468A460020FFF7BBFB134E4FF40045DB
:10361000002229463046FDF7A8FC3220FFF75AFC6D
:103620004046FFF757FC5046FFF754FC0020FFF7D9
:1036300051FCE0B2FFF74EFC5846FFF74BFC384612
:10364000FFF748FC4846FFF745FC29463046BDE8F1
:10365000F05F0122FDF789BC000801402DE9F0412F
:103660000746144688460020FFF78AFB0E4E4FF4AB
:103670000045002229463046FDF777FC3120FFF750
:1036800029FC3846FFF726FC4046FFF723FC0020C4
:10369000FFF720FCE0B2FFF71DFC29463046BDE8ED
:1036A000F0410122FDF761BC0008014070B50546FC
:1036B00000244FF47A7603E0304600F013FF641CD8
:1036C000AC42F9D370BD000070B5294800684FF0D6
:1036D0000103400701D12748037027480188491C8E
:1036E00089B20180B1F57A7F3FD300210180401D6E
:1036F0008279521CD2B282713C2A36D381714279CE
:10370000521CD2B242713C2A2FD34171C278521C52
:10371000D2B2C270182A28D3C170054644782D78D9
:103720000D2C0FD2DFE804F00E070B07090709077D
:103730000709070907001F2204E01E2202E0AA076A
:1037400014D01C228678761CF6B2867096420CD96C
:10375000641CE2B2837042700C2A06D96D1CEAB276
:1037600043700270642A00D3017070BD1D22E9E726
:103770001C000020240000208401002010B5FDF76B
:10378000FFFBBDE8104001F091B830B58FB00121CA
:103790000804CDE900100024029402250491CDE92B
:1037A00007504FF4E01009906846FDF7AFFD00B1F7
:1037B000FEE70F20CDE90A054FF48060CDE90C400B
:1037C00002210AA80E94FDF79BFC00B1FEE7FDF76D
:1037D00041FD4FF47A71B0FBF1F0FEF7F3F80420ED
:1037E000FEF7E4F800220F21501EFDF757FC0FB042
:1037F00030BD00000D48016841F0010101604168E1
:103800000B4A1140416001680A4A11400160016899
:1038100021F480210160416821F4FE0141604FF4F0
:103820001F0181600449C003086070470010024016
:103830000000FFF8FFFFF6FE08ED00E02DE9F04183
:103840002F4E30782F4F012807D101032E48FDF766
:1038500087FB10B93878FFF7DDFD2C4801782C4D37
:103860000024032910D195F8051361B1491CC9B290
:1038700085F80513122907D985F8054304703878AF
:10388000FFF7C8FD00E004702248018849B10188B3
:10389000491C89B20180122903D904803878FFF7C6
:1038A000B9FD95F8040348B1401CC0B285F8040383
:1038B000192803D985F8044306203070164801788A
:1038C00002290AD190F80211491CC9B280F80211EC
:1038D000072902D980F802410470104890F80111BC
:1038E00000290AD090F80111491CC9B280F80111D1
:1038F000092902D980F801410470BDE8F081000077
:103900003F01002042010020000801403E0100204C
:1039100058030020400100206A0B0020680A0020A4
:103920000148FEF74DB9000054020020F0B50268CE
:10393000164B174C174D4FF08047984205D0B842B0
:1039400003D0A04201D0A84203D122F070064A68F9
:103950003243984205D0B84203D0A04201D0A842D9
:1039600003D122F44074CA68224322F080044A69D9
:10397000224302608A68C2620A688262984201D168
:103980000969016301214161F0BD0000002C014083
:10399000000400400008004010B5846842EA032299
:1039A00024F47F440A432243826010BD826822F0DF
:1039B00070020A4342F007018160704710B5036A44
:1039C000046A24F001040462846924F0F00444EAE7
:1039D000021423F00A020A438461026210BD10B58A
:1039E000036A23F0100303628369046A23F47043BB
:1039F00043EA023224F0A00343EA0111826101622A
:103A000010BD00002DE9F05F0126DFF8F0A03C4D6D
:103A10003C4C4FF400594FF4804B00274FF40048C2
:103A200008B1267001E0207898B141462846FDF79C
:103A300097FAA8B149462846FDF792FA80B140218D
:103A40005046FDF78DFA58B159462846FDF788FAD9
:103A500030B141462846FDF783FA012822D033E0F1
:103A60000A20FFF723FE277041462846FDF778FA23
:103A700078B149462846FDF773FA68B140215046AF
:103A8000FDF76EFA50B159462846FDF769FA38B18C
:103A90001AE00120BDE8F09F0220FBE70420F9E7CF
:103AA0000820F7E749462846FDF75AFA01280BD1C6
:103AB00040215046FDF754FA012805D159462846C1
:103AC000FDF74EFA01280FD041462846FDF748FA87
:103AD00001280FD06088401C80B26080B0F5487F1C
:103AE00009D967801120D5E7207826700028EBD10E
:103AF0000620CFE767800020CCE70000000C0140E3
:103B0000001001409401002010B5406A0021C185D9
:103B1000C184FEF72AF910BD0168CA6822F49072C8
:103B2000CA6001684A6922F001024A61202180F8D6
:103B30003A10704710B590F83A10222901D00220AF
:103B400010BD8168B1F5805F11D00169002901685D
:103B50001FD0496801F07F03816A4A1C82620B70A2
:103B6000C18D491E0904090CC18518D02BE00269DA
:103B7000816A002A0268526805D0D2B20A80816A3E
:103B8000491C8162ECE7C2F308020A80816A891C41
:103B9000F7E74A68816A4B1C83620A70E0E70168B4
:103BA000CA6822F02002CA600168CA6822F48072E2
:103BB000CA6001684A6922F001024A61202180F846
:103BC0003A10FEF715FA002010BD00002DE9F04173
:103BD000044600680169E26821F440511143016123
:103BE0002169A0680843616908432168CA6841F2F5
:103BF0000C639A430243CA6020684169A26921F4B8
:103C00004071114341614C49206864253226884245
:103C10003CD1FDF735FB00EBC00101EB0010616802
:103C20008900B0FBF1F7FDF72BFB00EBC00101EBC6
:103C300000106168B0468900B0FBF1F0B0FBF5F010
:103C40006FF01801484307EB800106EB0110B0FB51
:103C5000F5F000F0F006FDF713FB00EBC00101EBFF
:103C6000001061688900B0FBF1F0B0FBF5F006EBE5
:103C70000016FDF705FB00EBC00101EB00106168C9
:103C80008900B0FBF1F7FDF7FBFA3BE0FDF7E8FA3E
:103C900000EBC00101EB001061688900B0FBF1F797
:103CA000FDF7DEFA00EBC00101EB00106168B046E1
:103CB0008900B0FBF1F0B0FBF5F06FF0180148435C
:103CC00007EB800106EB0110B0FBF5F000F0F00609
:103CD000FDF7C6FA00EBC00101EB00106168890036
:103CE000B0FBF1F0B0FBF5F006EB0016FDF7B8FA0B
:103CF00000EBC00101EB001061688900B0FBF1F737
:103D0000FDF7AEFA00EBC00101EB0010616889001D
:103D1000B0FBF1F0B0FBF5F06FF01801484307EB92
:103D2000800108EB0110B0FBF5F0216800F00F00F6
:103D300030448860BDE8F0810038014090F83910C7
:103D4000212901D0022070478168B1F5805F016AA6
:103D50000BD04A1C0262026809785160C18C491E6E
:103D60000904090CC1840ED017E009880268C1F368
:103D70000801516001690029016A02D0491C0162F1
:103D8000ECE7891CFBE70168CA6822F08002CA6080
:103D90000068C16841F04001C16000207047000028
:103DA00010B50948FDF7E8FF0748FDF7E5FF0648AD
:103DB000FDF7DCFF2028FAD1012204490248FEF772
:103DC000EDF80028F8D110BD940200202600002054
:103DD00010B50948FDF7D0FF0748FDF7CDFF0648AD
:103DE000FDF7C4FF2028FAD1012204490248FEF75A
:103DF000D5F80028F8D110BDD402002027000020FB
:103E000070B50546841C00780D2849D16978A81C36
:103E1000FCF780FD68BB2078AC2802D0682829D048
:103E20003CE0A079010639D4C1064FEA007005D400
:103E3000002833DB2046FEF76BFC2FE000282DDB4B
:103E4000002211462046FCF7F1FC607910F0600F6B
:103E5000E07900F10B0006D0C1B200222046FCF749
:103E6000EFFB034600E0C3B222460A210D48FFF7EC
:103E7000FDFA13E00C49A81CFEF78AFD0C490B481B
:103E800051F8032FC0F801204968C0F8051001213E
:103E9000017001460F220748FFF788F800202870BC
:103EA00070BD000058030020B61500201403002048
:103EB000B816002000F8000830B5002308E000BF65
:103EC00011F8014B05686D06FCD544605B1CDBB244
:103ED0009342F5D330BD02685206FCD5416070476D
:103EE0000A4610B501460248FFF7E6FF002010BD64
:103EF000003801402DE9F04791F800C04F4C0022F6
:103F00008B1C257803266D1C0B274FF0060A4FF0FB
:103F10000D09EDB2BCF10D0F1CD2DFE80CF0071D4E
:103F2000272E3546515B676E78838A000123AC28C3
:103F300006D068280ED1887081F80131082076E01B
:103F40003F4D2D78002D05D088704B70227081F880
:103F500001310B70BDE8F0874A78D0544878401C96
:103F600048702570042DF5D3022060E04A78D054C3
:103F70004878401C48700E70ECE74A78D054487876
:103F8000401C4870042052E0E42803D981F8012144
:103F90000A70DFE74D78E8544B785B1C4B70227059
:103FA00008B1052043E0504641E04E78F05448788F
:103FB000401C48702570487A8542CBD32270F2E7C6
:103FC0004A78D0544878401C48702570022DC1D3DF
:103FD00007202CE05328D9D14C78E0544878401C75
:103FE00081F8010081F80121484620E0B02801D085
:103FF0002028CBD1C870092019E028B12028C5D8C5
:1040000008714E700A2012E008714E7008E04A787C
:10401000541C4C70D05408794A78C01C824299D301
:104020000F7097E74A78541C4C70D0540C200870DD
:1040300090E74C78651C4D70E054D3E739010020BF
:104040007E010020FEE700002DE9F84F3B4D0646BB
:1040500089462878DFF8E880DFF8E8A000243A4FA6
:10406000032805D09AF80010504602293ED048E0B7
:104070002C7088F80040707BC14349070CD000F0D9
:104080000700022808D0B17800236A46F01DFCF72B
:1040900003FC9DF80000B070B178F01DFCF73AFC0D
:1040A00068B9707B99F80A1000F0980001F00F02CF
:1040B000264E89F80A20902807D098280AD0387808
:1040C000FFF7A8F9287868B11BE0002303224FF41A
:1040D000805103E0002303224FF40051306801F0C7
:1040E00039F8EFE73878FFF795F90AE0047098F8A7
:1040F0000020521CD2B288F800200A2A01D90121DE
:1041000001709AF80000042803D12C703878FFF76A
:1041100081F9287806280AD02878042805D12C703F
:1041200088F800400220FEF76BFDBDE8F88F2C7088
:1041300088F800403878FFF76DF9F6E73F01002076
:10414000250000203E010020420100200800002040
:1041500010B5032401E0641EE4B2FEF7BDFD10B10A
:10416000002CF8D104E01CB1FFF7A6F8002010BD28
:104170000449012008710246C1020348FCF7F5FE1C
:10418000012010BD3A010020000801402DE9F04156
:1041900006460D460020FEF7F3FDDFF838804FF4A9
:1041A0000047002239464046FCF7DFFE6620FEF756
:1041B00091FE002404E0305DFEF78CFE641CE4B246
:1041C000AC42F8D339464046BDE8F0410122FCF745
:1041D000CCBE0000000801402DE9F04115460E4616
:1041E000074600240AE0385D00F09DF8010A06F851
:1041F000141006EB4401641C4870E4B2AC42F2D3E4
:104200006806000EBDE8F0812DE9F04115460F4625
:10421000064600240CE000BF16F81400010206EB6D
:1042200044004078084300F014F93855641CE4B2A7
:10423000AC42F1D36808BDE8F08102E008C8121F63
:1042400008C1002AFAD170477047002001E001C17F
:10425000121F002AFBD17047F0B500235FEA021558
:1042600005EB8302C65C8C5C7440C4545418C218BD
:10427000667817795B1C7E401671A678177ADBB2D8
:104280007E401672E478167B74401473042BE7D3D7
:10429000F0BD0000FFB516460D4600226C46002119
:1042A00002EB810301EB8207491CC35CC9B2E355F1
:1042B0000429F5D3521CD2B2042AF0D3002231468D
:1042C0002046FFF7C9FF0127684600F057FD684602
:1042D00000F036FD684600F0B5FA3A4631466846C9
:1042E000FFF7BAFF7F1CFFB20A2FEDD3684600F03C
:1042F00045FD684600F024FD0A2231466846FFF776
:10430000ABFF00205FF0000101EB800200EB8103B6
:10431000491CA25CC9B2EA540429F5D3401CC0B2BE
:104320000428EFD3FFBD70B5044600F007F805027E
:104330002007000E00F002F8284370BD00F0F000E6
:1043400040F00100010901EB501101EB9011C90788
:1043500001D040F00800010901EB501101EBD01130
:10436000C90701D040F00400010901EB901101EBF5
:10437000D011C90701D040F00200704710B5037892
:104380000C786340137043784C78634053708378A3
:104390008C7863409370C078C9784840D07010BD65
:1043A000F0B50C46054616460978007800F0B4F8DA
:1043B00007466178E87800F0AFF84740A178A87820
:1043C00000F0AAF84740E178687800F0A5F8474087
:1043D00037702178687800F09FF807466178287870
:1043E00000F09AF84740A178E87800F095F8474047
:1043F000E178A87800F090F8474077702178A878A5
:1044000000F08AF807466178687800F085F8474040
:10441000A178287800F080F84740E178E87800F04B
:104420007BF84740B7702178E87800F075F80746C8
:104430006178A87800F070F84740A178687800F0BB
:104440006BF84740E178287800F066F84740F7704D
:10445000F0BD70B50446000A00F008F800F0F00561
:10446000E0B200F003F845EA101070BD010901EB5D
:10447000501202EB901302EBD01201EB901103EB00
:10448000D00302EB900201EBD011DB0701EB5001EE
:104490004FEAC27210D04FEAC17132B111B180F04F
:1044A0001000704780F02000704711B180F040008C
:1044B000704780F0080070474FEAC17132B111B106
:1044C00080F08000704780F0040070470029FCD025
:1044D00080F002007047000001490860704700004A
:1044E0000000002070B54FF0E02400226569094902
:1044F000A36909684843A1699942FCD002D2A3EBA1
:10450000010302E0A5EB010633441A440B46824244
:10451000F1D370BD0000002010B500231A46CC076F
:1045200000D0434010F0800F4FEA40604FEA106027
:1045300001D080F01B00521C4908D2B2082AEED3E9
:10454000184610BDFFB516460D4600226C460021E8
:1045500002EB810301EB8207491CC35CC9B2E3553E
:104560000429F5D3521CD2B2042AF0D30A223146D0
:104570002046FFF771FE0927684600F055F86846A7
:1045800000F070F83A4631466846FFF765FE684627
:1045900000F022F87F1E17F0FF07EDD1684600F00B
:1045A00043F8684600F05EF8002231466846FFF79F
:1045B00053FE00205FF0000101EB800200EB81035D
:1045C000491CA25CC9B2EA540429F5D3401CC0B20C
:1045D0000428EFD3FFBD0000FEB5054611A000245E
:1045E000006801AE02AF00905FF0000004EB8001B4
:1045F000695C3154401CC0B20428F7D302AA01A957
:104600006846FFF7CDFE002004EB8002395C401CB9
:10461000C0B2A9540428F7D3641CE4B2042CE3D339
:10462000FEBD00000E090D0BF0B50121002300EBCB
:1046300081040FE0E578032202EB81063718521E51
:1046400017F8017C875512F0FF02F5D15B1C00F8CA
:104650002150DBB28B42EDD3491CC9B20429E5D30A
:10466000F0BD000070B50B4E0022002101EB82046A
:10467000491C055DC9B22B0905F00F0505EB0313B5
:104680000429F35C0355F1D3521CD2B2042AECD3B3
:1046900070BD0000B5570008F8B50E462C27002164
:1046A00006EB810310F8212006F8212000EB81029F
:1046B000491C54785C7094789C70D278C9B2DA70D6
:1046C0000429EDD35FF0040506EB850414F8040C0F
:1046D0008DF8000014F8030C8DF8010014F8020C9A
:1046E0008DF8020014F8010C8DF80300A8070DD115
:1046F000684600F019FB684600F05AFBA808FEF770
:10470000B1F901466A461046FFF738FE14F8100D5D
:104710009DF80010484006F8250060789DF80110CB
:104720006D1C48406074A0789DF80210EDB24840BE
:10473000A074E0789DF803104840E074BD42C3D3F4
:10474000F8BD0000FCF724FCFFF71FF84820FFF736
:10475000C3FEFEF72FF831482F49002401604FF4C3
:104760001641C0E901140C25C460C0E90445846108
:10477000C461FDF789FB00B1FEE7284828494030B5
:1047800001604FF4E131C0E90114C460C0E904459F
:104790008461C461FDF778FB00B1FEE7FEF782F8A3
:1047A000FEF7A0F81D484038FDF784F901221D49A5
:1047B0001A48FDF7F3FB1B4918480122491C4030F9
:1047C000FDF7ECFBFEF730FBFEF7B8F8FBF796FDC4
:1047D0000F2215491548FEF7DBFB1549124851F821
:1047E000032F40F8012F496841600F48FEF764FC31
:1047F0001048FCF7F1F9FFF7ABFC0E480078FEF724
:1048000009FE08480E21801CFCF7A2F8FBF702FE07
:1048100000F047F8FEE70000003801409402002055
:1048200000440040260000201403002000F8000887
:10483000B81600204201002001460020842900D043
:10484000C81C7047FEB5054611A00024006801AEE3
:1048500002AF00905FF0000004EB8001695C31540E
:10486000401CC0B20428F7D302AA01A96846FFF78A
:1048700097FD002004EB8002395C401CC0B2A954B3
:104880000428F7D3641CE4B2042CE3D3FEBD00007B
:104890000201010310B500B9012000F04FFB002018
:1048A00010BD10B500F070FB002010BD10B500F079
:1048B000B7FC012803D0BDE8104000F009BC10BDD2
:1048C0003EB504460D46B0F90800FFF7B5FF02A952
:1048D000CDE90001208A2B4682B2D4E9001000F015
:1048E0000DFC012801D000203EBD02983EBD000015
:1048F0002DE9F041184C0F460546E6682068001D7A
:1049000000F066FA38B9206890F82C100120884031
:10491000216981432161681C07D137B12168BDE855
:10492000F0410E48091D00F08BBA20683544B542AD
:104930004560216805D2A06BBDE8F041091D00F07B
:1049400067BA606B091D00F063FAA06A854200D265
:10495000A562BDE8F0810000BC010020A437002062
:104960002DE9F041054600F077FA2E4CA068401C76
:10497000A06020682C4F10B1606940B32DE0256025
:10498000A068012829D1002606EB860007EB8000ED
:1049900000F030FA761C072EF6D323488C3000F056
:1049A00029FA2148A03000F025FA1F48B43000F061
:1049B00021FA1D48C83000F01DFA1B48DC3000F019
:1049C00019FA19488C3060631430A06305E0206840
:1049D000E96AC06A884200D82560606A401C60624B
:1049E000E96A0120226988401043206101EB8100BF
:1049F00007EB8000291D00F023FA00F04DFA6069F2
:104A000000280CD02068E96AC06A884207D20749AA
:104A10004FF080500860BFF34F8FBFF36F8FBDE83A
:104A2000F0810000BC010020C836002004ED00E049
:104A300070B5114E114C17E000F0DAFA3068B8B1D9
:104A400000F0A6FC00F008FAF068C568281D00F028
:104A5000BFF9A068401EA0606068401E606000F062
:104A60001BFA284600F00CF860680028E4D170BDFD
:104A700000F08EFCF8E7000090370020BC01002019
:104A800010B50446006B00F01BFA2046BDE810404C
:104A900000F016BA10484FF40051420706D0C01D6E
:104AA0000D4920F00700411AC1F500510B4A0023BF
:104AB0000144C2E900030839103A21F007011160EE
:104AC0004B600B600B1AC0E9001393604FF000407D
:104AD0005360D06070470000C5160020A801002078
:104AE000074C4FF08056074DFFF7A2FF20680128C2
:104AF000FAD92E60BFF34F8FBFF36F8FF4E700003A
:104B0000C836002004ED00E02DE9F0479A46DDE9C3
:104B1000098481466FF00303206B03EB820210448B
:104B2000089D20F00706700707D0502080F31188F9
:104B3000BFF34F8FBFF36F8FFEE723180A5C83F834
:104B400034200A5C12B1401C1028F6D3002784F8E8
:104B50004370072D00D30625E562C4E91157201DD7
:104B600000F053F904F1180000F04FF92461C5F189
:104B700007006462A061E76484F8507052464946B9
:104B8000304600F0BFF82060B8F1000F01D0C8F83F
:104B90000040BDE8F087000030B5114900E0114643
:104BA0000A688242FBD34B685C18844203D1406898
:104BB00018444860084643681C18944209D1084CC0
:104BC000103C2468A24209D052681A4442600A6824
:104BD00012680260814200D0086030BD0460F9E7CD
:104BE000A80100200648416B096829B1416BC968DA
:104BF000C9684968816270474FF0FF31FAE70000E9
:104C0000BC01002008484068401C4FF0500080F371
:104C1000118804D0BFF34F8FBFF36F8FFEE7BFF350
:104C20004F8FBFF36F8FFEE7B00100202DE9F041F9
:104C30000546002700F0DCF9314E306808B9FFF76F
:104C400029FFF06805424BD1C5B3083568070ED07F
:104C500005F00700C0F108000544680707D05020A0
:104C600080F31188BFF34F8FBFF36F8FFEE72DB333
:104C70007068854234D82248103001460C6801E043
:104C800020460C466168A94202D221680029F7D16A
:104C900031688C4224D00768216801606068083759
:104CA000411B10290FD96019420708D0502080F30A
:104CB0001188BFF34F8FBFF36F8FFEE710E04160A5
:104CC0006560FFF769FF61687068401A7060B268DC
:104CD000904200D2B060F06801430020C4E90001B6
:104CE00000F056FB780707D0502080F31188BFF3FF
:104CF0004F8FBFF36F8FFEE73846BDE8F0810000AD
:104D00009801002010B5031F4FF080741C601B1F1A
:104D100021F001011960191F024B0B601439403852
:104D20000A6010BD054C00080278002143185B782A
:104D30004354491CC9B20329F8D3C270704700001C
:104D4000F0B50121002300EB810410E010F82150A0
:104D50005FF0010202EB8106521C875D0644D2B26D
:104D600006F8017C042AF5D35B1CE570DBB28B42AC
:104D7000ECD3491CC9B20429E4D3F0BD70B50B4E85
:104D80000022002101EB8204491C055DC9B22B09F8
:104D900005F00F0505EB03130429F35C0355F1D36C
:104DA000521CD2B2042AECD370BD0000B5560008E4
:104DB00010B5064B0021425C140964F31F129A5C83
:104DC0004254491CC9B20429F5D310BDB556000898
:104DD000D0E9013201699A60D0E901235A604A683A
:104DE000824201D182684A60002202610868401E46
:104DF0000860704700F108014FF0FF32C0E901126E
:104E0000C1600161002101607047002101617047AC
:104E100030B50B685A1C02D000F1080202E00269AA
:104E200004E02246546825689D42FAD953684B60D5
:104E300099608A60516008610168491C016030BD59
:104E400042684A6093688B6093685960916008611A
:104E50000168491C01607047502080F31188BFF33E
:104E60004F8FBFF36F8F0A494868401C4860012884
:104E70000CD10848006810F0FF0F07D0502080F3D5
:104E80001188BFF34F8FBFF36F8FFEE770470000AD
:104E9000B001002004ED00E00849486828B1401E38
:104EA000486001D180F311887047502080F3118849
:104EB000BFF34F8FBFF36F8FFEE70000B0010020FC
:104EC00070B5002827D0144DA0F108046168E86887
:104ED000014207D1502080F31188BFF34F8FBFF3F9
:104EE0006F8FFEE722683AB1502080F31188BFF33C
:104EF0004F8FBFF36F8FFEE78143616000F078F85A
:104F000060686968084468602046FFF745FEBDE8B0
:104F1000704000F03DBA70BD9801002006484FF483
:104F20007A710068B0FBF1F14FF0E020491E416159
:104F300007210161704700003401002010B5020014
:104F400014D00F48006B38B1502080F31188BFF3A4
:104F50004F8FBFF36F8FFEE700F04AF80021104635
:104F6000FFF7C6FC00F014FA002807D105494FF0FE
:104F700080500860BFF34F8FBFF36F8F10BD0000EC
:104F8000BC01002004ED00E01CB515480024CDE96B
:104F900000402346802213A1144800F0AFF80128F6
:104FA00009D0401C1AD1502080F31188BFF34F8FD5
:104FB000BFF36F8FFEE7502080F31188BFF34F8F50
:104FC000BFF36F8F06484FF0FF312C38816201210B
:104FD0004161C460BDE81C4000F040B81CBD000049
:104FE000E801002049444C4500000000E14A000867
:104FF0000248016B491C016370470000BC0100209E
:105000001448016B11B10121C16170470021C161D8
:105010000169B1FA81F1C1F11F0101EB81020E4971
:1050200051F822306BB101EB820101F108034A68AB
:1050300052684A609A4201D152684A60D168016060
:105040007047502080F31188BFF34F8FBFF36F8FED
:10505000FEE70000BC010020C83600201CB519493D
:1050600008780190FF20087008788DF800009DF8FE
:105070000000154A00F0500010700720906005E015
:105080009DF800305B008DF80030401E9DF8003028
:105090001B06F5D4000200F4E060906001980870EF
:1050A0000A48016841F470010160016841F07041F3
:1050B0000160FFF733FF00205060FBF733F800205A
:1050C0001CBD000000E400E0B001002020ED00E085
:1050D00010B5502080F31188BFF34F8FBFF36F8F4F
:1050E00000F0ACF818B104494FF08050086000207F
:1050F00080F3118810BD000004ED00E02DE9FF5F92
:105100008346DDE90E87994616468A469000FFF7EA
:105110008DFD05001AD05420FFF788FD040012D041
:1051200025630021CDE90241CDE900874B46324697
:1051300051465846FFF7E8FC2046FFF711FC0120D6
:1051400004B0BDE8F09F2846FFF7BAFE4FF0FF30ED
:10515000F6E700002DE9F0411F4690460D46012676
:1051600090B10446FFF778FE0FB1E06C386094F818
:105170005000022184F85010B8F1050F16D2DFE874
:1051800008F0150B0E141200502080F31188BFF3A5
:105190004F8FBFF36F8FFEE7E16C294301E0E16CB5
:1051A000491CE16402E0022803D0E564012802D032
:1051B0002AE0002628E0201DFFF70AFE154DE06AD0
:1051C00001212A69814011432961134900EB8000C4
:1051D00001EB8000211DFFF733FEA06A38B150209B
:1051E00080F31188BFF34F8FBFF36F8FFEE7E06A44
:1051F0002968C96A884207D908494FF08050086079
:10520000BFF34F8FBFF36F8FFFF746FE3046BDE809
:10521000F0810000BC010020C836002004ED00E051
:105220000548416919B1006B18B100207047012091
:105230007047022070470000BC0100202DE9F041BA
:105240002E4C0027206B40B1A069401CA061E06992
:1052500000B101273846BDE8F081E668761CE660BB
:1052600013D1606B006838B1502080F31188BFF310
:105270004F8FBFF36F8FFEE7606BA16B6163A0631D
:10528000206A401C2062FFF7ADFCA06ADFF8708046
:10529000864209D3606B006880B1606BC068C568E6
:1052A000686886420DD2A0622068C06A00EB800167
:1052B00058F821000128CAD90127C8E74FF0FF306C
:1052C000F1E7281DFFF784FDA86A18B105F1180061
:1052D000FFF77EFDE86A01212269814011432161C7
:1052E00000EB800108EB8100291DFFF7A9FDE86AAA
:1052F0002168C96A8842CDD30127CBE7BC010020D1
:10530000C83600202DE9F0411E461546884607465E
:10531000FFF7A2FD1C4C206890F85000022814D022
:105320002068C16CB943C1642168012081F8500034
:105330005EB101213046FFF7DBFA14494FF080508F
:105340000860BFF34F8FBFF36F8FFFF7A5FDFFF727
:1053500083FD15B12068C06C2860206890F850006B
:1053600001280ED02068C16C21EA0801C164012522
:105370002168002081F85000FFF78EFD2846BDE827
:10538000F0810025F4E70000BC01002004ED00E0FE
:105390002DE9F0472C4D00242746286B38B1FFF744
:1053A0005BFD286B401E2863286B40B146E050200F
:1053B00080F31188BFF34F8FBFF36F8FFEE7A968AB
:1053C000224E0120D1B3A6F1B40980463068E8B17D
:1053D000F068C46804F11800FFF7FAFC201DFFF71D
:1053E000F7FCE06A2A6908FA00F11143296100EB31
:1053F000800109EB8100211DFFF722FDE06A296889
:10540000C96A8842E2D3C5F81C80DFE70CB1FFF718
:10541000E9FBAC6944B14646FFF710FF00B1EE610D
:10542000641EF9D10020A861E86938B10849012754
:1054300038070860BFF34F8FBFF36F8FFFF72CFD66
:105440003846BDE8F0870000BC0100207C37002012
:1054500004ED00E0685B000825050008000000007E
:105460000200000080000000445B000829030008DF
:105470000000000000000000800000005C5B0008ED
:1054800095040008000000000100000080000000FA
:10549000345B0008950500080000000003000000D0
:1054A000000200004C5B0008090400080000000036
:1054B00004000000400000000000000000000000A8
:1054C00001020304060708090000000001020304AA
:1054D0001842002701280229032A042B052C062D37
:1054E000072E082F09300A310B320C330D340E35DC
:1054F0000F36103711381239133A143B153C163D4C
:10550000173E193F1A401B411C431D441E451F46B0
:105510002047020406080A0C0E10121416181A1C52
:105520001E20222426282A2C2E3000323436383AE7
:105530003C3E40585858585858030507090B0D0F62
:1055400011131517191B1D1F21232527292B2D2F5B
:105550003133353701393B3D3F41110001036011C3
:105560001201068111200135E011200157001120A0
:10557000014A3F11120100041100020052001120E3
:105580000250840A1120025403071112020B30301A
:1055900011010300033B09111103000198F31120CD
:1055A000030A0006761120034C310020112003303D
:1055B00001CDA011200338111515111203080A019D
:1055C00000110204000305000A11220400087F00F4
:1055D0001D112004402A0CA42211100500640A00A9
:1055E0000A1211200C000300070C350009C9C38002
:1055F000000511400800400AAAAA369D20FE11208D
:105600000C18010008038000202000E8005E112033
:105610000C2405761A05720200000012815E11202A
:1056200005450300DE01001120055B4004067820DB
:1056300011210C00A28126AF3FEEC8C7DBF20208A1
:1056400011210C0C070315FC0F00A28126AF3FEEC1
:1056500011210C18C8C7DBF20208070315FC0F0064
:10566000112307002C0E0B040C730311500C0CFFBC
:10567000FFFFFFFFFFFFFFFFFFFFFF11500C18FFB1
:10568000FFFFFFFFFFFFFFFFFFFFFF11500C24FF95
:10569000FFFFFFFFFFFFFFFFFFFFFF11500C30FF79
:1056A000FFFFFFFFFFFFFFFFFFFFFF1150063CFF63
:1056B000FFFFFFFFFF637C777BF26B6FC5300167F5
:1056C0002BFED7AB76CA82C97DFA5947F0ADD4A27A
:1056D000AF9CA472C0B7FD9326363FF7CC34A5E546
:1056E000F171D8311504C723C31896059A071280A3
:1056F000E2EB27B27509832C1A1B6E5AA0523BD6D7
:10570000B329E32F8453D100ED20FCB15B6ACBBEFB
:10571000394A4C58CFD0EFAAFB434D338545F902A7
:105720007F503C9FA851A3408F929D38F5BCB6DABC
:105730002110FFF3D2CD0C13EC5F974417C4A77E62
:105740003D645D197360814FDC222A908846EEB873
:1057500014DE5E0BDBE0323A0A4906245CC2D3ACAD
:10576000629195E479E7C8376D8DD54EA96C56F4F2
:10577000EA657AAE08BA78252E1CA6B4C6E8DD74B0
:105780001F4BBD8B8A703EB5664803F60E613557D8
:10579000B986C11D9EE1F8981169D98E949B1E8728
:1057A000E9CE5528DF8CA1890DBFE6426841992DCD
:1057B0000FB054BB1652096AD53036A538BF40A386
:1057C0009E81F3D7FB7CE339829B2FFF87348E4386
:1057D00044C4DEE9CB547B9432A6C2233DEE4C9503
:1057E0000B42FAC34E082EA16628D924B2765BA2DA
:1057F000496D8BD12572F8F66486689816D4A45C3E
:10580000CC5D65B6926C704850FDEDB9DA5E154618
:1058100057A78D9D8490D8AB008CBCD30AF7E45871
:1058200005B8B34506D02C1E8FCA3F0F02C1AFBDCD
:105830000301138A6B3A9111414F67DCEA97F2CF6B
:10584000CEF0B4E67396AC7422E7AD3585E2F93755
:10585000E81C75DF6E47F11A711D29C5896FB762A3
:105860000EAA18BE1BFC563E4BC6D279209ADBC04E
:10587000FE78CD5AF41FDDA8338807C731B1121066
:10588000592780EC5F60517FA919B54A0D2DE57A43
:105890009F93C99CEFA0E03B4DAE2AF5B0C8EBBB8F
:1058A0003C83539961172B047EBA77D626E169149D
:1058B0006355210C7D0000C1814001C0804101C0C1
:1058C000804100C1814001C0804100C1814000C1D0
:1058D000814001C0804101C0804100C1814000C1C0
:1058E000814001C0804100C1814001C0804101C0B0
:1058F000804100C1814001C0804100C1814000C1A0
:10590000814001C0804100C1814001C0804101C08F
:10591000804100C1814000C1814001C0804101C07F
:10592000804100C1814001C0804100C1814000C16F
:10593000814001C0804101C0804100C1814000C15F
:10594000814001C0804100C1814001C0804101C04F
:10595000804100C1814000C1814001C0804101C03F
:10596000804100C1814001C0804100C1814000C12F
:10597000814001C0804100C1814001C0804101C01F
:10598000804100C1814001C0804100C1814000C10F
:10599000814001C0804101C0804100C1814000C1FF
:1059A000814001C0804100C1814001C0804101C0EF
:1059B000804100C1814000C0C101C30302C2C606CC
:1059C00007C705C5C404CC0C0DCD0FCFCE0E0ACA37
:1059D000CB0BC90908C8D81819D91BDBDA1A1EDE87
:1059E000DF1FDD1D1CDC14D4D515D71716D6D21237
:1059F00013D311D1D010F03031F133F3F23236F647
:105A0000F737F53534F43CFCFD3DFF3F3EFEFA3AF6
:105A10003BFB39F9F83828E8E929EB2B2AEAEE2E86
:105A20002FEF2DEDEC2CE42425E527E7E62622E2F6
:105A3000E323E12120E0A06061A163A3A26266A646
:105A4000A767A56564A46CACAD6DAF6F6EAEAA6AB6
:105A50006BAB69A9A86878B8B979BB7B7ABABE7E06
:105A60007FBF7DBDBC7CB47475B577B7B67672B2B6
:105A7000B373B17170B05090915193535292965646
:105A80005797559594549C5C5D9D5F9F9E5E5A9A76
:105A90009B5B99595898884849894B8B8A4A4E8E06
:105AA0008F4F8D4D4C8C4484854587474686824276
:105AB000438341818040000001CC01D8001401F0F3
:105AC000003C002801E401A0006C007801B4005003
:105AD000019C01880044000000FFFFFF010021FF3E
