:020000040800F2
:100000005846002099010008CB3500086F2B0008E6
:10001000C9350008890A0008654B00080000000087
:1000200000000000000000000000000001010008C6
:10003000090B00080000000045010008714200089B
:10004000B3010008B3010008B3010008B3010008C0
:10005000B3010008B3010008B3010008B3010008B0
:10006000B3010008B3010008B3010008B3010008A0
:10007000B3010008B3010008B3010008B301000890
:10008000B3010008B3010008B3010008B301000880
:10009000B3010008B3010008B3010008B301000870
:1000A000B301000831430008B3010008B3010008A0
:1000B000B3010008B3010008B3010008B301000850
:1000C000B3010008B3010008B3010008D1390008EA
:1000D000B3010008B1470008E1470008B301000878
:1000E000B10B0008B3010008B3010008DFF80CD021
:1000F00000F0C6F800480047F551000858460020B7
:10010000224B19680868B0E8F00F80F30988BFF344
:100110006F8F4FF0000080F311884EF00D0E704786
:100120000000000006480068006880F3088862B696
:1001300061B6BFF34F8FBFF36F8F00DF00BF00BF0B
:1001400008ED00E0EFF30980BFF36F8F0F4B1A68E3
:1001500020E9F00F106008B54FF0500080F31188CF
:10016000BFF34F8FBFF36F8F05F0C4FD4FF000005A
:1001700080F31188BDE8084019680868B0E8F00FFE
:1001800080F30988BFF36F8F704700BFE400002041
:10019000EFF3058070470000064880470648004797
:1001A000FEE7FEE7FEE7FEE7FEE7FEE7FEE7FEE727
:1001B000FEE7FEE7E9420008ED000008202A04DB24
:1001C000203A21FA02F00021704721FA02F3D040D0
:1001D000C2F1200291400843194670470649074A78
:1001E0000868504343F239021044086040087047E1
:1001F0000149086070470000200100206D4EC64193
:1002000010B5431A934209D28318881803E010F8F6
:10021000011D03F8011D521EF9D210BD40EA010371
:100220009B0703D009E008C9121F08C0042AFAD2AC
:1002300003E011F8013B00F8013B521EF9D210BD5A
:10024000D2B201E000F8012B491EFBD27047002218
:10025000F6E710B513460A4604461946FFF7F0FFC5
:10026000204610BD30B504460020034600E05B1C6C
:10027000934203D2E05CCD5C401BF8D030BD00005F
:10028000064C074D06E0E06840F0010394E80700E3
:1002900098471034AC42F6D3FFF72CFFDC6D000812
:1002A000FC6D000810B51B220649074800F084FCCD
:1002B00006490120087003481321BDE81040203092
:1002C000FFF7C5BFFA18002000F80008A6000020BC
:1002D0001CB500242646254602F0A8FD364F4FF0F7
:1002E000FF3905236A464946002006F09BF801289D
:1002F00016D1009810280ED006DC012809D002285B
:100300000DD004280CD108E0202808D0402807D1BF
:1003100003E0062404E0072402E0052400E00924A9
:100320000023052201A9B86805F098FD012805D130
:100330009DF80400040900F00F0800260A2C37D2AB
:10034000DFE804F0050B12181F252F332C2C02F0C8
:10035000E7FC00254FF400442AE00A221421174844
:1003600002F038FD012523E0404602F0E7FC0225BB
:10037000C2461DE003250A220221404602F06AFD22
:1003800016E0FF214FF4407002F0DFFD10E0404620
:1003900002F004FD761CF6B2642E09D92C46D04634
:1003A00006E0022002F09EFD02E0022002F0B3FD12
:1003B000012004F0D7FF94E7040000205554010009
:1003C000ADF5087D71484FF00A0B4FF4487A8590DF
:1003D0006F4D00235F1E3A4602A9286905F03EFDD5
:1003E000012819D10DF11601869185999DF80B20F0
:1003F0000DF10A04497891420FD185982A78417904
:1004000062F303014171859801F07EF8A8700146FE
:1004100000225E4804F0F4FAB4E00026B8465C4FCF
:10042000607902AD397861F303006071A81C01F0B6
:100430006BF88DF80900024600200090019043AB54
:10044000A91C869800F03EFE8DF80C02022384AAB7
:100450004146002005F0E6FF8DF80DB2D946002395
:100460000A2243A9786805F0F3FD534684AA414661
:10047000002005F0D7FF012802D18498022874D00B
:10048000434F6179CB46387860F3030161719DF881
:1004900009208DF80C228DF80D92A946A91C43A8BD
:1004A000FFF7AEFE9DF80910012383AA43A800F0D0
:1004B00059FD022384AA45464146002005F0B2FFBB
:1004C00000230A2243A9786805F0C2FD534684AA96
:1004D0002946002005F0A6FF012802D184980228B1
:1004E00043D0761CF6B2032E99D3849802283CD0D0
:1004F000002636E027486178805D88422FD08DF84D
:100500001C02012187A8CDE900019DF8092043AB19
:1005100009F10201869800F0D5FDDFF874808DF8AE
:100520000C0200278DF80DB200230A2243A9D8F847
:10053000040005F08DFD534684AA2946002005F0ED
:1005400071FF012802D1849902290ED07F1CFFB2CD
:10055000022FE7D3012802D18498022805D0761C07
:10056000F6B20D4800788642C4D3094C002301221C
:1005700002A9206905F072FC0023012202A920696A
:1005800005F06CFC012004F0EDFE21E728010020BD
:1005900004000020AC0200204D000020134DC2B02A
:1005A0004FF0FF364FF4FA77002332466946686908
:1005B00005F054FC012814D1022400230A226946C4
:1005C000686805F045FD3B4641AA3146002005F02C
:1005D00029FF012802D14198022802D0641EE4B20A
:1005E000EBD2012004F0BEFEDEE700000400002094
:1005F000CCB00026DFF848B1DFF848A1DFF8489119
:1006000049963546CDF8206142F2107004F0AAFEFA
:1006100000248FE04D4B8DF82461185D00EB8001C4
:1006200001EBC0024A495718A7F5805191F86E2E88
:1006300082B100210DF5907C0AE000BF07EB0108B4
:10064000A8F5805898F86F8E0CF80180491CC9B243
:100650009142F3D30DF59078CDE9008202AB0122EF
:1006600049A900F0FDFE8DF808019BF800008DF807
:1006700009010023642202A9DAF8040005F0E8FC6D
:100680004FF47A7347AA4FF0FF31002005F0CAFEFD
:1006900001280DD00CB1641EE4B26D1CEDB2022D28
:1006A00046D900258DF8246101202F46449039E079
:1006B00026484799005D88423AD100254FF4FA70E8
:1006C00004F050FE34E0214908194A904078C95D91
:1006D000884225D08DF82011449902ABCDE90081E4
:1006E000012249A900F0BCFE8DF808019BF800002A
:1006F0008DF809010023642202A9DAF8040005F04C
:10070000A7FC4FF47A7347AA4FF0FF31002005F0A1
:1007100089FE012804D14A9847994078884205D03B
:100720007F1CFFB299F800008742CCD3641CE4B26E
:10073000641CE4B299F800008442BFF465AF69E735
:100740006A000020040000204D000020AC020020C0
:10075000A404002030B54FF48175A3B000222946CF
:10076000032005F057FB424C00220121606002206B
:1007700005F050FBA06000220421022005F04AFB96
:10078000E06000222946012005F044FB20610022A0
:100790002946012005F03EFB6061012005F028FBA1
:1007A00000231A461946A06105F052FC1422314973
:1007B0006846FFF725FD2F491422143105A8FFF7DD
:1007C0001FFD2C49142228310AA8FFF719FD2949D9
:1007D00014223C310FA8FFF713FD26491422503193
:1007E00014A8FFF70DFD2349142264311EA8FFF75A
:1007F00007FD20491422783119A8FFF701FD0021D7
:10080000684604F0C5FD206310B91BA004F04AFA45
:10081000002105A804F0BCFDE06110B91DA004F0A2
:1008200041FA00210AA804F0B3FD206210B91FA00C
:1008300004F038FA00210FA804F0AAFD606210B994
:1008400020A004F02FFA002114A804F0A1FDA0625A
:1008500010B922A004F026FA002119A804F098FD8E
:10086000E062002802D124A004F01CFA23B030BDBD
:1008700004000020806600084E6574437265617450
:10088000655461736B2043726561746520457272B3
:100890006F720000556172745461736B204372650E
:1008A000617465204572726F720000004C6564547B
:1008B00061736B20437265617465204572726F725B
:1008C00000000000546F7563685461736B204372BD
:1008D00065617465204572726F72000057697265B8
:1008E0006C6573735461736B20437265617465202A
:1008F0004572726F720000005265747279546173B0
:100900006B20437265617465204572726F720000DE
:10091000294E0025002003F07DFD040047D0062C61
:1009200023D006DC012C09D0022C0FD0042C3DD1A1
:1009300008E0082C0AD0112C38D10BE00023032248
:10094000012130E00023032210212CE0210904F0D2
:100950000F0022E0002303224FF48071306A05F07B
:1009600089FC210905F00F0017E0012D04D0042DAA
:100970000BD0112D14D019E0002303220221306A7C
:1009800005F078FC0021012007E00023032220214C
:10099000306A05F06FFC0021042002F087F905E0C1
:1009A000002303220221306A05F064FC25460A2058
:1009B00004F0D8FCAEE7000004000020034904481E
:1009C00003F026FF082004F0CDFCF7E730190020E3
:1009D00038170020264FDFF89C80274E274DC2B0E5
:1009E0000024002305226946706805F037FA0128C3
:1009F00007D19DF800319DF801116A46204803F0A7
:100A0000DFFA2878032803D03878022807D00FE0CF
:100A10002C70F4701B491A4804F0A6F808E03C70EA
:100A2000F078401CC0B2F0700A2801D9012038705B
:100A30003878042804D12C7098F8000003F086FA66
:100A40002878062803D02878042807D00BE02C70DB
:100A5000F47098F8000003F079FA04E02C70F47058
:100A6000022002F047FE012004F07CFCB9E7000000
:100A7000660000206A0000200400002067000020BB
:100A80002810002030190020FEE7000070B5034652
:100A90004FF6FF7000220D4D14E000BF13F8014B1C
:100AA000521C84EA000606F00F0692B235F8166072
:100AB00086EA101080EA141404F00F0435F814408C
:100AC00084EA10108A42E9D370BD0000146D00085A
:100AD00070B50646002002F0EFFE0A4D4FF40044C8
:100AE00000222146284600F0DCFF342002F08EFF71
:100AF000304602F08BFF21462846BDE870400122B7
:100B000000F0CFBF000801407047000070B50E4DE7
:100B10004FF4B66422460B49284602F0D5FF094936
:100B20000878FF280DD1487BFF280AD161000548CD
:100B3000FFF78DFB22462846BDE87040014902F0D0
:100B4000D1BF70BDA404002000E8000830B4002329
:100B50001F2819D3FF2817D01F38C0B200EB80041C
:100B600004EBC00409482044427004E0CC5CC51882
:100B70005B1CAC70DBB29342F8D330BC4FF4B6626E
:100B80000249034802F0AEBF30BC7047A404002005
:100B900000E8000810B5002306E0CC5C844201D1D7
:100BA000012010BD5B1CDBB29342F6D3002010BDC8
:100BB0004FF4805000F086BE012303EB520202F096
:100BC00083BF00002DE9F0470446C079924607092B
:100BD000884600F00F0600251AE000BF04EB05115F
:100BE0000831894610223348FFF70AFB324A33495D
:100BF0003048BAF1000F02D004F0FCF901E004F033
:100C000097F8484610222D49FFF7FAFA6D1CEDB20D
:100C1000BD42E3D3E6B3BAF1000F04EB071114D0E1
:100C2000102224480831FFF7EBFA234A23492148D0
:100C300004F0E0F904EB0510324620490830FFF7D4
:100C4000DFFA08EB0600103820E008310D46324686
:100C50001848FFF7D5FA0020034606EB0712C6F145
:100C6000100104E017182744401C3B72C0B28142B7
:100C7000F8DC114A11490F4804F05AF828461022AE
:100C80000E49FFF7BDFAA8EB06001030C5B201E02F
:100C9000FFE74546E81E81B22046FFF7F7FE020A4D
:100CA000611901F8032D4870532088702846BDE86B
:100CB000F0870000EA1800203A180020FA180020F7
:100CC000064A0021D16106490A6942F002020A611E
:100CD0004861086940F04000086170470810002032
:100CE00000200240044B0022DA61044A136943F0F9
:100CF00001031361018070470810002000200240AA
:100D000014480022C168CB06134904D5CA6942F0D1
:100D10000202CA611022C3685B0705D5CB6943F0A4
:100D20000103CB6142F00402C369DB0707D0CB6942
:100D300043F00403CB61C16921F00101C161A2F557
:100D40008071013901D0C2607047C16921F0010191
:100D5000C1617047002002400810002070B50546B0
:100D600000F0A4FE0646114C09E0681C07D025B12E
:100D700000F09CFE801BA84201D9032070BDE068F2
:100D8000C007F2D1E068800601D52020E060E0686D
:100D9000C00605D4E069C00702D1E068400703D56A
:100DA000FFF7AEFF012070BD002070BD00200240A3
:100DB00030B58279C3B00446520703D1002341AA5B
:100DC00000F0D0F8607910F0600F06D03D4D0122A0
:100DD000E81DA978FFF7F6FEA87003223A49A01C87
:100DE000FFF740FA00283ED1204600F08DFB8DF839
:100DF000040101460022204603F002FEA1794FF0D3
:100E000000000A0731D431496379CA7803F00F032F
:100E10009A4208D1087148712D480023032202210B
:100E2000006805F027FAE17AA27A607A01EB0221E4
:100E300089B2FF2817D1A1F57F40FF3813D125488B
:100E40006278411C03785A5401783322491C01709E
:100E50000146214802F046FE2048002303220221D9
:100E6000006805F007FA43B030BD21F08001A171A0
:100E7000E071607910F0600F0BD0204600F044FB69
:100E80008DF80001014600222046FFF79BFE8DF8F9
:100E900000019DF8002121466846FFF7B1F99DF851
:100EA00000110123684640AA00F05CF80C480023BA
:100EB0000A2200788DF801010A486946006805F0A9
:100EC000C7F8D0E728100020AE000020380000202E
:100ED000300000202802002000F900083400002023
:100EE0006A000020080000200278AC2A04D10844DF
:100EF00010F8010C532801D00020704701207047E2
:100F000030B50D46BFB01446014610226846FFF7C3
:100F100077F9FF208DF801008DF802008DF80300AD
:100F20008DF804009DF8060040F080008DF8060062
:100F300044B1201D8DF807002246294603A8FFF77B
:100F40005FF902E000208DF80700684600F0DCFA47
:100F500002466946024803F027FD3FB030BD00005D
:100F6000003801402DE9F043C1B00D468146984656
:100F700016464FF480716846FFF769F9532709F167
:100F80000804B8F1000F1BD0093DEAB269462046BB
:100F900003F056FE0546024669462046FFF730F943
:100FA00005F108014846FFF771FD0146000A60554A
:100FB00060190B3541708770357041B0BDE8F08322
:100FC0000B3DEAB26946204603F052FE05466A1C14
:100FD0000DF8057069462046FFF712F90935EBE771
:100FE00070B505460078AC2802D0682811D101E020
:100FF000C91E00E0891ECCB221462846FFF746FDF7
:10100000295DB1EB102F04D12919C0B2497888426B
:1010100001D0012070BD002070BD00002DE9F04717
:101020008A46DDE9089556190D368046F1B21C4610
:1010300017461846091DFFF70AF9692020706070ED
:10104000A670F043E07020792A4620F0020040F0BC
:10105000010020711A48C17E6171017FA17184F87D
:101060000780B0F805102181C079A072E07A494666
:1010700065F3071040F00F00E072257304F10D00D6
:101080000546FFF7BDF8207B3A4628445146FFF756
:10109000B7F8A1782046FFF7F9FCA278010AA1541D
:1010A000A278611C5054A278A11C96205054A278BA
:1010B000E11C5054A078001DC0B2BDE8F0870000CC
:1010C0008D0200202DE9F043C1B08846DDE9486477
:1010D0000746994615464FF480716846FFF7B7F802
:1010E00069208DF800008DF80100281914308DF862
:1010F0000200C0438DF803009DF80400224620F052
:1011000003008DF804002848C17E8DF80510017F8A
:101110008DF806103968CDF807107968CDF80B10F6
:10112000B0F80510ADF80F10C0798DF811009DF8DA
:101130001200314664F3071040F00F008DF81200E2
:101140008DF8134005A80446FFF75AF89DF81300E0
:101150002A4620444146FFF753F89DF8021068469E
:10116000FFF794FC9DF80220010A0DF802109DF88B
:1011700002200DF1010150549DF80220491C9620D7
:1011800050549DF80220491C50549DF80220694695
:101190004846121DFFF734F89DF8020041B0001DCB
:1011A000C0B2BDE8F08300008D0200202DE9F04FB1
:1011B00004460079C5B00F4600067DD503228D494F
:1011C000E01DFFF74FF8002876D12079DFF828B22C
:1011D000DFF8289240074FF4B66A4FF000061AD5A0
:1011E000217BE07AB1EB101F15D1A07A99F801109C
:1011F0001F38C0B200EB800202EBC00280483229E7
:10120000815408D31044417829B1467052467C4934
:10121000584602F067FCE07A000973D12079410753
:1012200073D4217B04F10D0801EB0805A8790006B1
:1012300068D503227349A81CFFF714F8002861D170
:101240004146227B0DF586780DF20D10FEF7D8FF92
:10125000207B8DF80C016C486A7994F80AA0C1785B
:1012600002F00F02914208D10671467167480023CF
:1012700003220221006804F0FDFF207B2946381A72
:101280001138C2B24F4689F802202046FEF7B8FF57
:10129000607910F0600F05D0B9780122F81DFFF7D2
:1012A00091FCB87003225749A01CFEF7DBFF40B940
:1012B000E0790B30C1B200E024E00022204603F0C8
:1012C0009FFBA079010721D4E07AA27A617A00EB32
:1012D000022080B2002915D0FF2913D1801CB0F55F
:1012E00080300FD001280DD19DF80C2108F10101AB
:1012F0005046FFF72BFC46480023032202210068DA
:1013000004F0B8FF45B0BDE8F08F36E020F0800073
:10131000A071E671607910F0600F0BD0204600F0EC
:10132000F3F88DF80801014600222046FFF74AFC39
:101330008DF808019DF80C010DF20D11CDE900109A
:10134000E07902AB0B30C2B260782146FFF766FE4F
:101350008DF808012F4800230A2200788DF8090132
:101360002D4802A9006804F073FE2C4800230A22CD
:1013700043A9006804F06CFEC4E7002500060DD503
:1013800020490222491C601DFEF76CFF30B9244839
:10139000A17A00230322006804F06CFF207B381A36
:1013A000113810F0FF008DF80801ABD0002694F83A
:1013B0000A900D274FF00E080EE0217B07EB460048
:1013C000214408EB4602085C8A5C494602F0C4F9F5
:1013D0002844761CC5B2F6B29DF80801B6EB500F52
:1013E000EBD3002D8ED052460549584602F07AFBC9
:1013F00088E700009202002000E800082810002082
:10140000A4040020AE00002038000020300000209E
:10141000340000206A000020080000201000002096
:101420004000002010B504460078692814D1607887
:10143000692811D1A178E0780844FF280CD1204612
:10144000FFF724FBA278010AC0B2A35C8B4203D150
:10145000641C115D814201D0002010BD012010BD2F
:101460002DE9F0478046DDE9089550190D30C6B2E8
:101470008A461C461746311D1846FEF7E8FE6920CD
:1014800020706070A670F043E07020792A4620F04A
:10149000020040F0050020711A48C17E6171017F91
:1014A000A17184F80780B0F805102181C079A0727D
:1014B000E07A494665F3071040F00F00E0722573AB
:1014C00004F10D000546FEF79BFE207B3A462844BA
:1014D0005146FEF795FEA1782046FFF7D7FAA2788D
:1014E000010AA154A278611C5054A278A11C962034
:1014F0005054A278E11C5054A078001DC0B2BDE841
:10150000F08700008D02002070B50446AC202070EA
:10151000A07920F02000A071E0790830C5B22946FA
:101520002046FFF7B3FA010A61556D1CE9B2605419
:10153000491CC8B253212154401CC0B270BD0000E8
:101540002DE9F0410546002002F0B6F90B4F4FF4AB
:10155000004600223146384600F0A3FA0024285DF8
:1015600002F054FA641CE4B2082CF8D33146384631
:10157000BDE8F041012200F094BA000000080140EB
:101580002DE9F04704461F4690468946002002F0A8
:1015900093F9164E4FF4004500222946304600F0DC
:1015A00080FA202002F032FA484602F02FFA404634
:1015B00002F02CFA384602F029FA01222946304678
:1015C00000F06FFA012002F077F90027AA2002F05C
:1015D0001DFAE0557F1CFFB2082FF7D3294630468D
:1015E000BDE8F047012200F05CBA000000080140AD
:1015F00070B5002002F060F91E4E4FF40045002245
:101600002946304600F04DFA222002F0FFF901226F
:101610002946304600F045FA012002F04DF9AA2093
:1016200002F0F4F9144C2070AA2002F0EFF9607077
:10163000AA2002F0EBF9A070AA2002F0E7F9E0700E
:10164000AA2002F0E3F92071AA2002F0DFF960710C
:10165000AA2002F0DBF90002E080AA2002F0D6F90D
:10166000E1880843E08029463046BDE87040012209
:1016700000F017BA000801402E13002070B50020BA
:1016800002F01AF9204E4FF4004500222946304658
:1016900000F007FA012002F0B9F90122294630468C
:1016A00000F0FFF9012002F007F9AA2002F0AEF9DC
:1016B000164C2070AA2002F0A9F900026080AA202E
:1016C00002F0A4F9618808436080AA2002F09EF924
:1016D0002071AA2002F09AF90002E080AA2002F00C
:1016E00095F9E1880843E080AA2002F08FF9207282
:1016F000AA2002F08BF9607229463046BDE870409E
:10170000012200F0CEB90000000801402E13002095
:101710000F490A784B7889781A44511807D0C906BE
:10172000890E4A1C017042700A2903D006E00A2182
:10173000017002E00C2101700D2141700278054911
:101740008B5C054AD3714078085C107270470000CA
:10175000AE0000202E6700089600002010B590F81B
:1017600021100024022903D00421816301243DE0DB
:1017700001680A6822F00E020A6001680A6822F015
:1017800001020A601A4A0168914201D1012121E057
:10179000174A1432914201D110211BE0144A283219
:1017A000914201D1891515E0114A3C32914201D193
:1017B00089140FE00E4A5032914202D14FF4803129
:1017C00008E00B4A6432914202D14FF4801101E0EB
:1017D0004FF08071064A083A5160012180F82110CB
:1017E000002180F82010416B01B18847204610BDD0
:1017F000080002400348016941F0800101610020B6
:1018000070470000002002402DE9F05F07461C48A9
:1018100088460024017E15461E46012909D0012173
:10182000814601764CF2503A5046FFF797FA18B1CC
:1018300022E00220BDE8F09F012F02D0022F00D04D
:101840000427D346DFF83CA0220128463146FEF7A4
:10185000B5FC81B208EB4400FFF744FA5846FFF7A5
:101860007DFADAF8102022F00102CAF8102018B927
:10187000641CE4B2BC42E7D3002289F81820D9E7FF
:101880000810002000200240064900200A691206C4
:1018900007D5054A4A60054A4A600969090600D524
:1018A000012070470020024023016745AB89EFCD3E
:1018B000B0F5805F02D1024802F0F2B97047000033
:1018C00028100020044910B50A68024202D00860BE
:1018D000FFF7EEFF10BD0000140401402DE9F84FA2
:1018E000DFF890A100220AF1040B144601274FF003
:1018F0000F090BF1040E00BF0B6807FA04F52B402B
:10190000AB4274D1DFF870C14E68A6EB0C08664597
:101910002BD00DDC032E34D005DC36B3012E19D0CC
:10192000022E2FD11BE0112E16D0122E2AD119E033
:10193000B8F5881F19D006DCB8F5803F15D0B8F58A
:10194000801F1FD111E0B8F5001F0ED0B8F5041F9D
:1019500018D10AE0CA6815E0CA68121D12E0CA6808
:1019600008320FE0CA680C320CE08A682AB1012AFA
:101970004FF0080203D0456104E0042202E0056153
:1019800000E00022FF2B01D8064601E000F104062A
:101990004FEA840501D9A5F12005D6F800C009FA5F
:1019A00005F82CEA080C02FA05F54CEA050CC6F815
:1019B00000C04D68ED0057D5304DAE6946F00106C8
:1019C000AE61AD6924F0030605F0010500952C4DCC
:1019D00006EB050CDCF80850A6074FEA167809FA62
:1019E00008F6B543274EB04202D1002610E03BE096
:1019F000254EB04201D101260AE0244EB04201D169
:101A0000022605E0224EB04201D1032600E0042662
:101A100006FA08F62E43CCF808604D68DAF8006044
:101A2000ED03554601D51E4300E09E432E604D68F0
:101A3000DBF80060AD035D4601D51E4300E09E4328
:101A40002E604D68DEF80060ED02754601D51E433C
:101A500000E09E432E604D68AD020E4D2E6801D50C
:101A60001E4300E09E432E60641C102CFFF444AF24
:101A7000BDE8F88F00040140000011100010024082
:101A80000000014000080140000C0140001001402E
:101A9000001401400C0401408068084000D001207F
:101AA00070470AB1016170470904FBE7014880688B
:101AB00070470000500000200248816802781144FD
:101AC0008160704750000020074810B5016841F060
:101AD00010010160032000F09DF80F2000F006F8CF
:101AE00000F024F8002010BD0020024070B50D4D1C
:101AF00004464FF47A712878B1FBF0F00A4909687E
:101B0000B1FBF0F000F0FAFC48B9102C07D200222B
:101B10002146501E00F05EF800206C6070BD012070
:101B200070BD0000500000205C000020214808B576
:101B3000816941F001018161816901F00101009138
:101B4000C16941F08051C161C06900F080500090CE
:101B5000032000F05FF8002211466FF00B0000F048
:101B600039F8002211466FF00A0000F033F8002225
:101B700011466FF0090000F02DF800221146501FA9
:101B800000F028F800221146101F00F023F8002270
:101B90000F21901E00F01EF800220F21501E00F0B1
:101BA00019F80548416821F0E06141F00071416099
:101BB00008BD0000001002400000014000F01F02BC
:101BC000012191404009800000F1E020C0F800119F
:101BD00070470000F0B40E4B1B680C46C3F30223A1
:101BE000C3F10705042D00D90425191D072901D2C9
:101BF000002300E0DB1E012606FA05F1491E214004
:101C000099409E40761E16403143F0BC01F0DEBC88
:101C10000CED00E0064900F0070208684FF6FF03EC
:101C2000184040EA0220034A104308607047000051
:101C30000CED00E00000FA052DE9F047DFF83C81EB
:101C400005460E46D8F8000000F00700B0420CD25E
:101C5000D8F8001021F007013143C8F80010D8F877
:101C6000000000F00700B04263D12878444C8007A0
:101C700005D56068A96820F0F00008436060287806
:101C8000C00745D06868012816D02168022816D000
:101C9000890700294DDA616821F003010143616081
:101CA000FFF704FF6968074641F2883001290FD029
:101CB0000229814619D027E021688903E9E78901D3
:101CC000E7E700BFFFF7F2FEC11B494501D918E065
:101CD00081466068C0F381000128F3D118E000BF9D
:101CE000FFF7E4FEC11B49450BD86068C0F38100D3
:101CF0000228F5D10CE000BFFFF7D8FEC11B494513
:101D000002D90320BDE8F087606810F00C0FF3D112
:101D1000D8F80010404601F00701B1420BD9016824
:101D200021F0070131430160006800F00700B04274
:101D300001D00120E6E72878400705D56068E9680A
:101D400020F4E060084360602878000706D56068EA
:101D5000296920F4605040EAC100606000F03CF85E
:101D60006168084AC1F30311515CC8400649086024
:101D70000F20FFF7BBFE0020C4E700000020024058
:101D800000100240166700085C000020014800684F
:101D9000704700005C00002004480549006849685D
:101DA000044AC1F30221515CC84070475C00002026
:101DB0000010024026670008044805490068496889
:101DC000044AC1F3C221515CC84070475C00002046
:101DD000001002402667000812A185B00FC98DE8E7
:101DE0000F0014A0144A006804905168134801F0D1
:101DF0000C03042B10D0082B0ED1C1F38343C9036D
:101E00001DF803000AD5516804AAC1F34041515C92
:101E10000A4A5043B0FBF1F005B070470849484307
:101E2000FAE7000002030405060708090A0B0C0D77
:101E30000E0F1010010200000010024000127A0084
:101E400000093D002DE9F84F04460078B94DC00760
:101E500048D06868C0F38100012807D06868C0F3E3
:101E60008100022809D16868C00306D5286880036C
:101E700038D5606800286FD034E06068B0F5803FE6
:101E80000BD010B1B0F5A02F11D0286820F480300D
:101E90002860286820F4802002E0286840F4803020
:101EA0002860606888B1FFF701FE064609E02868EF
:101EB00040F480202860F0E7FFF7F8FD801B6428DD
:101EC00075D828688003F7D50CE0FFF7EFFD0646CC
:101ED00005E000BFFFF7EAFD801B6428F0D8286802
:101EE0008003F7D42078944E80074FF001094FF01B
:101EF00000083BD5686810F00C0F07D06868C0F385
:101F00008100022809D16868C00306D428688007C8
:101F100014D5206901281FD110E02069B0B1C6F89E
:101F20000090FFF7C3FD074605E000BFFFF7BEFDC9
:101F3000C01B0228C4D828688007F7D528686169C3
:101F400020F0F80040EAC10028600FE0C6F80080E9
:101F5000FFF7ACFD074606E0E9E000BFFFF7A6FD8E
:101F6000C01B022823D828688007F7D420780007F0
:101F70002CD57248A169D9B1C0F80090FFF796FD41
:101F8000074604E0FFF792FDC01B02280FD8686ADD
:101F90008007F7D56A484FF4FA510068B0FBF1F0BA
:101FA000009000BF0098411E0091FAD20EE080E040
:101FB000C0F80080FFF77AFD074604E0FFF776FDE2
:101FC000C01B022875D8686A8007F7D420784007BC
:101FD00060D5E8690027C00008D4E86940F0805067
:101FE000E861E869012700F08050009055480168D9
:101FF000C90513D40168834641F480710160FFF77D
:1020000055FD824606E000BFFFF750FDA0EB0A0039
:1020100064284ED8DBF80000C005F5D5E06801283B
:102020000AD008B1052813D0286A20F001002862E0
:10203000286A20F0040002E0286A40F001002862CB
:10204000E06841F2883B98B1FFF730FD82460BE033
:10205000286A40F004002862EEE700BFFFF726FD83
:10206000A0EB0A0159455AD8286A8007F6D50CE03A
:10207000FFF71CFD824605E0FFF718FDA0EB0A0103
:1020800059454CD8286A8007F6D41FB1E86920F07A
:102090008050E861E06988B36968C1F38101022971
:1020A00045D00228C6F8608004D0FFF7FFFC044644
:1020B00038E034E0FFF7FAFC074604E0FFF7F6FCEF
:1020C000C01B02282BD828688001F7D4206AB0F5FD
:1020D000803F05D16868A16820F40030084368603B
:1020E000D4E908010843696821F474110843686061
:1020F000C6F86090FFF7DAFC044606E015E000BF82
:10210000FFF7D4FC001B022809D828688001F7D506
:102110000BE000BFFFF7CAFC001B022802D9032016
:10212000BDE8F88F28688001F4D40020F8E701208A
:10213000F6E70000001002400000424280044242E4
:102140005C000020007000407047000038B5044675
:102150000068426881684B0605D4CB0703D053065C
:1021600001D5216C04E08B0707D5130605D5616CFA
:1021700001B02046BDE83040084711F0600F3FD065
:1021800093063DD54B060AD594F85130032B34D035
:10219000636D43F004036365C36883680093890635
:1021A00009D5616D41F001016165816800910168A7
:1021B00021F040010160606D002821D02068416855
:1021C00021F0E0014160012084F85100900718D00F
:1021D0002068416821F0030141600C4DE06C18B1AA
:1021E0004563E06CFFF7BAFAA06C002808D045639D
:1021F000A06CBDE83840FFF7B1BAC16880680090B4
:1022000038BD2046FFF7A0FF38BD0000FD390008AB
:1022100070B5040005D00025A56294F8510010B1F6
:1022200004E0012070BD204600F034F8022084F85C
:1022300051002068016821F040010160D4E90101EA
:102240000843D4E903121143084361690843218B11
:1022500001F400710843E1690843216A0843A16A57
:10226000084321680860A069042101EA1040616AFE
:102270000843216848602168E06A08612068C169F4
:1022800021F40061C1616565012084F851000020DE
:1022900070BD000010B50068184986B088422BD187
:1022A0001748816941F4805181618069154C00F4BF
:1022B0008050049028200090022001900320039079
:1022C00069462046FFF70AFB00211020CDE90001F6
:1022D000029169462046FFF701FB0B48416841F037
:1022E000E06141F001014160002211462320FFF727
:1022F00071FC2320FFF762FC06B010BD00300140E6
:1023000000100240000C0140000001402DE9F84F90
:10231000044690F8500000260A9F9A4693460D46C0
:102320004FF0010801280ED0012084F85000FFF77B
:10233000BDFB814694F85100616801280CD0B1F5CD
:10234000827F07D102E00220BDE8F88FA16809B9B9
:10235000042801D00226BDE055B1BBF1000F07D023
:10236000BAF1000F04D094F85100012802D004E023
:102370000126AFE0052084F8510000206065C4F814
:1023800038B0A4F83EA0A4F83CA02563A4F836A079
:10239000A4F834A02064606420680168490603D46E
:1023A000016841F040010160E068B0F5006F6068CD
:1023B00004D0E8B3E08E01283BD06AE010B1E08E93
:1023C00001282ED1216835F8020BC860E08E401E2E
:1023D000E08626E0B8F1000F0DD0E08E58B12068FD
:1023E0008168890707D535F8021BC160E08E401E61
:1023F000E0864FF00008E08F58B120688168C90777
:1024000007D0C0682BF8020BE08F401EE0874FF02A
:102410000108781C05D0FFF749FBA0EB0900B84282
:1024200046D2E08E0028D5D1E08F0028D2D136E008
:10243000FFE7216815F8010B0873E08E401EE08667
:1024400027E000BFB8F1000F0DD0E08E58B1206832
:102450008168890707D515F8011B0173E08E401EBE
:10246000E0864FF00008E08F58B120688168C90706
:1024700007D0C0680BF8010BE08F401EE0874FF0DB
:102480000108781C05D0FFF711FBA0EB0900B8424A
:102490000ED2E08E0028D5D1E08F0028D2D13B4665
:1024A000012202212046CDF8009001F0C1FA08B1C6
:1024B00003260FE04A463946204601F08FFA18B14C
:1024C00001262020606505E0A06818B92068C16871
:1024D00080680090012084F85100002084F85000AA
:1024E000304631E74FF0E0210428086903D020F09E
:1024F00004000861704740F00400FAE710B5401E80
:10250000B0F1807F01D3012010BD4FF0E024606165
:102510000F21601701F05AF80020A0610720206108
:10252000002010BD7047704730B590F83C20012A5C
:1025300020D0012280F83C20022380F83D3003683F
:102540005C6824F070045C6003685C680D682C4370
:102550005C6003689C6824F080049C6003689C684D
:1025600049680C439C6080F83D20002180F83C10B5
:10257000084630BD022030BD10B5040003D094F8E9
:102580003D0010B107E0012010BD002084F83C00A0
:10259000204600F00DF8022084F83D00211D20683F
:1025A00001F0CCFE012084F83D00002010BD0000A9
:1025B00008B500680B49884212D10B48816941F483
:1025C000006181618069002200F4006000900121B7
:1025D0001920FFF7FFFABDE808401920FFF7EEBA0F
:1025E00008BD0000002C0140001002400168CA68CC
:1025F00042F00102CA600068016841F00101016017
:102600000020704770B5044690F83C00012817D0B0
:10261000012584F83C50022084F83D00206882683F
:1026200022F0770222F47F4282600868502837D077
:102630000DDC202859D005DC88B3102841D151E0A9
:10264000022070BD302853D040283AD13FE06028A6
:102650002ED070280BD0B0F5805F03D0B0F5005FAE
:102660002FD110E02068816821F0070115E0CB68C8
:10267000D1E90121206801F097FE2168886840F0C7
:10268000770088601DE0CB68D1E90121206801F066
:102690008BFE2068816841F48041816011E01EE07A
:1026A000CA684968206801F091FE5021206806E060
:1026B000CA684968206801F09AFE6021206801F02C
:1026C0007DFE84F83D50002084F83C0070BDCA684F
:1026D0004968206801F07AFE40212068EFE7002178
:1026E0002068ECE710212068E9E720212068E6E770
:1026F00030212068E3E7704770B50446006801693F
:102700004FF00005C943890715D4C168C94389073B
:1027100011D4E91E016101202077206880698007BB
:10272000204602D0FFF7E7FF04E000F098F82046CB
:1027300000F096F8257720680169C943490717D446
:10274000C168C943490713D46FF004010161022035
:1027500020772068806910F4407F204602D0FFF780
:10276000CAFF04E000F07BF8204600F079F82577F6
:1027700020680169C943090716D4C168C94309071C
:1027800012D46FF008010161042020772068C0692D
:102790008007204602D0FFF7AEFF04E000F05FF8AC
:1027A000204600F05DF8257720680169C943C90615
:1027B00017D4C168C943C90613D46FF01001016171
:1027C000082020772068C06910F4407F204602D09E
:1027D000FFF791FF04E000F042F8204600F040F8D7
:1027E000257720680169C943C90708D1C168C94371
:1027F000C90704D1891E0161204600F033F8206822
:102800000169C943090609D4C168C943090605D449
:102810006FF0800101612046FFF784FE20680169A6
:10282000C943490609D4C168C943490605D46FF0B4
:1028300040010161204600F045F820680169C94364
:1028400089060BD4C168C943890607D46FF02001FB
:1028500001612046BDE87040FFF765BE70BD70475E
:102860007047000010B5144900680968884221D1FA
:10287000124C2068401C206001F0A0FC20684FF43E
:102880007A71B0FBF1F201FB120010B96068401CD4
:1028900060600B4890F8011100290BD090F80111ED
:1028A000491CC9B280F80111322903D9002180F8EE
:1028B0000111017010BD0000E4030020440000205D
:1028C000381700207047704710F8391F40780843C8
:1028D0007047000070B5026804461068D1685369FB
:1028E00010F00F0F50D003F0010501F4907635433E
:1028F0005DD0C20705D0CA0503D5E26B42F00102E4
:10290000E263420705D5DA0703D0E26B42F0020228
:10291000E263820705D5DA0703D0E26B42F00402D6
:10292000E263020705D5DA0703D0E26B42F0080242
:10293000E263E26B002A33D0800604D5880602D514
:10294000204601F0FFFD20684069E16BC0F3801074
:10295000090700D428B3204601F0E6FD206841694C
:1029600049061AD5416921F040014161606BA0B16F
:102970001B494163606BFEF7F1FE002810D0606BCD
:10298000416BBDE870400847830610D58B060ED515
:102990002046BDE8704001F0D5BD2046FFF793FF0B
:1029A00070BD2046FFF78FFF0020E06370BD030677
:1029B00006D50B0604D52046BDE8704001F0C6BE22
:1029C0004006F3D54806F1D5D168204621F04001F4
:1029D000D160202184F8391000F0C8F870BD0000E3
:1029E0001945000870B5040004D094F8390000259A
:1029F00010B106E0012070BD84F83850204600F088
:102A000023F8242084F839002068C16821F400519B
:102A1000C160204601F0E2FD2068016921F4904187
:102A200001612068416921F02A0141612068C16883
:102A300041F40051C160E563202084F8390084F836
:102A40003A00002070BD000070B5274E03680024D6
:102A5000264902200322264D86B0B3421ED18B693F
:102A600043F480438B618969039201F480410491AE
:102A70000102CDE9001069462846FEF72FFF281510
:102A8000CDE90004694628460294FEF727FF00229C
:102A900005212520FFF79EF8252020E0154EB342A2
:102AA0001FD1CB6943F40033CB61C969039201F4B0
:102AB000003104910421CDE9001069462846FEF753
:102AC0000DFF0820CDE90004694628460294FEF770
:102AD00005FF002205212620FFF77CF82620FFF7BE
:102AE0006DF806B070BD00000038014000100240D3
:102AF000000801400044004090F83A30202B22D1D9
:102B0000F9B1F2B190F83830012B1CD08162828586
:102B1000C2850021C163222280F83A2080F8381053
:102B20000168CA6842F48072CA6001684A6942F06A
:102B300001024A610068C16841F02001C1600020C3
:102B40007047012070470220704700000068044968
:102B5000884204D104480349007801F05BBF704704
:102B600000380140381700204E0000207047FEE773
:102B700070B501220E4D140221462846FEF791FF42
:102B80000122560231462846FEF78BFF012002F053
:102B9000F7F9002221462846FEF783FF012002F0C4
:102BA000EFF931462846BDE870400022FEF779BFB4
:102BB000000C014070B5104D4FF480740022214686
:102BC0002846FEF76EFF0122560231462846FEF7E0
:102BD00068FF012002F0D4F9012221462846FEF7C1
:102BE00060FF012002F0CCF931462846BDE8704074
:102BF0000022FEF756BF0000000C01402DE9F04115
:102C0000294D064600244FF400774FF480780022C7
:102C100039462846FEF745FF300601D5012200E07F
:102C2000002241462846FEF73CFF012002F0A8F9A9
:102C3000012239462846FEF734FF012002F0A0F9B0
:102C40007006641C060EE4B2082CE0D3002239465C
:102C50002846FEF726FF012002F092F9012246469F
:102C600041462846FEF71DFF012002F089F90122A6
:102C700039462846FEF715FF012002F081F901E0F0
:102C8000641CE4B231462846FEF706FF08B1FF2C6B
:102C9000F6D3002239462846FEF703FFBDE8F0418F
:102CA000012002F06DB90000000C014030B5BFB04A
:102CB0000C460546042216490DF10100FDF7A0FA65
:102CC00014499DF80520487860F303028DF805202B
:102CD000401C48709DF806008DF8085040F08800B0
:102CE0008DF8060005208DF8070003220A490DF132
:102CF0000900FDF785FA8DF80C406846FEF704FCE4
:102D000002466946054801F04FFE3FB030BD000065
:102D1000546D0008040000205B6D0008003801407D
:102D200010B50021044800F010F9BDE810404FF440
:102D3000407000F022B90000FFFC030010B504460B
:102D40001E214FF4407000F000F9012C0CD0022C31
:102D500010D0032C14D102210A4800F0F6F80A48DA
:102D6000BDE8104000F009B90221084800F0EDF874
:102D70000748F5E70221074800F0E7F80648EFE7C3
:102D800010BD0000FFFC0300FFFF030055540100CD
:102D900055570100AAA80200AAAB020070B504466C
:102DA0000F2813D81E214FF4407000F0CEF8084DC4
:102DB0006408022155F8240000F0C7F855F82400F3
:102DC000BDE8704040F4407000F0D7B870BD00001E
:102DD000606D00082DE9F041134C07460E46A078BF
:102DE000401CC0B2A07090421AD90025A57047F4CB
:102DF000407000F0C2F82178072900D90721384631
:102E000000F0A3F82078B04202D10121617009E0FE
:102E100018B16178012905D000E06570401C207070
:102E2000BDE8F081401EFAE7B800002070B500242C
:102E30004FF44075E1B2284600F087F8FF2C01D22C
:102E4000641CA4B2052001F0ABF9641CA4B21E2CD2
:102E5000F0D370BD2DE9F0410124250490460E46C3
:102E6000012803D0022801D1022405044FF4407048
:102E700000F083F831461A4800F067F844EA05008C
:102E800040F4407000F079F8404602F06BFA44F4E8
:102E9000407000F072F808EB48004000064602F06F
:102EA00061FA002501E0042D00D02746A400032D7F
:102EB0000FD044EA070040F4407000F05EF840464E
:102EC00002F050FA44F4407000F057F8304602F037
:102ED00049FA6D1CEDB2082DE5D3BDE8F081000084
:102EE000FFFC030010B5044602210F2000F02DF86E
:102EF0001E214FF4407000F028F8022C07D0012C5E
:102F000008D140F20530BDE8104000F036B840F27C
:102F10000A30F8E710BD10B5044602214FF4705096
:102F200000F013F81E214FF4407000F00EF8022C50
:102F300007D0012C08D14FF4B850BDE8104000F084
:102F40001CB84FF42C50F8E710BD2DE9F0410125D5
:102F50000F4606462C4635EA060003D13946204680
:102F600000F0ECFC641C6D00E4B2122CF3D9BDE857
:102F7000F0415521162000F0E1BC10B5044600F0E8
:102F80003F01132000F0DAFCC4F38511142000F097
:102F9000D5FCC4F30531152000F0D0FC5521BDE867
:102FA0001040162000F0CABC30B500230DE0C45C10
:102FB000CD5CAC4202D94FF0010030BD02D24FF0DF
:102FC000020030BD03F10103DBB29342EFD30020D6
:102FD00030BD2DE9F0410C4680461121204600F01D
:102FE00035F9C0F11100C6B2C6F11100C2B2A11983
:102FF0000D46404600F0F6F80024C6F1120707E03F
:10300000FAB2691E08EB040000F0ECF8641CE4B2AC
:10301000B442F5D3BDE8F081002142185278425401
:10302000491CC9B21029F8D300210174704770B54A
:103030000024012B4FF010030DD0C51815F8015CCA
:1030400005FB0144A4B2D454240A5B1E13F0FF0311
:10305000F3D1147070BDC618D55C16F8016C06FB70
:1030600001552C44A4B2D454240A5B1E13F0FF0370
:10307000F1D110782044107070BD00002DE9F043AC
:103080000C468146984616461021204600F0DEF890
:10309000C0F110010D1900210A467254491CC9B231
:1030A0001129FAD30024471E0FE000BFFFF7BFFF2E
:1030B00041463046FFF78DFF3046FFF7ADFF4146F2
:1030C0003046FFF786FF641CE4B2BC42295D4FF036
:1030D000010332464846E9DBFFF7A9FF4146304687
:1030E000BDE8F043FFF775BF2DE9F05F8A468346E0
:1030F0001D46174608261021104600F0A7F80400C8
:103100006BD0102251465846FDF77AF8C4F11000F2
:1031100000EB0708002198F80000020607D44006DB
:10312000761E491C000EC9B2F6B20829F5D3400636
:10313000070E761E06F0FF0900261BE059462A46B8
:1031400008460A9BFFF79AFF1022691C5846FDF7B4
:1031500057F838060AD52A46594650460A9BFFF7C3
:103160008DFF1022691C5846FDF74AF87806070EB5
:10317000761CF6B24E45E1D31948002108F101084A
:1031800001708146671E25E018F801600024594649
:103190002A4608460A9BFFF771FF1022691C584611
:1031A000FDF72EF830060AD52A46594650460A9BA6
:1031B000FFF764FF1022691C5846FDF721F87006DE
:1031C000641C060EE4B2082CE1D399F80010491CE7
:1031D00089F80010C9B2B942D6DBBDE8F09F000003
:1031E000BB000020F0B515460E46074626E000203D
:1031F0002C4621E03B19321913F8011C12F8012C5E
:103200008A4209D128B1A1EB0201A1F10101C9B2A1
:103210000DE04FF000010AE0A1EB0000A0EB02007E
:10322000C1B202D24FF0000001E04FF00100A4F162
:10323000010403F8011CE4B2002CDBD12A4631461C
:103240003846FFF7B1FE0228D1D1F0BD002206E0DA
:10325000835C13B1881AC0B27047521CD2B28A4242
:10326000F6D3002070470000FEB50446427AC07ACB
:10327000A17A002300EB012004F10C0180B20D467D
:10328000009301930293032A06D006DC002A03D0A0
:10329000012A44D0022A4AD1FEBD042AFCD0FF2ACA
:1032A00045D1012807D0B0F57F4F10D0801CB0F574
:1032B000803F3CD11DE003208DF8000002208DF8F6
:1032C0000100024669462046FDF71AFEFEBD194878
:1032D0000A8A42838A7C027710220930FCF790FF29
:1032E0000F221449144800F0FDFB124800F080FC46
:1032F0001DE002F0F7FC114E11483178FCF7A7FFF2
:10330000E0792946001FC2B232700D48FCF778FF01
:1033100003F054F90A490B4800F068F907E0212846
:1033200005D1094800230A22006802F091FE00221C
:103330001146C8E78D02002000F800084D0000206B
:10334000AC020020280200200C0000202DE9F041F2
:103350003B4886B0816941F010018161816901F0CB
:1033600010010491816941F020018161816901F0BE
:1033700020010491816941F004018161816901F0BA
:1033800004010491816941F00801816180692D4F38
:1033900000F0080048F6220504900022294638462D
:1033A000FEF77FFBDFF8A08000224FF44E5140462D
:1033B000FEF777FB00244FF46040CDE90004694636
:1033C00022480294FEF78AFA009502260125039608
:1033D000CDE9015469463846FEF780FA4FF4405073
:1033E000CDE90005CDE9024669464046FEF776FA8A
:1033F000280300901648CDE9010469463846FEF7D7
:103400006DFA4020CDE90004694640460294FEF77B
:1034100065FA4FF46070CDE900050320CDE9024064
:1034200069464046FEF75AFA002205212820FEF799
:10343000D1FB2820FEF7C2FB06B0BDE8F0810000FA
:103440000010024000080140000C01400010014043
:10345000000021100E4810B50C4901604FF4827134
:10346000416000218160C1604FF400720161C0E9D8
:1034700005122022C0E90721416281620A21C1624E
:10348000FEF7C6FE002800D0FEE710BD0030014068
:103490008C03002010B5144886B012490160472102
:1034A0000024C0E9011440F2E731C0E9031444618B
:1034B0008461FFF761F800B1FEE74FF4805000909F
:1034C00069460948FFF79EF800B1FEE7049404A995
:1034D00005480594FFF728F8002800D0FEE706B05D
:1034E00010BD0000002C0140E403002070B50F4D1A
:1034F0000F4E0024142000F053FE0E490E4801F038
:1035000087F90D220D492846FDF756FB641C322C25
:1035100004D900240C21304601F06CFA0D21074833
:10352000FDF75EFD0028E5D170BD000040F8000801
:1035300000380140301900203817002040190020C1
:10354000F0B50446407899B0202832D10D222146AA
:103550001B48FCF787FE2125FF2660B3194F072281
:103560002146384600F0BEFA07221549384600F0D9
:10357000ABFA0D2221461248FCF774FED8B1222086
:103580008DF8010000208DF8030068208DF8000000
:1035900001208DF8020004216846FDF777FA010A40
:1035A0008DF804108DF8050000220621684601F010
:1035B00027FA19B0F0BD8DF801508DF80360E4E7EB
:1035C0004019002040F80008FEE770470907090E7F
:1035D000002806DA00F00F0000F1E02080F8141D4A
:1035E000704700F1E02080F8001470472DE9F041A9
:1035F0000E4605460024DFF8448019E0002198F8C3
:103600000020281906E0477816F801C0674503D066
:10361000491CC9B29142F6D3914207D1811C1A1BB1
:10362000401CFCF7EDFD2878401E2870641CE4B2B5
:103630002B78A342E2D8BDE8F08100004D000020C5
:1036400070B5054608480C460068FCF7D1FDFCF74C
:10365000C5FD611B491CB0FBF1F2BDE8704001FBE8
:1036600012000A3000F09CBD4400002030B50D4C23
:10367000012807D014D94FF00201A0F101002170F8
:10368000C5B20AE04FF00100207009E020784FF049
:10369000020101F099FC2070EDB26D1E002DF5DCE9
:1036A000004830BDA80000202DE9F04106460D4637
:1036B000002000F001F9DFF838804FF400470022C5
:1036C00039464046FEF7EDF9772000F09FF90024D7
:1036D00005E0AA2000F09AF93055641CE4B2AC422F
:1036E000F7D339464046BDE8F0410122FEF7D9B98B
:1036F00000080140F8B504460020009000F0DCF816
:10370000144D4FF40046002231462846FEF7C9F911
:10371000152000F07BF9204600F078F901223146AF
:103720002846FEF7BEF9012000F0C6F800246F46D7
:10373000AA2000F06BF93855641C9DF80100E4B232
:103740008DF80000022CF3D3012231462846FEF703
:10375000A8F9F8BD0008014030B51F38C0B200EB31
:10376000800404EBC0050C48A1F11F03DBB2445DEB
:10377000322C0ED2322A0CD303EB830202EBC302AB
:10378000825C944205D22844012242708170104626
:1037900030BD002030BD0000A40400202DE9F84316
:1037A000184F804607F1100404F1110604F12405B6
:1037B00010213046FCF74BFD10213846FCF747FD41
:1037C00011212046FCF743FD11212846FCF73FFD5F
:1037D00010220D493846FCF713FD0B491022103119
:1037E000601CFCF70DFD132208493046FCF708FD6C
:1037F0002B463A46314640460094FFF775FCBDE83B
:10380000F88300003A180020346D00081A190020CF
:103810007CB5264C4FF4805020804610244D012268
:1038200031462846FEF73DF9022000F0B9FC00229F
:1038300031462846FEF735F90A2000F0B1FC360182
:10384000002231462846FEF72CF9022000F0DEF86F
:10385000012000F0DBF8002000F0D8F8012000F093
:10386000D5F8C92000F0D2F8C32000F0CFF88020AE
:1038700000F0CCF8012231462846FEF712F902206A
:1038800000F08EFC00231A4619466846FDF778FEC4
:10389000FDF7F4FE2020208006484088A0F58841EE
:1038A000383901D001207CBD00207CBD6C00002097
:1038B000000801402E1300202DE9F04107461C4866
:1038C00004881C4E4FF40045002229463046FEF77E
:1038D000E8F8442000F09AF80EE00122294630462C
:1038E000FEF7DFF8002229463046FEF7DAF84420DA
:1038F00000F08CF8641EA4B2C02000F087F8FF2806
:1039000002D0002CE9D109E044B1002F0ED12946A4
:103910003046BDE8F0410122FEF7C3B80122294636
:103920003046FEF7BEF8044902200870BDE8F08179
:103930006C000020000801406600002070B50D46B4
:103940000446FFF715F9A820FFF758F92046FFF7BE
:1039500055F92846FFF752F9BDE87040FFF72AB93C
:1039600010B50024012280211848FEF79AF80A2099
:1039700000F016FC01211720FFF7E0FF01210020D5
:10398000FFF7DCFF3F211320FFF7D8FF3F21142072
:10399000FFF7D4FF3F211520FFF7D0FFFFF7E8F82E
:1039A000A820FFF72BF90120FFF728F90220FFF7E5
:1039B00025F9641CE4B2122CF8D3FFF7FBF855216B
:1039C000BDE810401620FFF7B9BF0000000C014011
:1039D0000148FEF7BBBB00008C03002038B50B4646
:1039E000009204460022802100F022F8002804D032
:1039F000606D40F020006065032038BD10B5406A5E
:103A00000021C187C186FEF79FFB10BD01B582B0C2
:103A10004FF47A7000900123034A02A90348FEF78D
:103A200075FC014800780EBD600000208C0300206A
:103A30002DE9F0411D4617460E460446DDF8188074
:103A400035E0681C33D02DB1FEF730F8A0EB08004C
:103A5000A8422CD32068416821F0E00141606068F1
:103A6000B0F5827F0BD1A068B0F5004F02D0B0F561
:103A7000806F04D12068016821F040010160A06AD4
:103A8000B0F5005F0AD1206801684DF6FF72114061
:103A900001602068016841F400510160012084F850
:103AA0005100002084F850000320BDE8F081206818
:103AB000806836EA000004D00020B842C1D100205E
:103AC000F3E70120F9E7000010B5002306E000BF8E
:103AD00030F8024B21F813405B1C9BB29342F7D3A2
:103AE00010BD00002DE9F05FA0F1006415468A4684
:103AF0008346B4F5803F5FD2FDF7C6FEA70AC4F344
:103B00004806C6F50074A54200D82C46DFF8AC90F4
:103B10004FF0006000EB872080464FF40072274989
:103B2000FFF7D2FF00204FF6FF7106E0331839F897
:103B300013208A4203D1401C80B2A042F6D3A04297
:103B40002ED24046FDF7BCF84CF25030FDF706F996
:103B50001B48016921F0020101610020494606E08D
:103B60003AF810208319401C21F8132080B2A0429B
:103B7000F6D3124940464FF4007200BF00F022F81D
:103B8000A54215D0281B0AEB440A0BEB440B002678
:103B900085B24FF400747F1CA542B9D82C46B7E714
:103BA0004CF25030FDF7DAF8224651465846E5E728
:103BB000BDE8F05FFDF71EBEBDE8F09F38130020A2
:103BC000002002402DE9F04116460F46054600242C
:103BD0000AE000BF37F81420002329460120FDF732
:103BE00013FE641CA4B2AD1CB442F3D3BDE8F08153
:103BF00010B5044600F1090110221248FCF700FB41
:103C00001048618B20380186217F80F83210FFF741
:103C1000C5FD0E490C484A8B4280097F0171094855
:103C20000B49203801F090FA0A49012008700A482F
:103C3000FDF76EFD00F0C0FF0748007800F086F940
:103C4000002010BD1A190020AC0000208D020020B9
:103C50003A180020A70000206A0000202DE9F0415A
:103C6000054600242046FFF727FE0C4F4FF4004680
:103C7000002231463846FDF714FF04E0285DFFF7C7
:103C8000C5FE641CE4B2A878001DA042F6D83146F7
:103C90003846BDE8F0410122FDF703BF00080140AE
:103CA0002DE9FC410025044600952B462A4629466D
:103CB00068460195FDF764FC9DF804209DF802100C
:103CC0004848D3074FF0010600D0C68012074FF0D6
:103CD000030700D507710A0704D504214171C58087
:103CE000BDE8FC81CA0630D50646807810B3F1786D
:103CF00031B100EB400004EB0010C01CFFF7D4FC16
:103D0000FDF776FC3848C17861704178212905D3E8
:103D10004178262906D94178482903D24078334989
:103D2000085C2070E078C01EA07020792070777148
:103D3000F580D5E70421E01CFFF7B6FCE078032806
:103D4000DED9C01EC1B2E01DD8E7CA071ED00546A5
:103D5000807870B100EB400004EB00103021C01CF3
:103D6000FFF7A2FCE8783038E870A878401CA8700B
:103D7000B6E70421E01CFFF797FC2C21E01DFFF7BC
:103D800093FCE0782F38E870AE70A9E78A0605D575
:103D900005700621417184F80453A1E789079FD576
:103DA00001780646302910D97078302100EB4000A8
:103DB00004EB001000F5A17000F01CFF7078401CAF
:103DC00070703078303830708AE7002988D0707889
:103DD00000EB400004EB001000F5A17000F00AFFBA
:103DE00035707DE7620000202E1300207067000808
:103DF00010B55348FFF732FF51481E38FFF72EFF2A
:103E00004F481830FFF72AFF4D484930FFF726FF8B
:103E10004B486130FFF722FF49481F30FFF71EFF74
:103E200047481938FFF71AFF45486A30FFF716FF71
:103E300043482630FFF712FF41488630FFF70EFF58
:103E40003F489630FFF70AFF3D483430FFF706FF42
:103E50003B481438FFF702FF39483B30FFF7FEFEBE
:103E600037485930FFF7FAFE3548A630FFF7F6FE1F
:103E700033482D30FFF7F2FE3148801DFFF7EEFE8C
:103E80002F480C30FFF7EAFE2D480F38FFF7E6FE0B
:103E90002B48AF30FFF7E2FE2948B830FFF7DEFECF
:103EA0002748C830FFF7DAFE2548D830FFF7D6FE9E
:103EB00023485130FFF7D2FE2148E830FFF7CEFE0D
:103EC0001F487A30FFF7CAFE1E48FFF7C7FE1C489E
:103ED000F330FFF7C3FE1C48FFF7C0FE1A4810304E
:103EE000FFF7BCFE18482030FFF7B8FE1648303008
:103EF000FFF7B4FE12484230FFF7B0FE11482838F1
:103F0000FFF7ACFE0F482038FFF7A8FE0D48183821
:103F1000FFF7A4FE0B481038FFF7A0FE0848123048
:103F2000FFF79CFE06480A38FFF798FE0448401F3A
:103F3000FFF794FE0348BDE810400838FDF700BBCA
:103F4000D667000896000020D96800087FB50025D4
:103F5000184E044602952A464FF400513046039508
:103F6000FDF79FFD012211033046FDF79AFD002366
:103F70001A46194602A8FDF703FB0F4E30790128B7
:103F800015D0412C00D941240220FFF7B3FB0821B2
:103F90000320CDE90001094800231A46005D1946B7
:103FA00000F0A2F8B570F57001207071002004B027
:103FB00070BD0000000C0140620000202E67000868
:103FC0002DE9FF474FF000081C4691460F46054675
:103FD000CDF80880CDF80C80ADF800803F4E3079E8
:103FE000012822D0FB2C00D9FB24412F00D94127E6
:103FF0003846FFF7ABFF28211420FFF721FB30796B
:1040000003280DD185F8058386F804803846FFF72C
:104010009DFF28211420FFF713FB3079032801D0DE
:1040200000200CE086F80580042004B0BDE8F0878D
:1040300019F800102A18401C82F80611C0B2A042DC
:10404000F6D3E01CE8704FF0010A2F71784085F834
:1040500005A080F00100A871DFF8849085F8058341
:1040600052464FF400514846FDF71BFD00224FF425
:1040700080514846FDF715FD0320FCF729FD00237C
:104080001A46194602A8FDF77BFA0120FFF732FB1A
:1040900005F583793C2C08D9A4F13C00307004214B
:1040A000E81C00F0A7FD3C2106E086F80080042112
:1040B000E81C00F09FFD2146484600F09BFD0520CE
:1040C0007071084885F804A3221DC05D302100F0FE
:1040D0003FF886F801800020A7E70000620000207A
:1040E000000C01402E6700082DE9F05F8046DDE9F5
:1040F0000A799B4614468A460020FFF7DDFB134EE3
:104100004FF40045002229463046FDF7CAFC322014
:10411000FFF77CFC4046FFF779FC5046FFF776FC42
:104120000020FFF773FCE0B2FFF770FC5846FFF782
:104130006DFC3846FFF76AFC4846FFF767FC2946E6
:104140003046BDE8F05F0122FDF7ABBC000801403E
:104150002DE9F0410746144688460020FFF7ACFBE6
:104160000E4E4FF40045002229463046FDF799FCDB
:104170003120FFF74BFC3846FFF748FC4046FFF77D
:1041800045FC0020FFF742FCE0B2FFF73FFC294668
:104190003046BDE8F0410122FDF783BC0008014034
:1041A00070B5054600244FF47A7603E0304600F0FF
:1041B000E7FE641CAC42F9D370BD000070B529481D
:1041C00000684FF00103400701D1274803702748DA
:1041D0000188491C89B20180B1F57A7F3FD3002163
:1041E0000180401D8279521CD2B282713C2A36D3A2
:1041F00081714279521CD2B242713C2A2FD3417153
:10420000C278521CD2B2C270182A28D3C170054697
:1042100044782D780D2C0FD2DFE804F00E070B0741
:10422000090709070709070907001F2204E01E22E2
:1042300002E0AA0714D01C228678761CF6B286709B
:1042400096420CD9641CE2B2837042700C2A06D9E3
:104250006D1CEAB243700270642A00D3017070BD15
:104260001D22E9E7440000204C000020AC000020A3
:1042700010B5FDF721FCBDE8104001F07FB830B566
:104280008FB001210804CDE900100024029402251A
:104290000491CDE907504FF4E01009906846FDF70E
:1042A000D1FD00B1FEE70F20CDE90A054FF4806093
:1042B000CDE90C4002210AA80E94FDF7BDFC00B127
:1042C000FEE7FDF763FD4FF47A71B0FBF1F0FEF706
:1042D00015F90420FEF706F900220F21501EFDF704
:1042E00079FC0FB030BD00000D48016841F00101BC
:1042F000016041680B4A1140416001680A4A11405F
:104300000160016821F480210160416821F4FE010F
:1043100041604FF41F0181600449C0030860704789
:10432000001002400000FFF8FFFFF6FE08ED00E07D
:104330000148FEF7E1B90000E4030020F0B502688F
:10434000164B174C174D4FF08047984205D0B84296
:1043500003D0A04201D0A84203D122F070064A68DF
:104360003243984205D0B84203D0A04201D0A842BF
:1043700003D122F44074CA68224322F080044A69BF
:10438000224302608A68C2620A688262984201D14E
:104390000969016301214161F0BD0000002C014069
:1043A000000400400008004010B5846842EA03227F
:1043B00024F47F440A432243826010BD826822F0C5
:1043C00070020A4342F007018160704710B5036A2A
:1043D000046A24F001040462846924F0F00444EACD
:1043E000021423F00A020A438461026210BD10B570
:1043F000036A23F0100303628369046A23F47043A1
:1044000043EA023224F0A00343EA0111826101620F
:1044100010BD00002DE9F05F0126DFF8F0A03C4D53
:104420003C4C4FF400594FF4804B00274FF40048A8
:1044300008B1267001E0207898B141462846FDF782
:104440002BFBA8B149462846FDF726FB80B1402149
:104450005046FDF721FB58B159462846FDF71CFB95
:1044600030B141462846FDF717FB012822D033E042
:104470000A20FFF795FE277041462846FDF70CFB02
:1044800078B149462846FDF707FB68B14021504600
:10449000FDF702FB50B159462846FDF7FDFA38B149
:1044A0001AE00120BDE8F09F0220FBE70420F9E7B5
:1044B0000820F7E749462846FDF7EEFA01280BD118
:1044C00040215046FDF7E8FA012805D15946284613
:1044D000FDF7E2FA01280FD041462846FDF7DCFA45
:1044E00001280FD06088401C80B26080B0F5487F02
:1044F00009D967801120D5E7207826700028EBD1F4
:104500000620CFE767800020CCE70000000C0140C8
:1045100000100140BC00002010B5406A0021C18598
:10452000C184FEF7D0F910BD0168CA6822F4907208
:10453000CA6001684A6922F001024A61202180F8BC
:104540003A10704710B590F83A10222901D0022095
:1045500010BD8168B1F5805F11D001690029016843
:104560001FD0496801F07F03816A4A1C82620B7088
:10457000C18D491E0904090CC18518D02BE00269C0
:10458000816A002A0268526805D0D2B20A80816A24
:10459000491C8162ECE7C2F308020A80816A891C27
:1045A000F7E74A68816A4B1C83620A70E0E701689A
:1045B000CA6822F02002CA600168CA6822F48072C8
:1045C000CA6001684A6922F001024A61202180F82C
:1045D0003A10FEF7BBFA002010BD00002DE9F041B3
:1045E000044600680169E26821F440511143016109
:1045F0002169A0680843616908432168CA6841F2DB
:104600000C639A430243CA6020684169A26921F49D
:104610004071114341614C4920686425322688422B
:104620003CD1FDF7C9FB00EBC00101EB0010616854
:104630008900B0FBF1F7FDF7BFFB00EBC00101EB18
:1046400000106168B0468900B0FBF1F0B0FBF5F0F6
:104650006FF01801484307EB800106EB0110B0FB37
:10466000F5F000F0F006FDF7A7FB00EBC00101EB51
:10467000001061688900B0FBF1F0B0FBF5F006EBCB
:104680000016FDF799FB00EBC00101EB001061681B
:104690008900B0FBF1F7FDF78FFB3BE0FDF77CFBFA
:1046A00000EBC00101EB001061688900B0FBF1F77D
:1046B000FDF772FB00EBC00101EB00106168B04632
:1046C0008900B0FBF1F0B0FBF5F06FF01801484342
:1046D00007EB800106EB0110B0FBF5F000F0F006EF
:1046E000FDF75AFB00EBC00101EB00106168890087
:1046F000B0FBF1F0B0FBF5F006EB0016FDF74CFB5C
:1047000000EBC00101EB001061688900B0FBF1F71C
:10471000FDF742FB00EBC00101EB0010616889006E
:10472000B0FBF1F0B0FBF5F06FF01801484307EB78
:10473000800108EB0110B0FBF5F0216800F00F00DC
:1047400030448860BDE8F0810038014090F83910AD
:10475000212901D0022070478168B1F5805F016A8C
:104760000BD04A1C0262026809785160C18C491E54
:104770000904090CC1840ED017E009880268C1F34E
:104780000801516001690029016A02D0491C0162D7
:10479000ECE7891CFBE70168CA6822F08002CA6066
:1047A0000068C16841F04001C1600020704700000E
:1047B00010B50948FEF78EF80748FEF78BF8064853
:1047C000FEF782F82028FAD1012204490248FEF7B8
:1047D00093F90028F8D110BD240400204E000020D9
:1047E00010B50948FEF776F80748FEF773F8064853
:1047F000FEF76AF82028FAD1012204490248FEF7A0
:104800007BF90028F8D110BD640400204F0000207F
:10481000F0B5594A0546841CC7B007CA44AB83E8C3
:10482000070028780D287DD16978A81CFCF7D8FBF3
:10483000002805D120780126AC2802D0682872D043
:1048400096E0A07901060DD461794C4A01F00F0180
:104850001170C2064FEA007005D4002802DB204622
:10486000FEF702FD84E0002861DB45480022C170AC
:10487000B4F809100180E17A817003210171467159
:1048800011462046FCF73CFB607910F0600FE079A0
:1048900000F10B0004D0C1B200222046FCF792F9CF
:1048A0008DF80C0168700322364904F10900FBF70A
:1048B000D9FC60B1607844AF1F38C0B200EB800112
:1048C00001EBC0013048014400204E7809E000238C
:1048D0000A2229462D4824E00A1892783A54401CAE
:1048E000C0B2B042F8D32A49607811F8012BFCF726
:1048F00051F901281CD0CDE900766A78607802ABC6
:10490000A91CFCF78BFB8DF80C01224800230A221E
:1049100000788DF809019DF80C018DF8080102A9B5
:104920001D4801E026E011E0006801F091FB1FE066
:104930009DF80C21214602A8FBF762FC012343AA43
:104940009DF80C1102A8FCF70DFBDEE7A81CFEF792
:10495000F7FD1349114851F8032FC0F801204968A9
:10496000C0F80510067001460F220E48FFF7BAF88E
:104970000020287047B0F0BD0C670008040000203C
:1049800038000020586D0008A40400201400002006
:10499000280200206A000020180000208D0200205C
:1049A0004019002000F800082DE9F0410024DFF84C
:1049B000408017460D4606462346621E2146D8F81B
:1049C000000001F04BFA07E015F8010B31684906C9
:1049D000FCD57060641CE4B2BC42F5D3D8F800008A
:1049E000BDE8F04100231A46194601F031BB000032
:1049F0001C00002002685206FCD541607047000090
:104A00000A4610B501460248FFF7CEFF002010BD50
:104A1000003801402DE9F04791F800C04F4C0022CA
:104A20008B1C257803266D1C0B274FF0060A4FF0D0
:104A30000D09EDB2BCF10D0F1CD2DFE80CF0071D23
:104A4000272E3546515B676E78838A000123AC2898
:104A500006D068280ED1887081F80131082076E0F0
:104A60003F4D2D78002D05D088704B70227081F855
:104A700001310B70BDE8F0874A78D0544878401C6B
:104A800048702570042DF5D3022060E04A78D05498
:104A90004878401C48700E70ECE74A78D05448784B
:104AA000401C4870042052E0E42803D981F8012119
:104AB0000A70DFE74D78E8544B785B1C4B7022702E
:104AC00008B1052043E0504641E04E78F054487864
:104AD000401C48702570487A8542CBD32270F2E79B
:104AE0004A78D0544878401C48702570022DC1D3B4
:104AF00007202CE05328D9D14C78E0544878401C4A
:104B000081F8010081F80121484620E0B02801D059
:104B10002028CBD1C870092019E028B12028C5D899
:104B200008714E700A2012E008714E7008E04A7851
:104B3000541C4C70D05408794A78C01C824299D3D6
:104B40000F7097E74A78541C4C70D0540C200870B2
:104B500090E74C78651C4D70E054D3E7610000206D
:104B6000A6000020FEE7000070B50446C01DFCF75B
:104B700059FC0F4D0128A17804F1070007D0FCF77C
:104B8000B3F938B1A178E01DFCF712F905E0FCF7A4
:104B90000DFB02E02878FFF7D9F9064800780028D5
:104BA00004D12878BDE87040FFF7D0B970BD00008F
:104BB0006A0000206700002010B5032401E0641E95
:104BC000E4B2FEF725FE10B1002CF8D104E01CB1D0
:104BD000FFF70EF9002010BD0449012008710246BC
:104BE000C1020348FCF75DFF012010BD62000020F8
:104BF000000801402DE9F04106460D460020FEF771
:104C00005BFEDFF838804FF400470022394640460B
:104C1000FCF747FF6620FEF7F9FE002404E0305D54
:104C2000FEF7F4FE641CE4B2AC42F8D339464046C9
:104C3000BDE8F0410122FCF734BF0000000801404C
:104C40002DE9F04115460E46074600240AE0385D7E
:104C500000F0B7F8010A06F8141006EB4401641CD2
:104C60004870E4B2AC42F2D36806000EBDE8F081B1
:104C70002DE9F04115460F46064600240CE000BF22
:104C800016F81400010206EB44004078084300F0D7
:104C90002EF93855641CE4B2AC42F1D36808BDE883
:104CA000F0810000014A024900F013B8B54F000836
:104CB0002401002002E008C8121F08C1002AFAD10E
:104CC00070477047002001E001C1121F002AFBD18C
:104CD00070472DE9F04116460F460446002503E0D3
:104CE0003946B047641C6D1C20780028F8D128464E
:104CF000BDE8F081F0B500235FEA021505EB830201
:104D0000C65C8C5C7440C4545418C2186678177919
:104D10005B1C7E401671A678177ADBB27E40167255
:104D2000E478167B74401473042BE7D3F0BD0000C5
:104D3000FFB516460D4600226C46002102EB8103AA
:104D400001EB8207491CC35CC9B2E3550429F5D3C2
:104D5000521CD2B2042AF0D3002231462046FFF77B
:104D6000C9FF0127684600F011FE684600F0F0FD1B
:104D7000684600F0CFFA3A4631466846FFF7BAFF78
:104D80007F1CFFB20A2FEDD3684600F0FFFD684696
:104D900000F0DEFD0A2231466846FFF7ABFF002037
:104DA0005FF0000101EB800200EB8103491CA25C73
:104DB000C9B2EA540429F5D3401CC0B20428EFD389
:104DC000FFBD70B5044600F007F805022007000E8D
:104DD00000F002F8284370BD00F0F00040F0010040
:104DE000010901EB501101EB9011C90701D040F00E
:104DF0000800010901EB501101EBD011C90701D0E6
:104E000040F00400010901EB901101EBD011C9073A
:104E100001D040F00200704710B503780C78634071
:104E2000137043784C786340537083788C78634078
:104E30009370C078C9784840D07010BDF0B50C466A
:104E4000054616460978007800F0BEF807466178F6
:104E5000E87800F0B9F84740A178A87800F0B4F8F5
:104E60004740E178687800F0AFF847403770217824
:104E7000687800F0A9F807466178287800F0A4F86F
:104E80004740A178E87800F09FF84740E178A8789B
:104E900000F09AF8474077702178A87800F094F8ED
:104EA00007466178687800F08FF84740A178287845
:104EB00000F08AF84740E178E87800F085F847404C
:104EC000B7702178E87800F07FF807466178A87815
:104ED00000F07AF84740A178687800F075F847400C
:104EE000E178287800F070F84740F770F0BD70B5B1
:104EF0000446000A00F008F800F0F005E0B200F007
:104F000003F845EA101070BD010901EB501202EBE5
:104F1000901302EBD01201EB901103EBD00302EBE4
:104F2000900201EBD011DB0701EB50014FEAC27296
:104F300010D04FEAC17132B111B180F0100070474A
:104F400080F02000704711B180F04000704780F081
:104F5000080070474FEAC17132B111B180F0800092
:104F6000704780F0040070470029FCD080F00200F8
:104F700070470000014908607047000000000020F1
:104F800070B54FF0E024002265690949A3690968FA
:104F90004843A1699942FCD002D2A3EB010302E08D
:104FA000A5EB010633441A440B468242F1D370BD8F
:104FB000000000200349C2B20B685B06FCD54A60C2
:104FC000704700000038014010B500231A46CC0796
:104FD00000D0434010F0800F4FEA40604FEA10606D
:104FE00001D080F01B00521C4908D2B2082AEED32F
:104FF000184610BDFFB516460D4600226C4600212E
:1050000002EB810301EB8207491CC35CC9B2E35583
:105010000429F5D3521CD2B2042AF0D30A22314615
:105020002046FFF767FE0927684600F055F86846F6
:1050300000F070F83A4631466846FFF75BFE684676
:1050400000F022F87F1E17F0FF07EDD1684600F050
:1050500043F8684600F05EF8002231466846FFF7E4
:1050600049FE00205FF0000101EB800200EB8103AC
:10507000491CA25CC9B2EA540429F5D3401CC0B251
:105080000428EFD3FFBD0000FEB5054611A00024A3
:10509000006801AE02AF00905FF0000004EB8001F9
:1050A000695C3154401CC0B20428F7D302AA01A99C
:1050B0006846FFF7C3FE002004EB8002395C401C09
:1050C000C0B2A9540428F7D3641CE4B2042CE3D37F
:1050D000FEBD00000E090D0BF0B50121002300EB11
:1050E00081040FE0E578032202EB81063718521E97
:1050F00017F8017C875512F0FF02F5D15B1C00F810
:105100002150DBB28B42EDD3491CC9B20429E5D34F
:10511000F0BD000070B50B4E0022002101EB8204AF
:10512000491C055DC9B22B0905F00F0505EB0313FA
:105130000429F35C0355F1D3521CD2B2042AECD3F8
:1051400070BD0000136A0008F8B50E462C27002138
:1051500006EB810310F8212006F8212000EB8102E4
:10516000491C54785C7094789C70D278C9B2DA701B
:105170000429EDD35FF0040506EB850414F8040C54
:105180008DF8000014F8030C8DF8010014F8020CDF
:105190008DF8020014F8010C8DF80300A8070DD15A
:1051A000684600F0C9FB684600F00AFCA808FEF754
:1051B0005DFA01466A461046FFF72EFE14F8100D00
:1051C0009DF80010484006F8250060789DF8011011
:1051D0006D1C48406074A0789DF80210EDB2484004
:1051E000A074E0789DF803104840E074BD42C3D33A
:1051F000F8BD0000FCF768FCFFF741F84820FFF716
:10520000B9FEFEF7A3F837483549002401604FF492
:105210001641C0E901140C25C460C0E9044584614D
:10522000C461FDF7DFFB00B1FEE72E482E49403098
:1052300001604FF4E131C0E90114C460C0E90445E4
:105240008461C461FDF7CEFB00B1FEE7FEF702F911
:10525000FEF720F923484038FDF7C8F90122234919
:105260002048FDF749FC21491E480122491C4030D5
:10527000FDF742FCFEF774FBFEF738F9FBF712F876
:105280001C4D33221A492846FEF71EFC184908789F
:10529000FF2804D10C7033222846FEF723FC0F228E
:1052A00015491648FEF710FC1549134851F8032F0D
:1052B00040F8012F496841600F48FEF799FCFBF761
:1052C00025FC1048FCF724FAFFF776FC0D4800781F
:1052D000FEF73CFEFBF73EFA00F04BF8FEE700005D
:1052E0000038014024040020004400404E0000200B
:1052F0002802002000F900088D02002000F80008B4
:10530000401900206A00002001460020842900D0B6
:10531000C81C7047FEB5054611A00024006801AE08
:1053200002AF00905FF0000004EB8001695C315433
:10533000401CC0B20428F7D302AA01A96846FFF7AF
:105340007DFD002004EB8002395C401CC0B2A954F2
:105350000428F7D3641CE4B2042CE3D3FEBD0000A0
:105360000201010310B500B9012000F0EFFB00209D
:1053700010BD10B500F082FC002010BD10B500F08B
:10538000DFFF012803D0BDE8104000F01BBD10BDB9
:105390003EB504460D46B0F90800FFF7B5FF02A977
:1053A000CDE90001208A2B4682B2D4E9001000F03A
:1053B00035FF012801D000203EBD02983EBD00000F
:1053C0002DE9F041184C0F460546E6682068001D9F
:1053D00000F006FB38B9206890F82C1001208840B6
:1053E000216981432161681C07D137B12168BDE87B
:1053F000F0410E48091D00F02BBB20683544B54232
:105400004560216805D2A06BBDE8F041091D00F0A0
:1054100007BB606B091D00F003FBA06A854200D248
:10542000A562BDE8F0810000E400002040420020B9
:105430002DE9F041054600F017FB2E4CA068401CFA
:10544000A06020682C4F10B1606940B32DE025604A
:10545000A068012829D1002606EB860007EB800012
:1054600000F0D0FA761C082EF6D32348A03000F0C6
:10547000C9FA2148B43000F0C5FA1F48C83000F01E
:10548000C1FA1D48DC3000F0BDFA1B48F03000F0D6
:10549000B9FA1948A03060631430A06305E02068B1
:1054A000E96AC06A884200D82560606A401C606270
:1054B000E96A0120226988401043206101EB8100E4
:1054C00007EB8000291D00F0C3FA00F0EDFA6069D7
:1054D00000280CD02068E96AC06A884207D20749D0
:1054E0004FF080500860BFF34F8FBFF36F8FBDE860
:1054F000F0810000E40000205041002004ED00E0B5
:1055000070B5114E114C17E000F0ECFB3068B8B1EB
:1055100001F054F800F0A8FAF068C568281D00F002
:105520005FFAA068401EA0606068401E606000F0E6
:10553000BBFA284600F055F860680028E4D170BD39
:1055400001F03CF8F8E700002C420020E4000020C5
:1055500030B4026C0B46002A0BD0C1681144C16004
:105560004468A14201D30168C16030BC1846FAF713
:1055700047BE30BC70472DE9F041856B17460446A5
:105580000026026C82B1C7B1E068FAF739FEE16823
:10559000206C091AE1602268914202D26168081AFF
:1055A000E060022F16D017E02068A8B9606800F00C
:1055B0007FFF0646002060600EE0A068FAF720FE3C
:1055C000216CA0680844A0606168884204D3206808
:1055D000A06001E005B16D1E6D1CA5633046BDE8FD
:1055E000F08110B50446006B00F072FA2046BDE869
:1055F000104000F06DBA000010484FF420514207EF
:1056000006D0C01D0D4920F00700411AC1F52051F8
:105610000B4A00230144C2E900030839103A21F083
:10562000070111604B600B600B1AC0E90013936017
:105630004FF000405360D060704700004D190020CB
:10564000D0000020074C4FF08056074DFFF758FF61
:1056500020680128FAD92E60BFF34F8FBFF36F8FF8
:10566000F4E700005041002004ED00E02DE9F04790
:105670000E46DDE909841746824691009946089D49
:10568000A522206BFAF7DCFD6FF00301206B01EB24
:105690008701084420F00707780707D0502080F3DF
:1056A0001188BFF34F8FBFF36F8FFEE72218315C75
:1056B00082F83410315C11B1401C1028F6D300265A
:1056C00084F84360082D00D30725E562C4E911562C
:1056D000201D00F0A2F904F1180000F09EF92461E9
:1056E000C5F108006462A061E66484F850604A462F
:1056F0005146384600F00EF92060B8F1000F01D095
:10570000C8F80040BDE8F08730B5114900E0114607
:105710000A688242FBD34B685C18844203D140681C
:1057200018444860084643681C18944209D1084C44
:10573000103C2468A24209D052681A4442600A68A8
:1057400012680260814200D0086030BD0460F9E751
:10575000D000002010B5044600F086F9A06B28B1F7
:105760005FF0000400F0A0F9204610BD0124F9E725
:105770000648416B096829B1416BC968C968496825
:10578000816270474FF0FF31FAE70000E40000202B
:1057900008484068401C4FF0500080F3118804D046
:1057A000BFF34F8FBFF36F8FFEE7BFF34F8FBFF392
:1057B0006F8FFEE7D80000202DE9F041044600F08D
:1057C00053F994F9455004F1240609E0606A48B1A0
:1057D000304600F0B9FE08B100F0DEF96D1E6DB282
:1057E000002DF3DC4FF0FF3684F8456000F05CF9E3
:1057F00000F03AF994F9445004F1100709E02069E7
:1058000048B1384600F0A0FE08B100F0C5F96D1EA1
:105810006DB2002DF3DC84F84460BDE8F04100F087
:1058200043B900002DE9F0410546002700F05AFA7F
:10583000314E306808B9FFF7DFFEF06805424BD102
:10584000C5B3083568070ED005F00700C0F10800A1
:105850000544680707D0502080F31188BFF34F8FAD
:10586000BFF36F8FFEE72DB37068854234D82248AE
:10587000103001460C6801E020460C466168A942E0
:1058800002D221680029F7D131688C4224D0076800
:105890002168016060680837411B10290FD9601921
:1058A000420708D0502080F31188BFF34F8FBFF319
:1058B0006F8FFEE710E041606560FFF725FF6168CC
:1058C0007068401A7060B268904200D2B060F068B0
:1058D00001430020C4E9000100F070FE780707D002
:1058E000502080F31188BFF34F8FBFF36F8FFEE717
:1058F0003846BDE8F0810000C00000200449086877
:1059000018B10868826C521C8264086870470000F5
:10591000E400002010B5031F4FF080741C601B1FB3
:1059200021F001011960191F024B0B601439403836
:105930000A6010BD915700080278002143185B7877
:105940004354491CC9B20329F8D3C2707047000000
:10595000F0B50121002300EB810410E010F8215084
:105960005FF0010202EB8106521C875D0644D2B251
:1059700006F8017C042AF5D35B1CE570DBB28B4290
:10598000ECD3491CC9B20429E4D3F0BD70B50B4E69
:105990000022002101EB8204491C055DC9B22B09DC
:1059A00005F00F0505EB03130429F35C0355F1D350
:1059B000521CD2B2042AECD370BD00001369000857
:1059C00010B5064B0021425C140964F31F129A5C67
:1059D0004254491CC9B20429F5D310BD136900080B
:1059E000D0E9013201699A60D0E901235A604A681E
:1059F000824201D182684A60002202610868401E2A
:105A00000860704700F108014FF0FF32C0E9011251
:105A1000C160016100210160704700210161704790
:105A200030B50B685A1C02D000F1080202E002698E
:105A300004E02246546825689D42FAD953684B60B9
:105A400099608A60516008610168491C016030BD3D
:105A500042684A6093688B609368596091600861FE
:105A60000168491C01607047502080F31188BFF322
:105A70004F8FBFF36F8F0A494868401C4860012868
:105A80000CD10848006810F0FF0F07D0502080F3B9
:105A90001188BFF34F8FBFF36F8FFEE77047000091
:105AA000D800002004ED00E00849486828B1401EF5
:105AB000486001D180F311887047502080F311882D
:105AC000BFF34F8FBFF36F8FFEE70000D8000020B9
:105AD00070B5002827D0144DA0F108046168E8686B
