:020000040800F2
:10000000F0450020990100089733000847290008AF
:1000100095330008610A0008A548000800000000A8
:1000200000000000000000000000000001010008C6
:10003000E10A00080000000045010008E93F00084F
:10004000B3010008B3010008B3010008B3010008C0
:10005000B3010008B3010008B3010008B3010008B0
:10006000B3010008B3010008B3010008B3010008A0
:10007000B3010008B3010008B3010008B301000890
:10008000B3010008B3010008B3010008B301000880
:10009000B3010008B3010008B3010008B301000870
:1000A000B3010008A9400008B3010008B30100082B
:1000B000B3010008B3010008B3010008B301000850
:1000C000B3010008B3010008B30100084937000874
:1000D000B30100082945000859450008B30100088C
:1000E0006D0B0008B3010008B3010008DFF80CD065
:1000F00000F0C6F800480047E14D0008F045002038
:10010000224B19680868B0E8F00F80F30988BFF344
:100110006F8F4FF0000080F311884EF00D0E704786
:100120000000000006480068006880F3088862B696
:1001300061B6BFF34F8FBFF36F8F00DF00BF00BF0B
:1001400008ED00E0EFF30980BFF36F8F0F4B1A68E3
:1001500020E9F00F106008B54FF0500080F31188CF
:10016000BFF34F8FBFF36F8F05F0A6FB4FF000007A
:1001700080F31188BDE8084019680868B0E8F00FFE
:1001800080F30988BFF36F8F704700BFE400002041
:10019000EFF3058070470000064880470648004797
:1001A000FEE7FEE7FEE7FEE7FEE7FEE7FEE7FEE727
:1001B000FEE7FEE761400008ED000008202A04DBAE
:1001C000203A21FA02F00021704721FA02F3D040D0
:1001D000C2F1200291400843194670470649074A78
:1001E0000868504343F239021044086040087047E1
:1001F0000149086070470000200100206D4EC64193
:1002000010B5431A934209D28318881803E010F8F6
:10021000011D03F8011D521EF9D210BD40EA010371
:100220009B0703D009E008C9121F08C0042AFAD2AC
:1002300003E011F8013B00F8013B521EF9D210BD5A
:10024000D2B201E000F8012B491EFBD27047002218
:10025000F6E710B513460A4604461946FFF7F0FFC5
:10026000204610BD30B504460020034600E05B1C6C
:10027000934203D2E05CCD5C401BF8D030BD00005F
:10028000064C074D06E0E06840F0010394E80700E3
:1002900098471034AC42F6D3FFF72CFFA069000852
:1002A000C069000810B51B220649074800F062FC2F
:1002B00006490120087003481321BDE81040203092
:1002C000FFF7C5BF9218002000F80008A600002024
:1002D0001CB500242646254602F094FC364F4FF00C
:1002E000FF3905236A464946002005F07DFE0128B6
:1002F00016D1009810280ED006DC012809D002285B
:100300000DD004280CD108E0202808D0402807D1BF
:1003100003E0062404E0072402E0052400E00924A9
:100320000023052201A9B86805F07AFB012805D150
:100330009DF80400040900F00F0800260A2C37D2AB
:10034000DFE804F0050B12181F252F332C2C02F0C8
:10035000D3FB00254FF400442AE00A221421174859
:1003600002F024FC012523E0404602F0D3FB0225E5
:10037000C2461DE003250A220221404602F056FC37
:1003800016E0FF214FF4407002F0CBFC10E0404635
:1003900002F0F0FB761CF6B2642E09D92C46D0464A
:1003A00006E0022002F08AFC02E0022002F09FFC3C
:1003B000012004F0B9FD94E7040000205554010029
:1003C000DFF870B1DFF87081ADF5087D4FF0FF39CF
:1003D0004FF00A0A00234F464A4602A94546D8F87C
:1003E000100005F01DFB01281AD10DF116018591B1
:1003F0009BF801109DF80B200DF10A04914210D1D9
:1004000029789BF8050061F303008BF80500584636
:1004100000F066FFA87001460022464804F090F9FB
:1004200084E00026B946A846607998F8001002AD2D
:1004300061F3030060714746A81C00F051FF8DF87E
:100440000900024600200090019043ABA91C85984A
:1004500000F030FD8DF80C02022384AA49460020EA
:1004600005F0C2FD8DF80DA200230A2243A9786889
:1004700005F0D0FB40F6C41384AA4946002005F0DD
:10048000B3FD012802D18498022841D0761CF6B22F
:10049000032EC9D3849802283AD0002634E0274896
:1004A0006178805D88422DD08DF81802012186A8E0
:1004B000CDE900019DF8092043ABA91C859800F007
:1004C000F9FC8DF80C0200278DF80DA200230A22FA
:1004D00043A9D8F8040005F09DFB4FF4487384AAA3
:1004E0004946002005F080FD012802D184990229A7
:1004F0000ED07F1CFFB2022FE6D3012802D18498D0
:10050000022805D0761CF6B20D4800788642C6D384
:100510000023012202A94446D8F8100005F080FA11
:100520000023012202A9206905F07AFA012004F0D3
:10053000FBFC4FE7280100200400002048020020B7
:100540004D000020134DC2B04FF0FF364FF4FA7744
:10055000002332466946686905F062FA012814D121
:10056000022400230A226946686805F053FB3B46D3
:1005700041AA3146002005F037FD012802D14198FB
:10058000022802D0641EE4B2EBD2012004F0CCFCBD
:10059000DEE7000004000020CCB00026DFF848B100
:1005A000DFF848A1DFF8489149963546CDF820613B
:1005B00042F2107004F0B8FC00248FE04D4B8DF82F
:1005C0002461185D00EB800101EBC0024A49571815
:1005D000A7F5805191F86E2E82B100210DF5907C27
:1005E0000AE000BF07EB0108A8F5805898F86F8E65
:1005F0000CF80180491CC9B29142F3D30DF59078F3
:10060000CDE9008202AB012249A900F015FE8DF868
:1006100008019BF800008DF809010023642202A95B
:10062000DAF8040005F0F6FA4FF47A7347AA4FF0AF
:10063000FF31002005F0D8FC01280DD00CB1641E5C
:10064000E4B26D1CEDB2052D46D900258DF824616C
:1006500001202F46449039E026484799005D8842A2
:100660003AD100254FF4FA7004F05EFC34E02149E1
:1006700008194A904078C95D884225D08DF820112C
:10068000449902ABCDE90081012249A900F0D4FDD3
:100690008DF808019BF800008DF809010023642201
:1006A00002A9DAF8040005F0B5FA4FF47A7347AA04
:1006B0004FF0FF31002005F097FC012804D14A9843
:1006C00047994078884205D07F1CFFB299F8000016
:1006D0008742CCD3641CE4B2641CE4B299F80000F5
:1006E0008442BFF465AF69E76A000020040000207F
:1006F0004D000020480200204004002030B54FF497
:100700008175A3B000222946032005F065F9474C06
:10071000002201216060022005F05EF9A060002245
:100720000421022005F058F9E0600022294601204A
:1007300005F052F9206100222946012005F04CF90C
:100740006061012005F036F900231A461946A061C0
:1007500005F060FA142236496846FFF751FD344926
:100760001422143105A8FFF74BFD3149142228311A
:100770000AA8FFF745FD2E4914223C310FA8FFF7C8
:100780003FFD2B491422503114A8FFF739FD2849A9
:100790001422643119A8FFF733FD2549142278315A
:1007A0001EA8FFF72DFD0021684604F0D3FB60630F
:1007B00010B920A004F0DAF8002105A804F0CAFB63
:1007C000E06110B922A004F0D1F800210AA804F0D9
:1007D000C1FB206210B924A004F0C8F800210FA8C2
:1007E00004F0B8FB606210B925A004F0BFF8002146
:1007F00014A804F0AFFBA06210B927A004F0B6F86B
:10080000002119A804F0A6FBE06210B929A004F0A9
:10081000ADF800211EA804F09DFB2063002802D142
:100820002BA004F0A3F823B030BD0000040000208A
:10083000446200084E657443726561746554617367
:100840006B20437265617465204572726F7200009F
:10085000556172745461736B2043726561746520D5
:100860004572726F720000004C65645461736B20B6
:10087000437265617465204572726F7200000000FA
:10088000546F7563685461736B204372656174655E
:10089000204572726F720000576972656C657373E0
:1008A0005461736B20437265617465204572726F89
:1008B00072000000537570657276697365546173D8
:1008C0006B20437265617465204572726F7200001F
:1008D00052657472795461736B20437265617465FB
:1008E000204572726F720000294E0025002003F02F
:1008F0004DFC040047D0062C23D006DC012C09D087
:10090000022C0FD0042C3DD108E0082C0AD0112C69
:1009100038D10BE000230322012130E00023032221
:1009200010212CE0210904F00F0022E00023032213
:100930004FF48071306A05F07FFA210905F00F004D
:1009400017E0012D04D0042D0BD0112D14D019E087
:10095000002303220221306A05F06EFA00210120F3
:1009600007E0002303222021306A05F065FA002108
:10097000042002F087F805E0002303220221306AF8
:1009800005F05AFA25460A2004F0CEFAAEE7000038
:10099000040000200349044803F0F6FD082004F099
:1009A000C3FAF7E7C8180020D0160020264FDFF85A
:1009B0009C80274E274DC2B00024002308226946A0
:1009C000706805F02DF8012807D19DF800319DF8D9
:1009D00001116A46204803F0AFF92878032803D0B4
:1009E0003878022807D00FE02C70F4701B491A48A1
:1009F00003F05AFF08E03C70F078401CC0B2F07081
:100A00000A2801D9012038703878042804D12C70C4
:100A100098F8000003F056F92878062803D02878C3
:100A2000042807D00BE02C70F47098F8000003F055
:100A300049F904E02C70F470022002F017FD012047
:100A400004F072FAB9E70000660000206A00002096
:100A50000400002067000020C00F0020C8180020FC
:100A6000FEE7000070B503464FF6FF7000220D4D03
:100A700014E000BF13F8014B521C84EA000606F094
:100A80000F0692B235F8166086EA101080EA141448
:100A900004F00F0435F8144084EA10108A42E9D3B8
:100AA00070BD0000D868000870B50646002002F04E
:100AB000BFFD0A4D4FF4004400222146284600F0B5
:100AC000DCFE342002F05EFE304602F05BFE214682
:100AD0002846BDE87040012200F0CFBE000801406A
:100AE0007047000070B50E4D4FF4B66422460B49B6
:100AF000284602F0A5FE09490878FF280DD1487B59
:100B0000FF280AD161000548FFF7A1FB22462846CD
:100B1000BDE87040014902F0A1BE70BD4004002054
:100B200000E8000830B400231F2819D3FF2817D08D
:100B30001F38C0B200EB800404EBC0040948204415
:100B4000427004E0CC5CC5185B1CAC70DBB2934215
:100B5000F8D330BC4FF4B6620249034802F07EBEBF
:100B600030BC70474004002000E800084FF480507B
:100B700000F094BD012303EB520202F061BE0000BD
:100B80002DE9F0470446C07992460709884600F0EF
:100B90000F0600251AE000BF04EB05110831894655
:100BA00010223348FFF72CFB324A33493048BAF160
:100BB000000F02D004F014F801E003F01DFF4846D6
:100BC00010222D49FFF71CFB6D1CEDB2BD42E3D393
:100BD000E6B3BAF1000F04EB071114D01022244839
:100BE0000831FFF70DFB234A2349214803F0F8FFA2
:100BF00004EB0510324620490830FFF701FB08EBF3
:100C00000600103820E008310D4632461848FFF73C
:100C1000F7FA0020034606EB0712C6F1100104E0C4
:100C200017182744401C3B72C0B28142F8DC114ABD
:100C300011490F4803F0E0FE284610220E49FFF745
:100C4000DFFAA8EB06001030C5B201E0FFE7454629
:100C5000E81E81B22046FFF705FF020A611901F87C
:100C6000032D4870532088702846BDE8F0870000A7
:100C700082180020D217002092180020064A002176
:100C8000D16106490A6942F002020A6148610869B5
:100C900040F0400008617047A00F00200020024093
:100CA000044B0022DA61044A136943F00103136123
:100CB00001807047A00F002000200240144800224D
:100CC000C168CB06134904D5CA6942F00202CA6161
:100CD0001022C3685B0705D5CB6943F00103CB61E4
:100CE00042F00402C369DB0707D0CB6943F0040379
:100CF000CB61C16921F00101C161A2F580710139A7
:100D000001D0C2607047C16921F00101C161704723
:100D100000200240A00F002070B5054600F0B2FD93
:100D20000646114C09E0681C07D025B100F0AAFD69
:100D3000801BA84201D9032070BDE068C007F2D132
:100D4000E068800601D52020E060E068C00605D498
:100D5000E069C00702D1E068400703D5FFF7AEFFA6
:100D6000012070BD002070BD0020024030B50D464E
:100D7000BFB01446014610226846FFF741FAFF2033
:100D80008DF801008DF802008DF803008DF8040045
:100D90009DF8060040F080008DF8060044B1201D4B
:100DA0008DF807002246294603A8FFF729FA02E03A
:100DB00000208DF80700684600F092FA0246694666
:100DC000024803F091FC3FB030BD00000038014004
:100DD00070B505460078AC2802D0682811D101E032
:100DE000C91E00E0891ECCB221462846FFF73AFE14
:100DF000295DB1EB102F04D12919C0B2497888427E
:100E000001D0012070BD002070BD00002DE9F04729
:100E10008A46DDE9089556190D368046F1B21C4622
:100E200017461846091DFFF712FA692020706070F6
:100E3000A670F043E07020792A4620F0020040F0CE
:100E4000010020711A48C17E6171017FA17184F88F
:100E50000780B0F805102181C079A072E07A494678
:100E600065F3071040F00F00E072257304F10D00E8
:100E70000546FFF7C5F9207B3A4628445146FFF75F
:100E8000BFF9A1782046FFF7EDFDA278010AA15431
:100E9000A278611C5054A278A11C96205054A278CC
:100EA000E11C5054A078001DC0B2BDE8F0870000DE
:100EB000280200202DE9F043C1B08846DDE94864EE
:100EC0000746994615464FF480716846FFF7BFF90B
:100ED00069208DF800008DF80100281914308DF874
:100EE0000200C0438DF803009DF80400224620F064
:100EF00003008DF804002848C17E8DF80510017F9D
:100F00008DF806103968CDF807107968CDF80B1008
:100F1000B0F80510ADF80F10C0798DF811009DF8EC
:100F20001200314664F3071040F00F008DF81200F4
:100F30008DF8134005A80446FFF762F99DF81300E9
:100F40002A4620444146FFF75BF99DF802106846A7
:100F5000FFF788FD9DF80220010A0DF802109DF8A8
:100F600002200DF1010150549DF80220491C9620E9
:100F700050549DF80220491C50549DF802206946A7
:100F80004846121DFFF73CF99DF8020041B0001DD4
:100F9000C0B2BDE8F0830000280200202DE9F04F28
:100FA00004460079C5B00F4600067CD50322874968
:100FB000E01DFFF757F9002875D12079DFF810B24E
:100FC000DFF8109240074FF4B66A4FF0000617D5CD
:100FD000217BE07AB1EB101F12D1A07A1F38C1B289
:100FE00001EB810202EBC1027B4999F801008854B0
:100FF000322805D3501852464670584602F02EFC4F
:10100000E07A000973D12079400773D4217B04F181
:101010000D0801EB0805A879000668D503226F4981
:10102000A81CFFF71FF9002861D14146227B0DF56E
:1010300086780DF20D10FFF7E3F8207B8DF80C0198
:1010400067486A7994F80AA0C17802F00F029142C9
:1010500008D106714671634800230322022100680B
:1010600004F0EAFE207B2946381A1138C2B24F46F6
:1010700089F802202046FFF7C3F8607910F0600F6E
:1010800005D0B9780122F81DFFF77AFDB870032268
:101090005249A01CFFF7E6F840B9E0790B30C1B225
:1010A0000022204600E022E003F04AFBA07901077D
:1010B00021D4E07AA27A617A00EB022080B2002982
:1010C00015D0FF2913D1801CB0F580300FD0012836
:1010D0000DD19DF80C2108F101015046FFF722FDCA
:1010E0004148002303220221006804F0A5FE45B018
:1010F000BDE8F08F36E020F08000A071E6716079E5
:1011000010F0600F0BD0204600F0EAF88DF80801CF
:10111000014600222046FFF733FD8DF808019DF8B7
:101120000C010DF20D11CDE90010E07902AB0B308E
:10113000C2B260782146FFF769FE8DF808012B489E
:1011400000230A2200788DF80901294802A90068C5
:1011500004F060FD274800230A2243A9006804F038
:1011600059FDC4E7207B0025381A11388DF8080195
:101170002148A17A2B460322006804F05DFE9DF809
:1011800008010028B3D0002694F80A900D274FF0EC
:101190000E080EE0217B07EB4600214408EB4602D7
:1011A000085C8A5C494602F093F92844761CC5B273
:1011B000F6B29DF80801B6EB500FEBD3002D96D098
:1011C00052460549584602F049FB90E72D0200209F
:1011D00000E80008C00F002040040020AE000020FE
:1011E0003C00002034000020380000206A0000206D
:1011F00008000020100000203000002010B5044638
:101200000078692814D16078692811D1A178E07834
:101210000844FF280CD12046FFF724FCA278010ADD
:10122000C0B2A35C8B4203D1641C115D814201D02A
:10123000002010BD012010BD2DE9F0478046DDE9FA
:10124000089550190D30C6B28A461C461746311D06
:101250001846FEF7FCFF692020706070A670F0430E
:10126000E07020792A4620F0020040F0050020714D
:101270001A48C17E6171017FA17184F80780B0F8BE
:1012800005102181C079A072E07A494665F3071004
:1012900040F00F00E072257304F10D000546FEF7E3
:1012A000AFFF207B3A4628445146FEF7A9FFA178BC
:1012B0002046FFF7D7FBA278010AA154A278611C4F
:1012C0005054A278A11C96205054A278E11C50548E
:1012D000A078001DC0B2BDE8F08700002802002001
:1012E00070B50446AC202070A07920F02000A071D9
:1012F000E0790830C5B229462046FFF7B3FB010A62
:1013000061556D1CE9B26054491CC8B25321215487
:10131000401CC0B270BD00002DE9F0410546002020
:1013200002F086F90B4F4FF4004600223146384652
:1013300000F0A3FA0024285D02F024FA641CE4B251
:10134000082CF8D331463846BDE8F041012200F0C0
:1013500094BA0000000801402DE9F04704461F46FA
:1013600090468946002002F063F9164E4FF400457E
:1013700000222946304600F080FA202002F002FACE
:10138000484602F0FFF9404602F0FCF9384602F008
:10139000F9F901222946304600F06FFA012002F0E7
:1013A00047F90027AA2002F0EDF9E0557F1CFFB2B3
:1013B000082FF7D329463046BDE8F047012200F058
:1013C0005CBA00000008014070B5002002F030F95E
:1013D0001E4E4FF4004500222946304600F04DFADB
:1013E000222002F0CFF901222946304600F045FACA
:1013F000012002F01DF9AA2002F0C4F9144C20705B
:10140000AA2002F0BFF96070AA2002F0BBF9A07018
:10141000AA2002F0B7F9E070AA2002F0B3F9207117
:10142000AA2002F0AFF96071AA2002F0ABF9000225
:10143000E080AA2002F0A6F9E1880843E08029466E
:101440003046BDE87040012200F017BA00080140A4
:10145000C612002070B5002002F0EAF8204E4FF4CA
:10146000004500222946304600F007FA012002F02C
:1014700089F901222946304600F0FFF9012002F0E7
:10148000D7F8AA2002F07EF9164C2070AA2002F0AC
:1014900079F900026080AA2002F074F9618808439B
:1014A0006080AA2002F06EF92071AA2002F06AF989
:1014B0000002E080AA2002F065F9E1880843E0809C
:1014C000AA2002F05FF92072AA2002F05BF9607294
:1014D00029463046BDE87040012200F0CEB9000038
:1014E00000080140C61200200F490A784B7889781D
:1014F0001A44511807D0C906890E4A1C017042705F
:101500000A2903D006E00A21017002E00C210170D3
:101510000D214170027805498B5C054AD3714078F2
:10152000085C107270470000AE000020F2620008F4
:101530009600002010B590F821100024022903D055
:101540000421816301243DE001680A6822F00E0253
:101550000A6001680A6822F001020A601A4A0168FA
:10156000914201D1012121E0174A1432914201D167
:1015700010211BE0144A2832914201D1891515E04F
:10158000114A3C32914201D189140FE00E4A503287
:10159000914202D14FF4803108E00B4A643291420B
:1015A00002D14FF4801101E04FF08071064A083AF1
:1015B0005160012180F82110002180F82010416B3A
:1015C00001B18847204610BD080002400348016968
:1015D00041F08001016100207047000000200240BE
:1015E0002DE9F05F07461C4888460024017E154619
:1015F0001E46012909D00121814601764CF2503A5C
:101600005046FFF789FB18B122E00220BDE8F09FA9
:10161000012F02D0022F00D00427D346DFF83CA0D0
:10162000220128463146FEF7C9FD81B208EB44008D
:10163000FFF736FB5846FFF76FFBDAF8102022F071
:101640000102CAF8102018B9641CE4B2BC42E7D306
:10165000002289F81820D9E7A00F002000200240BE
:10166000064900200A69120607D5054A4A60054A5C
:101670004A600969090600D5012070470020024030
:1016800023016745AB89EFCDB0F5805F02D10248F9
:1016900002F0C2B970470000C00F0020044910B525
:1016A0000A68024202D00860FFF7EEFF10BD00009A
:1016B000140401402DE9F84FDFF890A100220AF14F
:1016C000040B144601274FF00F090BF1040E00BF65
:1016D0000B6807FA04F52B40AB4274D1DFF870C1F8
:1016E0004E68A6EB0C0866452BD00DDC032E34D0DB
:1016F00005DC36B3012E19D0022E2FD11BE0112E9E
:1017000016D0122E2AD119E0B8F5881F19D006DCA0
:10171000B8F5803F15D0B8F5801F1FD111E0B8F59E
:10172000001F0ED0B8F5041F18D10AE0CA6815E0F2
:10173000CA68121D12E0CA6808320FE0CA680C328B
:101740000CE08A682AB1012A4FF0080203D04561F3
:1017500004E0042202E0056100E00022FF2B01D832
:10176000064601E000F104064FEA840501D9A5F11F
:101770002005D6F800C009FA05F82CEA080C02FA90
:1017800005F54CEA050CC6F800C04D68ED0057D5CC
:10179000304DAE6946F00106AE61AD6924F0030636
:1017A00005F0010500952C4D06EB050CDCF8085002
:1017B000A6074FEA167809FA08F6B543274EB04255
:1017C00002D1002610E03BE0254EB04201D10126B7
:1017D0000AE0244EB04201D1022605E0224EB0427A
:1017E00001D1032600E0042606FA08F62E43CCF8C1
:1017F00008604D68DAF80060ED03554601D51E43D8
:1018000000E09E432E604D68DBF80060AD035D464E
:1018100001D51E4300E09E432E604D68DEF8006057
:10182000ED02754601D51E4300E09E432E604D68D3
:10183000AD020E4D2E6801D51E4300E09E432E6082
:10184000641C102CFFF444AFBDE8F88F0004014085
:10185000000011100010024000000140000801408B
:10186000000C014000100140001401400C04014034
:101870008068084000D0012070470AB101617047BC
:101880000904FBE701488068704700005000002011
:10189000024881680278114481607047500000203E
:1018A000074810B5016841F010010160032000F005
:1018B0009DF80F2000F006F800F024F8002010BD7D
:1018C0000020024070B50D4D04464FF47A7128781F
:1018D000B1FBF0F00A490968B1FBF0F000F0FAFC46
:1018E00048B9102C07D200222146501E00F05EF8A5
:1018F00000206C6070BD012070BD00005000002011
:101900005C000020214808B5816941F00101816136
:10191000816901F001010091C16941F08051C1610B
:10192000C06900F080500090032000F05FF80022B2
:1019300011466FF00B0000F039F8002211466FF0ED
:101940000A0000F033F8002211466FF0090000F0A1
:101950002DF800221146501F00F028F800221146F1
:10196000101F00F023F800220F21901E00F01EF837
:1019700000220F21501E00F019F80548416821F09F
:10198000E06141F00071416008BD000000100240BC
:101990000000014000F01F02012191404009800039
:1019A00000F1E020C0F8001170470000F0B40E4BC9
:1019B0001B680C46C3F30223C3F10705042D00D9AD
:1019C0000425191D072901D2002300E0DB1E012692
:1019D00006FA05F1491E214099409E40761E1640A8
:1019E0003143F0BC01F0D8BC0CED00E0064900F03A
:1019F000070208684FF6FF03184040EA0220034A36
:101A000010430860704700000CED00E00000FA058C
:101A10002DE9F047DFF83C8105460E46D8F8000076
:101A200000F00700B0420CD2D8F8001021F00701F6
:101A30003143C8F80010D8F8000000F00700B042A9
:101A400063D12878444C800705D56068A96820F0E8
:101A5000F000084360602878C00745D06868012816
:101A600016D02168022816D0890700294DDA61684E
:101A700021F0030101436160FFF704FF6968074635
:101A800041F2883001290FD00229814619D027E080
:101A900021688903E9E78901E7E700BFFFF7F2FE64
:101AA000C11B494501D918E081466068C0F3810037
:101AB0000128F3D118E000BFFFF7E4FEC11B494540
:101AC0000BD86068C0F381000228F5D10CE000BF9C
:101AD000FFF7D8FEC11B494502D90320BDE8F087B6
:101AE000606810F00C0FF3D1D8F80010404601F0F8
:101AF0000701B1420BD9016821F0070131430160B0
:101B0000006800F00700B04201D00120E6E7287825
:101B1000400705D56068E96820F4E060084360602C
:101B20002878000706D56068296920F4605040EAEB
:101B3000C100606000F03CF86168084AC1F303111D
:101B4000515CC840064908600F20FFF7BBFE00202B
:101B5000C4E700000020024000100240DA620008E2
:101B60005C00002001480068704700005C00002015
:101B70000448054900684968044AC1F30221515CE0
:101B8000C84070475C00002000100240EA62000874
:101B90000448054900684968044AC1F3C221515C00
:101BA000C84070475C00002000100240EA62000854
:101BB00012A185B00FC98DE80F0014A0144A006867
:101BC00004905168134801F00C03042B10D0082B2B
:101BD0000ED1C1F38343C9031DF803000AD5516830
:101BE00004AAC1F34041515C0A4A5043B0FBF1F0F2
:101BF00005B0704708494843FAE7000002030405AE
:101C0000060708090A0B0C0D0E0F10100102000048
:101C10000010024000127A0000093D002DE9F84F43
:101C200004460078B94DC00748D06868C0F3810009
:101C3000012807D06868C0F38100022809D16868CC
:101C4000C00306D52868800338D5606800286FD0A7
:101C500034E06068B0F5803F0BD010B1B0F5A02F34
:101C600011D0286820F480302860286820F4802073
:101C700002E0286840F480302860606888B1FFF78F
:101C800001FE064609E0286840F480202860F0E75D
:101C9000FFF7F8FD801B642875D828688003F7D506
:101CA0000CE0FFF7EFFD064605E000BFFFF7EAFD99
:101CB000801B6428F0D828688003F7D42078944EDD
:101CC00080074FF001094FF000083BD5686810F01D
:101CD0000C0F07D06868C0F38100022809D168683A
:101CE000C00306D42868800714D5206901281FD1B5
:101CF00010E02069B0B1C6F80090FFF7C3FD0746B9
:101D000005E000BFFFF7BEFDC01B0228C4D828684D
:101D10008007F7D52868616920F0F80040EAC10023
:101D200028600FE0C6F80080FFF7ACFD074606E02C
:101D3000E9E000BFFFF7A6FDC01B022823D82868F2
:101D40008007F7D4207800072CD57248A169D9B153
:101D5000C0F80090FFF796FD074604E0FFF792FDFC
:101D6000C01B02280FD8686A8007F7D56A484FF46D
:101D7000FA510068B0FBF1F0009000BF0098411EDE
:101D80000091FAD20EE080E0C0F80080FFF77AFD03
:101D9000074604E0FFF776FDC01B022875D8686A85
:101DA0008007F7D42078400760D5E8690027C00095
:101DB00008D4E86940F08050E861E869012700F044
:101DC0008050009055480168C90513D401688346C6
:101DD00041F480710160FFF755FD824606E000BFC7
:101DE000FFF750FDA0EB0A0064284ED8DBF8000096
:101DF000C005F5D5E06801280AD008B1052813D040
:101E0000286A20F001002862286A20F0040002E01D
:101E1000286A40F001002862E06841F2883B98B1EE
:101E2000FFF730FD82460BE0286A40F0040028628C
:101E3000EEE700BFFFF726FDA0EB0A0159455AD88F
:101E4000286A8007F6D50CE0FFF71CFD824605E006
:101E5000FFF718FDA0EB0A0159454CD8286A800706
:101E6000F6D41FB1E86920F08050E861E06988B3DA
:101E70006968C1F38101022945D00228C6F8608053
:101E800004D0FFF7FFFC044638E034E0FFF7FAFC2B
:101E9000074604E0FFF7F6FCC01B02282BD8286891
:101EA0008001F7D4206AB0F5803F05D16868A16849
:101EB00020F4003008436860D4E9080108436968E9
:101EC00021F4741108436860C6F86090FFF7DAFCEB
:101ED000044606E015E000BFFFF7D4FC001B022813
:101EE00009D828688001F7D50BE000BFFFF7CAFCCE
:101EF000001B022802D90320BDE8F88F2868800162
:101F0000F4D40020F8E70120F6E7000000100240BA
:101F100000004242800442425C0000200070004009
:101F20007047000038B504460068426881684B0677
:101F300005D4CB0703D0530601D5216C04E08B07F1
:101F400007D5130605D5616C01B02046BDE83040C9
:101F5000084711F0600F3FD093063DD54B060AD5D8
:101F600094F85130032B34D0636D43F00403636560
:101F7000C36883680093890609D5616D41F001014A
:101F8000616581680091016821F040010160606D28
:101F9000002821D02068416821F0E0014160012043
:101FA00084F85100900718D02068416821F003019F
:101FB00041600C4DE06C18B14563E06CFFF7BAFA74
:101FC000A06C002808D04563A06CBDE83840FFF73E
:101FD000B1BAC1688068009038BD2046FFF7A0FF05
:101FE00038BD00007537000870B5040005D0002525
:101FF000A56294F8510010B104E0012070BD2046A4
:1020000000F034F8022084F851002068016821F0C3
:1020100040010160D4E901010843D4E903121143EE
:10202000084361690843218B01F400710843E169A9
:102030000843216A0843A16A084321680860A0692F
:10204000042101EA1040616A084321684860216860
:10205000E06A08612068C16921F40061C1616565B9
:10206000012084F85100002070BD000010B5006808
:10207000184986B088422BD11748816941F48051B4
:1020800081618069154C00F48050049028200090F4
:10209000022001900320039069462046FFF70AFBC7
:1020A00000211020CDE90001029169462046FFF78A
:1020B00001FB0B48416841F0E06141F001014160E2
:1020C000002211462320FFF771FC2320FFF762FC5A
:1020D00006B010BD0030014000100240000C01406D
:1020E000000001402DE9F84F044690F8500000260A
:1020F0000A9F9A4693460D464FF0010801280ED0DC
:10210000012084F85000FFF7BDFB814694F8510090
:10211000616801280CD0B1F5827F07D102E002206E
:10212000BDE8F88FA16809B9042801D00226BDE0F6
:1021300055B1BBF1000F07D0BAF1000F04D094F8ED
:102140005100012802D004E00126AFE0052084F808
:10215000510000206065C4F838B0A4F83EA0A4F88F
:102160003CA02563A4F836A0A4F834A020646064E1
:1021700020680168490603D4016841F0400101600C
:10218000E068B0F5006F606804D0E8B3E08E012825
:102190003BD06AE010B1E08E01282ED1216835F8DD
:1021A000020BC860E08E401EE08626E0B8F1000F0A
:1021B0000DD0E08E58B120688168890707D535F8C1
:1021C000021BC160E08E401EE0864FF00008E08FE9
:1021D00058B120688168C90707D0C0682BF8020B86
:1021E000E08F401EE0874FF00108781C05D0FFF714
:1021F00049FBA0EB0900B84246D2E08E0028D5D1B9
:10220000E08F0028D2D136E0FFE7216815F8010BF6
:102210000873E08E401EE08627E000BFB8F1000F93
:102220000DD0E08E58B120688168890707D515F870
:10223000011B0173E08E401EE0864FF00008E08F26
:1022400058B120688168C90707D0C0680BF8010B36
:10225000E08F401EE0874FF00108781C05D0FFF7A3
:1022600011FBA0EB0900B8420ED2E08E0028D5D1B8
:10227000E08F0028D2D13B46012202212046CDF832
:10228000009001F091FA08B103260FE04A46394662
:10229000204601F05FFA18B101262020606505E0B4
:1022A000A06818B92068C16880680090012084F88F
:1022B0005100002084F85000304631E74FF0E02113
:1022C0000428086903D020F004000861704740F03A
:1022D0000400FAE710B5401EB0F1807F01D3012061
:1022E00010BD4FF0E02460610F21601701F054F839
:1022F0000020A06107202061002010BD70477047BA
:1023000030B590F83C20012A20D0012280F83C20F2
:10231000022380F83D3003685C6824F070045C6040
:1023200003685C680D682C435C6003689C6824F05B
:1023300080049C6003689C6849680C439C6080F83A
:102340003D20002180F83C10084630BD022030BD01
:1023500010B5040003D094F83D0010B107E001204F
:1023600010BD002084F83C00204600F00DF802204B
:1023700084F83D00211D206801F09CFE012084F8B6
:102380003D00002010BD000008B500680B498842E0
:1023900012D10B48816941F400618161806900229A
:1023A00000F40060009001211920FFF7FFFABDE85A
:1023B00008401920FFF7EEBA08BD0000002C0140CC
:1023C000001002400168CA6842F00102CA60006859
:1023D000016841F0010101600020704770B50446BA
:1023E00090F83C00012817D0012584F83C500220C9
:1023F00084F83D002068826822F0770222F47F4250
:1024000082600868502837D00DDC202859D005DCC0
:1024100088B3102841D151E0022070BD302853D03C
:1024200040283AD13FE060282ED070280BD0B0F57C
:10243000805F03D0B0F5005F2FD110E02068816885
:1024400021F0070115E0CB68D1E90121206801F0F6
:1024500067FE2168886840F0770088601DE0CB68DF
:10246000D1E90121206801F05BFE2068816841F418
:102470008041816011E01EE0CA684968206801F06F
:1024800061FE5021206806E0CA684968206801F0B2
:102490006AFE6021206801F04DFE84F83D50002066
:1024A00084F83C0070BDCA684968206801F04AFEA3
:1024B00040212068EFE700212068ECE71021206828
:1024C000E9E720212068E6E730212068E3E770474C
:1024D00070B50446006801694FF00005C9438907DB
:1024E00015D4C168C943890711D4E91E01610120CF
:1024F0002077206880698007204602D0FFF7E7FF39
:1025000004E000F098F8204600F096F8257720685F
:102510000169C943490717D4C168C943490713D49E
:102520006FF004010161022020772068806910F4B7
:10253000407F204602D0FFF7CAFF04E000F07BF89E
:10254000204600F079F8257720680169C94309071A
:1025500016D4C168C943090712D46FF0080101619C
:10256000042020772068C0698007204602D0FFF74A
:10257000AEFF04E000F05FF8204600F05DF825773C
:1025800020680169C943C90617D4C168C943C9068F
:1025900013D46FF010010161082020772068C06912
:1025A00010F4407F204602D0FFF791FF04E000F0D6
:1025B00042F8204600F040F8257720680169C943B9
:1025C000C90708D1C168C943C90704D1891E01617F
:1025D000204600F033F820680169C943090609D490
:1025E000C168C943090605D46FF080010161204626
:1025F000FFF784FE20680169C943490609D4C16810
:10260000C943490605D46FF040010161204600F03E
:1026100045F820680169C94389060BD4C168C943DC
:10262000890607D46FF0200101612046BDE87040A3
:10263000FFF765BE70BD70477047000010B51449C4
:1026400000680968884221D1124C2068401C206033
:1026500001F070FC20684FF47A71B0FBF1F201FBDD
:10266000120010B96068401C60600B4890F80111BE
:1026700000290BD090F80111491CC9B280F8011152
:10268000322903D9002180F80111017010BD00002A
:102690008003002044000020D016002070477047BF
:1026A00010F8391F407808437047000070B5026881
:1026B00004461068D168536910F00F0F50D003F032
:1026C000010501F4907635435DD0C20705D0CA05F7
:1026D00003D5E26B42F00102E263420705D5DA0757
:1026E00003D0E26B42F00202E263820705D5DA070B
:1026F00003D0E26B42F00402E263020705D5DA0779
:1027000003D0E26B42F00802E263E26B002A33D0AE
:10271000800604D5880602D5204601F0CFFD20684A
:102720004069E16BC0F38010090700D428B320464C
:1027300001F0B6FD2068416949061AD5416921F0CA
:1027400040014161606BA0B11B494163606BFEF7C2
:10275000F1FE002810D0606B416BBDE87040084767
:10276000830610D58B060ED52046BDE8704001F0DB
:10277000A5BD2046FFF793FF70BD2046FFF78FFFF2
:102780000020E06370BD030606D50B0604D5204685
:10279000BDE8704001F096BE4006F3D54806F1D57D
:1027A000D168204621F04001D160202184F8391001
:1027B00000F0C8F870BD00009142000870B5040038
:1027C00004D094F83900002510B106E0012070BD56
:1027D00084F83850204600F023F8242084F839008B
:1027E0002068C16821F40051C160204601F0B2FDAB
:1027F0002068016921F4904101612068416921F05C
:102800002A0141612068C16841F40051C160E5635B
:10281000202084F8390084F83A00002070BD0000C0
:1028200070B5274E03680024264902200322264D56
:1028300086B0B3421ED18B6943F480438B618969B2
:10284000039201F4804104910102CDE90010694630
:102850002846FEF72FFF2815CDE9000469462846D3
:102860000294FEF727FF002205212520FFF79EF89E
:10287000252020E0154EB3421FD1CB6943F400332D
:10288000CB61C969039201F4003104910421CDE9BF
:10289000001069462846FEF70DFF0820CDE9000428
:1028A000694628460294FEF705FF002205212620EE
:1028B000FFF77CF82620FFF76DF806B070BD00002A
:1028C0000038014000100240000801400044004070
:1028D00090F83A30202B22D1F9B1F2B190F838308B
:1028E000012B1CD081628285C2850021C163222216
:1028F00080F83A2080F838100168CA6842F4807283
:10290000CA6001684A6942F001024A610068C16810
:1029100041F02001C1600020704701207047022073
:102920007047000000680449884204D10448034904
:10293000007801F00FBF704700380140D01600202A
:102940004E0000207047FEE770B501220E4D1402C4
:1029500021462846FEF791FF0122560231462846BD
:10296000FEF78BFF012002F001F9002221462846E4
:10297000FEF783FF012002F0F9F831462846BDE852
:1029800070400022FEF779BF000C014070B5104D79
:102990004FF48074002221462846FEF76EFF012284
:1029A000560231462846FEF768FF012002F0DEF8A5
:1029B000012221462846FEF760FF012002F0D6F8EA
:1029C00031462846BDE870400022FEF756BF0000A1
:1029D000000C01402DE9F041294D064600244FF43A
:1029E00000774FF48078002239462846FEF745FFED
:1029F000300601D5012200E0002241462846FEF7BC
:102A00003CFF012002F0B2F8012239462846FEF7C9
:102A100034FF012002F0AAF87006641C060EE4B22E
:102A2000082CE0D3002239462846FEF726FF012075
:102A300002F09CF80122464641462846FEF71DFF5B
:102A4000012002F093F8012239462846FEF715FFCF
:102A5000012002F08BF801E0641CE4B23146284604
:102A6000FEF706FF08B1FF2CF6D3002239462846B0
:102A7000FEF703FFBDE8F041012002F077B8000047
:102A8000000C014030B5BFB00C4605460422164983
:102A90000DF10100FDF7B4FB14499DF805204878BD
:102AA00060F303028DF80520401C48709DF8060075
:102AB0008DF8085040F088008DF8060005208DF84C
:102AC000070003220A490DF10900FDF799FB8DF873
:102AD0000C406846FEF704FC02466946054801F0D2
:102AE00003FE3FB030BD000018690008040000205C
:102AF0001F6900080038014010B50021044800F0AB
:102B000010F9BDE810404FF4407000F022B9000009
:102B1000FFFC030010B504461E214FF4407000F086
:102B200000F9012C0CD0022C10D0032C14D102215E
:102B30000A4800F0F6F80A48BDE8104000F009B96C
:102B40000221084800F0EDF80748F5E702210748A0
:102B500000F0E7F80648EFE710BD0000FFFC0300B7
:102B6000FFFF03005554010055570100AAA80200B9
:102B7000AAAB020070B504460F2813D81E214FF4EB
:102B8000407000F0CEF8084D6408022155F824008A
:102B900000F0C7F855F82400BDE8704040F44070DC
:102BA00000F0D7B870BD0000246900082DE9F0419D
:102BB000134C07460E46A078401CC0B2A07090424D
:102BC0001AD90025A57047F4407000F0C2F82178AA
:102BD000072900D90721384600F0A3F82078B04231
:102BE00002D10121617009E018B16178012905D095
:102BF00000E06570401C2070BDE8F081401EFAE7DF
:102C0000B800002070B500244FF44075E1B22846AA
:102C100000F087F8FF2C01D2641CA4B2052001F05B
:102C20007BF9641CA4B21E2CF0D370BD2DE9F041D9
:102C30000124250490460E46012803D0022801D124
:102C4000022405044FF4407000F083F831461A481E
:102C500000F067F844EA050040F4407000F079F8AD
:102C6000404602F061F944F4407000F072F808EB5D
:102C700048004000064602F057F9002501E0042D07
:102C800000D02746A400032D0FD044EA070040F4EB
:102C9000407000F05EF8404602F046F944F440709F
:102CA00000F057F8304602F03FF96D1CEDB2082DE8
:102CB000E5D3BDE8F0810000FFFC030010B5044639
:102CC00002210F2000F02DF81E214FF4407000F07B
:102CD00028F8022C07D0012C08D140F20530BDE8BD
:102CE000104000F036B840F20A30F8E710BD10B5D9
:102CF000044602214FF4705000F013F81E214FF4E7
:102D0000407000F00EF8022C07D0012C08D14FF4CF
:102D1000B850BDE8104000F01CB84FF42C50F8E754
:102D200010BD2DE9F04101250F4606462C4635EA37
:102D3000060003D13946204600F0BCFC641C6D003F
:102D4000E4B2122CF3D9BDE8F0415521162000F071
:102D5000B1BC10B5044600F03F01132000F0AAFCFE
:102D6000C4F38511142000F0A5FCC4F3053115202F
:102D700000F0A0FC5521BDE81040162000F09ABCE0
:102D800030B500230DE0C45CCD5CAC4202D94FF0FD
:102D9000010030BD02D24FF0020030BD03F101034B
:102DA000DBB29342EFD3002030BD2DE9F0410C4659
:102DB00080461121204600F035F9C0F11100C6B25D
:102DC000C6F11100C2B2A1190D46404600F0F6F856
:102DD0000024C6F1120707E0FAB2691E08EB0400EE
:102DE00000F0ECF8641CE4B2B442F5D3BDE8F08125
:102DF0000021421852784254491CC9B21029F8D314
:102E000000210174704770B50024012B4FF01003AE
:102E10000DD0C51815F8015C05FB0144A4B2D454CB
:102E2000240A5B1E13F0FF03F3D1147070BDC618A3
:102E3000D55C16F8016C06FB01552C44A4B2D454A1
:102E4000240A5B1E13F0FF03F1D1107820441070A8
:102E500070BD00002DE9F0430C46814698461646A9
:102E60001021204600F0DEF8C0F110010D190021FC
:102E70000A467254491CC9B21129FAD30024471ECC
:102E80000FE000BFFFF7BFFF41463046FFF78DFF61
:102E90003046FFF7ADFF41463046FFF786FF641C22
:102EA000E4B2BC42295D4FF0010332464846E9DBFB
:102EB000FFF7A9FF41463046BDE8F043FFF775BF75
:102EC0002DE9F05F8A4683461D46174608261021E5
:102ED000104600F0A7F804006BD010225146584667
:102EE000FDF78EF9C4F1100000EB0708002198F8F7
:102EF0000000020607D44006761E491C000EC9B227
:102F0000F6B20829F5D34006070E761E06F0FF0933
:102F100000261BE059462A4608460A9BFFF79AFFFF
:102F20001022691C5846FDF76BF938060AD52A4667
:102F3000594650460A9BFFF78DFF1022691C5846E0
:102F4000FDF75EF97806070E761CF6B24E45E1D322
:102F50001948002108F1010801708146671E25E02B
:102F600018F80160002459462A4608460A9BFFF7D4
:102F700071FF1022691C5846FDF742F930060AD548
:102F80002A46594650460A9BFFF764FF1022691CE7
:102F90005846FDF735F97006641C060EE4B2082C9D
:102FA000E1D399F80010491C89F80010C9B2B94260
:102FB000D6DBBDE8F09F0000BB000020F0B5154651
:102FC0000E46074626E000202C4621E03B19321928
:102FD00013F8011C12F8012C8A4209D128B1A1EB87
:102FE0000201A1F10101C9B20DE04FF000010AE0B8
:102FF000A1EB0000A0EB0200C1B202D24FF0000032
:1030000001E04FF00100A4F1010403F8011CE4B257
:10301000002CDBD12A4631463846FFF7B1FE0228A4
:10302000D1D1F0BD002206E0835C13B1881AC0B292
:103030007047521CD2B28A42F6D30020704700007B
:10304000FEB50446427AC07AA17A002300EB012043
:1030500004F10C0180B20D46009301930293032A00
:1030600006D006DC002A03D0012A40D0022A46D12D
:10307000FEBD042AFCD0FF2A41D1012807D0B0F5BB
:103080007F4F10D0801CB0F5803F38D11DE0032069
:103090008DF8000002208DF80100024669462046A6
:1030A000FDF764FEFEBD17480A8A42838A7C0277D8
:1030B00010220930FDF7A4F80F221249124800F03F
:1030C000CDFB104800F050FC19E002F0EDFB0F4E74
:1030D0000F483178FDF7BBF8E0792946001FC2B2EE
:1030E00032700B48FDF78CF803F04AF807E021280E
:1030F00005D1084800230A22006802F08BFD002257
:103100001146CCE72802002000F800084D000020FE
:10311000480200200C0000202DE9F0413B4886B019
:10312000816941F010018161816901F01001049110
:10313000816941F020018161816901F020010491E0
:10314000816941F004018161816901F00401049108
:10315000816941F00801816180692D4F00F008000C
:1031600048F622050490002229463846FEF785FBE2
:10317000DFF8A08000224FF44E514046FEF77DFB61
:1031800000244FF46040CDE90004694622480294CF
:10319000FEF790FA0095022601250396CDE9015429
:1031A00069463846FEF786FA4FF44050CDE90005EF
:1031B000CDE9024669464046FEF77CFA28030090B6
:1031C0001648CDE9010469463846FEF773FA4020F7
:1031D000CDE90004694640460294FEF76BFA4FF4CD
:1031E0006070CDE900050320CDE902406946404604
:1031F000FEF760FA002205212820FEF7D7FB2820E1
:10320000FEF7C8FB06B0BDE8F081000000100240E8
:1032100000080140000C0140001001400000211096
:103220000E4810B50C4901604FF4827141600021D5
:103230008160C1604FF400720161C0E90512202273
:10324000C0E90721416281620A21C162FEF7CCFE1A
:10325000002800D0FEE710BD003001402803002008
:1032600010B5144886B01249016047210024C0E916
:10327000011440F2E731C0E9031444618461FFF7AF
:1032800067F800B1FEE74FF48050009069460948A6
:10329000FFF7A4F800B1FEE7049404A905480594DB
:1032A000FFF72EF8002800D0FEE706B010BD0000A2
:1032B000002C01408003002070B50F4D0F4E0024FC
:1032C000142000F029FE0E490E4801F05DF90D2290
:1032D0000D492846FDF74EFC641C322C04D900240D
:1032E0000C21304601F026FA0D210748FDF770FD4C
:1032F0000028E5D170BD000040F80008003801400A
:10330000C8180020D0160020D8180020F0B50446B8
:10331000407899B0202832D10D2221461B48FCF775
:10332000A1FF2125FF2660B3194F07222146384609
:1033300000F094FA07221549384600F081FA0D2270
:1033400021461248FCF78EFFD8B122208DF80100EB
:1033500000208DF8030068208DF8000001208DF812
:10336000020004216846FDF77DFB010A8DF8041078
:103370008DF8050000220621684601F0E1F919B038
:10338000F0BD8DF801508DF80360E4E7D8180020F7
:1033900040F80008FEE770470907090E002806DA22
:1033A00000F00F0000F1E02080F8141D704700F1DC
:1033B000E02080F80014704770B5054608480C46B8
:1033C0000068FCF715FFFCF709FF611B491CB0FB07
:1033D000F1F2BDE8704001FB12000A3000F09CBD24
:1033E0004400002030B50D4C012807D014D94FF00F
:1033F0000201A0F101002170C5B20AE04FF0010006
:10340000207009E020784FF0020101F0D3FB20701A
:10341000EDB26D1E002DF5DC004830BDA800002087
:103420002DE9F04106460D46002000F001F9DFF8D5
:1034300038804FF40047002239464046FEF71DFA17
:10344000772000F09FF9002405E0AA2000F09AF907
:103450003055641CE4B2AC42F7D339464046BDE86F
:10346000F0410122FEF709BA00080140F8B5044610
:103470000020009000F0DCF8144D4FF400460022CC
:1034800031462846FEF7F9F9152000F07BF9204671
:1034900000F078F9012231462846FEF7EEF90120C6
:1034A00000F0C6F800246F46AA2000F06BF93855EA
:1034B000641C9DF80100E4B28DF80000022CF3D3E7
:1034C000012231462846FEF7D8F9F8BD0008014030
:1034D00030B51F38C0B200EB800404EBC0050C48C7
:1034E000A1F11F03DBB2445D322C0ED2322A0CD381
:1034F00003EB830202EBC302825C944205D22844B0
:10350000012242708170104630BD002030BD0000A5
:10351000400400202DE9F843184F804607F11004BD
:1035200004F1110604F1240510213046FCF78FFE4A
:1035300010213846FCF78BFE11212046FCF787FE50
:1035400011212846FCF783FE10220D493846FCF76E
:1035500057FE0B4910221031601CFCF751FE13225C
:1035600008493046FCF74CFE2B463A463146404669
:103570000094FFF7A5FCBDE8F8830000D2170020F7
:10358000F8680008B21800207CB5264C4FF4805033
:1035900020804610244D012231462846FEF76DF961
:1035A000022000F0B9FC002231462846FEF765F9FA
:1035B0000A2000F0B1FC3601002231462846FEF711
:1035C0005CF9022000F0DEF8012000F0DBF80020BA
:1035D00000F0D8F8012000F0D5F8C92000F0D2F8AA
:1035E000C32000F0CFF8802000F0CCF80122314653
:1035F0002846FEF742F9022000F08EFC00231A460E
:1036000019466846FDF7A8FEFDF724FF202020801C
:1036100006484088A0F58841383901D001207CBD9A
:1036200000207CBD6C00002000080140C612002074
:103630002DE9F04107461C4804881C4E4FF4004514
:10364000002229463046FEF718F9442000F09AF887
:103650000EE0012229463046FEF70FF900222946E6
:103660003046FEF70AF9442000F08CF8641EA4B23C
:10367000C02000F087F8FF2802D0002CE9D109E033
:1036800044B1002F0ED129463046BDE8F041012259
:10369000FEF7F3B8012229463046FEF7EEF804495A
:1036A00002200870BDE8F0816C0000200008014095
:1036B0006600002070B50D460446FFF745F9A820C6
:1036C000FFF788F92046FFF785F92846FFF782F9CA
:1036D000BDE87040FFF75AB910B5002401228021DF
:1036E0001848FEF7CAF80A2000F016FC012117203E
:1036F000FFF7E0FF01210020FFF7DCFF3F2113204F
:10370000FFF7D8FF3F211420FFF7D4FF3F211520FA
:10371000FFF7D0FFFFF718F9A820FFF75BF90120AA
:10372000FFF758F90220FFF755F9641CE4B2122C98
:10373000F8D3FFF72BF95521BDE810401620FFF70D
:10374000B9BF0000000C01400148FEF7EBBB0000D0
:103750002803002038B50B46009204460022802141
:1037600000F022F8002804D0606D40F02000606571
:10377000032038BD10B5406A0021C187C186FEF71D
:10378000CFFB10BD01B582B04FF47A7000900123D9
:10379000034A02A90348FEF7A5FC014800780EBDC4
:1037A00060000020280300202DE9F0411D46174647
:1037B0000E460446DDF8188035E0681C33D02DB184
:1037C000FEF760F8A0EB0800A8422CD320684168FF
:1037D00021F0E00141606068B0F5827F0BD1A06804
:1037E000B0F5004F02D0B0F5806F04D120680168B9
:1037F00021F040010160A06AB0F5005F0AD12068A5
:1038000001684DF6FF72114001602068016841F4C3
:1038100000510160012084F85100002084F850001C
:103820000320BDE8F0812068806836EA000004D0FB
:103830000020B842C1D10020F3E70120F9E70000E1
:1038400010B5002306E000BF30F8024B21F813400A
:103850005B1C9BB29342F7D310BD00002DE9F05FD3
:10386000A0F1006415468A468346B4F5803F5FD2D6
:10387000FDF7F6FEA70AC4F34806C6F50074A54294
:1038800000D82C46DFF8AC904FF0006000EB8720AA
:1038900080464FF400722749FFF7D2FF00204FF611
:1038A000FF7106E0331839F813208A4203D1401C17
:1038B00080B2A042F6D3A0422ED24046FDF7DEF9F8
:1038C0004CF25030FDF728FA1B48016921F0020143
:1038D00001610020494606E03AF810208319401C97
:1038E00021F8132080B2A042F6D3124940464FF48B
:1038F000007200BF00F022F8A54215D0281B0AEB89
:10390000440A0BEB440B002685B24FF400747F1C75
:10391000A542B9D82C46B7E74CF25030FDF7FCF978
:10392000224651465846E5E7BDE8F05FFDF74EBE3A
:10393000BDE8F09FD0120020002002402DE9F041A8
:1039400016460F46054600240AE000BF37F814204B
:10395000002329460120FDF743FE641CA4B2AD1CE0
:10396000B442F3D3BDE8F08110B5044600F109017B
:1039700010221248FCF744FC1048618B2038018665
:10398000217F80F83210FFF7C5FD0E490C484A8BA5
:103990004280097F017109480B49203801F0CAF9BA
:1039A0000A49012008700A48FDF79EFD00F09AFFC1
:1039B0000748007800F086F9002010BDB2180020FA
:1039C000AC00002028020020D2170020A700002011
:1039D0006A0000202DE9F041054600242046FFF74B
:1039E00027FE0C4F4FF40046002231463846FDF7C3
:1039F00044FF04E0285DFFF7C5FE641CE4B2A8782C
:103A0000001DA042F6D831463846BDE8F0410122FB
:103A1000FDF733BF000801402DE9FC4100250446B5
:103A200000952B462A46294668460195FDF794FCE9
:103A30009DF804209DF802104848D3074FF0010676
:103A400000D0C68012074FF0030700D507710A07A0
:103A500004D504214171C580BDE8FC81CA0630D57A
:103A60000646807810B3F17831B100EB400004EBEA
:103A70000010C01CFFF7D4FCFDF7A6FC3848C17845
:103A800061704178212905D34178262906D94178EA
:103A9000482903D240783349085C2070E078C01E82
:103AA000A070207920707771F580D5E70421E01CA3
:103AB000FFF7B6FCE0780328DED9C01EC1B2E01DD6
:103AC000D8E7CA071ED00546807870B100EB4000E9
:103AD00004EB00103021C01CFFF7A2FCE87830385E
:103AE000E870A878401CA870B6E70421E01CFFF736
:103AF00097FC2C21E01DFFF793FCE0782F38E8704D
:103B0000AE70A9E78A0605D505700621417184F8D3
:103B10000453A1E789079FD501780646302910D9BB
:103B20007078302100EB400004EB001000F5A1702C
:103B300000F0F6FE7078401C7070307830383070CD
:103B40008AE7002988D0707800EB400004EB001071
:103B500000F5A17000F0E4FE35707DE76200002002
:103B6000C61200203463000810B55348FFF732FF37
:103B700051481E38FFF72EFF4F481830FFF72AFF35
:103B80004D484930FFF726FF4B486130FFF722FFD1
:103B900049481F30FFF71EFF47481938FFF71AFF43
:103BA00045486A30FFF716FF43482630FFF712FFFB
:103BB00041488630FFF70EFF3F489630FFF70AFF77
:103BC0003D483430FFF706FF3B481438FFF702FF4B
:103BD00039483B30FFF7FEFE37485930FFF7FAFE11
:103BE0003548A630FFF7F6FE33482D30FFF7F2FEDA
:103BF0003148801DFFF7EEFE2F480C30FFF7EAFE3C
:103C00002D480F38FFF7E6FE2B48AF30FFF7E2FEF6
:103C10002948B830FFF7DEFE2748C830FFF7DAFE44
:103C20002548D830FFF7D6FE23485130FFF7D2FEA3
:103C30002148E830FFF7CEFE1F487A30FFF7CAFE72
:103C40001E48FFF7C7FE1C48F330FFF7C3FE1C48B1
:103C5000FFF7C0FE1A481030FFF7BCFE18482030AE
:103C6000FFF7B8FE16483030FFF7B4FE1248423076
:103C7000FFF7B0FE11482838FFF7ACFE0F48203898
:103C8000FFF7A8FE0D481838FFF7A4FE0B481038C0
:103C9000FFF7A0FE08481230FFF79CFE06480A38DE
:103CA000FFF798FE0448401FFFF794FE0348BDE865
:103CB00010400838FDF730BB9A63000896000020DA
:103CC0009D6400087FB50025184E044602952A46DB
:103CD0004FF4005130460395FDF7CFFD012211034B
:103CE0003046FDF7CAFD00231A46194602A8FDF723
:103CF00033FB0F4E3079012815D0412C00D94124D7
:103D00000220FFF7B3FB08210320CDE90001094899
:103D100000231A46005D194600F0A2F8B570F57050
:103D200001207071002004B070BD0000000C014043
:103D300062000020F26200082DE9FF474FF0000802
:103D40001C4691460F460546CDF80880CDF80C80FC
:103D5000ADF800803F4E3079012822D0FB2C00D9ED
:103D6000FB24412F00D941273846FFF7ABFF28211C
:103D70001420FFF721FB307903280DD185F8058346
:103D800086F804803846FFF79DFF28211420FFF7AE
:103D900013FB3079032801D000200CE086F8058061
:103DA000042004B0BDE8F08719F800102A18401C60
:103DB00082F80611C0B2A042F6D3E01CE8704FF0C2
:103DC000010A2F71784085F805A080F00100A871E4
:103DD000DFF8849085F8058352464FF40051484639
:103DE000FDF74BFD00224FF480514846FDF745FD9D
:103DF0000320FCF759FE00231A46194602A8FDF7D6
:103E0000ABFA0120FFF732FB05F583793C2C08D98A
:103E1000A4F13C0030700421E81C00F081FD3C213D
:103E200006E086F800800421E81C00F079FD2146B8
:103E3000484600F075FD05207071084885F804A318
:103E4000221DC05D302100F03FF886F8018000207F
:103E5000A7E7000062000020000C0140F2620008A9
:103E60002DE9F05F8046DDE90A799B4614468A46D3
:103E70000020FFF7DDFB134E4FF4004500222946DA
:103E80003046FDF7FAFC3220FFF77CFC4046FFF796
:103E900079FC5046FFF776FC0020FFF773FCE0B298
:103EA000FFF770FC5846FFF76DFC3846FFF76AFCD9
:103EB0004846FFF767FC29463046BDE8F05F01221F
:103EC000FDF7DBBC000801402DE9F0410746144630
:103ED00088460020FFF7ACFB0E4E4FF40045002251
:103EE00029463046FDF7C9FC3120FFF74BFC384628
:103EF000FFF748FC4046FFF745FC0020FFF742FC77
:103F0000E0B2FFF73FFC29463046BDE8F041012210
:103F1000FDF7B3BC0008014070B5054600244FF41E
:103F20007A7603E0304600F021FE641CAC42F9D3FF
:103F300070BD000070B5294800684FF001034007CC
:103F400001D12748037027480188491C89B20180A4
:103F5000B1F57A7F3FD300210180401D8279521C48
:103F6000D2B282713C2A36D381714279521CD2B2CC
:103F700042713C2A2FD34171C278521CD2B2C27016
:103F8000182A28D3C170054644782D780D2C0FD2FD
:103F9000DFE804F00E070B070907090707090709FF
:103FA00007001F2204E01E2202E0AA0714D01C22F0
:103FB0008678761CF6B2867096420CD9641CE2B202
:103FC000837042700C2A06D96D1CEAB243700270ED
:103FD000642A00D3017070BD1D22E9E7440000206F
:103FE0004C000020AC00002010B5FDF751FCBDE8EE
:103FF000104000F0A5BF30B58FB001210804CDE915
:1040000000100024029402250491CDE907504FF4DA
:10401000E01009906846FDF701FE00B1FEE70F20B1
:10402000CDE90A054FF48060CDE90C4002210AA8D1
:104030000E94FDF7EDFC00B1FEE7FDF793FD4FF4A4
:104040007A71B0FBF1F0FEF745F90420FEF736F97E
:1040500000220F21501EFDF7A9FC0FB030BD00005B
:104060000D48016841F00101016041680B4A1140AF
:10407000416001680A4A11400160016821F4802111
:104080000160416821F4FE0141604FF41F0181602D
:104090000449C00308607047001002400000FFF8A8
:1040A000FFFFF6FE08ED00E00148FEF711BA000040
:1040B00080030020F0B50268164B174C174D4FF0E7
:1040C0008047984205D0B84203D0A04201D0A84210
:1040D00003D122F070064A683243984205D0B842B4
:1040E00003D0A04201D0A84203D122F44074CA6890
:1040F000224322F080044A69224302608A68C26235
:104100000A688262984201D1096901630121416113
:10411000F0BD0000002C01400004004000080040F9
:1041200010B5846842EA032224F47F440A43224300
:10413000826010BD826822F070020A4342F00701DB
:104140008160704710B5036A046A24F001040462B8
:10415000846924F0F00444EA021423F00A020A43BA
:104160008461026210BD10B5036A23F0100303627C
:104170008369046A23F4704343EA023224F0A00303
:1041800043EA01118261016210BD00002DE9F05F78
:104190000126DFF8F0A03C4D3C4C4FF400594FF4A1
:1041A000804B00274FF4004808B1267001E02078CA
:1041B00098B141462846FDF75BFBA8B14946284621
:1041C000FDF756FB80B140215046FDF751FB58B139
:1041D00059462846FDF74CFB30B141462846FDF7CD
:1041E00047FB012822D033E00A20FFF795FE277015
:1041F00041462846FDF73CFB78B149462846FDF785
:1042000037FB68B140215046FDF732FB50B15946AB
:104210002846FDF72DFB38B11AE00120BDE8F09FDC
:104220000220FBE70420F9E70820F7E74946284683
:10423000FDF71EFB01280BD140215046FDF718FB6E
:10424000012805D159462846FDF712FB01280FD059
:1042500041462846FDF70CFB01280FD06088401C22
:1042600080B26080B0F5487F09D967801120D5E71A
:10427000207826700028EBD10620CFE76780002049
:10428000CCE70000000C014000100140BC00002001
:1042900010B5406A0021C185C184FEF700FA10BD47
:1042A0000168CA6822F49072CA6001684A6922F003
:1042B00001024A61202180F83A10704710B590F849
:1042C0003A10222901D0022010BD8168B1F5805F2B
:1042D00011D00169002901681FD0496801F07F03EE
:1042E000816A4A1C82620B70C18D491E0904090C47
:1042F000C18518D02BE00269816A002A02685268E1
:1043000005D0D2B20A80816A491C8162ECE7C2F30F
:1043100008020A80816A891CF7E74A68816A4B1C97
:1043200083620A70E0E70168CA6822F02002CA606E
:104330000168CA6822F48072CA6001684A6922F082
:1043400001024A61202180F83A10FEF7EBFA0020C2
:1043500010BD00002DE9F041044600680169E268E3
:1043600021F44051114301612169A068084361694A
:1043700008432168CA6841F20C639A430243CA6049
:1043800020684169A26921F44071114341614C499F
:1043900020686425322688423CD1FDF7F9FB00EB0A
:1043A000C00101EB001061688900B0FBF1F7FDF777
:1043B000EFFB00EBC00101EB00106168B046890023
:1043C000B0FBF1F0B0FBF5F06FF01801484307EBDC
:1043D000800106EB0110B0FBF5F000F0F006FDF7F0
:1043E000D7FB00EBC00101EB001061688900B0FB56
:1043F000F1F0B0FBF5F006EB0016FDF7C9FB00EBA2
:10440000C00101EB001061688900B0FBF1F7FDF716
:10441000BFFB3BE0FDF7ACFB00EBC00101EB001084
:1044200061688900B0FBF1F7FDF7A2FB00EBC0016A
:1044300001EB00106168B0468900B0FBF1F0B0FB01
:10444000F5F06FF01801484307EB800106EB01100F
:10445000B0FBF5F000F0F006FDF78AFB00EBC001C1
:1044600001EB001061688900B0FBF1F0B0FBF5F0E2
:1044700006EB0016FDF77CFB00EBC00101EB001022
:1044800061688900B0FBF1F7FDF772FB00EBC0013A
:1044900001EB001061688900B0FBF1F0B0FBF5F0B2
:1044A0006FF01801484307EB800108EB0110B0FBE7
:1044B000F5F0216800F00F0030448860BDE8F0811D
:1044C0000038014090F83910212901D002207047AE
:1044D0008168B1F5805F016A0BD04A1C02620268F4
:1044E00009785160C18C491E0904090CC1840ED0A1
:1044F00017E009880268C1F30801516001690029C9
:10450000016A02D0491C0162ECE7891CFBE70168E3
:10451000CA6822F08002CA600068C16841F04001A8
:10452000C16000207047000010B50948FEF7BEF8D2
:104530000748FEF7BBF80648FEF7B2F82028FAD184
:10454000012204490248FEF7C3F90028F8D110BD42
:10455000C00300204E00002010B50948FEF7A6F861
:104560000748FEF7A3F80648FEF79AF82028FAD184
:10457000012204490248FEF7ABF90028F8D110BD2A
:10458000000400204F00002070B54C4A0546841CF2
:10459000C6B007CA43AB83E8070028780D2874D15A
:1045A0006978A81CFCF714FC002805D120780126A6
:1045B000AC2802D068286AD07BE0A079010678D4C4
:1045C00061793F4A01F00F011170C2064FEA007095
:1045D00005D400286DDB2046FEF732FD69E0002897
:1045E00067DB38480022C170B4F809100180E17A15
:1045F000817003210171467111462046FCF7B6FB1C
:10460000607910F0600FE07900F10B0005D0C1B2C5
:1046100000222046FCF7B4FA00E0C0B26870032222
:10462000294904F10900FBF71DFE60B1607843AA37
:104630001F38C0B200EB800101EBC00123480B180A
:104640000020597809E000230A222946204818E072
:104650001E18B6781654401CC0B28842F8D3CDE973
:1046600000216A78607802ABA91CFCF7CFFB1949DE
:1046700000230A2209788DF809118DF808011648DF
:1046800002A9006801F0C6FA13E014E0FFE7A81CD5
:10469000FEF73CFE1249114851F8032FC0F80120E3
:1046A0004968C0F80510067001460F220D48FFF753
:1046B000D5F80020287046B070BD0000D062000818
:1046C000040000203C0000201C6900084004002079
:1046D000140000206A00002018000020280200209A
:1046E000D818002000F800082DE9F0410024DFF878
:1046F000408017460D4606462346621E2146D8F8DE
:10470000000001F08DF907E015F8010B316849064A
:10471000FCD57060641CE4B2BC42F5D3D8F800004C
:10472000BDE8F04100231A46194601F073BA0000B3
:104730001C00002002685206FCD541607047000052
:104740000A4610B501460248FFF7CEFF002010BD13
:10475000003801402DE9F04791F800C04F4C00228D
:104760008B1C257803266D1C0B274FF0060A4FF093
:104770000D09EDB2BCF10D0F1CD2DFE80CF0071DE6
:10478000272E3546515B676E78838A000123AC285B
:1047900006D068280ED1887081F80131082076E0B3
:1047A0003F4D2D78002D05D088704B70227081F818
:1047B00001310B70BDE8F0874A78D0544878401C2E
:1047C00048702570042DF5D3022060E04A78D0545B
:1047D0004878401C48700E70ECE74A78D05448780E
:1047E000401C4870042052E0E42803D981F80121DC
:1047F0000A70DFE74D78E8544B785B1C4B702270F1
:1048000008B1052043E0504641E04E78F054487826
:10481000401C48702570487A8542CBD32270F2E75D
:104820004A78D0544878401C48702570022DC1D376
:1048300007202CE05328D9D14C78E0544878401C0C
:1048400081F8010081F80121484620E0B02801D01C
:104850002028CBD1C870092019E028B12028C5D85C
:1048600008714E700A2012E008714E7008E04A7814
:10487000541C4C70D05408794A78C01C824299D399
:104880000F7097E74A78541C4C70D0540C20087075
:1048900090E74C78651C4D70E054D3E76100002030
:1048A000A6000020FEE7000070B50446C01DFCF71E
:1048B000A5FC0A4D01280BD02878FFF703FA084819
:1048C0000078002809D12878BDE87040FFF7FAB9D0
:1048D000A178E01DFCF762FBF1E770BD6A000020E3
:1048E0006700002010B5032401E0641EE4B2FEF767
:1048F0004BFE10B1002CF8D104E01CB1FFF734F9E5
:10490000002010BD0449012008710246C10203487D
:10491000FCF7B3FF012010BD620000200008014039
:104920002DE9F04106460D460020FEF781FEDFF836
:1049300038804FF40047002239464046FCF79DFF7F
:104940006620FEF71FFF002404E0305DFEF71AFF2B
:10495000641CE4B2AC42F8D339464046BDE8F041AD
:104960000122FCF78ABF000000080140014A024909
:1049700000F013B8A14B00082401002002E008C891
:10498000121F08C1002AFAD170477047002001E0C9
:1049900001C1121F002AFBD170472DE9F0411646D4
:1049A0000F460446002503E03946B047641C6D1CE1
:1049B00020780028F8D12846BDE8F081F0B5002322
:1049C0005FEA021505EB8302C65C8C5C7440C4543C
:1049D0005418C218667817795B1C7E401671A67849
:1049E000177ADBB27E401672E478167B744014733B
:1049F000042BE7D3F0BD0000FFB516460D4600229C
:104A00006C46002102EB810301EB8207491CC35C69
:104A1000C9B2E3550429F5D3521CD2B2042AF0D30B
:104A2000002231462046FFF7C9FF0127684600F003
:104A30008FFD684600F06EFD684600F04DFA3A467C
:104A400031466846FFF7BAFF7F1CFFB20A2FEDD34D
:104A5000684600F07DFD684600F05CFD0A223146A4
:104A60006846FFF7ABFF00205FF0000101EB80021A
:104A700000EB8103491CA25CC9B2EA540429F5D3B6
:104A8000401CC0B20428EFD3FFBD10B503780C78EA
:104A90006340137043784C786340537083788C780C
:104AA00063409370C078C9784840D07010BDF0B5AD
:104AB0000C46054616460978007800F07BF8074654
:104AC0006178E87800F076F84740A178A87800F09F
:104AD00071F84740E178687800F06CF8474037702B
:104AE0002178687800F066F807466178287800F049
:104AF00061F84740A178E87800F05CF84740E17839
:104B0000A87800F057F8474077702178A87800F02F
:104B100051F807466178687800F04CF84740A17872
:104B2000287800F047F84740E178E87800F042F84C
:104B30004740B7702178E87800F03CF80746617884
:104B4000A87800F037F84740A178687800F032F88C
:104B50004740E178287800F02DF84740F770F0BD25
:104B600001490860704700000000002070B54FF058
:104B7000E024002265690949A36909684843A169DD
:104B80009942FCD002D2A3EB010302E0A5EB01069F
:104B900033441A440B468242F1D370BD000000201A
:104BA0000349C2B20B685B06FCD54A60704700003F
:104BB0000038014010B500231A46CC0700D043400E
:104BC00010F0800F4FEA40604FEA106001D080F093
:104BD0001B00521C4908D2B2082AEED3184610BD59
:104BE000FFB516460D4600226C46002102EB8103FC
:104BF00001EB8207491CC35CC9B2E3550429F5D314
:104C0000521CD2B2042AF0D30A2231462046FFF7C2
:104C1000D5FE0927684600F055F8684600F070F8A0
:104C20003A4631466846FFF7C9FE684600F022F86A
:104C30007F1E17F0FF07EDD1684600F043F8684685
:104C400000F05EF8002231466846FFF7B7FE00200C
:104C50005FF0000101EB800200EB8103491CA25CC4
:104C6000C9B2EA540429F5D3401CC0B20428EFD3DA
:104C7000FFBD0000FEB5054611A00024006801AE8E
:104C800002AF00905FF0000004EB8001695C3154DA
:104C9000401CC0B20428F7D302AA01A96846FFF756
:104CA00006FF002004EB8002395C401CC0B2A9540E
:104CB0000428F7D3641CE4B2042CE3D3FEBD000047
:104CC0000E090D0BF0B50121002300EB81040FE06C
:104CD000E578032202EB81063718521E17F8017C93
:104CE000875512F0FF02F5D15B1C00F82150DBB2B2
:104CF0008B42EDD3491CC9B20429E5D3F0BD0000B5
:104D000070B50B4E0022002101EB8204491C055DA9
:104D1000C9B22B0905F00F0505EB03130429F35C59
:104D20000355F1D3521CD2B2042AECD370BD00005B
:104D3000D7650008F8B50E462C27002106EB810345
:104D400010F8212006F8212000EB8102491C54783C
:104D50005C7094789C70D278C9B2DA700429EDD373
:104D60005FF0040506EB850414F8040C8DF80000D0
:104D700014F8030C8DF8010014F8020C8DF80200F1
:104D800014F8010C8DF80300A8070DD1684600F057
:104D9000B5FB684600F0F6FBA808FEF723FB0146CA
:104DA0006A461046FFF771FE14F8100D9DF80010CA
:104DB000484006F8250060789DF801106D1C4840B9
:104DC0006074A0789DF80210EDB24840A074E078BD
:104DD0009DF803104840E074BD42C3D3F8BD000005
:104DE000FCF75EFDFFF707F94820FFF7B9FEFEF775
:104DF00093F92F482D49002401604FF41641C0E972
:104E000001140C25C460C0E904458461C461FDF748
:104E1000D5FC00B1FEE726482649403001604FF43A
:104E2000E131C0E90114C460C0E904458461C46192
:104E3000FDF7C4FC00B1FEE7FEF7F2F9FEF710FA49
:104E40001B484038FDF7BEFA01221B491848FDF700
:104E50003FFD194916480122491C4030FDF738FD35
:104E6000FEF73AFCFEF728FAFBF71CFA0F2213496B
:104E70001348FEF7E5FC1349104851F8032F40F89A
:104E8000012F496841600D48FEF76EFDFBF72AFED1
:104E90000D48FCF729FBFFF725FD0B480078FEF7CE
:104EA00011FFFBF72BFC00F046F8FEE7003801404D
:104EB000C0030020004400404E00002028020020D3
:104EC00000F80008D81800206A00002001460020E1
:104ED000842900D0C81C7047FEB5054611A00024E7
:104EE000006801AE02AF00905FF0000004EB8001AB
:104EF000695C3154401CC0B20428F7D302AA01A94E
:104F00006846FFF7D4FD002004EB8002395C401CAA
:104F1000C0B2A9540428F7D3641CE4B2042CE3D330
:104F2000FEBD00000201010310B500B9012000F030
:104F3000EFFB002010BD10B500F082FC002010BD7A
:104F400010B500F0DFFF012803D0BDE8104000F0ED
:104F50001BBD10BD3EB504460D46B0F90800FFF775
:104F6000B5FF02A9CDE90001208A2B4682B2D4E91F
:104F7000001000F035FF012801D000203EBD02984E
:104F80003EBD00002DE9F041184C0F460546E6688D
:104F90002068001D00F006FB38B9206890F82C103E
:104FA00001208840216981432161681C07D137B104
:104FB0002168BDE8F0410E48091D00F02BBB2068B8
:104FC0003544B5424560216805D2A06BBDE8F0418B
:104FD000091D00F007BB606B091D00F003FBA06A10
:104FE000854200D2A562BDE8F0810000E400002007
:104FF000D84100202DE9F041054600F017FB2E4C6A
:10500000A068401CA06020682C4F10B1606940B3BC
:105010002DE02560A068012829D1002606EB860036
:1050200007EB800000F0D0FA761C082EF6D3234858
:10503000A03000F0C9FA2148B43000F0C5FA1F488A
:10504000C83000F0C1FA1D48DC3000F0BDFA1B4842
:10505000F03000F0B9FA1948A03060631430A06352
:1050600005E02068E96AC06A884200D82560606A65
:10507000401C6062E96A0120226988401043206177
:1050800001EB810007EB8000291D00F0C3FA00F05E
:10509000EDFA606900280CD02068E96AC06A88428D
:1050A00007D207494FF080500860BFF34F8FBFF31E
:1050B0006F8FBDE8F0810000E4000020E840002090
:1050C00004ED00E070B5114E114C17E000F0ECFB60
:1050D0003068B8B101F054F800F0A8FAF068C5687B
:1050E000281D00F05FFAA068401EA0606068401EA6
:1050F000606000F0BBFA284600F055F860680028B0
:10510000E4D170BD01F03CF8F8E70000C441002094
:10511000E400002030B4026C0B46002A0BD0C168BA
:105120001144C1604468A14201D30168C16030BC30
:105130001846FBF765B830BC70472DE9F041856B28
:10514000174604460026026C82B1C7B1E068FBF73F
:1051500057F8E168206C091AE1602268914202D296
:105160006168081AE060022F16D017E02068A8B91D
:10517000606800F07FFF0646002060600EE0A068D7
:10518000FBF73EF8216CA0680844A0606168884283
:1051900004D32068A06001E005B16D1E6D1CA563FD
:1051A0003046BDE8F08110B50446006B00F072FA9D
:1051B0002046BDE8104000F06DBA000010484FF4E2
:1051C0002051420706D0C01D0D4920F00700411AAA
:1051D000C1F520510B4A00230144C2E900030839FC
:1051E000103A21F0070111604B600B600B1AC0E907
:1051F000001393604FF000405360D0607047000090
:10520000E5180020D0000020074C4FF08056074DD5
:10521000FFF758FF20680128FAD92E60BFF34F8F9F
:10522000BFF36F8FF4E70000E840002004ED00E0DA
:105230002DE9F0470E46DDE90984174682469100C4
:105240009946089DA522206BFAF7FAFF6FF003013B
:10525000206B01EB8701084420F00707780707D08F
:10526000502080F31188BFF34F8FBFF36F8FFEE79D
:105270002218315C82F83410315C11B1401C1028C6
:10528000F6D3002684F84360082D00D30725E56295
:10529000C4E91156201D00F0A2F904F1180000F035
:1052A0009EF92461C5F108006462A061E66484F897
:1052B00050604A465146384600F00EF92060B8F179
:1052C000000F01D0C8F80040BDE8F08730B51149A3
:1052D00000E011460A688242FBD34B685C188442A6
:1052E00003D1406818444860084643681C1894423B
:1052F00009D1084C103C2468A24209D052681A44D3
:1053000042600A6812680260814200D0086030BDC5
:105310000460F9E7D000002010B5044600F086F9DB
:10532000A06B28B15FF0000400F0A0F9204610BD8A
:105330000124F9E70648416B096829B1416BC96846
:10534000C9684968816270474FF0FF31FAE7000091
:10535000E400002008484068401C4FF0500080F3F3
:10536000118804D0BFF34F8FBFF36F8FFEE7BFF3F9
:105370004F8FBFF36F8FFEE7D80000202DE9F0417B
:10538000044600F053F994F9455004F1240609E06D
:10539000606A48B1304600F0B9FE08B100F0DEF9AD
:1053A0006D1E6DB2002DF3DC4FF0FF3684F84560C2
:1053B00000F05CF900F03AF994F9445004F1100758
:1053C00009E0206948B1384600F0A0FE08B100F0BD
:1053D000C5F96D1E6DB2002DF3DC84F84460BDE8A4
:1053E000F04100F043B900002DE9F04105460027E7
:1053F00000F05AFA314E306808B9FFF7DFFEF06866
:1054000005424BD1C5B3083568070ED005F007003B
:10541000C0F108000544680707D0502080F31188C8
:10542000BFF34F8FBFF36F8FFEE72DB370688542D8
:1054300034D82248103001460C6801E020460C4662
:105440006168A94202D221680029F7D131688C42F3
:1054500024D007682168016060680837411B102963
:105460000FD96019420708D0502080F31188BFF38C
:105470004F8FBFF36F8FFEE710E041606560FFF76D
:1054800025FF61687068401A7060B268904200D26F
:10549000B060F06801430020C4E9000100F070FE34
:1054A000780707D0502080F31188BFF34F8FBFF3E8
:1054B0006F8FFEE73846BDE8F0810000C000002095
:1054C0000449086818B10868826C521C8264086834
:1054D00070470000E400002010B5031F4FF08074F7
:1054E0001C601B1F21F001011960191F024B0B608A
:1054F000143940380A6010BD555300080278002165
:1055000043185B784354491CC9B20329F8D3C270CD
:1055100070470000F0B50121002300EB810410E08A
:1055200010F821505FF0010202EB8106521C875DEA
:105530000644D2B206F8017C042AF5D35B1CE57060
:10554000DBB28B42ECD3491CC9B20429E4D3F0BDD1
:1055500070B50B4E0022002101EB8204491C055D51
:10556000C9B22B0905F00F0505EB03130429F35C01
:105570000355F1D3521CD2B2042AECD370BD000003
:10558000D764000810B5064B0021425C140964F38F
:105590001F129A5C4254491CC9B20429F5D310BDAC
:1055A000D7640008D0E9013201699A60D0E901238B
:1055B0005A604A68824201D182684A6000220261D0
:1055C0000868401E0860704700F108014FF0FF3284
:1055D000C0E90112C1600161002101607047002132
:1055E0000161704730B50B685A1C02D000F1080207
:1055F00002E0026904E02246546825689D42FAD917
:1056000053684B6099608A60516008610168491C69
:10561000016030BD42684A6093688B60936859604E
:10562000916008610168491C01607047502080F357
:105630001188BFF34F8FBFF36F8F0A494868401C32
:10564000486001280CD10848006810F0FF0F07D00F
:10565000502080F31188BFF34F8FBFF36F8FFEE7A9
:1056600070470000D800002004ED00E008494868B9
:1056700028B1401E486001D180F311887047502046
:1056800080F31188BFF34F8FBFF36F8FFEE70000E9
:10569000D800002070B5002827D0144DA0F10804D0
:1056A0006168E868014207D1502080F31188BFF398
:1056B0004F8FBFF36F8FFEE722683AB1502080F31F
:1056C0001188BFF34F8FBFF36F8FFEE78143616097
:1056D00000F0EAF860686968084468602046FFF7EF
:1056E000F5FDBDE8704000F04BBD70BDC00000206E
:1056F00006484FF47A710068B0FBF1F14FF0E020FA
:10570000491E416107210161704700005C000020D3
:1057100010B5020014D00F48006B38B1502080F350
:105720001188BFF34F8FBFF36F8FFEE700F0BCF817
:1057300000211046FFF726FC00F022FD002807D1CB
:1057400005494FF080500860BFF34F8FBFF36F8F54
:1057500010BD0000E400002004ED00E0014901203C
:10576000C8617047E400002010B50C4650B10949EB
:1057700009681831FFF736FF2046BDE810400121C7
:10578000FFF700BC502080F31188BFF34F8FBFF3A9
:105790006F8FFEE7E400002070B5040039D01D4D86
:1057A000E06A2968C96A884233D2A069002804DB0C
:1057B0002868C06AC0F10800A061E16A164E01EBDA
:1057C0008101606906EB810188421FD1201DFFF72E
:1057D000E9FE012150B9E06A00EB800256F8222070
:1057E00022B92A6901FA00F082432A612868C06A56
:1057F000E0622A6981401143296100EB800006EBD9
:105800008000211DBDE87040FFF704BF2868C06A12
:10581000E06270BDE4000020E840002028B10749A4
:105820000A6A0260C96841607047502080F311889D
:10583000BFF34F8FBFF36F8FFEE70000E40000203F
:105840001CB515480024CDE900402346402213A191
:10585000144800F0C5FA012809D0401C1AD1502084
:1058600080F31188BFF34F8FBFF36F8FFEE7502097
:1058700080F31188BFF34F8FBFF36F8F06484FF04F
:10588000FF312C38816201214161C460BDE81C40B8
:1058900000F040B81CBD00001001002049444C45F8
:1058A00000000000095200080248016B491C016316
:1058B00070470000E40000201448016B11B1012181
:1058C000C16170470021C1610169B1FA81F1C1F183
:1058D0001F0101EB81020E4951F822306BB101EB3F
:1058E000820101F108034A6852684A609A4201D174
:1058F00052684A60D16801607047502080F3118877
:10590000BFF34F8FBFF36F8FFEE70000E40000206E
:10591000E84000201CB5194908780190FF20087064
:1059200008788DF800009DF80000154A00F050003E
:1059300010700720906005E09DF800305B008DF846
:105940000030401E9DF800301B06F5D4000200F424
:10595000E0609060019808700A48016841F47001A5
:105960000160016841F070410160FFF7C1FE002055
:105970005060FAF7D7FB00201CBD000000E400E0F7
:10598000D800002020ED00E010B5502080F31188F1
:10599000BFF34F8FBFF36F8F00F0C2FA18B1044905
:1059A0004FF080500860002080F3118810BD000087
:1059B00004ED00E010B502460021012000F00CF8D3
:1059C000041E07D00021416001600B460A46C160F9
:1059D00000F020F9204610BD70B50E46050013D02A
:1059E000D6B105FB06F04830FFF7FEFC040009D0F5
:1059F00004F1480120468EB10160C0E90F56012133
:105A000000F0C4F8204670BD502080F31188BFF329
:105A10004F8FBFF36F8FFEE70020E4E70060ECE7F5
:105A20002DE9FF4F002683B09B468A46040003D031
:105A3000BAF1000F08D011E0502080F31188BFF3B5
:105A40004F8FBFF36F8FFEE7206C38B1502080F38B
:105A50001188BFF34F8FBFF36F8FFEE700F052FA4C
:105A6000DFF824814FF000094FF0805748B90598BE
:105A700038B1502080F31188BFF34F8FBFF36F8F81
:105A8000FEE7FFF7D3FDA56B45B351462046E66818
:105A9000FFF740FBBBF1000F13D0E660606A50B126
:105AA00004F1240000F032FB28B1C8F80070BFF305
:105AB0004F8FBFF36F8FFFF7D9FD012007B0BDE80F
:105AC000F08F6D1EA563206810B9FFF7F9FC6060C8
:105AD00020690028EFD004F11000E3E7059808B131
