:020000040800F2
:100000000048002099010008CF370008672D00083C
:10001000CD370008D10B0008954D00080000000006
:1000200000000000000000000000000001010008C6
:10003000510C000800000000450100085944000868
:10004000B3010008B3010008B3010008B3010008C0
:10005000B3010008B3010008B3010008B3010008B0
:10006000B3010008B3010008B3010008B3010008A0
:10007000B3010008B3010008B3010008B301000890
:10008000B3010008B3010008B3010008B301000880
:10009000B3010008B3010008B3010008B301000870
:1000A000B30100081D450008B3010008B3010008B2
:1000B000B3010008B3010008B3010008B301000850
:1000C000B3010008B3010008B3010008B301000840
:1000D000B30100089D490008CD490008B30100089C
:1000E000210D0008B3010008B3010008DFF80CD0AF
:1000F00000F0C6F8004800472554000800480020DA
:10010000224B19680868B0E8F00F80F30988BFF344
:100110006F8F4FF0000080F311884EF00D0E704786
:100120000000000006480068006880F3088862B696
:1001300061B6BFF34F8FBFF36F8F00DF00BF00BF0B
:1001400008ED00E0EFF30980BFF36F8F0F4B1A68E3
:1001500020E9F00F106008B54FF0500080F31188CF
:10016000BFF34F8FBFF36F8F05F02AFF4FF00000F2
:1001700080F31188BDE8084019680868B0E8F00FFE
:1001800080F30988BFF36F8F704700BFF000002035
:10019000EFF3058070470000064880470648004797
:1001A000FEE7FEE7FEE7FEE7FEE7FEE7FEE7FEE727
:1001B000FEE7FEE7D5440008ED000008202A04DB36
:1001C000203A21FA02F00021704721FA02F3D040D0
:1001D000C2F1200291400843194670470649074A78
:1001E0000868504343F239021044086040087047E1
:1001F00001490860704700002C0100206D4EC64187
:1002000010B5431A934209D28318881803E010F8F6
:10021000011D03F8011D521EF9D210BD40EA010371
:100220009B0703D009E008C9121F08C0042AFAD2AC
:1002300003E011F8013B00F8013B521EF9D210BD5A
:10024000D2B201E000F8012B491EFBD27047002218
:10025000F6E710B513460A4604461946FFF7F0FFC5
:10026000204610BD30B504460020034600E05B1C6C
:10027000934203D2E05CCD5C401BF8D030BD00005F
:10028000064C074D06E0E06840F0010394E80700E3
:1002900098471034AC42F6D3FFF72CFFF0720008F9
:1002A0001073000870B58C1810F8015B15F0070387
:1002B00001D110F8013B2A1106D110F8012B03E0FF
:1002C00010F8016B01F8016B5B1EF9D12B0705D407
:1002D0000023521E0DD401F8013BFAE710F8013B50
:1002E000CB1A921C03E013F8015B01F8015B521E6C
:1002F000F9D5A142D8D3002070BD000010B51B2253
:100300000649074800F010FD06490120087003481F
:100310001321BDE810402030FFF799BF12190020CB
:1003200000F80008AE0000201CB500242646254633
:1003300002F078FE384F4FF0FF3905236A464946F0
:10034000002006F0ADFA012816D1009810280ED032
:1003500006DC012809D002280DD004280CD108E0C1
:10036000202808D0402807D103E0062404E0072411
:1003700002E0052400E009240023052201A9B86851
:1003800005F0AAFF012805D19DF80400040900F03A
:100390000F0800260A2C37D2DFE804F0050B1218EC
:1003A0001F252F332C2C02F0B7FD00254FF40044FD
:1003B0002AE00A221421194802F008FE012523E050
:1003C000404602F0B7FD0225C2461DE003250A2281
:1003D0000221404602F03AFE16E01E214FF4407022
:1003E00002F0AFFE10E0404602F0D4FD761CF6B2FB
:1003F000642E09D92C46D04606E0022002F06EFE9B
:1004000002E0022002F083FE0221F86B05F013FEE9
:10041000012005F0D1F890E70400002055540100B8
:10042000ADF5087D7448DFF8D4B14FF0FF384FF0D8
:100430000A094FF4487A859000234746424602A9AC
:100440005D46DBF8100005F047FF012819D10DF1DA
:100450001601869185999DF80B200DF10A044978C3
:1004600091420FD185982A78417962F30301417155
:10047000859801F081F9A870014600225E4804F0D9
:10048000D7FBB4E00026B846AB4660799BF8001075
:1004900002AD61F3030060715F46A81C01F06CF9C6
:1004A00000218DF8090000910246019143ABA91C7F
:1004B000869800F027FF8DF80C02022384AA41469B
:1004C000002006F0EDF98DF80D9200230A2243A9D1
:1004D000786805F0FBFF534684AA4146002006F0E9
:1004E000DFF9012802D18498022872D03978607926
:1004F000BB4661F3030060719DF809208DF80C2262
:100500008DF80D920DF10A0143A8FFF779FE9DF8D1
:100510000910012383AA43A800F0EEFD022384AA58
:1005200045464146002006F0BBF900230A2243A9B4
:10053000786805F0CBFF534684AA2946002006F0D0
:10054000AFF9012802D18498022842D0761CF6B275
:10055000032E9AD3849802283BD0002635E03044FD
:100560006178807F88422ED08DF81C02012187A8F7
:10057000CDE900019DF8092043AB0DF10A018698F1
:1005800000F0C0FE8DF80C025FF000078DF80D92B0
:1005900000230A2243A9DBF8040005F097FF534625
:1005A00084AA2946002006F07BF9012802D184990B
:1005B00002290ED07F1CFFB2022FE7D3012802D1FF
:1005C0008498022805D0761CF6B20D48417FB142CE
:1005D000C5D80023012202A95C46DBF8100005F013
:1005E0007BFE0023012202A9206905F075FE01208F
:1005F00004F0E2FF20E700003401002004000020A6
:1006000099020020134DC2B04FF0FF364FF4FA7735
:10061000002332466946686905F05EFE012814D160
:10062000022400230A226946686805F04FFF3B4612
:1006300041AA3146002006F033F9012802D1419841
:10064000022802D0641EE4B2EBD2012004F0B4FF11
:10065000DEE7000004000020CCB00026DFF84CB13B
:10066000DFF84CA149963546CDF8206147F230506D
:1006700004F0A2FF002493E002EB04098DF824614A
:1006800099F81E0000EB800101EBC00349495F1897
:10069000A7F5805191F86E3E83B100210DF5907C55
:1006A0000AE000BF07EB0108A8F5805898F86F8EA4
:1006B0000CF80180491CC9B29942F3D30DF590782A
:1006C000CDE9008302AB012249A901F001F88DF8C0
:1006D00008019BF800008DF809010023642202A99B
:1006E000DAF8040005F0F2FE4FF47A7347AA4FF0EF
:1006F000FF31002006F0D4F801280DD00CB1641EA3
:10070000E4B26D1CEDB2022D48D900258DF82461AC
:1007100001202F4644903BE099F81E0047998842FB
:100720003CD100254FF4FA7004F046FF36E000BFDC
:1007300001EB0409394499F81F00897F884225D0CC
:10074000449A8DF82011CDE9008202AB012249A91B
:1007500000F0BEFF8DF808019BF800008DF809013C
:100760000023642202A9DAF8040005F0AFFE4FF47A
:100770007A7347AA4FF0FF31002006F091F8012864
:1007800004D199F81F004799884205D07F1CFFB219
:100790000949487FB842CBD8641CE4B2641CE4B277
:1007A000054A507FA0427FF661AF65E772000020E6
:1007B00004000020BC0400209902002030B54FF452
:1007C0008175A9B000222946052005F061FD524C33
:1007D000002201216060022005F05AFDA060002285
:1007E0000421022005F054FDE0600022294601208A
:1007F00005F04EFD206100222946012005F048FD4C
:100800006061012005F032FD00231A461946A061FF
:1008100005F05CFE142241496846FFF7F1FC3F49B0
:100820001422143105A8FFF7EBFC3C4914222831AF
:100830000AA8FFF7E5FC394914223C310FA8FFF75D
:10084000DFFC36491422503114A8FFF7D9FC334994
:100850001422643119A8FFF7D3FC304914227831EF
:100860001EA8FFF7CDFC2D4914228C3123A8FFF7D9
:10087000C7FC05F0D3FBE06310B929A004F02AFB04
:100880000021684604F0AEFE606310B92CA004F0AD
:1008900021FB002105A804F0A5FEE06110B92FA0FE
:1008A00004F018FB00210AA804F09CFE206210B995
:1008B00030A004F00FFB00210FA804F093FE60624B
:1008C00010B932A004F006FB002114A804F08AFE3F
:1008D000A06210B933A004F0FDFA002119A804F0B9
:1008E00081FEE06210B936A004F0F4FA00211EA8DF
:1008F00004F078FE206310B938A004F0EBFA002170
:1009000023A804F06FFEA063002802D139A004F0F0
:10091000E1FA29B030BD000004000020746B00082B
:1009200078495744475F4576656E7447726F7570B6
:1009300020437265617465204572726F7200000019
:100940004E65744372656174655461736B204372C4
:1009500065617465204572726F7200005561727432
:100960005461736B20437265617465204572726FC8
:10097000720000004C65645461736B2043726561C2
:100980007465204572726F7200000000546F7563C9
:10099000685461736B20437265617465204572729F
:1009A0006F720000576972656C6573735461736B85
:1009B00020437265617465204572726F7200000099
:1009C0005375706572766973655461736B204372F9
:1009D00065617465204572726F72000052657472B1
:1009E000795461736B20437265617465204572723E
:1009F0006F720000495744475F5461736B20437224
:100A000065617465204572726F7200002B4E00257F
:100A1000002003F0F5FD040047D0062C23D006DCAF
:100A2000012C09D0022C0FD0042C3DD108E0082C59
:100A30000AD0112C38D10BE000230322012130E031
:100A40000023032210212CE0210904F00F0022E0F2
:100A5000002303224FF48071306A05F049FE21091A
:100A600005F00F0017E0012D04D0042D0BD0112D3F
:100A700014D019E0002303220221306A05F038FE69
:100A80000021012007E0002303222021306A05F025
:100A90002FFE0021042002F005FA05E000230322C6
:100AA0000221306A05F024FE25460421F06B05F092
:100AB000C2FA0A2004F080FDAAE70000040000202A
:100AC000064C0749074803F099FF0121E06B05F048
:100AD000B2FA082004F070FDF3E7000004000020E3
:100AE0004819002050170020274C284E284DC2B02E
:100AF000002305226946686805F0EEFB01281DD138
:100B0000322004F059FD9DF8000069280ED19DF8AF
:100B1000010069280AD19DF80200462806D29DF8F6
:100B200000110123684640AA00F042FB9DF8003105
:100B30009DF801116A46174803F036FB2078032818
:100B400009D11549134804F027F92078032802D168
:100B5000307803F0EFFA2078062803D020780428B4
:100B600003D008E00020207002E0C82003F00CFC55
:100B7000307803F0DFFA0821E86B05F05CFA012019
:100B800004F01AFDB4E700006F000020720000209E
:100B900004000020401000204819002008B50A4D2C
:100BA0004FF47A74012300941A460F21E86B05F084
:100BB00089FAC043000702D1044801F0DEF80120A1
:100BC00004F0FAFCEEE70000040000209803002087
:100BD000FEE7000070B503464FF6FF7000220D4D92
:100BE00014E000BF13F8014B521C84EA000606F023
:100BF0000F0692B235F8166086EA101080EA1414D7
:100C000004F00F0435F8144084EA10108A42E9D346
:100C100070BD00001C72000870B50646002002F08E
:100C20004DFF0A4D4FF4004400222146284601F0B2
:100C300070F8342002F0DEFF304602F0DBFF214680
:100C40002846BDE87040012201F063B80008014069
:100C50007047000070B50E4D4FF4B66422460B4944
:100C6000284603F025F809490878FF280DD1487B6C
:100C7000FF280AD161000548FFF7E9FA2246284615
:100C8000BDE87040014903F021B870BDBC040020EC
:100C900000E80008084A10B50021537F07E0541807
:100CA000A47F844201D1012010BD491CC9B28B42EE
:100CB000F5D8002010BD00009902002030B40023B8
:100CC0001F2819D3FF2817D01F38C0B200EB8004AB
:100CD00004EBC00409482044427004E0CC5CC51811
:100CE0005B1CAC70DBB29342F8D330BC4FF4B662FD
:100CF0000249034802F0EABF30BC7047BC04002040
:100D000000E8000810B5002306E0CC5C844201D165
:100D1000012010BD5B1CDBB29342F6D3002010BD56
:100D20004FF4805000F006BF012303EB520202F0A3
:100D3000BFBF00002DE9F0470446C079924607097D
:100D4000884600F00F0600251AE000BF04EB0511ED
:100D50000831894610223348FFF752FA324A3349A4
:100D60003048BAF1000F02D004F05CFA01E004F060
:100D7000F7F8484610222D49FFF742FA6D1CEDB2F4
:100D8000BD42E3D3E6B3BAF1000F04EB071114D070
:100D9000102224480831FFF733FA234A2349214817
:100DA00004F040FA04EB0510324620490830FFF702
:100DB00027FA08EB0600103820E008310D463246CD
:100DC0001848FFF71DFA0020034606EB0712C6F18C
:100DD000100104E017182744401C3B72C0B2814246
:100DE000F8DC114A11490F4804F0BAF828461022DD
:100DF0000E49FFF705FAA8EB06001030C5B201E076
:100E0000FFE74546E81E81B22046FFF7E3FE020AEF
:100E1000611901F8032D4870532088702846BDE8F9
:100E2000F08700000219002052180020121900203B
:100E3000064A0021D16106490A6942F002020A61AC
:100E40004861086940F040000861704720100020A8
:100E500000200240044B0022DA61044A136943F087
:100E60000103136101807047201000200020024020
:100E700014480022C168CB06134904D5CA6942F060
:100E80000202CA611022C3685B0705D5CB6943F033
:100E90000103CB6142F00402C369DB0707D0CB69D1
:100EA00043F00403CB61C16921F00101C161A2F5E6
:100EB0008071013901D0C2607047C16921F0010120
:100EC000C1617047002002402010002070B5054627
:100ED00000F024FF0646114C09E0681C07D025B13C
:100EE00000F01CFF801BA84201D9032070BDE06800
:100EF000C007F2D1E068800601D52020E060E068FC
:100F0000C00605D4E069C00702D1E068400703D5F8
:100F1000FFF7AEFF012070BD002070BD0020024031
:100F200010B504468079C2B0400706D1002341AA1B
:100F3000204600F0E1F89DF80411607910F0600F90
:100F400005D001222046FFF7F5FE424988700322B2
:100F50004149A01CFFF786F900284BD1204600F03C
:100F60000BFC8DF8040103223C4904F10900FFF752
:100F700079F920B16078FFF78DFE012805D10022B4
:100F80009DF80411204603F053FEA0794FF00001B4
:100F9000020731D432486379C27803F00F039A42D2
:100FA00008D1017141712F480023032202210068FA
:100FB00005F09EFBE07AA27A617A00EB022080B213
:100FC000FF2917D1A0F57F41FF3913D12648627858
:100FD000411C03785A5401783322491C01700146A0
:100FE000224802F073FE22480023032202210068F7
:100FF00005F07EFB42B010BD20F08000A071E171D1
:10100000607910F0600F0BD0204600F0B5FB8DF832
:101010000001014600222046FFF78CFE8DF80001FA
:101020009DF8002121466846FFF7EAF89DF8001177
:101030000123684640AA00F05FF80E4800230A2208
:1010400000788DF801010C486946006805F03EFA09
:10105000D0E7000040100020B800002060720008B7
:1010600044000020340000203402002000F9000871
:101070003800002072000020080000200278AC2A0E
:1010800004D1084410F8010C532801D00020704707
:101090000120704730B50D46BFB0144601461022FE
:1010A0006846FFF7ADF8FF208DF801008DF80200CB
:1010B0008DF803008DF804009DF8060040F08000D4
:1010C0008DF8060044B1201D8DF807002246294600
:1010D00003A8FFF795F802E000208DF807006846A6
:1010E00000F04AFB02466946024803F075FD3FB036
:1010F00030BD0000003801402DE9F043C1B00D467D
:101100008146984616464FF480716846FFF79FF86F
:10111000532709F10804B8F1000F1BD0093DEAB2CA
:101120006946204603F0A4FE05460246694620466D
:10113000FFF766F805F108014846FFF74BFD014649
:10114000000A605560190B3541708770357041B0E9
:10115000BDE8F0830B3DEAB26946204603F0A0FEED
:1011600005466A1C0DF8057069462046FFF748F8E9
:101170000935EBE770B505460078AC2802D0682841
:1011800011D101E0C91E00E0891ECCB221462846DB
:10119000FFF720FD295DB1EB102F04D12919C0B252
:1011A0004978884201D0012070BD002070BD000048
:1011B0002DE9F043C1B00D460446984617464FF45A
:1011C00080716846FFF743F8234E4FF09609B8F157
:1011D000000F29D0ED1FEAB26946601D03F048FEFA
:1011E000307002466946601DFFF70AF83078014604
:1011F000401DA070C043E0702046491DFFF7EAFC87
:10120000A278010AA154A278611C5054A278A11CB2
:1012100002F80190A278E11C02F80190A078001D6C
:10122000387041B0BDE8F083093DEAB26946601DFF
:1012300003F036FE3070C11CA170C943E1700DEBA4
:1012400000020DF8009082F80190821C6946601D32
:10125000FEF7D6FFE2E70000B40000202DE9F047DA
:101260008A46DDE9089556190D368046F1B21C46CE
:1012700017461846091DFEF7EAFF692020706070C6
:10128000A670F043E07020792A4620F0020040F07A
:10129000010020711A48C17E6171017FA17184F83B
:1012A0000780B0F805102181C079A072E07A494624
:1012B00065F3071040F00F00E072257304F10D0094
:1012C0000546FEF79DFF207B3A4628445146FEF72F
:1012D00097FFA1782046FFF77DFCA278010AA15470
:1012E000A278611C5054A278A11C96205054A27878
:1012F000E11C5054A078001DC0B2BDE8F08700008A
:10130000990200202DE9F043C1B08846DDE9486428
:101310000746994615464FF480716846FEF797FFD9
:1013200069208DF800008DF80100281914308DF81F
:101330000200C0438DF803009DF80400224620F00F
:1013400003008DF804002848C17E8DF80510017F48
:101350008DF806103968CDF807107968CDF80B10B4
:10136000B0F80510ADF80F10C0798DF811009DF898
:101370001200314664F3071040F00F008DF81200A0
:101380008DF8134005A80446FEF73AFF9DF81300B8
:101390002A4620444146FEF733FF9DF80210684676
:1013A000FFF718FC9DF80220010A0DF802109DF8C5
:1013B00002200DF1010150549DF80220491C962095
:1013C00050549DF80220491C50549DF80220694653
:1013D0004846121DFEF714FF9DF8020041B0001DA3
:1013E000C0B2BDE8F0830000990200202DE9F34F60
:1013F00004468078C5B08C2806D2002346AA9DF802
:1014000018112046FFF7D4FE207900067ED503226E
:101410009349E01DFEF726FF002877D12079DFF8F9
:1014200044B2914D40074FF4B66A4FF0000719D50A
:10143000217BE07AB1EB101F14D1A07A69781F38B4
:10144000C0B200EB800202EBC0028848322981540E
:1014500008D31044417829B1477052468349584611
:1014600002F034FCE07A00097FD1207941077DD475
:10147000217B04F10D0801EB0806B079000674D554
:1014800003227B49B01CFEF7EDFE00286DD14146DA
:10149000227B0DF586780DF20D10FEF7B1FE207B54
:1014A0008DF80C017348727994F80A90C17802F0B3
:1014B0000F02914208D1077147716F480023032240
:1014C0000221006805F014F9207B9DF81811081A14
:1014D0001138C2B2AA7031462046FEF791FE6079FB
:1014E00010F0600F05D0A9780122E81DFFF722FC5B
:1014F000A87003225E49A01CFEF7B4FEA0B9032227
:101500005E4904F10900FEF7ADFE00E02DE020B1D8
:101510006078FFF7BFFB012806D1E07900220B308D
:10152000C1B2204603F084FBA079010722D4E07AFF
:10153000A27A617A00EB022080B2002915D0FF293F
:1015400013D1801CB0F580300FD001280DD19DF84B
:101550000C2108F101014846FFF7B0FB4848002381
:1015600003220221006805F0C3F800E039E047B02B
:10157000BDE8F08F20F08000A071E771607910F075
:10158000600F0BD0204600F0F7F88DF808010146F7
:1015900000222046FFF7CEFB8DF808019DF80C01D4
:1015A0000DF20D11CDE90010E07902AB0B30C2B2A3
:1015B00060782146FFF752FE8DF80801314800237C
:1015C0000A2200788DF809012F4802A9006804F06A
:1015D0007DFF2E4800230A2243A9006804F076FF0D
:1015E000C3E7002600060DD521490222491C601DD3
:1015F000FEF738FE30B92648A17A0023032200689E
:1016000005F076F8207B9DF81811081A113810F0B3
:10161000FF008DF80801A8D0002594F80A900D2746
:101620004FF00E080EE0217B07EB4500214408EB4C
:101630004502085C8A5C494602F090F930446D1C12
:10164000C6B2EDB29DF80801B5EB500FEBD3002EFA
:101650008BD052460549584602F038FB85E700001A
:101660009E02002000E8000840100020BC0400207A
:10167000B800002044000020340000206072000800
:101680003800002072000020080000201000002018
:101690003000002010B504460078692814D1607825
:1016A000692811D1A178E0780844FF280CD12046A0
:1016B000FFF790FAA278010AC0B2A35C8B4203D173
:1016C000641C115D814201D0002010BD012010BDBD
:1016D0002DE9F0478046DDE9089550190D30C6B276
:1016E0008A461C461746311D1846FEF7B0FD692094
:1016F00020706070A670F043E07020792A4620F0D8
:10170000020040F0050020711A48C17E6171017F1E
:10171000A17184F80780B0F805102181C079A0720A
:10172000E07A494665F3071040F00F00E072257338
:1017300004F10D000546FEF763FD207B3A46284480
:101740005146FEF75DFDA1782046FFF743FAA278E7
:10175000010AA154A278611C5054A278A11C9620C1
:101760005054A278E11C5054A078001DC0B2BDE8CE
:10177000F08700009902002070B50446AC2020706C
:10178000A07920F02000A071E0790830C5B2294688
:101790002046FFF71FFA010A61556D1CE9B260543B
:1017A000491CC8B253212154401CC0B270BD000076
:1017B0002DE9F0410546002002F080F90B4F4FF46F
:1017C000004600223146384600F0A3FA0024285D86
:1017D00002F010FA641CE4B2082CF8D33146384603
:1017E000BDE8F041012200F094BA00000008014079
:1017F0002DE9F04704461F4690468946002002F036
:101800005DF9164E4FF4004500222946304600F09F
:1018100080FA202002F0EEF9484602F0EBF940464B
:1018200002F0E8F9384602F0E5F90122294630468F
:1018300000F06FFA012002F041F90027AA2002F01F
:10184000D9F9E0557F1CFFB2082FF7D3294630465F
:10185000BDE8F047012200F05CBA0000000801403A
:1018600070B5002002F02AF91E4E4FF40045002208
:101870002946304600F04DFA222002F0BBF9012241
:101880002946304600F045FA012002F017F9AA2057
:1018900002F0B0F9144C2070AA2002F0ABF960708D
:1018A000AA2002F0A7F9A070AA2002F0A3F9E07024
:1018B000AA2002F09FF92071AA2002F09BF9607122
:1018C000AA2002F097F90002E080AA2002F092F923
:1018D000E1880843E08029463046BDE87040012297
:1018E00000F017BA000801404613002070B5002030
:1018F00002F0E4F8204E4FF400450022294630461D
:1019000000F007FA012002F075F90122294630465D
:1019100000F0FFF9012002F0D1F8AA2002F06AF9E4
:10192000164C2070AA2002F065F900026080AA20FF
:1019300002F060F9618808436080AA2002F05AF939
:101940002071AA2002F056F90002E080AA2002F0DD
:1019500051F9E1880843E080AA2002F04BF9207297
:10196000AA2002F047F9607229463046BDE870406F
:10197000012200F0CEB9000000080140461300200B
:101980000F490A784B7889781A44511807D0C9064C
:10199000890E4A1C017042700A2903D006E00A2110
:1019A000017002E00C2101700D214170027805499F
:1019B0008B5C054AD3714078085C10727047000058
:1019C000B8000020366C00089E00002010B590F88A
:1019D00021100024022903D00421816301243DE069
:1019E00001680A6822F00E020A6001680A6822F0A3
:1019F00001020A601A4A0168914201D1012121E0E5
:101A0000174A1432914201D110211BE0144A2832A6
:101A1000914201D1891515E0114A3C32914201D120
:101A200089140FE00E4A5032914202D14FF48031B6
:101A300008E00B4A6432914202D14FF4801101E078
:101A40004FF08071064A083A5160012180F8211058
:101A5000002180F82010416B01B18847204610BD5D
:101A6000080002400348016941F080010161002043
:101A700070470000002002402DE9F05F07461C4837
:101A800088460024017E15461E46012909D0012101
:101A9000814601764CF2503A5046FFF717FA18B1DA
:101AA00022E00220BDE8F09F012F02D0022F00D0DB
:101AB0000427D346DFF83CA0220128463146FEF732
:101AC0007DFB81B208EB4400FFF7C4F95846FFF7ED
:101AD000FDF9DAF8102022F00102CAF8102018B936
:101AE000641CE4B2BC42E7D3002289F81820D9E78D
:101AF0002010002000200240064900200A6912063A
:101B000007D5054A4A60054A4A600969090600D5B1
:101B1000012070470020024023016745AB89EFCDCB
:101B2000B0F5805F02D1024802F0AEB97047000004
:101B300040100020044910B50A68024202D0086033
:101B4000FFF7EEFF10BD0000140401402DE9F84F2F
:101B5000DFF890A100220AF1040B144601274FF090
:101B60000F090BF1040E00BF0B6807FA04F52B40B8
:101B7000AB4274D1DFF870C14E68A6EB0C08664525
:101B80002BD00DDC032E34D005DC36B3012E19D05A
:101B9000022E2FD11BE0112E16D0122E2AD119E0C1
:101BA000B8F5881F19D006DCB8F5803F15D0B8F518
:101BB000801F1FD111E0B8F5001F0ED0B8F5041F2B
:101BC00018D10AE0CA6815E0CA68121D12E0CA6896
:101BD00008320FE0CA680C320CE08A682AB1012A88
:101BE0004FF0080203D0456104E0042202E00561E1
:101BF00000E00022FF2B01D8064601E000F10406B8
:101C00004FEA840501D9A5F12005D6F800C009FAEC
:101C100005F82CEA080C02FA05F54CEA050CC6F8A2
:101C200000C04D68ED0057D5304DAE6946F0010655
:101C3000AE61AD6924F0030605F0010500952C4D59
:101C400006EB050CDCF80850A6074FEA167809FAEF
:101C500008F6B543274EB04202D1002610E03BE023
:101C6000254EB04201D101260AE0244EB04201D1F6
:101C7000022605E0224EB04201D1032600E00426F0
:101C800006FA08F62E43CCF808604D68DAF80060D2
:101C9000ED03554601D51E4300E09E432E604D687E
:101CA000DBF80060AD035D4601D51E4300E09E43B6
:101CB0002E604D68DEF80060ED02754601D51E43CA
:101CC00000E09E432E604D68AD020E4D2E6801D59A
:101CD0001E4300E09E432E60641C102CFFF444AFB2
:101CE000BDE8F88F00040140000011100010024010
:101CF0000000014000080140000C014000100140BC
:101D0000001401400C0401408068084000D001200C
:101D100070470AB1016170470904FBE70148806818
:101D2000704700005800002070B5040011D02168F1
:101D30004CF6CC400860216845F255500860D4E963
:101D4000000141602168A0688860FFF7E7FF054651
:101D500009E0012070BD00BFFFF7E0FF401B302805
:101D600001D9032070BD2068C0680028F4D1216823
:101D70004AF6AA200860002070BD00684AF6AA2131
:101D80000160002070470000024881680278114419
:101D90008160704758000020074810B5016841F085
:101DA00010010160032000F09DF80F2000F006F8FC
:101DB00000F024F8002010BD0020024070B50D4D49
:101DC00004464FF47A712878B1FBF0F00A490968AB
:101DD000B1FBF0F000F08EFC48B9102C07D20022C5
:101DE0002146501E00F05EF800206C6070BD01209E
:101DF00070BD00005800002064000020214808B594
:101E0000816941F001018161816901F00101009165
:101E1000C16941F08051C161C06900F080500090FB
:101E2000032000F05FF8002211466FF00B0000F075
:101E300039F8002211466FF00A0000F033F8002252
:101E400011466FF0090000F02DF800221146501FD6
:101E500000F028F800221146101F00F023F800229D
:101E60000F21901E00F01EF800220F21501E00F0DE
:101E700019F80548416821F0E06141F000714160C6
:101E800008BD0000001002400000014000F01F02E9
:101E9000012191404009800000F1E020C0F80011CC
:101EA00070470000F0B40E4B1B680C46C3F30223CE
:101EB000C3F10705042D00D90425191D072901D2F6
:101EC000002300E0DB1E012606FA05F1491E214031
:101ED00099409E40761E16403143F0BC01F078BC1C
:101EE0000CED00E0064900F0070208684FF6FF031A
:101EF000184040EA0220034A10430860704700007F
:101F00000CED00E00000FA052DE9F047DFF83C8118
:101F100005460E46D8F8000000F00700B0420CD28B
:101F2000D8F8001021F007013143C8F80010D8F8A4
:101F3000000000F00700B04263D12878444C8007CD
:101F400005D56068A96820F0F00008436060287833
:101F5000C00745D06868012816D02168022816D02D
:101F6000890700294DDA616821F0030101436160AE
:101F7000FFF7D4FE6968074641F2883001290FD087
:101F80000229814619D027E021688903E9E7890100
:101F9000E7E700BFFFF7C2FEC11B494501D918E0C2
:101FA00081466068C0F381000128F3D118E000BFCA
:101FB000FFF7B4FEC11B49450BD86068C0F3810030
:101FC0000228F5D10CE000BFFFF7A8FEC11B494570
:101FD00002D90320BDE8F087606810F00C0FF3D140
:101FE000D8F80010404601F00701B1420BD9016852
:101FF00021F0070131430160006800F00700B042A2
:1020000001D00120E6E72878400705D56068E96837
:1020100020F4E060084360602878000706D5606817
:10202000296920F4605040EAC100606000F03CF88B
:102030006168084AC1F30311515CC8400649086051
:102040000F20FFF7BBFE0020C4E700000020024085
:10205000001002401E6C0008640000200148006867
:102060007047000064000020044805490068496882
:10207000044AC1F30221515CC8407047640000204B
:10208000001002402E6C00080448054900684968A9
:10209000044AC1F3C221515CC8407047640000206B
:1020A000001002402E6C000812A185B00FC98DE807
:1020B0000F0014A0144A006804905168134801F0FE
:1020C0000C03042B10D0082B0ED1C1F38343C9039A
:1020D0001DF803000AD5516804AAC1F34041515CC0
:1020E0000A4A5043B0FBF1F005B070470849484335
:1020F000FAE7000002030405060708090A0B0C0DA5
:102100000E0F1010010200000010024000127A00B1
:1021100000093D002DE9F84F04460078B94DC0078D
:1021200048D06868C0F38100012807D06868C0F310
:102130008100022809D16868C00306D52868800399
:1021400038D5606800286FD034E06068B0F5803F13
:102150000BD010B1B0F5A02F11D0286820F480303A
:102160002860286820F4802002E0286840F480304D
:102170002860606888B1FFF7D1FD064609E028684D
:1021800040F480202860F0E7FFF7C8FD801B64283A
:1021900075D828688003F7D50CE0FFF7BFFD064629
:1021A00005E000BFFFF7BAFD801B6428F0D828685F
:1021B0008003F7D42078944E80074FF001094FF048
:1021C00000083BD5686810F00C0F07D06868C0F3B2
:1021D0008100022809D16868C00306D428688007F6
:1021E00014D5206901281FD110E02069B0B1C6F8CC
:1021F0000090FFF793FD074605E000BFFFF78EFD57
:10220000C01B0228C4D828688007F7D528686169F0
:1022100020F0F80040EAC10028600FE0C6F8008016
:10222000FFF77CFD074606E0E9E000BFFFF776FD1B
:10223000C01B022823D828688007F7D4207800071D
:102240002CD57248A169D9B1C0F80090FFF766FD9E
:10225000074604E0FFF762FDC01B02280FD8686A3A
:102260008007F7D56A484FF4FA510068B0FBF1F0E7
:10227000009000BF0098411E0091FAD20EE080E06D
:10228000C0F80080FFF74AFD074604E0FFF746FD6F
:10229000C01B022875D8686A8007F7D420784007E9
:1022A00060D5E8690027C00008D4E86940F0805094
:1022B000E861E869012700F0805000905548016806
:1022C000C90513D40168834641F480710160FFF7AA
:1022D00025FD824606E000BFFFF720FDA0EB0A00C7
:1022E00064284ED8DBF80000C005F5D5E068012869
:1022F0000AD008B1052813D0286A20F0010028620E
:10230000286A20F0040002E0286A40F001002862F8
:10231000E06841F2883B98B1FFF700FD82460BE090
:10232000286A40F004002862EEE700BFFFF7F6FCE1
:10233000A0EB0A0159455AD8286A8007F6D50CE067
:10234000FFF7ECFC824605E0FFF7E8FCA0EB0A0192
:1023500059454CD8286A8007F6D41FB1E86920F0A7
:102360008050E861E06988B36968C1F3810102299E
:1023700045D00228C6F8608004D0FFF7CFFC0446A1
:1023800038E034E0FFF7CAFC074604E0FFF7C6FC7C
:10239000C01B02282BD828688001F7D4206AB0F52A
:1023A000803F05D16868A16820F400300843686068
:1023B000D4E908010843696821F47411084368608E
:1023C000C6F86090FFF7AAFC044606E015E000BFDF
:1023D000FFF7A4FC001B022809D828688001F7D564
:1023E0000BE000BFFFF79AFC001B022802D9032074
:1023F000BDE8F88F28688001F4D40020F8E70120B8
:10240000F6E7000000100240000042428004424211
:10241000640000200070004070B5040005D0002565
:10242000A56294F8510010B104E0012070BD20466F
:1024300000F034F8022084F851002068016821F08F
:1024400040010160D4E901010843D4E903121143BA
:10245000084361690843218B01F400710843E16975
:102460000843216A0843A16A084321680860A069FB
:10247000042101EA1040616A08432168486021682C
:10248000E06A08612068C16921F40061C161656585
:10249000012084F85100002070BD000010B50068D4
:1024A000144986B0884223D11348816941F4805190
:1024B00081618069114C00F48050049028200090C4
:1024C000022001900320039069462046FFF73EFB5F
:1024D00000211020CDE90001029169462046FFF756
:1024E00035FB0748416841F0E06141F0010141607E
:1024F00006B010BD0030014000100240000C014049
:10250000000001402DE9F84F044690F850000026E5
:102510000A9F9A4693460D464FF0010801280ED0B7
:10252000012084F85000FFF7F9FB814694F8510030
:10253000616801280CD0B1F5827F07D102E002204A
:10254000BDE8F88FA16809B9042801D00226BDE0D2
:1025500055B1BBF1000F07D0BAF1000F04D094F8C9
:102560005100012802D004E00126AFE0052084F8E4
:10257000510000206065C4F838B0A4F83EA0A4F86B
:102580003CA02563A4F836A0A4F834A020646064BD
:1025900020680168490603D4016841F040010160E8
:1025A000E068B0F5006F606804D0E8B3E08E012801
:1025B0003BD06AE010B1E08E01282ED1216835F8B9
:1025C000020BC860E08E401EE08626E0B8F1000FE6
:1025D0000DD0E08E58B120688168890707D535F89D
:1025E000021BC160E08E401EE0864FF00008E08FC5
:1025F00058B120688168C90707D0C0682BF8020B62
:10260000E08F401EE0874FF00108781C05D0FFF7EF
:1026100085FBA0EB0900B84246D2E08E0028D5D158
:10262000E08F0028D2D136E0FFE7216815F8010BD2
:102630000873E08E401EE08627E000BFB8F1000F6F
:102640000DD0E08E58B120688168890707D515F84C
:10265000011B0173E08E401EE0864FF00008E08F02
:1026600058B120688168C90707D0C0680BF8010B12
:10267000E08F401EE0874FF00108781C05D0FFF77F
:102680004DFBA0EB0900B8420ED2E08E0028D5D158
:10269000E08F0028D2D13B46012202212046CDF80E
:1026A000009001F0B9FA08B103260FE04A46394616
:1026B000204601F08FFA18B101262020606505E060
:1026C000A06818B92068C16880680090012084F86B
:1026D0005100002084F85000304631E74FF0E021EF
:1026E0000428086903D020F004000861704740F016
:1026F0000400FAE710B5401EB0F1807F01D301203D
:1027000010BD4FF0E02460610F21601701F060F808
:102710000020A06107202061002010BD7047704795
:1027200030B590F83C20012A20D0012280F83C20CE
:10273000022380F83D3003685C6824F070045C601C
:1027400003685C680D682C435C6003689C6824F037
:1027500080049C6003689C6849680C439C6080F816
:102760003D20002180F83C10084630BD022030BDDD
:1027700010B5040003D094F83D0010B107E001202B
:1027800010BD002084F83C00204600F00DF8022027
:1027900084F83D00211D206801F0C6FE012084F868
:1027A0003D00002010BD000008B500680B498842BC
:1027B00012D10B48816941F4006181618069002276
:1027C00000F40060009009211920FFF76BFBBDE8C1
:1027D00008401920FFF75ABB08BD0000002C01403B
:1027E000001002400168CA6842F00102CA60006835
:1027F000016841F0010101600020704770B5044696
:1028000090F83C00012817D0012584F83C500220A4
:1028100084F83D002068826822F0770222F47F422B
:1028200082600868502837D00DDC202859D005DC9C
:1028300088B3102841D151E0022070BD302853D018
:1028400040283AD13FE060282ED070280BD0B0F558
:10285000805F03D0B0F5005F2FD110E02068816861
:1028600021F0070115E0CB68D1E90121206801F0D2
:1028700091FE2168886840F0770088601DE0CB6891
:10288000D1E90121206801F085FE2068816841F4CA
:102890008041816011E01EE0CA684968206801F04B
:1028A0008BFE5021206806E0CA684968206801F064
:1028B00094FE6021206801F077FE84F83D500020EE
:1028C00084F83C0070BDCA684968206801F074FE55
:1028D00040212068EFE700212068ECE71021206804
:1028E000E9E720212068E6E730212068E3E7704728
:1028F00070B50446006801694FF00005C9438907B7
:1029000015D4C168C943890711D4E91E01610120AA
:102910002077206880698007204602D0FFF7E7FF14
:1029200004E000F098F8204600F096F8257720683B
:102930000169C943490717D4C168C943490713D47A
:102940006FF004010161022020772068806910F493
:10295000407F204602D0FFF7CAFF04E000F07BF87A
:10296000204600F079F8257720680169C9430907F6
:1029700016D4C168C943090712D46FF00801016178
:10298000042020772068C0698007204602D0FFF726
:10299000AEFF04E000F05FF8204600F05DF8257718
:1029A00020680169C943C90617D4C168C943C9066B
:1029B00013D46FF010010161082020772068C069EE
:1029C00010F4407F204602D0FFF791FF04E000F0B2
:1029D00042F8204600F040F8257720680169C94395
:1029E000C90708D1C168C943C90704D1891E01615B
:1029F000204600F033F820680169C943090609D46C
:102A0000C168C943090605D46FF080010161204601
:102A1000FFF784FE20680169C943490609D4C168EB
:102A2000C943490605D46FF040010161204600F01A
:102A300045F820680169C94389060BD4C168C943B8
:102A4000890607D46FF0200101612046BDE870407F
:102A5000FFF765BE70BD70477047000010B51449A0
:102A600000680968884221D1124C2068401C20600F
:102A700001F098FC20684FF47A71B0FBF1F201FB91
:102A8000120010B96068401C60600B4890F801119A
:102A900000290BD090F80111491CC9B280F801112E
:102AA000322903D9002180F80111017010BD000006
:102AB000FC0300204C000020501700207047704796
:102AC00010F8391F407808437047000070B502685D
:102AD00004461068D168536910F00F0F50D003F00E
:102AE000010501F4907635435DD0C20705D0CA05D3
:102AF00003D5E26B42F00102E263420705D5DA0733
:102B000003D0E26B42F00202E263820705D5DA07E6
:102B100003D0E26B42F00402E263020705D5DA0754
:102B200003D0E26B42F00802E263E26B002A33D08A
:102B3000800604D5880602D5204601F0F9FD2068FC
:102B40004069E16BC0F38010090700D428B3204628
:102B500001F0E0FD2068416949061AD5416921F07C
:102B600040014161606BA0B11B494163606BFEF79E
:102B70002DFF002810D0606B416BBDE87040084706
:102B8000830610D58B060ED52046BDE8704001F0B7
:102B9000CFBD2046FFF793FF70BD2046FFF78FFFA4
:102BA0000020E06370BD030606D50B0604D5204661
:102BB000BDE8704001F0C0BE4006F3D54806F1D52F
:102BC000D168204621F04001D160202184F83910DD
:102BD00000F0C8F870BD00000547000870B504009B
:102BE00004D094F83900002510B106E0012070BD32
:102BF00084F83850204600F023F8242084F8390067
:102C00002068C16821F40051C160204601F0DCFD5C
:102C10002068016921F4904101612068416921F037
:102C20002A0141612068C16841F40051C160E56337
:102C3000202084F8390084F83A00002070BD00009C
:102C400070B5274E03680024264902200322264D32
:102C500086B0B3421ED18B6943F480438B6189698E
:102C6000039201F4804104910102CDE9001069460C
:102C70002846FEF76BFF2815CDE900046946284673
:102C80000294FEF763FF002208212520FFF70AF9CE
:102C9000252020E0154EB3421FD1CB6943F4003309
:102CA000CB61C969039201F4003104910421CDE99B
:102CB000001069462846FEF749FF0820CDE90004C8
:102CC000694628460294FEF741FF0022072126208C
:102CD000FFF7E8F82620FFF7D9F806B070BD00002E
:102CE000003801400010024000080140004400404C
:102CF00090F83A30202B22D1F9B1F2B190F8383067
:102D0000012B1CD081628285C2850021C1632222F1
:102D100080F83A2080F838100168CA6842F480725E
:102D2000CA6001684A6942F001024A610068C168EC
:102D300041F02001C160002070470120704702204F
:102D40007047000000680449884204D104480349E0
:102D5000007801F077BF704700380140501700201D
:102D6000550000207047FEE770B501220E4D140299
:102D700021462846FEF7CDFF01225602314628465D
:102D8000FEF7C7FF012002F013FA00222146284671
:102D9000FEF7BFFF012002F00BFA31462846BDE8DE
:102DA00070400022FEF7B5BF000C014070B5104D19
:102DB0004FF48074002221462846FEF7AAFF012224
:102DC000560231462846FEF7A4FF012002F0F0F932
:102DD000012221462846FEF79CFF012002F0E8F977
:102DE00031462846BDE870400022FEF792BF000041
:102DF000000C01402DE9F041294D064600244FF416
:102E000000774FF48078002239462846FEF781FF8C
:102E1000300601D5012200E0002241462846FEF797
:102E200078FF012002F0C4F9012239462846FEF756
:102E300070FF012002F0BCF97006641C060EE4B2BB
:102E4000082CE0D3002239462846FEF762FF012015
:102E500002F0AEF90122464641462846FEF759FFE8
:102E6000012002F0A5F9012239462846FEF751FF5C
:102E7000012002F09DF901E0641CE4B231462846CD
:102E8000FEF742FF08B1FF2CF6D300223946284650
:102E9000FEF73FFFBDE8F041012002F089B90000D4
:102EA000000C014030B5BFB00C460546042216495F
:102EB0000DF10100FDF7A4F914499DF805204878AB
:102EC00060F303028DF80520401C48709DF8060051
:102ED0008DF8085040F088008DF8060005208DF828
:102EE000070003220A490DF10900FDF789F98DF861
:102EF0000C406846FEF740FC02466946054801F072
:102F00006BFE3FB030BD00005C7200080400002082
:102F1000637200080038014010B50021044800F039
:102F200010F9BDE810404FF4407000F022B90000E5
:102F3000FFFC030010B504461E214FF4407000F062
:102F400000F9012C0CD0022C10D0032C14D102213A
:102F50000A4800F0F6F80A48BDE8104000F009B948
:102F60000221084800F0EDF80748F5E7022107487C
:102F700000F0E7F80648EFE710BD0000FFFC030093
:102F8000FFFF03005554010055570100AAA8020095
:102F9000AAAB020070B504460F2813D81E214FF4C7
:102FA000407000F0CEF8084D6408022155F8240066
:102FB00000F0C7F855F82400BDE8704040F44070B8
:102FC00000F0D7B870BD0000687200082DE9F0412C
:102FD000134C07460E46A078401CC0B2A070904229
:102FE0001AD90025A57047F4407000F0C2F8217886
:102FF000072900D90721384600F0A3F82078B0420D
:1030000002D10121617009E018B16178012905D070
:1030100000E06570401C2070BDE8F081401EFAE7BA
:10302000C200002070B500244FF44075E1B228467C
:1030300000F087F8FF2C01D2641CA4B2052001F037
:10304000A3F9641CA4B21E2CF0D370BD2DE9F0418D
:103050000124250490460E46012803D0022801D100
:10306000022405044FF4407000F083F831461A48FA
:1030700000F067F844EA050040F4407000F079F889
:10308000404602F099FA44F4407000F072F808EB00
:1030900048004000064602F08FFA002501E0042DAA
:1030A00000D02746A400032D0FD044EA070040F4C7
:1030B000407000F05EF8404602F07EFA44F4407042
:1030C00000F057F8304602F077FA6D1CEDB2082D8B
:1030D000E5D3BDE8F0810000FFFC030010B5044615
:1030E00002210F2000F02DF81E214FF4407000F057
:1030F00028F8022C07D0012C08D140F20530BDE899
:10310000104000F036B840F20A30F8E710BD10B5B4
:10311000044602214FF4705000F013F81E214FF4C2
:10312000407000F00EF8022C07D0012C08D14FF4AB
:10313000B850BDE8104000F01CB84FF42C50F8E730
:1031400010BD2DE9F04101250F4606462C4635EA13
:10315000060003D13946204600F0F2FC641C6D00E5
:10316000E4B2122CF3D9BDE8F0415521162000F04D
:10317000E7BC10B5044600F03F01132000F0E0FC6E
:10318000C4F38511142000F0DBFCC4F305311520D5
:1031900000F0D6FC5521BDE81040162000F0D0BC50
:1031A00030B500230DE0C45CCD5CAC4202D94FF0D9
:1031B000010030BD02D24FF0020030BD03F1010327
:1031C000DBB29342EFD3002030BD2DE9F0410C4635
:1031D00080461121204600F035F9C0F11100C6B239
:1031E000C6F11100C2B2A1190D46404600F0F6F832
:1031F0000024C6F1120707E0FAB2691E08EB0400CA
:1032000000F0ECF8641CE4B2B442F5D3BDE8F08100
:103210000021421852784254491CC9B21029F8D3EF
:1032200000210174704770B50024012B4FF010038A
:103230000DD0C51815F8015C05FB0144A4B2D454A7
:10324000240A5B1E13F0FF03F3D1147070BDC6187F
:10325000D55C16F8016C06FB01552C44A4B2D4547D
:10326000240A5B1E13F0FF03F1D110782044107084
:1032700070BD00002DE9F0430C4681469846164685
:103280001021204600F0DEF8C0F110010D190021D8
:103290000A467254491CC9B21129FAD30024471EA8
:1032A0000FE000BFFFF7BFFF41463046FFF78DFF3D
:1032B0003046FFF7ADFF41463046FFF786FF641CFE
:1032C000E4B2BC42295D4FF0010332464846E9DBD7
:1032D000FFF7A9FF41463046BDE8F043FFF775BF51
:1032E0002DE9F05F8A4683461D46174608261021C1
:1032F000104600F0A7F804006BD010225146584643
:10330000FCF77EFFC4F1100000EB0708002198F8DD
:103310000000020607D44006761E491C000EC9B202
:10332000F6B20829F5D34006070E761E06F0FF090F
:1033300000261BE059462A4608460A9BFFF79AFFDB
:103340001022691C5846FCF75BFF38060AD52A464E
:10335000594650460A9BFFF78DFF1022691C5846BC
:10336000FCF74EFF7806070E761CF6B24E45E1D309
:103370001948002108F1010801708146671E25E007
:1033800018F80160002459462A4608460A9BFFF7B0
:1033900071FF1022691C5846FCF732FF30060AD52F
:1033A0002A46594650460A9BFFF764FF1022691CC3
:1033B0005846FCF725FF7006641C060EE4B2082C84
:1033C000E1D399F80010491C89F80010C9B2B9423C
:1033D000D6DBBDE8F09F0000C5000020F0B5154623
:1033E0000E46074626E000202C4621E03B19321904
:1033F00013F8011C12F8012C8A4209D128B1A1EB63
:103400000201A1F10101C9B20DE04FF000010AE093
:10341000A1EB0000A0EB0200C1B202D24FF000000D
:1034200001E04FF00100A4F1010403F8011CE4B233
:10343000002CDBD12A4631463846FFF7B1FE022880
:10344000D1D1F0BD002206E0835C13B1881AC0B26E
:103450007047521CD2B28A42F6D300207047000057
:103460002DE9FE430446427AC07AA17A002300EB9C
:10347000012004F10C0180B20D46009301930293E8
:10348000032A06D007DC002A03D0012A4DD0022AE5
:1034900053D1BDE8FE83042AFBD0FF2A4DD1012879
:1034A00009D0274E274FB0F57F4F10D0801CB0F5C4
:1034B000803F42D11DE003208DF8000002208DF8EE
:1034C0000100024669462046FDF7E4FDE1E7088A6F
:1034D0007083887C30771A4810220930FCF790FE00
:1034E0007F221749384600F0F1FB154800F074FCC4
:1034F00023E002F05DFD1248717F1E308046FCF72C
:10350000A6FEE0792946001FC2B272774046FCF75A
:1035100077FE7F220A49384600F0D8FB03F0C8FA4C
:103520004146094800F064F907E0212805D1074821
:1035300000230A22006802F0C9FF00221146C2E7F8
:103540009902002000F80008340200200C0000203E
:103550002DE9F0413B4886B0816941F0100181615D
:10356000816901F010010491816941F020018161BC
:10357000816901F020010491816941F004018161B8
:10358000816901F004010491816941F008018161C0
:1035900080692D4F00F0080048F6220504900022B3
:1035A00029463846FEF7B5FBDFF8A08000224FF42D
:1035B0004E514046FEF7ADFB00244FF46040CDE98C
:1035C0000004694622480294FEF7C0FA00950226DC
:1035D00001250396CDE9015469463846FEF7B6FA4F
:1035E0004FF44050CDE90005CDE90246694640461A
:1035F000FEF7ACFA280300901648CDE901046946AD
:103600003846FEF7A3FA4020CDE90004694640465B
:103610000294FEF79BFA4FF46070CDE90005032099
:10362000CDE9024069464046FEF790FA00220621A5
:103630002820FEF737FC2820FEF728FC06B0BDE85E
:10364000F08100000010024000080140000C014021
:1036500000100140000021100E4810B50C49016017
:103660004FF48271416000218160C1604FF40072AB
:103670000161C0E905122022C0E90721416281628F
:103680000A21C162FEF7C8FE002800D0FEE710BD87
:1036900000300140A403002010B5144886B0124940
:1036A000016047210024C0E9011440F2E731C0E97C
:1036B000031444618461FFF75BF800B1FEE74FF447
:1036C0008050009069460948FFF798F800B1FEE77E
:1036D000049404A905480594FFF722F8002800D0B7
:1036E000FEE706B010BD0000002C0140FC030020E6
:1036F00070B50F4D0F4E0024142000F045FE0E490A
:103700000E4801F07BF90D220D492846FDF70CFB10
:10371000641C322C04D900240C21304601F082FABA
:103720000D210748FDF726FD0028E5D170BD0000FA
:1037300040F80008003801404819002050170020C8
:1037400058190020F0B50446407899B0202832D1AD
:103750000D2221461B48FCF785FD2125FF2660B37D
:10376000194F07222146384600F0B0FA07221549C2
:10377000384600F09DFA0D2221461248FCF772FDF2
:10378000D8B122208DF8010000208DF803006820B8
:103790008DF8000001208DF8020004216846FDF735
:1037A00019FA010A8DF804108DF80500002206218F
:1037B000684601F03DFA19B0F0BD8DF801508DF862
:1037C0000360E4E75819002040F80008FEE770475E
:1037D0000907090E002806DA00F00F0000F1E020CA
:1037E00080F8141D704700F1E02080F80014704745
:1037F0002DE9F0410E4605460024114F1AE0002144
:103800007A7F281908E000BF90F801C016F801E09F
:10381000F44503D0491CC9B28A42F5D88A4207D17F
:10382000811C1A1B401CFCF7EBFC2878401E2870FA
:10383000641CE4B22B78A342E1D8BDE8F08100001B
:103840009902002070B5054608480C460068FCF750
:10385000CFFCFCF7C3FC611B491CB0FBF1F2BDE8D7
:10386000704001FB12000A3000F08EBD4C000020B9
:1038700030B50D4C012807D014D94FF00201A0F14A
:1038800001002170C5B20AE04FF00100207009E08C
:1038900020784FF0020101F0AFFC2070EDB26D1EF8
:1038A000002DF5DC004830BDB00000202DE9F041CE
:1038B00006460D46002000F001F9DFF838804FF48D
:1038C0000047002239464046FEF723FA772000F0F1
:1038D00091F9002405E0AA2000F08CF93055641C11
:1038E000E4B2AC42F7D339464046BDE8F04101228C
:1038F000FEF70FBA00080140F8B50446002000901A
:1039000000F0DCF8144D4FF4004600223146284602
:10391000FEF7FFF9152000F06DF9204600F06AF976
:10392000012231462846FEF7F4F9012000F0C6F8DE
:1039300000246F46AA2000F05DF93855641C9DF8FC
:103940000100E4B28DF80000022CF3D301223146CD
:103950002846FEF7DEF9F8BD0008014030B51F38F3
:10396000C0B200EB800404EBC0050C48A1F11F03BA
:10397000DBB2445D322C0ED2322A0CD303EB83022D
:1039800002EBC302825C944205D2284401224270B9
:103990008170104630BD002030BD0000BC04002006
:1039A0002DE9F843184F804607F1100404F1110681
:1039B00004F1240510213046FCF749FC102138465B
:1039C000FCF745FC11212046FCF741FC112128465B
:1039D000FCF73DFC10220D493846FCF711FC0B4961
:1039E00010221031601CFCF70BFC132208493046F2
:1039F000FCF706FC2B463A46314640460094FFF75A
:103A00006FFCBDE8F8830000521800203C720008EB
:103A1000321900207CB5264C4FF48050208046108F
:103A2000244D012231462846FEF773F9022000F0AA
:103A3000ABFC002231462846FEF76BF90A2000F065
:103A4000A3FC3601002231462846FEF762F9022027
:103A500000F0D0F8012000F0CDF8002000F0CAF806
:103A6000012000F0C7F8C92000F0C4F8C32000F01E
:103A7000C1F8802000F0BEF8012231462846FEF74A
:103A800048F9022000F080FC00231A4619466846D7
:103A9000FDF7AEFEFDF72AFF202020800648408873
:103AA000A0F58841383901D001207CBD00207CBDC3
:103AB0007400002000080140461300202DE9F04169
:103AC00007461C4804881C4E4FF400450022294636
:103AD0003046FEF71EF9442000F08CF80EE001227B
:103AE00029463046FEF715F9002229463046FEF7F2
:103AF00010F9442000F07EF8641EA4B2C02000F04B
:103B000079F8FF2802D0002CE9D109E044B1002F58
:103B10000ED129463046BDE8F0410122FEF7F9B842
:103B2000012229463046FEF7F4F8044902200870C5
:103B3000BDE8F08174000020000801406E00002004
:103B400070B50D460446FFF70FF9A820FFF752F9AC
:103B50002046FFF74FF92846FFF74CF9BDE87040C3
:103B6000FFF724B910B50024012280211848FEF780
:103B7000D0F80A2000F008FC01211720FFF7E0FF31
:103B800001210020FFF7DCFF3F211320FFF7D8FFC2
:103B90003F211420FFF7D4FF3F211520FFF7D0FF6E
:103BA000FFF7E2F8A820FFF725F90120FFF722F937
:103BB0000220FFF71FF9641CE4B2122CF8D3FFF7C0
:103BC000F5F85521BDE810401620FFF7B9BF0000F9
:103BD000000C014038B50B460092044600228021BB
:103BE00000F01AF8002804D0606D40F020006065F5
:103BF000032038BD01B582B04FF47A7000900123E4
:103C0000034A02A90348FEF77DFC014800780EBD77
:103C100068000020A40300202DE9F0411D4617464E
:103C20000E460446DDF8188035E0681C33D02DB10F
:103C3000FEF774F8A0EB0800A8422CD32068416876
:103C400021F0E00141606068B0F5827F0BD1A0688F
:103C5000B0F5004F02D0B0F5806F04D12068016844
:103C600021F040010160A06AB0F5005F0AD1206830
:103C700001684DF6FF72114001602068016841F44F
:103C800000510160012084F85100002084F85000A8
:103C90000320BDE8F0812068806836EA000004D087
:103CA0000020B842C1D10020F3E70120F9E700006D
:103CB00010B5002306E000BF30F8024B21F8134096
:103CC0005B1C9BB29342F7D310BD00002DE9F05F5F
:103CD000A0F1006415468A468346B4F5803F5FD262
:103CE000FDF70AFFA70AC4F34806C6F50074A5420B
:103CF00000D82C46DFF8AC904FF0006000EB872036
:103D000080464FF400722749FFF7D2FF00204FF69C
:103D1000FF7106E0331839F813208A4203D1401CA2
:103D200080B2A042F6D3A0422ED24046FDF780F8E2
:103D30004CF25030FDF7CAF81B48016921F002012E
:103D400001610020494606E03AF810208319401C22
:103D500021F8132080B2A042F6D3124940464FF416
:103D6000007200BF00F022F8A54215D0281B0AEB14
:103D7000440A0BEB440B002685B24FF400747F1C01
:103D8000A542B9D82C46B7E74CF25030FDF79EF863
:103D9000224651465846E5E7BDE8F05FFDF762BEB2
:103DA000BDE8F09F50130020002002402DE9F041B3
:103DB00016460F46054600240AE000BF37F81420D7
:103DC000002329460120FDF757FE641CA4B2AD1C58
:103DD000B442F3D3BDE8F08110B5044600F1090107
:103DE00010221248FCF70CFA1048618B203801862B
:103DF000217F80F83210FFF7D3FD0E490C484A8B23
:103E00008280097F817109480B49203801F0B4FA9A
:103E10000A49012008700A48FDF7B2FD00F0E4FFEE
:103E20000748007800F086F9002010BD3219002004
:103E3000B40000209902002052180020AF0000209A
:103E4000720000202DE9F041054600242046FFF7CE
:103E500035FE0C4F4FF40046002231463846FDF740
:103E600058FF04E0285DFFF7C5FE641CE4B2A878A3
:103E7000001DA042F6D831463846BDE8F041012287
:103E8000FDF747BF000801402DE9FC41002504462D
:103E900000952B462A46294668460195FDF7A8FC61
:103EA0009DF804209DF802104848D3074FF0010602
:103EB00000D0C68012074FF0030700D507710A072C
:103EC00004D504214171C580BDE8FC81CA0630D506
:103ED0000646807810B3F17831B100EB400004EB76
:103EE0000010C01CFFF7E2FCFDF7BAFC3848C178AF
:103EF00061704178212905D34178262906D9417876
:103F0000482903D240783349085C2070E078C01E0D
:103F1000A070207920707771F580D5E70421E01C2E
:103F2000FFF7C4FCE0780328DED9C01EC1B2E01D53
:103F3000D8E7CA071ED00546807870B100EB400074
:103F400004EB00103021C01CFFF7B0FCE8783038DB
:103F5000E870A878401CA870B6E70421E01CFFF7C1
:103F6000A5FC2C21E01DFFF7A1FCE0782F38E870BC
:103F7000AE70A9E78A0605D505700621417184F85F
:103F80000453A1E789079FD501780646302910D947
:103F90007078302100EB400004EB001000F5A170B8
:103FA00000F040FF7078401C70703078303830700E
:103FB0008AE7002988D0707800EB400004EB0010FD
:103FC00000F5A17000F02EFF35707DE76A0000203B
:103FD00046130020786C000810B55348FFF732FFF5
:103FE00051481E38FFF72EFF4F481830FFF72AFFC1
:103FF0004D484930FFF726FF4B486130FFF722FF5D
:1040000049481F30FFF71EFF47481938FFF71AFFCE
:1040100045486A30FFF716FF43482630FFF712FF86
:1040200041488630FFF70EFF3F489630FFF70AFF02
:104030003D483430FFF706FF3B481438FFF702FFD6
:1040400039483B30FFF7FEFE37485930FFF7FAFE9C
:104050003548A630FFF7F6FE33482D30FFF7F2FE65
:104060003148801DFFF7EEFE2F480C30FFF7EAFEC7
:104070002D480F38FFF7E6FE2B48AF30FFF7E2FE82
:104080002948B830FFF7DEFE2748C830FFF7DAFED0
:104090002548D830FFF7D6FE23485130FFF7D2FE2F
:1040A0002148E830FFF7CEFE1F487A30FFF7CAFEFE
:1040B0001E48FFF7C7FE1C48F330FFF7C3FE1C483D
:1040C000FFF7C0FE1A481030FFF7BCFE184820303A
:1040D000FFF7B8FE16483030FFF7B4FE1248423002
:1040E000FFF7B0FE11482838FFF7ACFE0F48203824
:1040F000FFF7A8FE0D481838FFF7A4FE0B4810384C
:10410000FFF7A0FE08481230FFF79CFE06480A3869
:10411000FFF798FE0448401FFFF794FE0348BDE8F0
:1041200010400838FDF744BBDE6C00089E000020FC
:10413000E16D00087FB50025184E044602952A4619
:104140004FF4005130460395FDF7E3FD01221103C2
:104150003046FDF7DEFD00231A46194602A8FDF79A
:1041600047FB0F4E3079012815D0412C00D941244E
:104170000220FFF7C1FB08210320CDE90001094817
:1041800000231A46005D194600F0A2F8B570F570DC
:1041900001207071002004B070BD0000000C0140CF
:1041A0006A000020366C00082DE9FF474FF0000838
:1041B0001C4691460F460546CDF80880CDF80C8088
:1041C000ADF800803F4E3079012822D0FB2C00D979
:1041D000FB24412F00D941273846FFF7ABFF2821A8
:1041E0001420FFF72FFB307903280DD185F80583C4
:1041F00086F804803846FFF79DFF28211420FFF73A
:1042000021FB3079032801D000200CE086F80580DE
:10421000042004B0BDE8F08719F800102A18401CEB
:1042200082F80611C0B2A042F6D3E01CE8704FF04D
:10423000010A2F71784085F805A080F00100A8716F
:10424000DFF8849085F8058352464FF400514846C4
:10425000FDF75FFD00224FF480514846FDF759FD00
:104260000320FCF7D9FC00231A46194602A8FDF7E3
:10427000BFFA0120FFF740FB05F583793C2C08D9F4
:10428000A4F13C0030700421E81C00F0CBFD3C217F
:1042900006E086F800800421E81C00F0C3FD2146FA
:1042A000484600F0BFFD05207071084885F804A35A
:1042B000221DC05D302100F03FF886F8018000200B
:1042C000A7E700006A000020000C0140366C0008DF
:1042D0002DE9F05F8046DDE90A799B4614468A465F
:1042E0000020FFF7EBFB134E4FF400450022294658
:1042F0003046FDF70EFD3220FFF77CFC4046FFF70D
:1043000079FC5046FFF776FC0020FFF773FCE0B223
:10431000FFF770FC5846FFF76DFC3846FFF76AFC64
:104320004846FFF767FC29463046BDE8F05F0122AA
:10433000FDF7EFBC000801402DE9F04107461446A7
:1043400088460020FFF7BAFB0E4E4FF400450022CE
:1043500029463046FDF7DDFC3120FFF74BFC38469F
:10436000FFF748FC4046FFF745FC0020FFF742FC02
:10437000E0B2FFF73FFC29463046BDE8F04101229C
:10438000FDF7C7BC0008014070B5054600244FF496
:104390007A7603E0304600F00BFF641CAC42F9D3A0
:1043A00070BD000070B5294800684FF00103400758
:1043B00001D12748037027484188491C89B24180B0
:1043C000B1F57A7F3FD300214180C01D8279521C14
:1043D000D2B282713C2A36D381714279521CD2B258
:1043E00042713C2A2FD34171C278521CD2B2C270A2
:1043F000182A28D3C170054644782D780D2C0FD289
:10440000DFE804F00E070B0709070907070907098A
:1044100007001F2204E01E2202E0AA0714D01C227B
:104420008678761CF6B2867096420CD9641CE2B28D
:10443000837042700C2A06D96D1CEAB24370027078
:10444000642A00D3017070BD1D22E9E74C000020F2
:1044500054000020B400002010B5FDF795FCBDE825
:10446000104001F0B5B830B58FB00920012100909F
:104470004FF48030002404910691CDE90104022517
:10448000CDE907504FF4E01009906846FDF742FE71
:1044900000B1FEE70F20CDE90A054FF48060CDE9B9
:1044A0000C4002210AA80E94FDF72EFD00B1FEE794
:1044B000FDF7D4FD4FF47A71B0FBF1F0FEF71AF975
:1044C0000420FEF70BF900220F21501EFDF7EAFC35
:1044D0000FB030BD0D48016841F001010160416835
:1044E0000B4A1140416001680A4A114001600168AD
:1044F00021F480210160416821F4FE0141604FF404
:104500001F0181600449C003086070470010024029
:104510000000FFF8FFFFF6FE08ED00E00148FEF79F
:10452000E7B90000FC030020F0B50268164B174CF9
:10453000174D4FF08047984205D0B84203D0A042B3
:1045400001D0A84203D122F070064A683243984253
:1045500005D0B84203D0A04201D0A84203D122F432
:104560004074CA68224322F080044A6922430260F0
:104570008A68C2620A688262984201D1096901634D
:1045800001214161F0BD0000002C01400004004009
:104590000008004010B5846842EA032224F47F44F6
:1045A0000A432243826010BD826822F070020A43EF
:1045B00042F007018160704710B5036A046A24F075
:1045C00001040462846924F0F00444EA021423F034
:1045D0000A020A438461026210BD10B5036A23F027
:1045E000100303628369046A23F4704343EA0232CE
:1045F00024F0A00343EA01118261016210BD0000B2
:104600002DE9F05F0126DFF8F0A03C4D3C4C4FF463
:1046100000594FF4804B00274FF4004808B1267032
:1046200001E0207898B141462846FDF76DFBA8B11E
:1046300049462846FDF768FB80B140215046FDF70A
:1046400063FB58B159462846FDF75EFB30B1414641
:104650002846FDF759FB012822D033E00A20FFF756
:1046600093FE277041462846FDF74EFB78B1494638
:104670002846FDF749FB68B140215046FDF744FB51
:1046800050B159462846FDF73FFB38B11AE00120EA
:10469000BDE8F09F0220FBE70420F9E70820F7E7D8
:1046A00049462846FDF730FB01280BD140215046F2
:1046B000FDF72AFB012805D159462846FDF724FBC2
:1046C00001280FD041462846FDF71EFB01280FD0D8
:1046D0006088401C80B26080B0F5487F09D967804F
:1046E0001120D5E7207826700028EBD10620CFE7EF
:1046F00067800020CCE70000000C01400010014062
:10470000C600002010B5406A0021C185C184FEF7B3
:10471000D6F910BD0168CA6822F49072CA600168B7
:104720004A6922F001024A61202180F83A1070475C
:1047300010B590F83A10222901D0022010BD8168EE
:10474000B1F5805F11D00169002901681FD0496867
:1047500001F07F03816A4A1C82620B70C18D491E81
:104760000904090CC18518D02BE00269816A002A6E
:104770000268526805D0D2B20A80816A491C8162FF
:10478000ECE7C2F308020A80816A891CF7E74A68ED
:10479000816A4B1C83620A70E0E70168CA6822F0F4
:1047A0002002CA600168CA6822F48072CA60016887
:1047B0004A6922F001024A61202180F83A10FEF78E
:1047C000C1FA002010BD00002DE9F0410446006848
:1047D0000169E26821F44051114301612169A06837
:1047E0000843616908432168CA6841F20C639A432F
:1047F0000243CA6020684169A26921F440711143F3
:1048000041614C4920686425322688423CD1FDF73D
:104810003BFC00EBC00101EB001061688900B0FBBC
:10482000F1F7FDF731FC00EBC00101EB001061680E
:10483000B0468900B0FBF1F0B0FBF5F06FF0180165
:10484000484307EB800106EB0110B0FBF5F000F0E8
:10485000F006FDF719FC00EBC00101EB00106168E8
:104860008900B0FBF1F0B0FBF5F006EB0016FDF7A8
:104870000BFC00EBC00101EB001061688900B0FB8C
:10488000F1F7FDF701FC3BE0FDF7EEFB00EBC001AB
:1048900001EB001061688900B0FBF1F7FDF7E4FB64
:1048A00000EBC00101EB00106168B0468900B0FB6D
:1048B000F1F0B0FBF5F06FF01801484307EB800111
:1048C00006EB0110B0FBF5F000F0F006FDF7CCFBB5
:1048D00000EBC00101EB001061688900B0FBF1F052
:1048E000B0FBF5F006EB0016FDF7BEFB00EBC001D8
:1048F00001EB001061688900B0FBF1F7FDF7B4FB34
:1049000000EBC00101EB001061688900B0FBF1F021
:10491000B0FBF5F06FF01801484307EB800108EB9E
:104920000110B0FBF5F0216800F00F003044886002
:10493000BDE8F0810038014090F83910212901D0FC
:10494000022070478168B1F5805F016A0BD04A1C74
:104950000262026809785160C18C491E0904090C81
:10496000C1840ED017E009880268C1F308015160C4
:1049700001690029016A02D0491C0162ECE7891C27
:10498000FBE70168CA6822F08002CA600068C1685B
:1049900041F04001C16000207047000010B5094897
:1049A000FEF794F80748FEF791F80648FEF788F8F6
:1049B0002028FAD1012204490248FEF799F900287B
:1049C000F8D110BD3C0400205500002010B5094866
:1049D000FEF77CF80748FEF779F80648FEF770F80E
:1049E0002028FAD1012204490248FEF781F9002863
:1049F000F8D110BD7C040020560000202DE9F041C4
:104A0000684A0546841CADF5087D07CA85AB83E876
:104A1000070028780D2874D16978A81CFCF7AAFB38
:104A20004FF00008002805D120780126AC2802D0DC
:104A3000682867D0B0E0A0790106FBD461795A4AB2
:104A400001F00F011170C2064FEA007005D4002872
:104A500002DB2046FEF704FD9EE000287BDB534886
:104A60000022C170B4F809100180E17A817003213D
:104A70000171467111462046FCF70CFB607910F07D
:104A8000600FE07900F10B0004D0C1B20022204693
:104A9000FCF750F98DF81002687004F10C0603223F
:104AA0004349F01EFBF7DEFB60B1607885AF1F382D
:104AB000C0B200EB800101EBC0013E480144002080
:104AC0004E7825E0CDF80080CDF804806A7843ABBD
:104AD000A91C3046FCF716FC8DF80C020A208DF854
:104AE0000D0202463448002343A9006801F0EEFCA1
:104AF0004FF4967000F060FD00230A2229462F48EB
:104B000026E04BE036E00A1892783A54401CC0B2D6
:104B1000B042F8D32A49607811F8012BFCF7F2F87B
:104B2000012819D0CDE900766A78607802ABA91C1B
:104B3000FCF794FB8DF81002224800230A2200782B
:104B40008DF809019DF810028DF808011E4802A990
:104B5000006801F0BBFC1FE09DF81022214602A86E
:104B6000FBF74EFB012384AA9DF8101202A8FCF764
:104B7000C3FAE1E7A81CFEF7E5FD1549134851F813
:104B8000032FC0F801204968C0F8051006700146DF
:104B90007F221048FFF79AF885F800800DF5087D10
:104BA000BDE8F081146C00080400002044000020DF
:104BB00060720008BC0400200800002014000020DF
:104BC000340200207200002018000020990200200A
:104BD0005819002000F800082DE9F0410024DFF802
:104BE000408017460D4606462346621E2146D8F8E9
:104BF000000001F071FB07E015F8010B3168490670
:104C0000FCD57060641CE4B2BC42F5D3D8F8000057
:104C1000BDE8F04100231A46194601F057BC0000D8
:104C20001C00002002685206FCD54160704700005D
:104C30000A4610B501460248FFF7CEFF002010BD1E
:104C4000003801402DE9F04791F800C04F4C002298
:104C50008B1C257803266D1C0B274FF0060A4FF09E
:104C60000D09EDB2BCF10D0F1CD2DFE80CF0071DF1
:104C7000272E3546515B676E78838A000123AC2866
:104C800006D068280ED1887081F80131082076E0BE
:104C90003F4D2D78002D05D088704B70227081F823
:104CA00001310B70BDE8F0874A78D0544878401C39
:104CB00048702570042DF5D3022060E04A78D05466
:104CC0004878401C48700E70ECE74A78D054487819
:104CD000401C4870042052E0E42803D981F80121E7
:104CE0000A70DFE74D78E8544B785B1C4B702270FC
:104CF00008B1052043E0504641E04E78F054487832
:104D0000401C48702570487A8542CBD32270F2E768
:104D10004A78D0544878401C48702570022DC1D381
:104D200007202CE05328D9D14C78E0544878401C17
:104D300081F8010081F80121484620E0B02801D027
:104D40002028CBD1C870092019E028B12028C5D867
:104D500008714E700A2012E008714E7008E04A781F
:104D6000541C4C70D05408794A78C01C824299D3A4
:104D70000F7097E74A78541C4C70D0540C20087080
:104D800090E74C78651C4D70E054D3E76900002033
:104D9000AE000020FEE7000070B50446C01DFCF721
:104DA00079FC0F4D0128A17804F1070007D0FCF72A
:104DB00065F938B1A178E01DFCF7B2F805E0FCF721
:104DC00015FB02E02878FFF7B5F9064800780028BF
:104DD00004D12878BDE87040FFF7ACB970BD000081
:104DE000720000206F00002010B5032401E0641E53
:104DF000E4B2FEF70FFE10B1002CF8D104E01CB1B4
:104E0000FFF7EAF8002010BD0449012008710246AE
:104E1000C1020348FCF77DFF012010BD6A0000209D
:104E2000000801402DE9F04106460D460020FEF73E
:104E300045FEDFF838804FF40047002239464046EF
:104E4000FCF767FF6620FEF7D5FE002404E0305D26
:104E5000FEF7D0FE641CE4B2AC42F8D339464046BB
:104E6000BDE8F0410122FCF754BF000000080140FA
:104E70002DE9F04115460E46074600240AE0385D4C
:104E800000F0B7F8010A06F8141006EB4401641CA0
:104E90004870E4B2AC42F2D36806000EBDE8F0817F
:104EA0002DE9F04115460F46064600240CE000BFF0
:104EB00016F81400010206EB44004078084300F0A5
:104EC0002EF93855641CE4B2AC42F1D36808BDE851
:104ED000F0810000014A024900F013B8E5510008D2
:104EE0003001002002E008C8121F08C1002AFAD1D0
:104EF00070477047002001E001C1121F002AFBD15A
:104F000070472DE9F04116460F460446002503E0A0
:104F10003946B047641C6D1C20780028F8D128461B
:104F2000BDE8F081F0B500235FEA021505EB8302CE
:104F3000C65C8C5C7440C4545418C21866781779E7
:104F40005B1C7E401671A678177ADBB27E40167223
:104F5000E478167B74401473042BE7D3F0BD000093
:104F6000FFB516460D4600226C46002102EB810378
:104F700001EB8207491CC35CC9B2E3550429F5D390
:104F8000521CD2B2042AF0D3002231462046FFF749
:104F9000C9FF0127684600F02BFE684600F00AFEB4
:104FA000684600F0E1FA3A4631466846FFF7BAFF34
:104FB0007F1CFFB20A2FEDD3684600F019FE684649
:104FC00000F0F8FD0A2231466846FFF7ABFF0020EB
:104FD0005FF0000101EB800200EB8103491CA25C41
:104FE000C9B2EA540429F5D3401CC0B20428EFD357
:104FF000FFBD70B5044600F007F805022007000E5B
:1050000000F002F8284370BD00F0F00040F001000D
:10501000010901EB501101EB9011C90701D040F0DB
:105020000800010901EB501101EBD011C90701D0B3
:1050300040F00400010901EB901101EBD011C90708
:1050400001D040F00200704710B503780C7863403F
:10505000137043784C786340537083788C78634046
:105060009370C078C9784840D07010BDF0B50C4638
:10507000054616460978007800F0BEF807466178C4
:10508000E87800F0B9F84740A178A87800F0B4F8C3
:105090004740E178687800F0AFF8474037702178F2
:1050A000687800F0A9F807466178287800F0A4F83D
:1050B0004740A178E87800F09FF84740E178A87869
:1050C00000F09AF8474077702178A87800F094F8BB
:1050D00007466178687800F08FF84740A178287813
:1050E00000F08AF84740E178E87800F085F847401A
:1050F000B7702178E87800F07FF807466178A878E3
:1051000000F07AF84740A178687800F075F84740D9
:10511000E178287800F070F84740F770F0BD70B57E
:105120000446000A00F008F800F0F005E0B200F0D4
:1051300003F845EA101070BD010901EB501202EBB3
:10514000901302EBD01201EB901103EBD00302EBB2
:10515000900201EBD011DB0701EB50014FEAC27264
:1051600010D04FEAC17132B111B180F01000704718
:1051700080F02000704711B180F04000704780F04F
:10518000080070474FEAC17132B111B180F0800060
:10519000704780F0040070470029FCD080F00200C6
:1051A00070470000014908607047000000000020BF
:1051B00070B54FF0E024002265690949A3690968C8
:1051C0004843A1699942FCD002D2A3EB010302E05B
:1051D000A5EB010633441A440B468242F1D370BD5D
:1051E000000000200349C2B20B685B06FCD54A6090
:1051F000704700000038014010B500231A46CC0764
:1052000000D0434010F0800F4FEA40604FEA10603A
:1052100001D080F01B00521C4908D2B2082AEED3FC
:10522000184610BDFFB516460D4600226C460021FB
:1052300002EB810301EB8207491CC35CC9B2E35551
:105240000429F5D3521CD2B2042AF0D30A223146E3
:105250002046FFF767FE0927684600F055F86846C4
:1052600000F070F83A4631466846FFF75BFE684644
:1052700000F022F87F1E17F0FF07EDD1684600F01E
:1052800043F8684600F05EF8002231466846FFF7B2
:1052900049FE00205FF0000101EB800200EB81037A
:1052A000491CA25CC9B2EA540429F5D3401CC0B21F
:1052B0000428EFD3FFBD0000FEB5054611A0002471
:1052C000006801AE02AF00905FF0000004EB8001C7
:1052D000695C3154401CC0B20428F7D302AA01A96A
:1052E0006846FFF7C3FE002004EB8002395C401CD7
:1052F000C0B2A9540428F7D3641CE4B2042CE3D34D
:10530000FEBD00000E090D0BF0B50121002300EBDE
:1053100081040FE0E578032202EB81063718521E64
:1053200017F8017C875512F0FF02F5D15B1C00F8DD
:105330002150DBB28B42EDD3491CC9B20429E5D31D
:10534000F0BD000070B50B4E0022002101EB82047D
:10535000491C055DC9B22B0905F00F0505EB0313C8
:105360000429F35C0355F1D3521CD2B2042AECD3C6
:1053700070BD00001B6F0008F8B50E462C270021F9
:1053800006EB810310F8212006F8212000EB8102B2
:10539000491C54785C7094789C70D278C9B2DA70E9
:1053A0000429EDD35FF0040506EB850414F8040C22
:1053B0008DF8000014F8030C8DF8010014F8020CAD
:1053C0008DF8020014F8010C8DF80300A8070DD128
:1053D000684600F0E3FB684600F024FCA808FEF7EE
:1053E00047FA01466A461046FFF72EFE14F8100DE4
:1053F0009DF80010484006F8250060789DF80110DF
:105400006D1C48406074A0789DF80210EDB24840D1
:10541000A074E0789DF803104840E074BD42C3D307
:10542000F8BD0000FCF7B8FCFFF71DF84820FFF7B7
:10543000B9FEFEF78DF83F483D49002401604FF466
:105440001641C0E901140C25C460C0E9044584611B
:10545000C461FDF7C3FB00B1FEE736483649403072
:1054600001604FF4E131C0E90114C460C0E90445B2
:105470008461C461FDF7B2FB00B1FEE7FEF7ECF812
:10548000FEF70AF92B482D49A43801600321416039
:105490004FF47A618160FCF747FC00B1FEE72548D4
:1054A000A438FCF76AFC23484038FDF79BF9012239
:1054B00023492048FDF71CFC21491E480122491CB4
:1054C0004030FDF715FCFEF74DFBFEF711F9FAF73A
:1054D00015FF1D4D33221B492846FEF7E9FB1949EC
:1054E0000878FF2804D10C7033222846FEF7EEFB23
:1054F0007F2216491648FEF7DBFB1649134851F880
:10550000032F40F8012F496841601048FEF764FC02
:10551000FBF7A0FB1048FCF733FAFFF765FC0E48D9
:105520000078FEF707FEFBF749F900F04CF8FEE7BC
:10553000003801403C04002000440040003000409E
:10554000550000203402002000F9000899020020D4
:1055500000F80008581900207200002001460020C1
:10556000842900D0C81C7047FEB5054611A0002450
:10557000006801AE02AF00905FF0000004EB800114
:10558000695C3154401CC0B20428F7D302AA01A9B7
:105590006846FFF76BFD002004EB8002395C401C7D
:1055A000C0B2A9540428F7D3641CE4B2042CE3D39A
:1055B000FEBD00000201010310B500B9012000F09A
:1055C00003FC002010BD10B500F0BEFC002010BD93
:1055D00010B501F0F3F8012803D0BDE8104000F049
:1055E0002FBE10BD3EB504460D46B0F90800FFF7CA
:1055F000B5FF02A9CDE90001208A2B4682B2D4E989
:10560000001001F049F8012801D000203EBD0298A9
:105610003EBD00002DE9F041184C0F460546E668F6
:105620002068001D00F00EFB38B9206890F82C109F
:1056300001208840216981432161681C07D137B16D
:105640002168BDE8F0410E48091D00F03FBB20680D
:105650003544B5424560216805D2A06BBDE8F041F4
:10566000091D00F01BBB606B091D00F017FBA06A51
:10567000854200D2A562BDE8F0810000F000002064
:10568000E84300202DE9F041054600F02BFB2E4CAD
:10569000A068401CA06020682C4F10B1606940B326
:1056A0002DE02560A068012829D1002606EB8600A0
:1056B00007EB800000F0E4FA761C082EF6D32348AE
:1056C000A03000F0DDFA2148B43000F0D9FA1F48CC
:1056D000C83000F0D5FA1D48DC3000F0D1FA1B4884
:1056E000F03000F0CDFA1948A03060631430A063A8
:1056F00005E02068E96AC06A884200D82560606ACF
:10570000401C6062E96A01202269884010432061E0
:1057100001EB810007EB8000291D00F0D7FA00F0B3
:1057200001FB606900280CD02068E96AC06A8842E1
:1057300007D207494FF080500860BFF34F8FBFF387
:105740006F8FBDE8F0810000F0000020F8420020DB
:1057500004ED00E070B5114E114C17E000F028FC8C
:105760003068B8B101F0A4F900F0BCFAF068C5687F
:10577000281D00F067FAA068401EA0606068401E07
:10578000606000F0CFFA284600F055F86068002805
:10579000E4D170BD01F08CF9F8E70000D44300209B
:1057A000F000002030B4026C0B46002A0BD0C16818
:1057B0001144C1604468A14201D30168C16030BC9A
:1057C0001846FAF71DBD30BC70472DE9F041856BD6
:1057D000174604460026026C82B1C7B1E068FAF7AA
:1057E0000FFDE168206C091AE1602268914202D243
:1057F0006168081AE060022F16D017E02068A8B987
:10580000606801F093F80646002060600EE0A06832
:10581000FAF7F6FC216CA0680844A0606168884231
:1058200004D32068A06001E005B16D1E6D1CA56366
:105830003046BDE8F08110B50446006B00F086FAF2
:105840002046BDE8104000F081BA00000F4842F643
:105850009011420705D0C01D0C4A20F00700821AA3
:10586000891A0B4A00230144C2E900030839103A9F
:1058700021F0070111604B600B600B1AC0E90013A7
:1058800093604FF000405360D0607047651900206E
:10589000DC000020074C4FF08056074DFFF75AFF01
:1058A00020680128FAD92E60BFF34F8FBFF36F8FA6
:1058B000F4E70000F842002004ED00E02DE9F04795
:1058C0000E46DDE909841746824691009946089DF7
:1058D000A522206BFAF7B4FC6FF00301206B01EBFB
:1058E0008701084420F00707780707D0502080F38D
:1058F0001188BFF34F8FBFF36F8FFEE72218315C23
:1059000082F83410315C11B1401C1028F6D3002607
:1059100084F84360082D00D30725E562C4E91156D9
:10592000201D00F0B8F904F1180000F0B4F924616A
:10593000C5F108006462A061E66484F850604A46DC
:105940005146384600F018F92060B8F1000F01D038
:10595000C8F80040BDE8F08730B5114900E01146B5
:105960000A688242FBD34B685C18844203D14068CA
:1059700018444860084643681C18944209D1084CF2
:10598000103C2468A24209D052681A4442600A6856
:1059900012680260814200D0086030BD0460F9E7FF
:1059A000DC00002010B5044600F09CF9A06B28B183
:1059B0005FF0000400F0B6F9204610BD0124F9E7BD
:1059C0000648416B096829B1416BC968C9684968D3
:1059D000816270474FF0FF31FAE70000F0000020CD
:1059E00008484068401C4FF0500080F3118804D0F4
:1059F000BFF34F8FBFF36F8FFEE7BFF34F8FBFF340
:105A00006F8FFEE7E40000200346002012B19943A7
:105A100002D070470B42FCD0012070472DE9F041C5
:105A2000044600F05FF994F9455004F1240609E0BA
:105A3000606A48B1304600F0C5FF08B100F0EAF9ED
:105A40006D1E6DB2002DF3DC4FF0FF3684F845601B
:105A500000F068F900F046F994F9445004F1100799
:105A600009E0206948B1384600F0ACFF08B100F009
:105A7000D1F96D1E6DB2002DF3DC84F84460BDE8F1
:105A8000F04100F04FB900002DE9F0410546002734
:105A900000F08EFA314E306808B9FFF7D7FEF06893
:105AA00005424BD1C5B3083568070ED005F0070095
:105AB000C0F108000544680707D0502080F3118822
:105AC000BFF34F8FBFF36F8FFEE72DB37068854232
:105AD00034D82248103001460C6801E020460C46BC
