:020000040800F2
:10000000D01A002001010008632B0008AF1C000873
:10001000612B000839020008294600080000000092
:10002000000000000000000000000000B5340008DF
:100030000F03000800000000852B0008D13B0008DA
:100040001B0100081B0100081B0100081B01000820
:100050001B0100081B0100081B0100081B01000810
:100060001B0100081B0100081B0100081B01000800
:100070001B0100081B0100081B0100081B010008F0
:100080001B0100081B0100081B0100081B010008E0
:100090001B0100081B0100081B0100081B010008D0
:1000A0001B010008753D00081B0100081B0100082A
:1000B0001B0100081B0100081B0100081B010008B0
:1000C0001B0100081B0100081B01000895320008F5
:1000D0001B010008E9420008194300081B01000841
:1000E000110300081B0100081B010008DFF80CD0F9
:1000F00000F07AF800480047E54D0008D01A0020CB
:100100000648804706480047FEE7FEE7FEE7FEE7B1
:10011000FEE7FEE7FEE7FEE7FEE7FEE7493C0008F4
:10012000ED000008202A04DB203A21FA02F0002129
:10013000704721FA02F3D040C2F1200291400843F7
:10014000194670470649074A0868504343F2390286
:10015000104408604008704701490860704700007B
:10016000940000206D4EC64110B5431A934209D247
:100170008318881803E010F8011D03F8011D521EB2
:10018000F9D210BD40EA01039B0703D009E008C97A
:10019000121F08C0042AFAD203E011F8013B00F84C
:1001A000013B521EF9D210BDD2B201E000F8012B82
:1001B000491EFBD270470022F6E710B513460A46E7
:1001C00004461946FFF7F0FF204610BD30B504463F
:1001D0000020034600E05B1C934203D2E05CCD5C50
:1001E000401BF8D030BD0000064C074D06E0E0682B
:1001F00040F0010394E8070098471034AC42F6D36E
:10020000FFF778FF505700087057000810B51B2201
:100210000649074800F081F80649012008700348A4
:100220001321BDE810402030FFF7C5BF350D002079
:1002300000F800086A000020FEE7000070B50346E1
:100240004FF6FF7000220D4D14E000BF13F8014B74
:10025000521C84EA000606F00F0692B235F81660CA
:1002600086EA101080EA141404F00F0435F81440E4
:1002700084EA10108A42E9D370BD0000F2550008EC
:1002800070B50646002002F06BFF0A4D4FF40044A3
:1002900000222146284600F06AFC342003F018F8BA
:1002A000304603F015F821462846BDE8704001228B
:1002B00000F05DBC000801402DE9F0410E46074604
:1002C0005FF0000505EB451006EBC004207868B12F
:1002D000207A797900F00F0001F00F01884205D1F2
:1002E0000422791C201DFFF771FF28B16D1CEDB2AF
:1002F000082DE7D3BDE8F08100202070A27896F8A1
:10030000400801219140884386F84008F2E7704791
:100310004FF4805000F038BB7047012303EB5202CA
:1003200003F034B8012303EB520203F03DB80000A0
:100330002DE9F0470446C07992460709884600F047
:100340000F0600251AE000BF04EB051108318946AD
:1003500010223348FFF708FF324A33493048BAF1D8
:10036000000F02D004F03EFC01E004F0E3FA48463E
:1003700010222D49FFF7F8FE6D1CEDB2BD42E3D30C
:10038000E6B3BAF1000F04EB071114D01022244891
:100390000831FFF7E9FE234A2349214804F022FCF3
:1003A00004EB0510324620490830FFF7DDFE08EB6C
:1003B0000600103820E008310D4632461848FFF795
:1003C000D3FE0020034606EB0712C6F1100104E03D
:1003D00017182744401C3B72C0B28142F8DC114A16
:1003E00011490F4804F0A6FA284610220E49FFF7DB
:1003F000BBFEA8EB06001030C5B201E0FFE74546A2
:10040000E81E81B22046FFF719FF020A611901F8C0
:10041000032D4870532088702846BDE8F0870000FF
:10042000250D0020750C0020350D0020064A002106
:10043000D16106490A6942F002020A61486108690D
:1004400040F0400008617047400300200020024057
:10045000044B0022DA61044A136943F0010313617B
:100460000180704740030020002002401448002211
:10047000C168CB06134904D5CA6942F00202CA61B9
:100480001022C3685B0705D5CB6943F00103CB613C
:1004900042F00402C369DB0707D0CB6943F00403D1
:1004A000CB61C16921F00101C161A2F580710139FF
:1004B00001D0C2607047C16921F00101C16170477C
:1004C000002002404003002070B5054600F054FBB8
:1004D0000646114C09E0681C07D025B100F04CFB22
:1004E000801BA84201D9032070BDE068C007F2D18B
:1004F000E068800601D52020E060E068C00605D4F1
:10050000E069C00702D1E068400703D5FFF7AEFFFE
:10051000012070BD002070BD0020024070B505466E
:100520000078AC2802D0682811D101E0C91E00E093
:10053000891ECCB221462846FFF780FE295DB1EB2B
:10054000102F04D12919C0B24978884201D0012066
:1005500070BD002070BD70B50546AC2028700C46FB
:100560002846FFF76BFE010A2955641CE1B2685466
:10057000491CC8B253212954401CC0B270BD70B58B
:100580000446AC202070A07920F02000A071E07912
:100590000830C5B229462046FFF750FE010A6155D2
:1005A0006D1CE9B26054491CC8B253212154401C4F
:1005B000C0B270BD30B41446827902F09802182A95
:1005C00017D009DC82B1082A13D0102A18D104F6FA
:1005D000420230BC02F0CEBB902A0ED0982A0FD136
:1005E000224630BC02F066BB214630BC1A4602F0FF
:1005F00085B8214630BCFFF75FBE30BC02F030BB8F
:1006000030BC70472DE9F0410546002002F0A8FDFE
:100610000B4F4FF4004600223146384600F0A7FA4F
:100620000024285D02F054FE641CE4B2082CF8D3C8
:1006300031463846BDE8F041012200F098BA00008A
:10064000000801402DE9F04704461F4690468946C0
:10065000002002F085FD164E4FF400450022294689
:10066000304600F084FA202002F032FE484602F0C4
:100670002FFE404602F02CFE384602F029FE0122F1
:100680002946304600F073FA012002F069FD002788
:10069000AA2002F01DFEE0557F1CFFB2082FF7D301
:1006A00029463046BDE8F047012200F060BA00005C
:1006B0000008014070B5002002F052FD1E4E4FF4BC
:1006C000004500222946304600F051FA222002F06F
:1006D000FFFD01222946304600F049FA012002F0D0
:1006E0003FFDAA2002F0F4FD144C2070AA2002F075
:1006F000EFFD6070AA2002F0EBFDA070AA2002F0CE
:10070000E7FDE070AA2002F0E3FD2071AA2002F0CC
:10071000DFFD6071AA2002F0DBFD0002E080AA206C
:1007200002F0D6FDE1880843E08029463046BDE866
:100730007040012200F01BBA00080140660600204C
:1007400070B5002002F00CFD204E4FF40045002251
:100750002946304600F00BFA012002F0B9FD0122D3
:100760002946304600F003FA012002F0F9FCAA20E5
:1007700002F0AEFD164C2070AA2002F0A9FD000286
:100780006080AA2002F0A4FD618808436080AA204E
:1007900002F09EFD2071AA2002F09AFD0002E08086
:1007A000AA2002F095FDE1880843E080AA2002F02B
:1007B0008FFD2072AA2002F08BFD60722946304620
:1007C000BDE87040012200F0D2B9000000080140ED
:1007D000660600200F490A784B7889781A44511828
:1007E00007D0C906890E4A1C017042700A2903D03D
:1007F00006E00A21017002E00C2101700D21417018
:10080000027805498B5C054AD3714078085C107208
:1008100070470000720000200C5000085A000020B1
:1008200010B590F821100024022903D0042181631F
:1008300001243DE001680A6822F00E020A600168A6
:100840000A6822F001020A601A4A0168914201D145
:10085000012121E0174A1432914201D110211BE0FD
:10086000144A2832914201D1891515E0114A3C32CF
:10087000914201D189140FE00E4A5032914202D1C7
:100880004FF4803108E00B4A6432914202D14FF4B8
:10089000801101E04FF08071064A083A5160012151
:1008A00080F82110002180F82010416B01B18847A9
:1008B000204610BD080002400348016941F0800154
:1008C0000161002070470000002002402DE9F05F28
:1008D00007461C4888460024017E15461E4601290D
:1008E00009D00121814601764CF2503A5046FFF77B
:1008F000EBFD18B122E00220BDE8F09F012F02D0ED
:10090000022F00D00427D346DFF83CA0220128465E
:100910003146FFF707FC81B208EB4400FFF798FD72
:100920005846FFF7D1FDDAF8102022F00102CAF88C
:10093000102018B9641CE4B2BC42E7D3002289F845
:100940001820D9E74003002000200240064900207B
:100950000A69120607D5054A4A60054A4A600969CC
:10096000090600D501207047002002402301674599
:10097000AB89EFCDB0F5805F02D1024802F01EBE18
:100980007047000060030020044910B50A68024265
:1009900002D00860FFF7EEFF10BD00001404014014
:1009A0002DE9F84FDFF890A100220AF1040B14465C
:1009B00001274FF00F090BF1040E00BF0B6807FA77
:1009C00004F52B40AB4274D1DFF870C14E68A6EB42
:1009D0000C0866452BD00DDC032E34D005DC36B375
:1009E000012E19D0022E2FD11BE0112E16D0122E5F
:1009F0002AD119E0B8F5881F19D006DCB8F5803F78
:100A000015D0B8F5801F1FD111E0B8F5001F0ED02A
:100A1000B8F5041F18D10AE0CA6815E0CA68121DAB
:100A200012E0CA6808320FE0CA680C320CE08A682B
:100A30002AB1012A4FF0080203D0456104E00422E4
:100A400002E0056100E00022FF2B01D8064601E02C
:100A500000F104064FEA840501D9A5F12005D6F876
:100A600000C009FA05F82CEA080C02FA05F54CEA70
:100A7000050CC6F800C04D68ED0057D5304DAE6985
:100A800046F00106AE61AD6924F0030605F00105EC
:100A900000952C4D06EB050CDCF80850A6074FEA34
:100AA000167809FA08F6B543274EB04202D100265F
:100AB00010E03BE0254EB04201D101260AE0244E71
:100AC000B04201D1022605E0224EB04201D10326F8
:100AD00000E0042606FA08F62E43CCF808604D68BC
:100AE000DAF80060ED03554601D51E4300E09E4351
:100AF0002E604D68DBF80060AD035D4601D51E43F6
:100B000000E09E432E604D68DEF80060ED02754601
:100B100001D51E4300E09E432E604D68AD020E4D90
:100B20002E6801D51E4300E09E432E60641C102CED
:100B3000FFF444AFBDE8F88F00040140000011103D
:100B4000001002400000014000080140000C01407C
:100B500000100140001401400C040140806808406E
:100B600000D001207047C2684A40C26070470AB195
:100B7000016170470904FBE7014880687047000085
:100B80001400002002488168027811448160704797
:100B900014000020074810B5016841F01001016001
:100BA000032000F09DF8002000F006F800F024F883
:100BB000002010BD0020024070B50D4D04464FF4DA
:100BC0007A712878B1FBF0F00A490968B1FBF0F0BE
:100BD00000F0FBFC48B9102C07D200222146501E21
:100BE00000F05EF800206C6070BD012070BD000058
:100BF0001400002020000020214808B5816941F040
:100C000001018161816901F001010091C16941F037
:100C10008051C161C06900F080500090032000F055
:100C20005FF8002211466FF00B0000F039F8002247
:100C300011466FF00A0000F033F8002211466FF001
:100C4000090000F02DF800221146501F00F028F88E
:100C500000221146101F00F023F800221146901EBA
:100C600000F01EF800221146501E00F019F8054849
:100C7000416821F0E06141F00071416008BD000071
:100C8000001002400000014000F01F0201219140CD
:100C90004009800000F1E020C0F80011704700001A
:100CA000F0B40E4B1B680C46C3F30223C3F10705D7
:100CB000042D00D90425191D072901D2002300E0C5
:100CC000DB1E012606FA05F1491E214099409E408F
:100CD000761E16403143F0BC01F044BF0CED00E03D
:100CE000064900F0070208684FF6FF03184040EA83
:100CF0000220034A10430860704700000CED00E03A
:100D00000000FA052DE9F047DFF83C8105460E4664
:100D1000D8F8000000F00700B0420CD2D8F800105C
:100D200021F007013143C8F80010D8F8000000F0A6
:100D30000700B04263D12878444C800705D560682D
:100D4000A96820F0F000084360602878C00745D00B
:100D50006868012816D02168022816D08907002962
:100D60004DDA616821F0030101436160FFF704FF80
:100D70006968074641F2883001290FD0022981466F
:100D800019D027E021688903E9E78901E7E700BF77
:100D9000FFF7F2FEC11B494501D918E081466068A2
:100DA000C0F381000128F3D118E000BFFFF7E4FE93
:100DB000C11B49450BD86068C0F381000228F5D1FA
:100DC0000CE000BFFFF7D8FEC11B494502D9032044
:100DD000BDE8F087606810F00C0FF3D1D8F8001070
:100DE000404601F00701B1420BD9016821F007012B
:100DF00031430160006800F00700B04201D00120DB
:100E0000E6E72878400705D56068E96820F4E060E7
:100E1000084360602878000706D56068296920F4D7
:100E2000605040EAC100606000F03CF86168084A28
:100E3000C1F30311515CC840064908600020FFF768
:100E4000BBFE0020C4E7000000200240001002406A
:100E5000F44F00082000002001480068704700009F
:100E6000200000200448054900684968044AC1F38D
:100E70000221515CC8407047200000200010024051
:100E8000045000080448054900684968044AC1F351
:100E9000C221515CC8407047200000200010024071
:100EA0000450000812A185B00FC98DE80F0014A0EE
:100EB000144A006804905168134801F00C03042B95
:100EC00010D0082B0ED1C1F38343C9031DF80300D2
:100ED0000AD5516804AAC1F34041515C0A4A504303
:100EE000B0FBF1F005B0704708494843FAE700004D
:100EF00002030405060708090A0B0C0D0E0F10105B
:100F0000010200000010024000127A0000093D00BA
:100F10002DE9F84F04460078B94DC00748D06868FD
:100F2000C0F38100012807D06868C0F3810002285F
:100F300009D16868C00306D52868800338D5606881
:100F400000286FD034E06068B0F5803F0BD010B15E
:100F5000B0F5A02F11D0286820F4803028602868D0
:100F600020F4802002E0286840F480302860606827
:100F700088B1FFF701FE064609E0286840F48020AA
:100F80002860F0E7FFF7F8FD801B642875D8286813
:100F90008003F7D50CE0FFF7EFFD064605E000BF44
:100FA000FFF7EAFD801B6428F0D828688003F7D497
:100FB0002078944E80074FF001094FF000083BD590
:100FC000686810F00C0F07D06868C0F38100022831
:100FD00009D16868C00306D42868800714D5206941
:100FE00001281FD110E02069B0B1C6F80090FFF7CA
:100FF000C3FD074605E000BFFFF7BEFDC01B02288A
:10100000C4D828688007F7D52868616920F0F800FF
:1010100040EAC10028600FE0C6F80080FFF7ACFD91
:10102000074606E0E9E000BFFFF7A6FDC01B022867
:1010300023D828688007F7D4207800072CD5724879
:10104000A169D9B1C0F80090FFF796FD074604E00A
:10105000FFF792FDC01B02280FD8686A8007F7D5FA
:101060006A484FF4FA510068B0FBF1F0009000BFFD
:101070000098411E0091FAD20EE080E0C0F8008096
:10108000FFF77AFD074604E0FFF776FDC01B022854
:1010900075D8686A8007F7D42078400760D5E8697A
:1010A0000027C00008D4E86940F08050E861E86992
:1010B000012700F08050009055480168C90513D4FD
:1010C0000168834641F480710160FFF755FD824657
:1010D00006E000BFFFF750FDA0EB0A0064284ED8E1
:1010E000DBF80000C005F5D5E06801280AD008B19A
:1010F000052813D0286A20F001002862286A20F011
:10110000040002E0286A40F001002862E06841F231
:10111000883B98B1FFF730FD82460BE0286A40F02B
:1011200004002862EEE700BFFFF726FDA0EB0A01EE
:1011300059455AD8286A8007F6D50CE0FFF71CFD00
:10114000824605E0FFF718FDA0EB0A0159454CD88F
:10115000286A8007F6D41FB1E86920F08050E86162
:10116000E06988B36968C1F38101022945D002288A
:10117000C6F8608004D0FFF7FFFC044638E034E096
:10118000FFF7FAFC074604E0FFF7F6FCC01B022855
:101190002BD828688001F7D4206AB0F5803F05D1AC
:1011A0006868A16820F4003008436860D4E9080149
:1011B0000843696821F4741108436860C6F86090B8
:1011C000FFF7DAFC044606E015E000BFFFF7D4FCA9
:1011D000001B022809D828688001F7D50BE000BF62
:1011E000FFF7CAFC001B022802D90320BDE8F88FD4
:1011F00028688001F4D40020F8E70120F6E7000019
:1012000000100240000042428004424220000020C0
:10121000007000407047000038B50446006842681E
:1012200081684B0605D4CB0703D0530601D5216C4A
:1012300004E08B0707D5130605D5616C01B0204685
:10124000BDE83040084711F0600F3FD093063DD510
:101250004B060AD594F85130032B34D0636D43F01C
:1012600004036365C36883680093890609D5616DCB
:1012700041F00101616581680091016821F0400140
:101280000160606D002821D02068416821F0E001F4
:101290004160012084F85100900718D0206841680F
:1012A00021F0030141600C4DE06C18B14563E06C26
:1012B000FFF7B6FAA06C002808D04563A06CBDE823
:1012C0003840FFF7ADBAC1688068009038BD20464D
:1012D000FFF7A0FF38BD0000C132000870B5040060
:1012E00005D00025A56294F8510010B104E001205A
:1012F00070BD204600F034F8022084F851002068C8
:10130000016821F040010160D4E901010843D4E9FA
:1013100003121143084361690843218B01F40071F2
:101320000843E1690843216A0843A16A0843216828
:101330000860A069042101EA1040616A084321683D
:1013400048602168E06A08612068C16921F4006191
:10135000C1616565012084F85100002070BD000066
:1013600010B50068184986B088422BD117488169AA
:1013700041F4805181618069154C00F480500490E3
:101380002820009002200190032003906946204607
:10139000FFF706FB00211020CDE90001029169460C
:1013A0002046FFF7FDFA0B48416841F0E06141F04B
:1013B00001014160002211462320FFF771FC232028
:1013C000FFF762FC06B010BD003001400010024083
:1013D000000C0140000001402DE9F84F044690F850
:1013E000500000260A9F9A4693460D464FF001088A
:1013F00001280ED0012084F85000FFF7BDFB814684
:1014000094F85100616801280CD0B1F5827F07D1B2
:1014100002E00220BDE8F88FA16809B9042801D0D4
:101420000226BDE055B1BBF1000F07D0BAF1000FA5
:1014300004D094F85100012802D004E00126AFE066
:10144000052084F8510000206065C4F838B0A4F885
:101450003EA0A4F83CA02563A4F836A0A4F834A0CC
:101460002064606420680168490603D4016841F083
:1014700040010160E068B0F5006F606804D0E8B337
:10148000E08E01283BD06AE010B1E08E01282ED119
:10149000216835F8020BC860E08E401EE08626E029
:1014A000B8F1000F0DD0E08E58B12068816889072F
:1014B00007D535F8021BC160E08E401EE0864FF074
:1014C0000008E08F58B120688168C90707D0C0685C
:1014D0002BF8020BE08F401EE0874FF00108781CCC
:1014E00005D0FFF749FBA0EB0900B84246D2E08ED9
:1014F0000028D5D1E08F0028D2D136E0FFE721685F
:1015000015F8010B0873E08E401EE08627E000BF4F
:10151000B8F1000F0DD0E08E58B1206881688907BE
:1015200007D515F8011B0173E08E401EE0864FF0D1
:101530000008E08F58B120688168C90707D0C068EB
:101540000BF8010BE08F401EE0874FF00108781C7C
:1015500005D0FFF711FBA0EB0900B8420ED2E08ED8
:101560000028D5D1E08F0028D2D13B4601220221AC
:101570002046CDF8009001F0BDFE08B103260FE033
:101580004A463946204601F08BFE18B1012620203C
:10159000606505E0A06818B92068C168806800909F
:1015A000012084F85100002084F85000304631E7D3
:1015B0004FF0E0210428086903D020F004000861FE
:1015C000704740F00400FAE7704710B5401EB0F1D4
:1015D000807F01D3012010BD4FF0E02460610F2116
:1015E000601701F0BFFA0020A061072020610020F1
:1015F00010BD10B5FFF7E8FF10BD7047704730B55C
:1016000090F83C20012A20D0012280F83C200223BF
:1016100080F83D3003685C6824F070045C60036807
:101620005C680D682C435C6003689C6824F080044F
:101630009C6003689C6849680C439C6080F83D206E
:10164000002180F83C10084630BD022030BD10B5A6
:10165000040003D094F83D0010B107E0012010BD54
:10166000002084F83C00204600F00CF8022084F8AA
:101670003D00211D206802F083FB012084F83D001D
:10168000002010BD08B500680B49884212D10B48F4
:10169000816941F4006181618069002200F4006089
:1016A000009001211920FFF7FBFABDE8084019203E
:1016B000FFF7EABA08BD0000002C0140001002400C
:1016C0000168CA6842F00102CA600068016841F01E
:1016D000010101600020704770B5044690F83C009D
:1016E000012817D0012584F83C50022084F83D00E1
:1016F0002068826822F0770222F47F4282600868C4
:10170000502837D00DDC202859D005DC88B31028AC
:1017100041D151E0022070BD302853D040283AD149
:101720003FE060282ED070280BD0B0F5805F03D04A
:10173000B0F5005F2FD110E02068816821F007012B
:1017400015E0CB68D1E90121206802F04FFB216848
:10175000886840F0770088601DE0CB68D1E90121FE
:10176000206802F043FB2068816841F48041816079
:1017700011E01EE0CA684968206802F049FB502168
:10178000206806E0CA684968206802F052FB6021C0
:10179000206802F035FB84F83D50002084F83C00BE
:1017A00070BDCA684968206802F032FB4021206899
:1017B000EFE700212068ECE710212068E9E720210D
:1017C0002068E6E730212068E3E7704770B50446FB
:1017D000006801694FF00005C943890715D4C16845
:1017E000C943890711D4E91E0161012020772068CF
:1017F00080698007204602D0FFF7E7FF04E000F091
:1018000098F8204600F096F8257720680169C943CA
:10181000490717D4C168C943490713D46FF00401BD
:101820000161022020772068806910F4407F204603
:1018300002D0FFF7CAFF04E000F07BF8204600F07A
:1018400079F8257720680169C943090716D4C1686A
:10185000C943090712D46FF0080101610420207701
:101860002068C0698007204602D0FFF7AEFF04E081
:1018700000F05FF8204600F05DF8257720680169E8
:10188000C943C90617D4C168C943C90613D46FF048
:1018900010010161082020772068C06910F4407FA2
:1018A000204602D0FFF791FF04E000F042F8204606
:1018B00000F040F8257720680169C943C90708D1BD
:1018C000C168C943C90704D1891E0161204600F0DF
:1018D00033F820680169C943090609D4C168C943BE
:1018E000090605D46FF0800101612046FFF785FEEF
:1018F00020680169C943490609D4C168C94349063A
:1019000005D46FF040010161204600F033F82068F3
:101910000169C94389060BD4C168C943890607D444
:101920006FF0200101612046BDE87040FFF766BE00
:1019300070BD70477047000010B50C490068096819
:10194000884211D10A4C6068401C606002F0E6F8E1
:1019500060684FF47A71B0FBF1F201FB12000028CD
:1019600002D1A068401CA06010BD000080020020D1
:10197000040000207047704710F8391F4078084372
:101980007047000070B5026804461068D16853695A
:1019900010F00F0F50D003F0010501F4907635439D
:1019A0005DD0C20705D0CA0503D5E26B42F0010243
:1019B000E263420705D5DA0703D0E26B42F0020288
:1019C000E263820705D5DA0703D0E26B42F0040236
:1019D000E263020705D5DA0703D0E26B42F00802A2
:1019E000E263E26B002A33D0800604D5880602D574
:1019F000204602F044FB20684069E16BC0F3801090
:101A0000090700D428B3204602F02BFB2068416967
:101A100049061AD5416921F040014161606BA0B1CE
:101A20001B494163606BFEF7FBFE002810D0606B22
:101A3000416BBDE870400847830610D58B060ED574
:101A40002046BDE8704002F01ABB2046FFF793FF26
:101A500070BD2046FFF78FFF0020E06370BD0306D6
:101A600006D50B0604D52046BDE8704002F00ABC3E
:101A70004006F3D54806F1D5D168204621F0400153
:101A8000D160202184F8391000F010F970BD0000F9
:101A90005340000870B5040004D094F839000025C4
:101AA00010B106E0012070BD84F83850204600F0E7
:101AB00023F8242084F839002068C16821F40051FB
:101AC000C160204602F026FB2068016921F49041A4
:101AD00001612068416921F02A0141612068C168E3
:101AE00041F40051C160E563202084F8390084F896
:101AF0003A00002070BD000070B5274E0368002436
:101B0000264902200322264D86B0B3421ED18B699E
:101B100043F480438B618969039201F4804104910D
:101B20000102CDE9001069462846FEF739FF281565
:101B3000CDE90004694628460294FEF731FF0022F1
:101B400011462520FFF7ACF8252020E0154EB342C2
:101B50001FD1CB6943F40033CB61C969039201F40F
:101B6000003104910421CDE9001069462846FEF7B2
:101B700017FF0820CDE90004694628460294FEF7C5
:101B80000FFF002211462620FFF78AF82620FFF7D4
:101B90007BF806B070BD0000003801400010024024
:101BA000000801400044004090F83A30202B22D138
:101BB000F9B1F2B190F83830012B1CD081628285E6
:101BC000C2850021C163222280F83A2080F83810B3
:101BD0000168CA6842F48072CA6001684A6942F0CA
:101BE00001024A610068C16841F02001C160002023
:101BF000704701207047022070470000F0B425496B
:101C0000234C036800250A88A34216D14B881C0484
:101C100013D4214C5E04247804D50A2C0CD143F44F
:101C2000004319E00D2C15D0C3F30D061B4F5B1CB0
:101C3000C72ABC554B8000D94D800068184B98428C
:101C400024D118481304007818D4530409D50A285D
:101C500013D103E043F480434B80EEE742F40042AB
:101C600012E00D280ED0C2F30D030C4C521CC83CE0
:101C700092B2E0540A80C72A00D90D80F0BC0A490C
:101C800002F02ABC42F480420A80F7E7F0BC7047B9
:101C900000440040040000201300002060010020E8
:101CA0000038014012000020700A00207047FEE753
:101CB00070B501220E4D140221462846FEF757FF4B
:101CC0000122560231462846FEF751FF012002F05C
:101CD00059FF002221462846FEF749FF012002F065
:101CE00051FF31462846BDE870400022FEF73FBF55
:101CF000000C014070B5104D4FF480740022214655
:101D00002846FEF734FF0122560231462846FEF7E8
:101D10002EFF012002F036FF012221462846FEF761
:101D200026FF012002F02EFF31462846BDE8704014
:101D30000022FEF71CBF0000000C01402DE9F0411D
:101D4000294D064600244FF400774FF48078002296
:101D500039462846FEF70BFF300601D5012200E088
:101D6000002241462846FEF702FF012002F00AFF4A
:101D7000012239462846FEF7FAFE012002F002FF52
:101D80007006641C060EE4B2082CE0D3002239462B
:101D90002846FEF7ECFE012002F0F4FE0122464642
:101DA00041462846FEF7E3FE012002F0EBFE012249
:101DB00039462846FEF7DBFE012002F0E3FE01E093
:101DC000641CE4B231462846FEF7C8FE08B1FF2C79
:101DD000F6D3002239462846FEF7C9FEBDE8F04199
:101DE000012002F0CFBE0000000C0140704700004F
:101DF00008B500200090022269460548FEF78DFADA
:101E00000448BDF8001001809DF80210817008BDE3
:101E100012F800087200002010B5044601F01EFA06
:101E2000204601F0EFF9BDE8104001F01BBA0000B8
:101E300070B516460C46082800D908204000401C02
:101E4000C5B2FFF735FFA820FFF778FF2846FFF758
:101E500075FF34B1012C06D0022C11D0032C09D10E
:101E600010E0002000E03046FFF768FF5FF0000060
:101E7000FFF764FFFFF73EFFBDE8704001F005BAD1
:101E8000002000E03046FFF759FF3046F0E7000041
:101E900070B50E460446FFF70BFFA820FFF74EFF74
:101EA0000120FFF74BFF2D4D44B1012C15D0022C22
:101EB00026D0032C45D136E0042C0AD00020FFF7B1
:101EC0003DFF0020FFF73AFF641CE4B2092CF3D376
:101ED00037E0A87900F0A4F9F6E7002401E0042C2B
:101EE0000AD03046FFF72AFF0020FFF727FF641CC7
:101EF000E4B2092CF3D324E0A87900F091F9F6E7D5
:101F0000002401E0042C0AD00020FFF717FF304620
:101F1000FFF714FF641CE4B2092CF3D311E0A87995
:101F200000F07EF9F6E7002401E0042C11D03046E1
:101F3000FFF704FF3046FFF701FF641CE4B2092CF1
:101F4000F3D3FFF7D7FEBDE870405521162002F00D
:101F50008BBCA87900F064F9EFE700006C0D00205D
:101F600030B500230DE0C45CCD5CAC4202D94FF02B
:101F7000010030BD02D24FF0020030BD03F1010379
:101F8000DBB29342EFD3002030BD2DE9F0410C4687
:101F900080461121204600F035F9C0F11100C6B28B
:101FA000C6F11100C2B2A1190D46404600F0F6F884
:101FB0000024C6F1120707E0FAB2691E08EB04001C
:101FC00000F0ECF8641CE4B2B442F5D3BDE8F08153
:101FD0000021421852784254491CC9B21029F8D342
:101FE00000210174704770B50024012B4FF01003DD
:101FF0000DD0C51815F8015C05FB0144A4B2D454FA
:10200000240A5B1E13F0FF03F3D1147070BDC618D1
:10201000D55C16F8016C06FB01552C44A4B2D454CF
:10202000240A5B1E13F0FF03F1D1107820441070D6
:1020300070BD00002DE9F0430C46814698461646D7
:102040001021204600F0DEF8C0F110010D1900212A
:102050000A467254491CC9B21129FAD30024471EFA
:102060000FE000BFFFF7BFFF41463046FFF78DFF8F
:102070003046FFF7ADFF41463046FFF786FF641C50
:10208000E4B2BC42295D4FF0010332464846E9DB29
:10209000FFF7A9FF41463046BDE8F043FFF775BFA3
:1020A0002DE9F05F8A4683461D4617460826102113
:1020B000104600F0A7F804006BD010225146584695
:1020C000FEF752F8C4F1100000EB0708002198F861
:1020D0000000020607D44006761E491C000EC9B255
:1020E000F6B20829F5D34006070E761E06F0FF0962
:1020F00000261BE059462A4608460A9BFFF79AFF2E
:102100001022691C5846FEF72FF838060AD52A46D1
:10211000594650460A9BFFF78DFF1022691C58460E
:10212000FEF722F87806070E761CF6B24E45E1D38C
:102130001948002108F1010801708146671E25E059
:1021400018F80160002459462A4608460A9BFFF702
:1021500071FF1022691C5846FEF706F830060AD5B2
:102160002A46594650460A9BFFF764FF1022691C15
:102170005846FDF7F9FF7006641C060EE4B2082C01
:10218000E1D399F80010491C89F80010C9B2B9428E
:10219000D6DBBDE8F09F000083000020F0B51546B7
:1021A0000E46074626E000202C4621E03B19321956
:1021B00013F8011C12F8012C8A4209D128B1A1EBB5
:1021C0000201A1F10101C9B20DE04FF000010AE0E6
:1021D000A1EB0000A0EB0200C1B202D24FF0000060
:1021E00001E04FF00100A4F1010403F8011CE4B286
:1021F000002CDBD12A4631463846FFF7B1FE0228D3
:10220000D1D1F0BD002206E0835C13B1881AC0B2C0
:102210007047521CD2B28A42F6D3002070470000A9
:1022200010B50C4C00F003010129E0790BD051B13D
:1022300002290CD003290CD1FFF780FDE079BDE81D
:102240001040FFF77BBDFFF779FD0020F7E7002086
:10225000F2E710BD6C0D002070B5234CA278521C23
:10226000D2B2A2708A4216D300252146A570097801
:10227000627801F03F017AB1012A1AD0022A25D0F2
:102280000121FFF705FE2078401CC0B22070142801
:1022900001D36570257070BD144A515CFFF7F8FDDD
:1022A0002078401CC0B220703F28F4D90120607013
:1022B000F0E71F21FFF7ECFD2078401CC0B2207032
:1022C0001428E8D3022060703F2007E0074A40321C
:1022D000515CFFF7DDFD207810B1401E207070BD0D
:1022E0000320607070BD00007C0000204E56000886
:1022F0002DE9F041054604200C4605F00F06B0EB31
:10230000151F16D1032E03D815F003000BD000E0E3
:102310000120217A002904D10121217240F04000DE
:10232000A071BDE8F081207A1028FAD1022008724D
:10233000F7E70527B7EB151F0CD10120FFF76CFD60
:102340000020E070A6706079B7EB101F00D02071FC
:102350006571E6E76079A842E3D00120FFF75CFDF4
:10236000F6E70321FFF778BF0F21FFF791BD0A229F
:102370000F2100F091B9000070B5027A05461007F0
:102380002AD01F4CA079401CC0B2A071082823D3CA
:10239000A87910F0030006D0012804D0022804D048
:1023A000032804D004E0012102E0022100E003211F
:1023B00013480026A6714079012A00F03F000CD096
:1023C000022A09D10F4A125CEA710420FFF730FD9E
:1023D000607998B1401E607170BD0A4A403A125C43
:1023E000EA710420FFF724FD60793F2804D33F20E1
:1023F00060711020287270BD401CECE72E7270BD19
:102400007C0000200E57000870B504468278C07822
:102410000D4600287ED1022A02D20F220620ADE00E
:10242000042A07D20F220620FFF702FD0F222946B9
:102430000720A3E0062A0CD20F220620FFF7F8FCA3
:102440000F2229460720FFF7F3FC0F222946082018
:1024500094E0082A11D20F220620FFF7E9FC0F2290
:1024600029460720FFF7E4FC0F2229460820FFF742
:10247000DFFC0F222946002080E00A2A16D20F2214
:102480000620FFF7D5FC0F2229460720FFF7D0FCD6
:102490000F2229460820FFF7CBFC0F2229460020F7
:1024A000FFF7C6FC0F222946012067E00C2A1BD249
:1024B0000F220620FFF7BCFC0F2229460720FFF75A
:1024C000B7FC0F2229460820FFF7B2FC0F2229464D
:1024D0000020FFF7ADFC0F2229460120FFF7A8FCE2
:1024E0000F222946022049E00E2A4FF00F024FF03A
:1024F000060020D2FFF79CFC0F2229460720FFF799
:1025000097FC0F2229460820FFF792FC0F2229464C
:10251000002000E034E0FFF78BFC0F222946012069
:10252000FFF786FC0F2229460220FFF781FC0F22CD
:102530002946032022E0FFF77BFC0F2229460720D3
:10254000FFF776FC0F2229460820FFF771FC0F22C7
:1025500029460020FFF76CFC0F2229460120FFF7D7
:1025600067FC0F2229460220FFF762FC0F22294652
:102570000320FFF75DFC0F2229460520FFF758FCDA
:10258000E078401CC0B2E0703F2804D90120FFF77A
:1025900043FC2079607170BD70B504460D464078EB
:1025A000617AC2060FD520F01000607041F0010082
:1025B00060720120FFF730FC142229460020FFF74B
:1025C00037FC14220DE0C2070FD020F0010060702C
:1025D00021F001006072002229461046FFF728FC16
:1025E000002229460120FFF723FC6078410610D520
:1025F00020F040006070607A40F0040060720120BA
:10260000FFF70AFC142229460520FFF711FC1422CB
:102610000EE0410710D520F004006070607A0022BF
:1026200020F00400607229460520FFF701FC00221B
:1026300029460620FFF7FCFB607A00BB61790A0996
:1026400011F0030106D0012906D0022906D0032982
:1026500006D006E0002004E0012002E0022000E0B5
:102660000320012A06D0022A07D0032A08D0052A0F
:102670000DD108E0FFF775FE09E0FFF775FE06E0F3
:10268000FFF775FE03E003212046FFF7BDFE20465D
:10269000BDE87040FFF770BE70B5174C06460D469A
:1026A000E078401CC0B2E070904223D30021E1707A
:1026B0002079401CC0B22071092801D321710DE09E
:1026C000042806D050B1C0B2401EC0B2042803D0C6
:1026D00005E005202071F6E7032000E00820002235
:1026E0003146FFF7A5FB2A4631462079BDE8704008
:1026F000FFF79EBB70BD00007C0000202DE9F04775
:10270000054690460E4601F642040930032266490A
:102710008246FDF75BFD002788B3634903220F3132
:102720005046FDF753FD4FF0060948B35E490322BA
:10273000891D5046FDF74AFD38B35B490322093134
:102740005046FDF743FD010005F10800804606F6FE
:102750004A0649D0544903220C315046FDF736FD54
:10276000E0B351490322891F5046FDF72FFD002891
:102770007ED1204600F09EF800287AD088E000E064
:1027800004E0287B4146FFF7B3FD2BE005F10C0088
:1027900000F092FE00B3AA79012142F04002AA7132
:1027A0000128E1711BD057212172002875D0042225
:1027B000691C601CFDF7D8FC68796071A87940F04D
:1027C0008000A0712046FDF7DAFE01462046BDE8F4
:1027D000F047364A01F076BEE771E6E710E084F88C
:1027E0000890E2E7E77158E0014604223046FDF721
:1027F000BBFC032020730220607384F807904CE038
:10280000207B00F00F01000900EB800001EB40018C
:1028100027480170617B01F00F02C1F3001101EB49
:10282000810102EB41014170A17B01F00F02C1F374
:10283000011101EB810102EB41018170E17B01F0AB
:102840000F02C1F3011101EB810102EB4101C170E3
:10285000217C01F00F02C1F3021101EB810102EBB7
:1028600041014171617C01F00F02C1F3021101E0ED
:1028700017E005E001EB810102EB41018171B1E755
:10288000A87940F04000A8710520E071072020736E
:10289000042241463046FDF767FC03490422123109
:1028A00087E7BDE8F087000018560008720B00208B
:1028B0007500002010B504460D220B490B48FDF7AA
:1028C0002CFD0D210848FDF729FE08B1002010BDA0
:1028D00005490822C91C04F10C00FDF745FC0C2039
:1028E000E071012010BD0000C016002040F8000873
:1028F0002DE9F041354886B0816941F010018161D0
:10290000816901F010010491816941F02001816128
:10291000816901F020010491816941F00401816124
:10292000816901F004010491816941F0080181612C
:102930008069274F00F0080048F622050490002225
:1029400029463846FEF713F9DFF888804FF46076A1
:10295000002231464046FEF70AF90024B001CDE9D5
:10296000000469461C480294FEF71AF80220CDE9DB
:10297000024000950125694601953846FEF710F89A
:10298000280300901548CDE9010469463846FEF752
:1029900007F84020CDE90004694640460294FDF75F
:1029A000FFFF0320CDE90240CDE9006569464046BE
:1029B000FDF7F6FF002211462820FEF771F92820C6
:1029C000FEF762F906B0BDE8F08100000010024099
:1029D00000080140000C01400010014000002110DF
:1029E0000E4810B50C4901604FF48271416000211E
:1029F0008160C1604FF400720161C0E905122022BC
:102A0000C0E90721416281620A21C162FEF766FCCA
:102A1000002800D0FEE710BD003001402802002051
:102A200010B5144886B01249016047210024C0E95E
:102A3000011440F2E731C0E9031444618461FEF7F8
:102A400006FE00B1FEE74FF4805000906946094849
:102A5000FEF742FE00B1FEE7049404A90548059480
:102A6000FEF7CDFD002800D0FEE706B010BD000047
:102A7000002C01408002002070B5114D114E002441
:102A8000142001F03DF81049104801F071FC0E4986
:102A90000F4800F0A9FA0D220E492846FDF73DFC2B
:102AA000641C322C04D900240C21304601F05BFC5C
:102AB0000D210848FDF732FD0028E1D170BD00006E
:102AC00040F80008003801406C0D0020700A00201A
:102AD0007C0D0020C01600202DE9F0418046407892
:102AE0000C46202834D10D2241461A48FDF76EFBD2
:102AF0002125FF2648B3184F3846FDF70DFC0D225F
:102B000041463846FDF70EFC0D2212493846FDF7C6
:102B100004FC0D2241460F48FDF758FBA8B12220C6
:102B200060700020E070682020700120A0700421F7
:102B30002046FDF783FB010A217160712046BDE844
:102B4000F041064A062101F0BDBC6570E670EAE777
:102B5000BDE8F081C016002040F80008720B00208C
:102B6000FEE770470907090E002806DA00F00F009B
:102B700000F1E02080F8141D704700F1E02080F89B
:102B800000147047704710B53F210320FFF780F90C
:102B90003F2203210420FFF74BF94FF4FA6000F0C5
:102BA000AFFFBDE810400020FFF736B970B505460D
:102BB00008480C460068FDF7CFFAFDF7C3FA611B21
:102BC000491CB0FBF1F2BDE8704001FB12000A3075
:102BD00000F096BF0800002030B50D4C012807D04A
:102BE00014D94FF00201A0F101002170C5B20AE032
:102BF0004FF00100207009E020784FF0020101F051
:102C0000DBFF2070EDB26D1E002DF5DC004830BDFD
:102C10006C0000202DE9F04106460D46002000F032
:102C20009FFADFF838804FF40047002239464046CB
:102C3000FDF79DFF772000F04BFB002405E0AA2064
:102C400000F046FB3055641CE4B2AC42F7D3394681
:102C50004046BDE8F0410122FDF789BF0008014070
:102C600070B50D46044603220F49801CFDF7AEFAED
:102C7000002817D1607910F0600F0FD00B48007852
:102C800000280FD0012229462046FDF751FB0146BE
:102C90002046BDE87040064A01F014BC2046FDF70E
:102CA0006EFCF4E770BD0000720000206B00002095
:102CB000720B00202DE9F04116460F46054602F63C
:102CC000420403222549801CFDF780FA00283DD1EB
:102CD00096F84008FF2839D06879214E10F0600F2F
:102CE00007D03078002831D0012239462846FDF738
:102CF0001FFB2846FDF743FC01461A4A284601F00F
:102D0000E1FB0422691C601CFDF72EFA68796071F2
:102D1000A87900F07F00A0710020E0712046FDF747
:102D20002EFC01466079104D104F10F0600F0FD04F
:102D3000307800280AD000222046FDF7F9FA2978D9
:102D4000034622460A4800F0BBFD3870BDE8F0811A
:102D500028780B4622460146F4E700007200002066
:102D60006B000020720B00202E0000202A000020A3
:102D7000600300202DE9F84F044687795BA01546D3
:102D80000068009060798A4600F07F00607104F16D
:102D900009001426032256498346FDF717FA002836
:102DA00054494FF000094FF001084FF0030204F1BD
:102DB000020008D0FDF70AFAA8B147F0400785F8ED
:102DC000078007203AE0FDF701FA30B910224A499E
:102DD00004F11400FDF7FAF960B147F0400785F8F7
:102DE000078005202AE0607910F0600F02D0434888
:102DF0000078F0B185F8079060794FF0010810F085
:102E0000600F05D0002251462046FDF791FA824618
:102E1000032237495846FDF7D9F90028A079DFF891
:102E2000E09000F007000BD0DFF8D8B0022822D0E5
:102E300038E047F0400785F807805320287241E0CA
:102E4000022814D10A2000F00FFD142000F058FED3
:102E500003236A460A212C4800F032FD89F800005D
:102E6000761EF6B2192000F04BFE002EF0D153462C
:102E700022460A211AE09BF8000000F0F5FC14201D
:102E800000F03EFE9BF8001003236A461E4800F047
:102E900017FD89F80000761EF6B2192000F030FE0A
:102EA000002EEFD19BF8001053462246164800F042
:102EB00007FD89F80000B8F1000F03D00C49042287
:102EC000153101E00422611C681CFDF74DF96079A1
:102ED000687147F08000A8712846FDF750FB014655
:102EE0000A4A284601F0EEFABDE8F88FABCDEF00B4
:102EF0001556000872000020550D00206B000020C0
:102F00002A0000202E00002060030020720B002009
:102F1000F8B504460020009000F022F9144D4FF45B
:102F20000046002231462846FDF721FE152000F01C
:102F3000CFF9204600F0CCF9012231462846FDF7B2
:102F400016FE012000F00CF900246F46AA2000F0C4
:102F5000BFF93855641C9DF80100E4B28DF80000FB
:102F6000022CF3D3012231462846FDF700FEF8BDBE
:102F7000000801402DE9F843184F804607F110047E
:102F800004F1110604F1240510213046FDF713F970
:102F900010213846FDF70FF911212046FDF70BF9F6
:102FA00011212846FDF707F910220D493846FDF793
:102FB000DBF80B4910221031601CFDF7D5F8132205
:102FC00008493046FDF7D0F82B463A463146404690
:102FD0000094FFF765F8BDE8F8830000750C002049
:102FE0002E560008550D00202DE9F0410646887A3E
:102FF0000C462C4F2C4D01072AD03A4600F00F0109
:103000002A481278012906D002290CD0032915D0AC
:10301000042911D012E0002A42D106F64201801C98
:10302000FFF75AFD10E02978052907D1002A37D18A
:103030002978052934D001E0002A31D1417823468E
:103040003246801CFDF7B6FAA07A20F00F00A0727D
:10305000A07A010924D000F0F000102802D0202826
:1030600004D009E0387800281AD105E03878002823
:1030700016D12878052813D00D482346324681788A
:10308000C01DFDF797FAA07A20F0F000A072287812
:10309000052805D007480078BDE8F04100F0E4BB02
:1030A000BDE8F081720B00202B000020700A002088
:1030B000600300202E0000207CB5264C4FF4805089
:1030C00020804610244D012231462846FDF74FFD51
:1030D000022000F015FD002231462846FDF747FD8D
:1030E0000A2000F00DFD3601002231462846FDF78A
:1030F0003EFD022000F0ECF8012000F0E9F800208D
:1031000000F0E6F8012000F0E3F8C92000F0E0F854
:10311000C32000F0DDF8802000F0DAF8012231460B
:103120002846FDF724FD022000F0EAFC00231A46A1
:1031300019466846FDF786FAFDF702FB202020803D
:1031400006484088A0F58841383901D001207CBD6F
:1031500000207CBD300000200008014066060020F1
:103160002DE9F04107461C4804881C4E4FF40045E9
:10317000002229463046FDF7FAFC442000F0A8F86A
:103180000EE0012229463046FDF7F1FC00222946D7
:103190003046FDF7ECFC442000F09AF8641EA4B21F
:1031A000C02000F095F8FF2802D0002CE9D109E0FA
:1031B00044B1002F0ED129463046BDE8F04101222E
:1031C000FDF7D5BC012229463046FDF7D0FC044965
:1031D00002200870BDE8F0813000002000080140A6
:1031E0002A00002010B5FEF701FE012280210448CC
:1031F000FDF7BDFCBDE810400020FEF70DBE00004D
:10320000000C014070B50646FEF752FDA820FEF7FF
:1032100095FD0120FEF792FD0F4D002466B1082CAC
:1032200002D0092C05D007E0A879C00704D0E879BE
:1032300003E0A8798007FAD40020FEF77FFD641C24
:10324000E4B2122CEAD3FEF755FDBDE870405521DB
:10325000162001F009BB00006C0D0020002108467B
:1032600001F002BB10B50121002001F0FDFA3F2161
:10327000132001F0F9FA3F21142001F0F5FA3F2163
:10328000BDE81040152001F0EFBA5521162001F0DD
:10329000EBBA00000148FDF7BFBF00002802002084
:1032A00038B50B46009204460022802100F022F837
:1032B000002804D0606D40F020006065032038BD18
:1032C00010B5406A0021C187C186FDF7A3FF10BD7C
:1032D00001B582B04FF47A7000900123034A02A92D
:1032E0000348FEF779F8014800780EBD240000205D
:1032F000280200202DE9F0411D4617460E460446DF
:10330000DDF8188035E0681C33D02DB1FDF734FCB2
:10331000A0EB0800A8422CD32068416821F0E0010E
:1033200041606068B0F5827F0BD1A068B0F5004FB6
:1033300002D0B0F5806F04D12068016821F040010F
:103340000160A06AB0F5005F0AD1206801684DF6FF
:10335000FF72114001602068016841F40051016072
:10336000012084F85100002084F850000320BDE8BB
:10337000F0812068806836EA000004D00020B8425E
:10338000C1D10020F3E70120F9E7000010B50023C8
:1033900006E000BF30F8024B21F813405B1C9BB2E3
:1033A0009342F7D310BD00002DE9F05FA0F1006457
:1033B00015468A468346B4F5803F5FD2FDF7C6FACC
:1033C000A70AC4F34806C6F50074A54200D82C46E7
:1033D000DFF8AC904FF0006000EB872080464FF4A0
:1033E00000722749FFF7D2FF00204FF6FF7106E079
:1033F000331839F813208A4203D1401C80B2A0420E
:10340000F6D3A0422ED24046FDF710F84CF25030D1
:10341000FDF75AF81B48016921F002010161002003
:10342000494606E03AF810208319401C21F8132081
:1034300080B2A042F6D3124940464FF4007200BF5A
:1034400000F022F8A54215D0281B0AEB440A0BEB2A
:10345000440B002685B24FF400747F1CA542B9D8F6
:103460002C46B7E74CF25030FDF72EF82246514675
:103470005846E5E7BDE8F05FFDF71EBABDE8F09FEE
:1034800070060020002002402DE9F04116460F464C
:10349000054600240AE000BF37F81420002329461F
:1034A0000120FDF713FA641CA4B2AD1CB442F3D39F
:1034B000BDE8F08170470000F8B52A4F05460026A8
:1034C0001B22274938460096FCF727FF2448132281
:1034D00029462030FCF748FE214C662084F8350050
:1034E0002046FFF747FDE078297C884207D1E07944
:1034F000697C884203D1E07AA97C884201D0012608
:103500002BE01749032230311748FCF72DFE1749ED
:10351000134801F011FC3846FCF7FEFE1B2210494F
:103520003846FCF7FFFE10480222801E4188ADF8A5
:10353000001000798DF802000A4869461230FCF745
:10354000F1FE0B49012008700A48FDF743F901F02C
:103550006DF90848007800F087F93046F8BD0000A2
:10356000350D002000F8000872000020750C0020C6
:103570006B0000202E0000202DE9F04105460024BC
:103580002046FFF7EDFD0C4F4FF400460022314678
:103590003846FDF7ECFA04E0285DFFF799FE641C5D
:1035A000E4B2A878001DA042F6D831463846BDE8FE
:1035B000F0410122FDF7DBBA000801402DE9FC4192
:1035C0000025044600952B462A4629466846019563
:1035D000FDF738F89DF804209DF802104848D307FD
:1035E0004FF0010600D0C68012074FF0030700D548
:1035F00007710A0704D504214171C580BDE8FC812B
:10360000CA0630D50646807810B3F17831B100EBA8
:10361000400004EB0010C01CFFF7FCFAFDF74AF86D
:103620003848C17861704178212905D3417826292D
:1036300006D94178482903D240783349085C207084
:10364000E078C01EA070207920707771F580D5E7F2
:103650000421E01CFFF7DEFAE0780328DED9C01E63
:10366000C1B2E01DD8E7CA071ED00546807870B108
:1036700000EB400004EB00103021C01CFFF7CAFA39
:10368000E8783038E870A878401CA870B6E70421C4
:10369000E01CFFF7BFFA2C21E01DFFF7BBFAE07832
:1036A0002F38E870AE70A9E78A0605D505700621A7
:1036B000417184F80453A1E789079FD50178064634
:1036C000302910D97078302100EB400004EB001055
:1036D00000F5A17001F0DAF87078401C7070307855
:1036E000303830708AE7002988D0707800EB4000CD
:1036F00004EB001000F5A17001F0C8F835707DE70B
:1037000026000020660600204E50000810B55348E1
:10371000FFF732FF51481E38FFF72EFF4F48183091
:10372000FFF72AFF4D484930FFF726FF4B4861302D
:10373000FFF722FF49481F30FFF71EFF474819389F
:10374000FFF71AFF45486A30FFF716FF4348263057
:10375000FFF712FF41488630FFF70EFF3F489630D3
:10376000FFF70AFF3D483430FFF706FF3B481438A7
:10377000FFF702FF39483B30FFF7FEFE374859306C
:10378000FFF7FAFE3548A630FFF7F6FE33482D3036
:10379000FFF7F2FE3148801DFFF7EEFE2F480C3098
:1037A000FFF7EAFE2D480F38FFF7E6FE2B48AF3053
:1037B000FFF7E2FE2948B830FFF7DEFE2748C830A1
:1037C000FFF7DAFE2548D830FFF7D6FE2348513000
:1037D000FFF7D2FE2148E830FFF7CEFE1F487A30CF
:1037E000FFF7CAFE1E48FFF7C7FE1C48F330FFF77D
:1037F000C3FE1C48FFF7C0FE1A481030FFF7BCFE9E
:1038000018482030FFF7B8FE16483030FFF7B4FEF6
:1038100012484230FFF7B0FE11482838FFF7ACFEDF
:103820000F482038FFF7A8FE0D481838FFF7A4FE10
:103830000B481038FFF7A0FE08481230FFF79CFE37
:1038400006480A38FFF798FE0448401FFFF794FE29
:103850000348BDE810400838FCF7D4BEB450000857
:103860005A000020B75100087FB500250446029594
:103870002B462A46294602A80395FCF7E3FE0E4E86
:103880003079012815D0412C00D941240220FFF7BE
:103890003FFB08210320CDE90001084800231A4618
:1038A000005D194600F0D0F8B570F5700120707118
:1038B000002004B070BD0000260000200C5000085D
:1038C0002DE9FF5F00261D46924604468846B34612
:1038D00001960296ADF80060594F3879012819D049
:1038E000FB2D00D9FB250846B8F1410F01D9412035
:1038F0008046FFF7B9FF28211420FFF757F93879E0
:10390000B946032801D000200FE084F805B389F8F8
:1039100005B0042004B0BDE8F09F00BF1AF8001005
:103920002218401C82F80611C0B2A842F6D301202A
:1039300084F8050394F80C01C1434A0704F5837128
:1039400003913DD000F00700022839D094F80D0112
:10395000642835D294F80B01000631D40827A5F16C
:10396000010A14E0E01990F8060101F02CF8ADF816
:103970000000BDF80000020ABDF80000A119B61C45
:1039800081F805227F1C81F80602F6B2FFB2574586
:10399000E8DB04F5877029460746FCF70CFC04F2C7
:1039A000052132460D463846FCF7DEFB31462846F7
:1039B000FCF701FC0836F1B20398FCF7CCFD054694
:1039C000E81CE07084F80480012780EA0800677131
:1039D00080F00100A0715E4684F805B30320FCF777
:1039E0004FFC00231A46194601A8FCF72BFE0120C4
:1039F000FFF78EFA3C2D09D9A5F13C0089F80000AB
:103A00000421E01C00F042FF3C2106E089F8006040
:103A10000421E01C00F03AFF2946039800F036FF2D
:103A2000052189F80510074984F804732A1D11F847
:103A30000800302100F03CF889F80160002069E7B7
:103A4000260000200C5000082DE9F05F8046DDE9DB
:103A50000A799B4614468A460020FFF781FB134EE5
:103A60004FF40045002229463046FDF780F8322009
:103A7000FFF72EFC4046FFF72BFC5046FFF728FCD3
:103A80000020FFF725FCE0B2FFF722FC5846FFF7C5
:103A90001FFC3846FFF71CFC4846FFF719FC294677
:103AA0003046BDE8F05F0122FDF761B80008014033
:103AB0002DE9F0410746144688460020FFF750FBE9
:103AC0000E4E4FF40045002229463046FDF74FF8D0
:103AD0003120FFF7FDFB3846FFF7FAFB4046FFF7C2
:103AE000F7FB0020FFF7F4FBE0B2FFF7F1FB2946FC
:103AF0003046BDE8F0410122FDF739B80008014029
:103B000070B5054600244FF47A7603E0304601F0A4
:103B100039F8641CAC42F9D370BD000070B5294877
:103B200000684FF00103400701D127480370274880
:103B30000188491C89B20180B1F57A7F3FD3002109
:103B40000180401D8279521CD2B282713C2A36D348
:103B500081714279521CD2B242713C2A2FD34171F9
:103B6000C278521CD2B2C270182A28D3C17005463E
:103B700044782D780D2C0FD2DFE804F00E070B07E8
:103B8000090709070709070907001F2204E01E2289
:103B900002E0AA0714D01C228678761CF6B2867042
:103BA00096420CD9641CE2B2837042700C2A06D98A
:103BB0006D1CEAB243700270642A00D3017070BDBC
:103BC0001D22E9E7080000201000002070000020FE
:103BD00010B5FCF7D7FFBDE81040FDF70ABD30B5C2
:103BE0008FB001210804CDE90010002402940225C1
:103BF0000491CDE907504FF4E01009906846FDF7B5
:103C000087F900B1FEE70F20CDE90A054FF4806087
:103C1000CDE90C4002210AA80E94FDF773F800B11B
:103C2000FEE7FDF719F94FF47A71B0FBF1F0FDF7FB
:103C3000CCFC0420FDF7BCFC00221146501EFDF711
:103C40002FF80FB030BD00000D48016841F00101B0
:103C5000016041680B4A1140416001680A4A114005
:103C60000160016821F480210160416821F4FE01B6
:103C700041604FF41F0181600449C0030860704730
:103C8000001002400000FFF8FFFFF6FE08ED00E024
:103C90002DE9F0412F4E30782F4F012807D1010335
:103CA0002E48FCF75BFF10B93878FFF7DDFD2C4894
:103CB00001782C4D0024032910D195F8051361B12A
:103CC000491CC9B285F80513122907D985F805439F
:103CD00004703878FFF7C8FD00E0047022480188BE
:103CE00049B10188491C89B20180122903D9048095
:103CF0003878FFF7B9FD95F8040348B1401CC0B20D
:103D000085F80403192803D985F804430620307088
:103D10001648017802290AD190F80211491CC9B24B
:103D200080F80211072902D980F802410470104876
:103D300090F8011100290AD090F80111491CC9B26C
:103D400080F80111092902D980F801410470BDE809
:103D5000F08100002B0000202E0000200008014010
:103D60002A000020600300202C000020720B00209D
:103D7000700A00200148FDF729BD000080020020E4
:103D8000F0B50268164B174C174D4FF0804798421C
:103D900005D0B84203D0A04201D0A84203D122F0FE
:103DA00070064A683243984205D0B84203D0A04218
:103DB00001D0A84203D122F44074CA68224322F001
:103DC00080044A69224302608A68C2620A68826289
:103DD000984201D10969016301214161F0BD0000F0
:103DE000002C0140000400400008004010B5846829
:103DF00042EA032224F47F440A432243826010BD36
:103E0000826822F070020A4342F007018160704725
:103E100010B5036A046A24F001040462846924F082
:103E2000F00444EA021423F00A020A4384610262A5
:103E300010BD10B5036A23F0100303628369046A9E
:103E400023F4704343EA023224F0A00343EA011151
:103E50008261016210BD000070B504464FF400415C
:103E60002048FCF77BFE02001F494FF000004FF096
:103E7000010540F2537315D00E78B24210D08E78FF
:103E8000761CF6B28E70082E09D94870607840F022
:103E9000010060704889984200D225700A7070BD98
:103EA000887070BD0A786AB18A78521CD2B28A7062
:103EB000082AF6D9627842F0100262708870488150
:103EC000087070BD887048780028FAD14889401C75
:103ED00080B248819842F4D34B81102020704D70FD
:103EE00070BD0000001001408400002010B50446A1
:103EF0004FF400511048FCF731FE1049002268B120
:103F0000CB78984208D00B795B1CDBB20B71082B85
:103F100001D90A71C87010BD0A7110BDC878002897
:103F2000FAD00879401CC0B208710828F5D90A7186
:103F3000CA700220207010BD0010014084000020D3
:103F400070B5044640211F48FCF708FE1E490022B8
:103F500040F25373B0B14D79A84211D0CD796D1CA8
:103F6000EDB2CD71082D0AD98A71627842F004024F
:103F700062708A899A4201D204222270487170BD0F
:103F8000CA7170BD487968B1C879401CC0B2C871A7
:103F90000828F6D9607840F040006070CA718A81C4
:103FA0004A7170BDCA7188790028FAD18889401C8D
:103FB00080B288819842F4D38B8140202070012008
:103FC000887170BD000C01408400002010B50446CB
:103FD0004FF480411048FCF7C1FD1049002268B140
:103FE0000B7A984208D04B7A5B1CDBB24B72082BE1
:103FF00001D94A72087210BD4A7210BD087A0028B1
:10400000FAD0487A401CC0B248720828F5D94A72E2
:104010000A720820207010BD0010014084000020AA
:1040200010B504460078002812D12046FFF714FF8F
:104030002046FFF75BFF2046FFF782FF2046FFF791
:10404000C5FF2078002803D0E06840F00200E0605F
:1040500010BD10B5406A0021C185C184FDF78BFCFD
:1040600010BD0168CA6822F49072CA6001684A698A
:1040700022F001024A61202180F83A10704710B501
:1040800090F83A10222901D0022010BD8168B1F5C4
:10409000805F11D00169002901681FD0496801F0D3
:1040A0007F03816A4A1C82620B70C18D491E09041C
:1040B000090CC18518D02BE00269816A002A0268C8
:1040C000526805D0D2B20A80816A491C8162ECE74D
:1040D000C2F308020A80816A891CF7E74A68816A8C
:1040E0004B1C83620A70E0E70168CA6822F0200274
:1040F000CA600168CA6822F48072CA6001684A69AD
:1041000022F001024A61202180F83A10FDF776FD85
:10411000002010BD2DE9F041044600680169E26805
:1041200021F44051114301612169A068084361698C
:1041300008432168CA6841F20C639A430243CA608B
:1041400020684169A26921F44071114341614C49E1
:1041500020686425322688423CD1FCF793FE00EBB0
:10416000C00101EB001061688900B0FBF1F7FCF7BA
:1041700089FE00EBC00101EB00106168B0468900C8
:10418000B0FBF1F0B0FBF5F06FF01801484307EB1E
:10419000800106EB0110B0FBF5F000F0F006FCF733
:1041A00071FE00EBC00101EB001061688900B0FBFB
:1041B000F1F0B0FBF5F006EB0016FCF763FE00EB48
:1041C000C00101EB001061688900B0FBF1F7FCF75A
:1041D00059FE3BE0FCF746FE00EBC00101EB00108E
:1041E00061688900B0FBF1F7FCF73CFE00EBC00111
:1041F00001EB00106168B0468900B0FBF1F0B0FB44
:10420000F5F06FF01801484307EB800106EB011051
:10421000B0FBF5F000F0F006FCF724FE00EBC00167
:1042200001EB001061688900B0FBF1F0B0FBF5F024
:1042300006EB0016FCF716FE00EBC00101EB0010C8
:1042400061688900B0FBF1F7FCF70CFE00EBC001E0
:1042500001EB001061688900B0FBF1F0B0FBF5F0F4
:104260006FF01801484307EB800108EB0110B0FB29
:10427000F5F0216800F00F0030448860BDE8F0815F
:104280000038014090F83910212901D002207047F0
:104290008168B1F5805F016A0BD04A1C0262026836
:1042A00009785160C18C491E0904090CC1840ED0E3
:1042B00017E009880268C1F308015160016900290B
:1042C000016A02D0491C0162ECE7891CFBE7016826
:1042D000CA6822F08002CA600068C16841F04001EB
:1042E000C16000207047000010B50948FDF74AFB87
:1042F0000748FDF747FB0648FDF73EFB2028FAD1AB
:10430000012204490248FDF74FFC0028F8D110BDF6
:10431000C00200201200002010B50948FDF732FB52
:104320000748FDF72FFB0648FDF726FB2028FAD1AA
:10433000012204490248FDF737FC0028F8D110BDDE
:10434000000300201300002030B5002308E000BF68
:1043500011F8014B05686D06FCD544605B1CDBB2AF
:104360009342F5D330BD02685206FCD541607047D8
:1043700070B5054600780C460D2828D16978A81C30
:10438000FCF7CCF808BBA07A202100F0F000A07266
:104390001148FCF7E8FBA87868280AD0287A00F0D2
:1043A0009800102809D008280BD0182809D078B117
:1043B0000BE0A07A40F0010006E0A07A40F0020095
:1043C00002E0A07A40F00300A0720020287070BDC7
:1043D000A07A40F00400F7E7000801402DE9F04121
:1043E00007460E4697F84018002007F64205FF29B9
:1043F0003BD0F1688A0738D521F00201F1603178AD
:10440000102912D008DC01290DD002290FD004296F
:1044100023D0082910D124E020290BD040291ED018
:10442000802909D11FE0012002E0012003E00220E1
:10443000002401E0022001240521E97128720322F1
:104440000B4905F10900FBF78FFE2C73002030703B
:104450003846BDE8F04100F00DB80420E8E704203C
:10446000E9E70820E4E70820E5E7BDE8F08100007F
:104470001B56000870B5044600F6420590F8410846
:10448000401CC0B284F841080F2802D9002084F8EB
:10449000410804220949681CFBF766FE94F84108AC
:1044A00068718820A8712846FCF769F801462846FB
:1044B000BDE87040024A00F005B800002A56000826
:1044C000720B00200A4610B501460248FFF73CFF78
:1044D000002010BD003801402DE9F04791F800C0E0
:1044E0004F4C00228B1C257803266D1C0B274FF0A8
:1044F000060A4FF00D09EDB2BCF10D0F1CD2DFE83A
:104500000CF0071D272E3546515B676E78838A00B5
:104510000123AC2806D068280ED1887081F80131BB
:10452000082076E03F4D2D78002D05D088704B7027
:10453000227081F801310B70BDE8F0874A78D054C1
:104540004878401C48702570042DF5D3022060E0A7
:104550004A78D0544878401C48700E70ECE74A788E
:10456000D0544878401C4870042052E0E42803D915
:1045700081F801210A70DFE74D78E8544B785B1C25
:104580004B70227008B1052043E0504641E04E7860
:10459000F0544878401C48702570487A8542CBD347
:1045A0002270F2E74A78D0544878401C4870257051
:1045B000022DC1D307202CE05328D9D14C78E054E8
:1045C0004878401C81F8010081F80121484620E02C
:1045D000B02801D02028CBD1C870092019E028B11B
:1045E0002028C5D808714E700A2012E008714E705C
:1045F00008E04A78541C4C70D05408794A78C01CA2
:10460000824299D30F7097E74A78541C4C70D0546B
:104610000C20087090E74C78651C4D70E054D3E78F
:10462000250000206A000020FEE700002DE9FC5F65
:10463000044679480D460178784F0026022908D1B2
:1046400006703978491CC9B239700A2901D901218B
:1046500001700078DFF8C881DFF8C891042805D11F
:1046600089F8006098F80000FFF7FEF899F800104C
:104670004846062918D00178042918D00178032962
:1046800065D106703E70A178E01DFBF747FF020080
:1046900004F10F004FF6FF7104F2052B00900DD0CE
:1046A000E079AC2855D09CE006703E7099E0067029
:1046B0003E70BDE8FC5F0220FEF72ABC607BC2436F
:1046C00052073FD000F0070002283BD0A078002618
:1046D000093800EBD0704FF00809C0F347078A464D
:1046E0001EE000BF04EB0900C179ADF80410BDF86D
:1046F00004200AEA0221ADF80410007ABDF8041083
:104700000843ADF80400BDF8040000F0F2F9A11967
:10471000761C81F8050209F10200F6B200F0FF09EB
:104720007F1EFFB2DED2A1780098FBF744FD32462F
:1047300059460098FBF718FD31465846FBF73BFDFC
:104740000836A67053E0982C62D04AE0A872BDE803
:10475000FC9F607BC243520743D000F00700022851
:104760003FD0A0780026093800EBD0704FF0080940
:10477000C0F347078A461DE004EB0900C179ADF894
:104780000410BDF804200AEA0221ADF80410007AF2
:10479000BDF804100843ADF80400BDF8040000F0B3
:1047A000A8F9A119761C81F8050209F10200F6B2F8
:1047B00000F0FF097F1EFFB2DED2A1780098FBF760
:1047C000FAFC324659460098FBF7CEFC3146584673
:1047D000FBF7F1FC0836F1B2A170E01DFBF79EFE7D
:1047E00028B198F80000BDE8FC5FFFF73DB8607B9A
:1047F000022100F09804A87A00F00F00A8720A487D
:10480000FCF7B1F9902C9ED1A87A40F010009DE7FA
:10481000A87A40F0200099E72A000020110000202B
:104820002E0000202B0000200008014010B50324BA
:1048300001E0641EE4B2FEF73FFC10B1002CF8D199
:1048400004E01CB1FEF762FF002010BD0449012006
:1048500008710246C1020348FCF789F9012010BD26
:10486000260000200008014070B50D460446FDF703
:104870001FFAA820FDF762FA2046FDF75FFA2846E6
:10488000FDF75CFABDE87040FDF734BA2DE9F04160
:1048900006460D460020FEF763FCDFF838804FF433
:1048A0000047002239464046FCF761F96620FEF7D2
:1048B0000FFD002404E0305DFEF70AFD641CE4B245
:1048C000AC42F8D339464046BDE8F0410122FCF73E
:1048D0004EB900000008014002E008C8121F08C1DC
:1048E000002AFAD170477047002001E001C1121F71
:1048F000002AFBD170470000F0B500235FEA0215E3
:1049000005EB8302C65C8C5C7440C4545418C21816
:10491000667817795B1C7E401671A678177ADBB231
:104920007E401672E478167B74401473042BE7D330
:10493000F0BD0000FFB516460D4600226C46002172
:1049400002EB810301EB8207491CC35CC9B2E3554A
:104950000429F5D3521CD2B2042AF0D300223146E6
:104960002046FFF7C9FF0127684600F019FB68469B
:1049700000F0F8FA684600F0C1FA3A463146684657
:10498000FFF7BAFF7F1CFFB20A2FEDD3684600F095
:1049900007FB684600F0E6FA0A2231466846FFF750
:1049A000ABFF00205FF0000101EB800200EB810310
:1049B000491CA25CC9B2EA540429F5D3401CC0B218
:1049C0000428EFD3FFBD70B5044600F007F80502D8
:1049D0002007000E00F002F8284370BD00F0F00040
:1049E00040F00100010901EB501101EB9011C907E2
:1049F00001D040F00800010901EB501101EBD0118A
:104A0000C90701D040F00400010901EB901101EB4E
:104A1000D011C90701D040F00200704710B50378EB
:104A20000C786340137043784C78634053708378FC
:104A30008C7863409370C078C9784840D07010BDBE
:104A4000F0B50C46054616460978007800F0B4F833
:104A500007466178E87800F0AFF84740A178A87879
:104A600000F0AAF84740E178687800F0A5F84740E0
:104A700037702178687800F09FF8074661782878C9
:104A800000F09AF84740A178E87800F095F84740A0
:104A9000E178A87800F090F8474077702178A878FE
:104AA00000F08AF807466178687800F085F847409A
:104AB000A178287800F080F84740E178E87800F0A5
:104AC0007BF84740B7702178E87800F075F8074622
:104AD0006178A87800F070F84740A178687800F015
:104AE0006BF84740E178287800F066F84740F770A7
:104AF000F0BD70B50446000A00F008F800F0F005BB
:104B0000E0B200F003F845EA101070BD010901EBB6
:104B1000501202EB901302EBD01201EB901103EB59
:104B2000D00302EB900201EBD011DB0701EB500147
:104B30004FEAC27210D04FEAC17132B111B180F0A8
:104B40001000704780F02000704711B180F04000E5
:104B5000704780F0080070474FEAC17132B111B15F
:104B600080F08000704780F0040070470029FCD07E
:104B700080F00200704700000149086070470000A3
:104B80000000002070B54FF0E0240022656909495B
:104B9000A36909684843A1699942FCD002D2A3EBFA
:104BA000010302E0A5EB010633441A440B4682429E
:104BB000F1D370BD0000002010B500231A46CC07C9
:104BC00000D0434010F0800F4FEA40604FEA106081
:104BD00001D080F01B00521C4908D2B2082AEED343
:104BE000184610BDFFB516460D4600226C46002142
:104BF00002EB810301EB8207491CC35CC9B2E35598
:104C00000429F5D3521CD2B2042AF0D30A22314629
:104C10002046FFF771FE0927684600F055F8684600
:104C200000F070F83A4631466846FFF765FE684680
:104C300000F022F87F1E17F0FF07EDD1684600F064
:104C400043F8684600F05EF8002231466846FFF7F8
:104C500053FE00205FF0000101EB800200EB8103B6
:104C6000491CA25CC9B2EA540429F5D3401CC0B265
:104C70000428EFD3FFBD0000FEB5054611A00024B7
:104C8000006801AE02AF00905FF0000004EB80010D
:104C9000695C3154401CC0B20428F7D302AA01A9B0
:104CA0006846FFF7CDFE002004EB8002395C401C13
:104CB000C0B2A9540428F7D3641CE4B2042CE3D393
:104CC000FEBD00000E090D0BF0B50121002300EB25
:104CD00081040FE0E578032202EB81063718521EAB
:104CE00017F8017C875512F0FF02F5D15B1C00F824
:104CF0002150DBB28B42EDD3491CC9B20429E5D364
:104D0000F0BD000070B50B4E0022002101EB8204C3
:104D1000491C055DC9B22B0905F00F0505EB03130E
:104D20000429F35C0355F1D3521CD2B2042AECD30C
:104D300070BD0000F1520008F8B50E462C27002186
:104D400006EB810310F8212006F8212000EB8102F8
:104D5000491C54785C7094789C70D278C9B2DA702F
:104D60000429EDD35FF0040506EB850414F8040C68
:104D70008DF8000014F8030C8DF8010014F8020CF3
:104D80008DF8020014F8010C8DF80300A8070DD16E
:104D9000684600F0DBF8684600F01CF9A808FDF74B
:104DA0001BFF01466A461046FFF738FE14F8100D47
:104DB0009DF80010484006F8250060789DF8011025
:104DC0006D1C48406074A0789DF80210EDB2484018
:104DD000A074E0789DF803104840E074BD42C3D34E
:104DE000F8BD0000FBF7D6FEFEF7F9FE4820FFF7FE
:104DF000C3FEFDF77DFD37483549002401604FF4BF
:104E00001641C0E901140C25C460C0E90445846161
:104E1000C461FCF73FFE00B1FEE72E482E4940304A
:104E200001604FF4E131C0E90114C460C0E90445F8
:104E30008461C461FCF72EFE00B1FEE7FDF7D0FDF2
:104E4000FDF7EEFD23484038FCF73AFC01222349E8
:104E50002048FCF7A9FE21491E480122491C403088
:104E6000FCF7A2FEFEF7BEF9FDF78DFEFDF704FE8E
:104E7000FBF7CCF9FCF7BCFF1948FBF7ABFCFFF7DD
:104E8000D5FC17480078FEF7EFFC164D164E287833
:104E90000028FCD02C70FEF7FBFE14491448FFF7E5
:104EA000C5FB12491348FFF763FA10491248FEF791
:104EB0009BF80E48FFF7B4F8307818B90B490E4844
:104EC000FFF78CFA02210948FDF766FBDFE70000D7
:104ED00000380140C00200200044004012000020C1
:104EE0002E00002010000020720B00206C0D00200E
:104EF00060030020700A00207C0D0020FEB50546EE
:104F000011A00024006801AE02AF00905FF0000025
:104F100004EB8001695C3154401CC0B20428F7D313
:104F200002AA01A96846FFF78BFD002004EB80026E
:104F3000395C401CC0B2A9540428F7D3641CE4B205
:104F4000042CE3D3FEBD000002010103027800211E
:104F500043185B784354491CC9B20329F8D3C27083
:104F600070470000F0B50121002300EB810410E040
:104F700010F821505FF0010202EB8106521C875DA0
:104F80000644D2B206F8017C042AF5D35B1CE57016
:104F9000DBB28B42ECD3491CC9B20429E4D3F0BD87
:104FA00070B50B4E0022002101EB8204491C055D07
:104FB000C9B22B0905F00F0505EB03130429F35CB7
:104FC0000355F1D3521CD2B2042AECD370BD0000B9
:104FD000F151000810B5064B0021425C140964F33E
:104FE0001F129A5C4254491CC9B20429F5D310BD62
:104FF000F15100080000000000000000010203045D
:1050000006070809000000000102030418420027F7
:1050100001280229032A042B052C062D072E082F10
:1050200009300A310B320C330D340E350F36103780
:1050300011381239133A143B153C163D173E193FEF
:105040001A401B411C431D441E451F4620470204B5
:1050500006080A0C0E10121416181A1C1E20222400
:1050600026282A2C2E3000323436383A3C3E40581E
:105070005858585858030507090B0D0F11131517E9
:10508000191B1D1F21232527292B2D2F31333537A0
:1050900001393B3D3F4111000103601112010681BE
:1050A00011200135E011200157001120014A3F1164
:1050B0001201000411000200520011200250840A63
:1050C0001120025403071112020B303011010300AA
:1050D000033B09111103000198F31120030A000694
:1050E000761120034C3100201120033001CDA01196
:1050F000200338111515111203080A0100110204CA
:10510000000305000A11220400087F001D1120047D
:10511000402A0CA42211100500640A000A12112072
:105120000C000300070C350009C9C38000051140BD
:105130000800400AAAAA369D20FE11200C18010082
:1051400008038000202000E8005E11200C24057672
:105150001A05720200000012815E1120054503004D
:10516000DE01001120055B400406782011210C00AF
:10517000A28126AF3FEEC8C7DBF2020811210C0C5A
:10518000070315FC0F00A28126AF3FEE11210C187A
:10519000C8C7DBF20208070315FC0F001123070044
:1051A0002C0E0B040C730311500C0CFFFFFFFFFFC0
:1051B000FFFFFFFFFFFFFF11500C18FFFFFFFFFF76
:1051C000FFFFFFFFFFFFFF11500C24FFFFFFFFFF5A
:1051D000FFFFFFFFFFFFFF11500C30FFFFFFFFFF3E
:1051E000FFFFFFFFFFFFFF1150063CFFFFFFFFFF28
:1051F000FF637C777BF26B6FC53001672BFED7AB0B
:1052000076CA82C97DFA5947F0ADD4A2AF9CA47288
:10521000C0B7FD9326363FF7CC34A5E5F171D83100
:105220001504C723C31896059A071280E2EB27B22C
:105230007509832C1A1B6E5AA0523BD6B329E32F53
:105240008453D100ED20FCB15B6ACBBE394A4C5887
:10525000CFD0EFAAFB434D338545F9027F503C9FE9
:10526000A851A3408F929D38F5BCB6DA2110FFF308
:10527000D2CD0C13EC5F974417C4A77E3D645D1933
:105280007360814FDC222A908846EEB814DE5E0BF4
:10529000DBE0323A0A4906245CC2D3AC629195E461
:1052A00079E7C8376D8DD54EA96C56F4EA657AAEAC
:1052B00008BA78252E1CA6B4C6E8DD741F4BBD8B3A
:1052C0008A703EB5664803F60E613557B986C11D32
:1052D0009EE1F8981169D98E949B1E87E9CE5528D6
:1052E000DF8CA1890DBFE6426841992D0FB054BBF8
:1052F0001652096AD53036A538BF40A39E81F3D730
:10530000FB7CE339829B2FFF87348E4344C4DEE964
:10531000CB547B9432A6C2233DEE4C950B42FAC38C
:105320004E082EA16628D924B2765BA2496D8BD196
:105330002572F8F66486689816D4A45CCC5D65B6D0
:10534000926C704850FDEDB9DA5E154657A78D9DF9
:105350008490D8AB008CBCD30AF7E45805B8B345A9
:1053600006D02C1E8FCA3F0F02C1AFBD0301138AA6
:105370006B3A9111414F67DCEA97F2CFCEF0B4E679
:105380007396AC7422E7AD3585E2F937E81C75DF1A
:105390006E47F11A711D29C5896FB7620EAA18BE32
:1053A0001BFC563E4BC6D279209ADBC0FE78CD5A04
:1053B000F41FDDA8338807C731B11210592780ECDC
:1053C0005F60517FA919B54A0D2DE57A9F93C99C5D
:1053D000EFA0E03B4DAE2AF5B0C8EBBB3C83539940
:1053E00061172B047EBA77D626E169146355210C28
:1053F0007D0000C1814001C0804101C0804100C1E9
:10540000814001C0804100C1814000C1814001C094
:10541000804101C0804100C1814000C1814001C084
:10542000804100C1814001C0804101C0804100C174
:10543000814001C0804100C1814000C1814001C064
:10544000804100C1814001C0804101C0804100C154
:10545000814000C1814001C0804101C0804100C144
:10546000814001C0804100C1814000C1814001C034
:10547000804101C0804100C1814000C1814001C024
:10548000804100C1814001C0804101C0804100C114
:10549000814000C1814001C0804101C0804100C104
:1054A000814001C0804100C1814000C1814001C0F4
:1054B000804100C1814001C0804101C0804100C1E4
:1054C000814001C0804100C1814000C1814001C0D4
:1054D000804101C0804100C1814000C1814001C0C4
:1054E000804100C1814001C0804101C0804100C1B4
:1054F000814000C0C101C30302C2C60607C705C57B
:10550000C404CC0C0DCD0FCFCE0E0ACACB0BC909EB
:1055100008C8D81819D91BDBDA1A1EDEDF1FDD1DFB
:105520001CDC14D4D515D71716D6D21213D311D12B
:10553000D010F03031F133F3F23236F6F737F5357B
:1055400034F43CFCFD3DFF3F3EFEFA3A3BFB39F9AB
:10555000F83828E8E929EB2B2AEAEE2E2FEF2DED7B
:10556000EC2CE42425E527E7E62622E2E323E121EB
:1055700020E0A06061A163A3A26266A6A767A565FB
:1055800064A46CACAD6DAF6F6EAEAA6A6BAB69A96B
:10559000A86878B8B979BB7B7ABABE7E7FBF7DBD7B
:1055A000BC7CB47475B577B7B67672B2B373B171AB
:1055B00070B050909151935352929656579755957B
:1055C00094549C5C5D9D5F9F9E5E5A9A9B5B99592B
:1055D0005898884849894B8B8A4A4E8E8F4F8D4DFB
:1055E0004C8C44848545874746868242438341816B
:1055F0008040000001CC01D8001401F0003C0028DC
:1056000001E401A0006C007801B40050019C018805
:105610000044000000FFFFFF010021000020FFFF09
:10562000FEFF0001FF0000FFFF00FFFFFFFF000083
:105630000000000000000000000000083399A4D919
:10564000B2E8347FBEF714FA7432A357C6AD010135
:105650000101020202020303030304040405050519
:1056600006060607070708080809090A0A0B0B0CB3
:105670000C0D0D0E0E0F0F1010111112121313142A
:105680001415151616171718191A1B1C1D1F0101C2
:1056900001010202020203030303040404050505D9
:1056A00006060607070708080809090A0A0B0B0C73
:1056B0000C0D0D0E0E0F0F101011111212131314EA
:1056C0001415151616171718191A1B1C1D1F010182
:1056D0000101020202020303030404040505050696
:1056E000060707080809090A0A0B0B0C0C0D0E0F18
:1056F000101112131415161718191A1B1C1D1E1F32
:105700002021222D2425262728292A2B2C2D010172
:105710000101020202020303030404040505050655
:10572000060707080809090A0A0B0B0C0C0D0E0FD7
:10573000101112131415161718191A1B1C1D1E1FF1
:105740002021222D2425262728292A2B2C2D000034
:10575000705700080000002098000000D84800089A
:105760000858000898000020381A0000E84800088F
:105770000000000000000000000000000000000029
:105780000000000001000000100000000000000008
:1057900000A24A0400000000000000000000000019
:1057A00000001112040D000106A2111204110100E3
:1057B00002221112042100010682111204250100A7
:1057C000020A132000000000000011500C0010031A
:1057D000040404FFFFFFFFFFFFFF000002000000C2
:1057E00000000000000000000000000000000000B9
:1057F00000000000010000010001000001000000A5
:085800000000000000000000A0
:04000005080000ED02
:00000001FF
